{
  "address": "0x0f148e9f86b3376D1652C5f819D691159Ba2E2F7",
  "abi": [
    {
      "inputs": [
        {
          "internalType": "address",
          "name": "_verifier",
          "type": "address"
        },
        {
          "internalType": "address",
          "name": "_treasury",
          "type": "address"
        }
      ],
      "stateMutability": "nonpayable",
      "type": "constructor"
    },
    {
      "inputs": [],
      "name": "AccessControlBadConfirmation",
      "type": "error"
    },
    {
      "inputs": [
        {
          "internalType": "address",
          "name": "account",
          "type": "address"
        },
        {
          "internalType": "bytes32",
          "name": "neededRole",
          "type": "bytes32"
        }
      ],
      "name": "AccessControlUnauthorizedAccount",
      "type": "error"
    },
    {
      "inputs": [],
      "name": "EnforcedPause",
      "type": "error"
    },
    {
      "inputs": [],
      "name": "ExpectedPause",
      "type": "error"
    },
    {
      "inputs": [],
      "name": "ReentrancyGuardReentrantCall",
      "type": "error"
    },
    {
      "anonymous": false,
      "inputs": [
        {
          "indexed": true,
          "internalType": "uint256",
          "name": "tokenId",
          "type": "uint256"
        },
        {
          "indexed": true,
          "internalType": "bytes32",
          "name": "conversationHash",
          "type": "bytes32"
        },
        {
          "indexed": false,
          "internalType": "enum IPersonalityEvolution.ContextType",
          "name": "contextType",
          "type": "uint8"
        },
        {
          "indexed": false,
          "internalType": "uint256",
          "name": "conversationCount",
          "type": "uint256"
        }
      ],
      "name": "AgentConversation",
      "type": "event"
    },
    {
      "anonymous": false,
      "inputs": [
        {
          "indexed": true,
          "internalType": "uint256",
          "name": "tokenId",
          "type": "uint256"
        },
        {
          "indexed": false,
          "internalType": "uint256",
          "name": "oldLevel",
          "type": "uint256"
        },
        {
          "indexed": false,
          "internalType": "uint256",
          "name": "newLevel",
          "type": "uint256"
        }
      ],
      "name": "AgentEvolved",
      "type": "event"
    },
    {
      "anonymous": false,
      "inputs": [
        {
          "indexed": true,
          "internalType": "uint256",
          "name": "_tokenId",
          "type": "uint256"
        },
        {
          "indexed": true,
          "internalType": "address",
          "name": "_user",
          "type": "address"
        }
      ],
      "name": "AuthorizedUsage",
      "type": "event"
    },
    {
      "anonymous": false,
      "inputs": [
        {
          "indexed": true,
          "internalType": "uint256",
          "name": "_tokenId",
          "type": "uint256"
        },
        {
          "indexed": true,
          "internalType": "uint256",
          "name": "_newTokenId",
          "type": "uint256"
        },
        {
          "indexed": false,
          "internalType": "address",
          "name": "_from",
          "type": "address"
        },
        {
          "indexed": false,
          "internalType": "address",
          "name": "_to",
          "type": "address"
        }
      ],
      "name": "Cloned",
      "type": "event"
    },
    {
      "anonymous": false,
      "inputs": [
        {
          "indexed": true,
          "internalType": "uint256",
          "name": "tokenId",
          "type": "uint256"
        },
        {
          "indexed": false,
          "internalType": "bytes32",
          "name": "dreamHash",
          "type": "bytes32"
        },
        {
          "indexed": false,
          "internalType": "uint256",
          "name": "intelligenceLevel",
          "type": "uint256"
        }
      ],
      "name": "DreamProcessed",
      "type": "event"
    },
    {
      "anonymous": false,
      "inputs": [
        {
          "indexed": true,
          "internalType": "uint256",
          "name": "tokenId",
          "type": "uint256"
        },
        {
          "indexed": true,
          "internalType": "address",
          "name": "payer",
          "type": "address"
        },
        {
          "indexed": false,
          "internalType": "uint256",
          "name": "amount",
          "type": "uint256"
        }
      ],
      "name": "FeePaid",
      "type": "event"
    },
    {
      "anonymous": false,
      "inputs": [
        {
          "indexed": true,
          "internalType": "uint256",
          "name": "tokenId",
          "type": "uint256"
        },
        {
          "indexed": false,
          "internalType": "string",
          "name": "milestone",
          "type": "string"
        },
        {
          "indexed": false,
          "internalType": "uint8",
          "name": "traitValue",
          "type": "uint8"
        }
      ],
      "name": "MilestoneUnlocked",
      "type": "event"
    },
    {
      "anonymous": false,
      "inputs": [
        {
          "indexed": true,
          "internalType": "uint256",
          "name": "_tokenId",
          "type": "uint256"
        },
        {
          "indexed": true,
          "internalType": "address",
          "name": "_creator",
          "type": "address"
        },
        {
          "indexed": true,
          "internalType": "address",
          "name": "_owner",
          "type": "address"
        },
        {
          "indexed": false,
          "internalType": "bytes32[]",
          "name": "_dataHashes",
          "type": "bytes32[]"
        },
        {
          "indexed": false,
          "internalType": "string[]",
          "name": "_dataDescriptions",
          "type": "string[]"
        }
      ],
      "name": "Minted",
      "type": "event"
    },
    {
      "anonymous": false,
      "inputs": [
        {
          "indexed": false,
          "internalType": "address",
          "name": "account",
          "type": "address"
        }
      ],
      "name": "Paused",
      "type": "event"
    },
    {
      "anonymous": false,
      "inputs": [
        {
          "indexed": true,
          "internalType": "uint256",
          "name": "tokenId",
          "type": "uint256"
        },
        {
          "components": [
            {
              "internalType": "uint8",
              "name": "creativity",
              "type": "uint8"
            },
            {
              "internalType": "uint8",
              "name": "analytical",
              "type": "uint8"
            },
            {
              "internalType": "uint8",
              "name": "empathy",
              "type": "uint8"
            },
            {
              "internalType": "uint8",
              "name": "intuition",
              "type": "uint8"
            },
            {
              "internalType": "uint8",
              "name": "resilience",
              "type": "uint8"
            },
            {
              "internalType": "uint8",
              "name": "curiosity",
              "type": "uint8"
            },
            {
              "internalType": "string",
              "name": "dominantMood",
              "type": "string"
            },
            {
              "internalType": "uint256",
              "name": "lastDreamDate",
              "type": "uint256"
            }
          ],
          "indexed": false,
          "internalType": "struct IPersonalityEvolution.PersonalityTraits",
          "name": "newPersonality",
          "type": "tuple"
        },
        {
          "indexed": false,
          "internalType": "uint256",
          "name": "dreamsSoFar",
          "type": "uint256"
        }
      ],
      "name": "PersonalityActivated",
      "type": "event"
    },
    {
      "anonymous": false,
      "inputs": [
        {
          "indexed": true,
          "internalType": "uint256",
          "name": "tokenId",
          "type": "uint256"
        },
        {
          "indexed": true,
          "internalType": "bytes32",
          "name": "dreamHash",
          "type": "bytes32"
        },
        {
          "components": [
            {
              "internalType": "uint8",
              "name": "creativity",
              "type": "uint8"
            },
            {
              "internalType": "uint8",
              "name": "analytical",
              "type": "uint8"
            },
            {
              "internalType": "uint8",
              "name": "empathy",
              "type": "uint8"
            },
            {
              "internalType": "uint8",
              "name": "intuition",
              "type": "uint8"
            },
            {
              "internalType": "uint8",
              "name": "resilience",
              "type": "uint8"
            },
            {
              "internalType": "uint8",
              "name": "curiosity",
              "type": "uint8"
            },
            {
              "internalType": "string",
              "name": "dominantMood",
              "type": "string"
            },
            {
              "internalType": "uint256",
              "name": "lastDreamDate",
              "type": "uint256"
            }
          ],
          "indexed": false,
          "internalType": "struct IPersonalityEvolution.PersonalityTraits",
          "name": "newPersonality",
          "type": "tuple"
        },
        {
          "components": [
            {
              "internalType": "int8",
              "name": "creativityChange",
              "type": "int8"
            },
            {
              "internalType": "int8",
              "name": "analyticalChange",
              "type": "int8"
            },
            {
              "internalType": "int8",
              "name": "empathyChange",
              "type": "int8"
            },
            {
              "internalType": "int8",
              "name": "intuitionChange",
              "type": "int8"
            },
            {
              "internalType": "int8",
              "name": "resilienceChange",
              "type": "int8"
            },
            {
              "internalType": "int8",
              "name": "curiosityChange",
              "type": "int8"
            },
            {
              "internalType": "string",
              "name": "moodShift",
              "type": "string"
            },
            {
              "internalType": "uint8",
              "name": "evolutionWeight",
              "type": "uint8"
            }
          ],
          "indexed": false,
          "internalType": "struct IPersonalityEvolution.PersonalityImpact",
          "name": "impact",
          "type": "tuple"
        }
      ],
      "name": "PersonalityEvolved",
      "type": "event"
    },
    {
      "anonymous": false,
      "inputs": [
        {
          "indexed": true,
          "internalType": "uint256",
          "name": "tokenId",
          "type": "uint256"
        },
        {
          "indexed": false,
          "internalType": "string",
          "name": "milestone",
          "type": "string"
        },
        {
          "indexed": false,
          "internalType": "uint8",
          "name": "traitValue",
          "type": "uint8"
        },
        {
          "indexed": false,
          "internalType": "string",
          "name": "traitName",
          "type": "string"
        }
      ],
      "name": "PersonalityMilestone",
      "type": "event"
    },
    {
      "anonymous": false,
      "inputs": [
        {
          "indexed": true,
          "internalType": "address",
          "name": "_to",
          "type": "address"
        },
        {
          "indexed": true,
          "internalType": "uint256",
          "name": "_tokenId",
          "type": "uint256"
        },
        {
          "indexed": false,
          "internalType": "bytes16[]",
          "name": "_sealedKeys",
          "type": "bytes16[]"
        }
      ],
      "name": "PublishedSealedKey",
      "type": "event"
    },
    {
      "anonymous": false,
      "inputs": [
        {
          "indexed": true,
          "internalType": "uint256",
          "name": "tokenId",
          "type": "uint256"
        },
        {
          "indexed": false,
          "internalType": "string",
          "name": "newStyle",
          "type": "string"
        },
        {
          "indexed": false,
          "internalType": "string[]",
          "name": "dominantTraits",
          "type": "string[]"
        }
      ],
      "name": "ResponseStyleEvolved",
      "type": "event"
    },
    {
      "anonymous": false,
      "inputs": [
        {
          "indexed": true,
          "internalType": "uint256",
          "name": "tokenId",
          "type": "uint256"
        },
        {
          "indexed": false,
          "internalType": "string",
          "name": "oldStyle",
          "type": "string"
        },
        {
          "indexed": false,
          "internalType": "string",
          "name": "newStyle",
          "type": "string"
        }
      ],
      "name": "ResponseStyleUpdated",
      "type": "event"
    },
    {
      "anonymous": false,
      "inputs": [
        {
          "indexed": true,
          "internalType": "bytes32",
          "name": "role",
          "type": "bytes32"
        },
        {
          "indexed": true,
          "internalType": "bytes32",
          "name": "previousAdminRole",
          "type": "bytes32"
        },
        {
          "indexed": true,
          "internalType": "bytes32",
          "name": "newAdminRole",
          "type": "bytes32"
        }
      ],
      "name": "RoleAdminChanged",
      "type": "event"
    },
    {
      "anonymous": false,
      "inputs": [
        {
          "indexed": true,
          "internalType": "bytes32",
          "name": "role",
          "type": "bytes32"
        },
        {
          "indexed": true,
          "internalType": "address",
          "name": "account",
          "type": "address"
        },
        {
          "indexed": true,
          "internalType": "address",
          "name": "sender",
          "type": "address"
        }
      ],
      "name": "RoleGranted",
      "type": "event"
    },
    {
      "anonymous": false,
      "inputs": [
        {
          "indexed": true,
          "internalType": "bytes32",
          "name": "role",
          "type": "bytes32"
        },
        {
          "indexed": true,
          "internalType": "address",
          "name": "account",
          "type": "address"
        },
        {
          "indexed": true,
          "internalType": "address",
          "name": "sender",
          "type": "address"
        }
      ],
      "name": "RoleRevoked",
      "type": "event"
    },
    {
      "anonymous": false,
      "inputs": [
        {
          "indexed": false,
          "internalType": "uint256",
          "name": "_tokenId",
          "type": "uint256"
        },
        {
          "indexed": true,
          "internalType": "address",
          "name": "_from",
          "type": "address"
        },
        {
          "indexed": true,
          "internalType": "address",
          "name": "_to",
          "type": "address"
        }
      ],
      "name": "Transferred",
      "type": "event"
    },
    {
      "anonymous": false,
      "inputs": [
        {
          "indexed": false,
          "internalType": "address",
          "name": "account",
          "type": "address"
        }
      ],
      "name": "Unpaused",
      "type": "event"
    },
    {
      "inputs": [],
      "name": "ADMIN_ROLE",
      "outputs": [
        {
          "internalType": "bytes32",
          "name": "",
          "type": "bytes32"
        }
      ],
      "stateMutability": "view",
      "type": "function"
    },
    {
      "inputs": [],
      "name": "DEFAULT_ADMIN_ROLE",
      "outputs": [
        {
          "internalType": "bytes32",
          "name": "",
          "type": "bytes32"
        }
      ],
      "stateMutability": "view",
      "type": "function"
    },
    {
      "inputs": [],
      "name": "MAX_AGENTS",
      "outputs": [
        {
          "internalType": "uint256",
          "name": "",
          "type": "uint256"
        }
      ],
      "stateMutability": "view",
      "type": "function"
    },
    {
      "inputs": [],
      "name": "MINTING_FEE",
      "outputs": [
        {
          "internalType": "uint256",
          "name": "",
          "type": "uint256"
        }
      ],
      "stateMutability": "view",
      "type": "function"
    },
    {
      "inputs": [],
      "name": "PAUSER_ROLE",
      "outputs": [
        {
          "internalType": "bytes32",
          "name": "",
          "type": "bytes32"
        }
      ],
      "stateMutability": "view",
      "type": "function"
    },
    {
      "inputs": [],
      "name": "VERIFIER_ROLE",
      "outputs": [
        {
          "internalType": "bytes32",
          "name": "",
          "type": "bytes32"
        }
      ],
      "stateMutability": "view",
      "type": "function"
    },
    {
      "inputs": [
        {
          "internalType": "uint256",
          "name": "",
          "type": "uint256"
        }
      ],
      "name": "agentPersonalities",
      "outputs": [
        {
          "internalType": "uint8",
          "name": "creativity",
          "type": "uint8"
        },
        {
          "internalType": "uint8",
          "name": "analytical",
          "type": "uint8"
        },
        {
          "internalType": "uint8",
          "name": "empathy",
          "type": "uint8"
        },
        {
          "internalType": "uint8",
          "name": "intuition",
          "type": "uint8"
        },
        {
          "internalType": "uint8",
          "name": "resilience",
          "type": "uint8"
        },
        {
          "internalType": "uint8",
          "name": "curiosity",
          "type": "uint8"
        },
        {
          "internalType": "string",
          "name": "dominantMood",
          "type": "string"
        },
        {
          "internalType": "uint256",
          "name": "lastDreamDate",
          "type": "uint256"
        }
      ],
      "stateMutability": "view",
      "type": "function"
    },
    {
      "inputs": [
        {
          "internalType": "uint256",
          "name": "",
          "type": "uint256"
        }
      ],
      "name": "agents",
      "outputs": [
        {
          "internalType": "address",
          "name": "owner",
          "type": "address"
        },
        {
          "internalType": "string",
          "name": "agentName",
          "type": "string"
        },
        {
          "internalType": "uint256",
          "name": "createdAt",
          "type": "uint256"
        },
        {
          "internalType": "uint256",
          "name": "lastUpdated",
          "type": "uint256"
        },
        {
          "internalType": "uint256",
          "name": "intelligenceLevel",
          "type": "uint256"
        },
        {
          "internalType": "uint256",
          "name": "dreamCount",
          "type": "uint256"
        },
        {
          "internalType": "uint256",
          "name": "conversationCount",
          "type": "uint256"
        },
        {
          "internalType": "bool",
          "name": "personalityInitialized",
          "type": "bool"
        },
        {
          "internalType": "uint256",
          "name": "totalEvolutions",
          "type": "uint256"
        },
        {
          "internalType": "uint256",
          "name": "lastEvolutionDate",
          "type": "uint256"
        }
      ],
      "stateMutability": "view",
      "type": "function"
    },
    {
      "inputs": [
        {
          "internalType": "uint256",
          "name": "tokenId",
          "type": "uint256"
        },
        {
          "internalType": "address",
          "name": "user",
          "type": "address"
        }
      ],
      "name": "authorizeUsage",
      "outputs": [],
      "stateMutability": "nonpayable",
      "type": "function"
    },
    {
      "inputs": [
        {
          "internalType": "uint256",
          "name": "tokenId",
          "type": "uint256"
        }
      ],
      "name": "authorizedUsersOf",
      "outputs": [
        {
          "internalType": "address[]",
          "name": "",
          "type": "address[]"
        }
      ],
      "stateMutability": "view",
      "type": "function"
    },
    {
      "inputs": [
        {
          "internalType": "address",
          "name": "owner",
          "type": "address"
        }
      ],
      "name": "balanceOf",
      "outputs": [
        {
          "internalType": "uint256",
          "name": "",
          "type": "uint256"
        }
      ],
      "stateMutability": "view",
      "type": "function"
    },
    {
      "inputs": [
        {
          "internalType": "uint256",
          "name": "tokenId",
          "type": "uint256"
        }
      ],
      "name": "canProcessDreamToday",
      "outputs": [
        {
          "internalType": "bool",
          "name": "canProcess",
          "type": "bool"
        }
      ],
      "stateMutability": "view",
      "type": "function"
    },
    {
      "inputs": [
        {
          "internalType": "uint256",
          "name": "",
          "type": "uint256"
        },
        {
          "internalType": "uint256",
          "name": "",
          "type": "uint256"
        }
      ],
      "name": "conversationHashes",
      "outputs": [
        {
          "internalType": "bytes32",
          "name": "",
          "type": "bytes32"
        }
      ],
      "stateMutability": "view",
      "type": "function"
    },
    {
      "inputs": [
        {
          "internalType": "uint256",
          "name": "",
          "type": "uint256"
        },
        {
          "internalType": "uint256",
          "name": "",
          "type": "uint256"
        }
      ],
      "name": "dreamAnalysisHashes",
      "outputs": [
        {
          "internalType": "bytes32",
          "name": "",
          "type": "bytes32"
        }
      ],
      "stateMutability": "view",
      "type": "function"
    },
    {
      "inputs": [
        {
          "internalType": "uint256",
          "name": "",
          "type": "uint256"
        },
        {
          "internalType": "uint256",
          "name": "",
          "type": "uint256"
        }
      ],
      "name": "dreamHashes",
      "outputs": [
        {
          "internalType": "bytes32",
          "name": "",
          "type": "bytes32"
        }
      ],
      "stateMutability": "view",
      "type": "function"
    },
    {
      "inputs": [
        {
          "internalType": "uint256",
          "name": "tokenId",
          "type": "uint256"
        },
        {
          "internalType": "address",
          "name": "user",
          "type": "address"
        }
      ],
      "name": "emergencyAuthorizeUser",
      "outputs": [],
      "stateMutability": "nonpayable",
      "type": "function"
    },
    {
      "inputs": [
        {
          "internalType": "uint256",
          "name": "tokenId",
          "type": "uint256"
        },
        {
          "internalType": "address",
          "name": "to",
          "type": "address"
        }
      ],
      "name": "emergencyTransfer",
      "outputs": [],
      "stateMutability": "nonpayable",
      "type": "function"
    },
    {
      "inputs": [
        {
          "internalType": "uint256",
          "name": "tokenId",
          "type": "uint256"
        }
      ],
      "name": "getAgentInfo",
      "outputs": [
        {
          "components": [
            {
              "internalType": "uint256",
              "name": "tokenId",
              "type": "uint256"
            },
            {
              "internalType": "address",
              "name": "owner",
              "type": "address"
            },
            {
              "internalType": "string",
              "name": "agentName",
              "type": "string"
            },
            {
              "internalType": "uint256",
              "name": "createdAt",
              "type": "uint256"
            },
            {
              "internalType": "uint256",
              "name": "lastUpdated",
              "type": "uint256"
            },
            {
              "internalType": "uint256",
              "name": "intelligenceLevel",
              "type": "uint256"
            },
            {
              "internalType": "uint256",
              "name": "dreamCount",
              "type": "uint256"
            },
            {
              "internalType": "uint256",
              "name": "conversationCount",
              "type": "uint256"
            },
            {
              "internalType": "bool",
              "name": "personalityInitialized",
              "type": "bool"
            },
            {
              "internalType": "uint256",
              "name": "totalEvolutions",
              "type": "uint256"
            },
            {
              "internalType": "uint256",
              "name": "lastEvolutionDate",
              "type": "uint256"
            },
            {
              "components": [
                {
                  "internalType": "uint8",
                  "name": "creativity",
                  "type": "uint8"
                },
                {
                  "internalType": "uint8",
                  "name": "analytical",
                  "type": "uint8"
                },
                {
                  "internalType": "uint8",
                  "name": "empathy",
                  "type": "uint8"
                },
                {
                  "internalType": "uint8",
                  "name": "intuition",
                  "type": "uint8"
                },
                {
                  "internalType": "uint8",
                  "name": "resilience",
                  "type": "uint8"
                },
                {
                  "internalType": "uint8",
                  "name": "curiosity",
                  "type": "uint8"
                },
                {
                  "internalType": "string",
                  "name": "dominantMood",
                  "type": "string"
                },
                {
                  "internalType": "uint256",
                  "name": "lastDreamDate",
                  "type": "uint256"
                }
              ],
              "internalType": "struct IPersonalityEvolution.PersonalityTraits",
              "name": "personality",
              "type": "tuple"
            }
          ],
          "internalType": "struct DreamscapeAgent.AgentInfo",
          "name": "info",
          "type": "tuple"
        }
      ],
      "stateMutability": "view",
      "type": "function"
    },
    {
      "inputs": [
        {
          "internalType": "uint256",
          "name": "tokenId",
          "type": "uint256"
        }
      ],
      "name": "getAgentName",
      "outputs": [
        {
          "internalType": "string",
          "name": "",
          "type": "string"
        }
      ],
      "stateMutability": "view",
      "type": "function"
    },
    {
      "inputs": [
        {
          "internalType": "uint256",
          "name": "tokenId",
          "type": "uint256"
        },
        {
          "internalType": "uint256",
          "name": "limit",
          "type": "uint256"
        }
      ],
      "name": "getConversationHistory",
      "outputs": [
        {
          "internalType": "bytes32[]",
          "name": "conversationHashesArray",
          "type": "bytes32[]"
        }
      ],
      "stateMutability": "view",
      "type": "function"
    },
    {
      "inputs": [
        {
          "internalType": "uint256",
          "name": "tokenId",
          "type": "uint256"
        }
      ],
      "name": "getCreationTime",
      "outputs": [
        {
          "internalType": "uint256",
          "name": "",
          "type": "uint256"
        }
      ],
      "stateMutability": "view",
      "type": "function"
    },
    {
      "inputs": [
        {
          "internalType": "uint256",
          "name": "tokenId",
          "type": "uint256"
        },
        {
          "internalType": "uint256",
          "name": "limit",
          "type": "uint256"
        }
      ],
      "name": "getDreamHistory",
      "outputs": [
        {
          "internalType": "bytes32[]",
          "name": "dreamHashesArray",
          "type": "bytes32[]"
        }
      ],
      "stateMutability": "view",
      "type": "function"
    },
    {
      "inputs": [
        {
          "internalType": "uint256",
          "name": "tokenId",
          "type": "uint256"
        }
      ],
      "name": "getEvolutionStats",
      "outputs": [
        {
          "internalType": "uint256",
          "name": "totalEvolutions",
          "type": "uint256"
        },
        {
          "internalType": "uint256",
          "name": "evolutionRate",
          "type": "uint256"
        },
        {
          "internalType": "uint256",
          "name": "lastEvolution",
          "type": "uint256"
        }
      ],
      "stateMutability": "view",
      "type": "function"
    },
    {
      "inputs": [
        {
          "internalType": "address",
          "name": "owner",
          "type": "address"
        }
      ],
      "name": "getOwnerAgent",
      "outputs": [
        {
          "components": [
            {
              "internalType": "uint256",
              "name": "tokenId",
              "type": "uint256"
            },
            {
              "internalType": "address",
              "name": "owner",
              "type": "address"
            },
            {
              "internalType": "string",
              "name": "agentName",
              "type": "string"
            },
            {
              "internalType": "uint256",
              "name": "createdAt",
              "type": "uint256"
            },
            {
              "internalType": "uint256",
              "name": "lastUpdated",
              "type": "uint256"
            },
            {
              "internalType": "uint256",
              "name": "intelligenceLevel",
              "type": "uint256"
            },
            {
              "internalType": "uint256",
              "name": "dreamCount",
              "type": "uint256"
            },
            {
              "internalType": "uint256",
              "name": "conversationCount",
              "type": "uint256"
            },
            {
              "internalType": "bool",
              "name": "personalityInitialized",
              "type": "bool"
            },
            {
              "internalType": "uint256",
              "name": "totalEvolutions",
              "type": "uint256"
            },
            {
              "internalType": "uint256",
              "name": "lastEvolutionDate",
              "type": "uint256"
            },
            {
              "components": [
                {
                  "internalType": "uint8",
                  "name": "creativity",
                  "type": "uint8"
                },
                {
                  "internalType": "uint8",
                  "name": "analytical",
                  "type": "uint8"
                },
                {
                  "internalType": "uint8",
                  "name": "empathy",
                  "type": "uint8"
                },
                {
                  "internalType": "uint8",
                  "name": "intuition",
                  "type": "uint8"
                },
                {
                  "internalType": "uint8",
                  "name": "resilience",
                  "type": "uint8"
                },
                {
                  "internalType": "uint8",
                  "name": "curiosity",
                  "type": "uint8"
                },
                {
                  "internalType": "string",
                  "name": "dominantMood",
                  "type": "string"
                },
                {
                  "internalType": "uint256",
                  "name": "lastDreamDate",
                  "type": "uint256"
                }
              ],
              "internalType": "struct IPersonalityEvolution.PersonalityTraits",
              "name": "personality",
              "type": "tuple"
            }
          ],
          "internalType": "struct DreamscapeAgent.AgentInfo",
          "name": "info",
          "type": "tuple"
        }
      ],
      "stateMutability": "view",
      "type": "function"
    },
    {
      "inputs": [
        {
          "internalType": "address",
          "name": "owner",
          "type": "address"
        }
      ],
      "name": "getOwnerTokenId",
      "outputs": [
        {
          "internalType": "uint256",
          "name": "",
          "type": "uint256"
        }
      ],
      "stateMutability": "view",
      "type": "function"
    },
    {
      "inputs": [
        {
          "internalType": "uint256",
          "name": "tokenId",
          "type": "uint256"
        }
      ],
      "name": "getPersonalityTraits",
      "outputs": [
        {
          "components": [
            {
              "internalType": "uint8",
              "name": "creativity",
              "type": "uint8"
            },
            {
              "internalType": "uint8",
              "name": "analytical",
              "type": "uint8"
            },
            {
              "internalType": "uint8",
              "name": "empathy",
              "type": "uint8"
            },
            {
              "internalType": "uint8",
              "name": "intuition",
              "type": "uint8"
            },
            {
              "internalType": "uint8",
              "name": "resilience",
              "type": "uint8"
            },
            {
              "internalType": "uint8",
              "name": "curiosity",
              "type": "uint8"
            },
            {
              "internalType": "string",
              "name": "dominantMood",
              "type": "string"
            },
            {
              "internalType": "uint256",
              "name": "lastDreamDate",
              "type": "uint256"
            }
          ],
          "internalType": "struct IPersonalityEvolution.PersonalityTraits",
          "name": "traits",
          "type": "tuple"
        }
      ],
      "stateMutability": "view",
      "type": "function"
    },
    {
      "inputs": [
        {
          "internalType": "bytes32",
          "name": "role",
          "type": "bytes32"
        }
      ],
      "name": "getRoleAdmin",
      "outputs": [
        {
          "internalType": "bytes32",
          "name": "",
          "type": "bytes32"
        }
      ],
      "stateMutability": "view",
      "type": "function"
    },
    {
      "inputs": [],
      "name": "getUserAgent",
      "outputs": [
        {
          "components": [
            {
              "internalType": "uint256",
              "name": "tokenId",
              "type": "uint256"
            },
            {
              "internalType": "address",
              "name": "owner",
              "type": "address"
            },
            {
              "internalType": "string",
              "name": "agentName",
              "type": "string"
            },
            {
              "internalType": "uint256",
              "name": "createdAt",
              "type": "uint256"
            },
            {
              "internalType": "uint256",
              "name": "lastUpdated",
              "type": "uint256"
            },
            {
              "internalType": "uint256",
              "name": "intelligenceLevel",
              "type": "uint256"
            },
            {
              "internalType": "uint256",
              "name": "dreamCount",
              "type": "uint256"
            },
            {
              "internalType": "uint256",
              "name": "conversationCount",
              "type": "uint256"
            },
            {
              "internalType": "bool",
              "name": "personalityInitialized",
              "type": "bool"
            },
            {
              "internalType": "uint256",
              "name": "totalEvolutions",
              "type": "uint256"
            },
            {
              "internalType": "uint256",
              "name": "lastEvolutionDate",
              "type": "uint256"
            },
            {
              "components": [
                {
                  "internalType": "uint8",
                  "name": "creativity",
                  "type": "uint8"
                },
                {
                  "internalType": "uint8",
                  "name": "analytical",
                  "type": "uint8"
                },
                {
                  "internalType": "uint8",
                  "name": "empathy",
                  "type": "uint8"
                },
                {
                  "internalType": "uint8",
                  "name": "intuition",
                  "type": "uint8"
                },
                {
                  "internalType": "uint8",
                  "name": "resilience",
                  "type": "uint8"
                },
                {
                  "internalType": "uint8",
                  "name": "curiosity",
                  "type": "uint8"
                },
                {
                  "internalType": "string",
                  "name": "dominantMood",
                  "type": "string"
                },
                {
                  "internalType": "uint256",
                  "name": "lastDreamDate",
                  "type": "uint256"
                }
              ],
              "internalType": "struct IPersonalityEvolution.PersonalityTraits",
              "name": "personality",
              "type": "tuple"
            }
          ],
          "internalType": "struct DreamscapeAgent.AgentInfo",
          "name": "info",
          "type": "tuple"
        }
      ],
      "stateMutability": "view",
      "type": "function"
    },
    {
      "inputs": [],
      "name": "getUserTokenId",
      "outputs": [
        {
          "internalType": "uint256",
          "name": "",
          "type": "uint256"
        }
      ],
      "stateMutability": "view",
      "type": "function"
    },
    {
      "inputs": [
        {
          "internalType": "bytes32",
          "name": "role",
          "type": "bytes32"
        },
        {
          "internalType": "address",
          "name": "account",
          "type": "address"
        }
      ],
      "name": "grantRole",
      "outputs": [],
      "stateMutability": "nonpayable",
      "type": "function"
    },
    {
      "inputs": [
        {
          "internalType": "uint256",
          "name": "tokenId",
          "type": "uint256"
        },
        {
          "internalType": "string",
          "name": "milestone",
          "type": "string"
        }
      ],
      "name": "hasMilestone",
      "outputs": [
        {
          "internalType": "bool",
          "name": "achieved",
          "type": "bool"
        },
        {
          "internalType": "uint256",
          "name": "achievedAt",
          "type": "uint256"
        }
      ],
      "stateMutability": "view",
      "type": "function"
    },
    {
      "inputs": [
        {
          "internalType": "bytes32",
          "name": "role",
          "type": "bytes32"
        },
        {
          "internalType": "address",
          "name": "account",
          "type": "address"
        }
      ],
      "name": "hasRole",
      "outputs": [
        {
          "internalType": "bool",
          "name": "",
          "type": "bool"
        }
      ],
      "stateMutability": "view",
      "type": "function"
    },
    {
      "inputs": [
        {
          "internalType": "uint256",
          "name": "",
          "type": "uint256"
        },
        {
          "internalType": "string",
          "name": "",
          "type": "string"
        }
      ],
      "name": "milestones",
      "outputs": [
        {
          "internalType": "bool",
          "name": "achieved",
          "type": "bool"
        },
        {
          "internalType": "uint256",
          "name": "achievedAt",
          "type": "uint256"
        },
        {
          "internalType": "uint8",
          "name": "traitValue",
          "type": "uint8"
        }
      ],
      "stateMutability": "view",
      "type": "function"
    },
    {
      "inputs": [
        {
          "internalType": "bytes[]",
          "name": "proofs",
          "type": "bytes[]"
        },
        {
          "internalType": "string[]",
          "name": "descriptions",
          "type": "string[]"
        },
        {
          "internalType": "string",
          "name": "agentName",
          "type": "string"
        },
        {
          "internalType": "address",
          "name": "to",
          "type": "address"
        }
      ],
      "name": "mintAgent",
      "outputs": [
        {
          "internalType": "uint256",
          "name": "tokenId",
          "type": "uint256"
        }
      ],
      "stateMutability": "payable",
      "type": "function"
    },
    {
      "inputs": [],
      "name": "name",
      "outputs": [
        {
          "internalType": "string",
          "name": "",
          "type": "string"
        }
      ],
      "stateMutability": "view",
      "type": "function"
    },
    {
      "inputs": [
        {
          "internalType": "string",
          "name": "",
          "type": "string"
        }
      ],
      "name": "nameExists",
      "outputs": [
        {
          "internalType": "bool",
          "name": "",
          "type": "bool"
        }
      ],
      "stateMutability": "view",
      "type": "function"
    },
    {
      "inputs": [],
      "name": "nextTokenId",
      "outputs": [
        {
          "internalType": "uint256",
          "name": "",
          "type": "uint256"
        }
      ],
      "stateMutability": "view",
      "type": "function"
    },
    {
      "inputs": [
        {
          "internalType": "uint256",
          "name": "tokenId",
          "type": "uint256"
        }
      ],
      "name": "ownerOf",
      "outputs": [
        {
          "internalType": "address",
          "name": "",
          "type": "address"
        }
      ],
      "stateMutability": "view",
      "type": "function"
    },
    {
      "inputs": [
        {
          "internalType": "address",
          "name": "",
          "type": "address"
        }
      ],
      "name": "ownerToTokenId",
      "outputs": [
        {
          "internalType": "uint256",
          "name": "",
          "type": "uint256"
        }
      ],
      "stateMutability": "view",
      "type": "function"
    },
    {
      "inputs": [],
      "name": "pause",
      "outputs": [],
      "stateMutability": "nonpayable",
      "type": "function"
    },
    {
      "inputs": [],
      "name": "paused",
      "outputs": [
        {
          "internalType": "bool",
          "name": "",
          "type": "bool"
        }
      ],
      "stateMutability": "view",
      "type": "function"
    },
    {
      "inputs": [
        {
          "internalType": "uint256",
          "name": "tokenId",
          "type": "uint256"
        },
        {
          "internalType": "bytes32",
          "name": "dreamHash",
          "type": "bytes32"
        },
        {
          "internalType": "bytes32",
          "name": "dreamAnalysisHash",
          "type": "bytes32"
        },
        {
          "components": [
            {
              "internalType": "int8",
              "name": "creativityChange",
              "type": "int8"
            },
            {
              "internalType": "int8",
              "name": "analyticalChange",
              "type": "int8"
            },
            {
              "internalType": "int8",
              "name": "empathyChange",
              "type": "int8"
            },
            {
              "internalType": "int8",
              "name": "intuitionChange",
              "type": "int8"
            },
            {
              "internalType": "int8",
              "name": "resilienceChange",
              "type": "int8"
            },
            {
              "internalType": "int8",
              "name": "curiosityChange",
              "type": "int8"
            },
            {
              "internalType": "string",
              "name": "moodShift",
              "type": "string"
            },
            {
              "internalType": "uint8",
              "name": "evolutionWeight",
              "type": "uint8"
            }
          ],
          "internalType": "struct IPersonalityEvolution.PersonalityImpact",
          "name": "impact",
          "type": "tuple"
        }
      ],
      "name": "processDailyDream",
      "outputs": [],
      "stateMutability": "nonpayable",
      "type": "function"
    },
    {
      "inputs": [
        {
          "internalType": "uint256",
          "name": "tokenId",
          "type": "uint256"
        },
        {
          "internalType": "bytes32",
          "name": "conversationHash",
          "type": "bytes32"
        },
        {
          "internalType": "enum IPersonalityEvolution.ContextType",
          "name": "contextType",
          "type": "uint8"
        }
      ],
      "name": "recordConversation",
      "outputs": [],
      "stateMutability": "nonpayable",
      "type": "function"
    },
    {
      "inputs": [
        {
          "internalType": "bytes32",
          "name": "role",
          "type": "bytes32"
        },
        {
          "internalType": "address",
          "name": "callerConfirmation",
          "type": "address"
        }
      ],
      "name": "renounceRole",
      "outputs": [],
      "stateMutability": "nonpayable",
      "type": "function"
    },
    {
      "inputs": [
        {
          "internalType": "uint256",
          "name": "",
          "type": "uint256"
        }
      ],
      "name": "responseStyles",
      "outputs": [
        {
          "internalType": "string",
          "name": "",
          "type": "string"
        }
      ],
      "stateMutability": "view",
      "type": "function"
    },
    {
      "inputs": [
        {
          "internalType": "bytes32",
          "name": "role",
          "type": "bytes32"
        },
        {
          "internalType": "address",
          "name": "account",
          "type": "address"
        }
      ],
      "name": "revokeRole",
      "outputs": [],
      "stateMutability": "nonpayable",
      "type": "function"
    },
    {
      "inputs": [
        {
          "internalType": "bytes4",
          "name": "interfaceId",
          "type": "bytes4"
        }
      ],
      "name": "supportsInterface",
      "outputs": [
        {
          "internalType": "bool",
          "name": "",
          "type": "bool"
        }
      ],
      "stateMutability": "view",
      "type": "function"
    },
    {
      "inputs": [],
      "name": "symbol",
      "outputs": [
        {
          "internalType": "string",
          "name": "",
          "type": "string"
        }
      ],
      "stateMutability": "view",
      "type": "function"
    },
    {
      "inputs": [],
      "name": "totalAgents",
      "outputs": [
        {
          "internalType": "uint256",
          "name": "",
          "type": "uint256"
        }
      ],
      "stateMutability": "view",
      "type": "function"
    },
    {
      "inputs": [],
      "name": "totalFeesCollected",
      "outputs": [
        {
          "internalType": "uint256",
          "name": "",
          "type": "uint256"
        }
      ],
      "stateMutability": "view",
      "type": "function"
    },
    {
      "inputs": [],
      "name": "totalSupply",
      "outputs": [
        {
          "internalType": "uint256",
          "name": "",
          "type": "uint256"
        }
      ],
      "stateMutability": "view",
      "type": "function"
    },
    {
      "inputs": [
        {
          "internalType": "address",
          "name": "to",
          "type": "address"
        },
        {
          "internalType": "uint256",
          "name": "tokenId",
          "type": "uint256"
        },
        {
          "internalType": "bytes[]",
          "name": "",
          "type": "bytes[]"
        }
      ],
      "name": "transfer",
      "outputs": [],
      "stateMutability": "nonpayable",
      "type": "function"
    },
    {
      "inputs": [],
      "name": "treasury",
      "outputs": [
        {
          "internalType": "address",
          "name": "",
          "type": "address"
        }
      ],
      "stateMutability": "view",
      "type": "function"
    },
    {
      "inputs": [],
      "name": "unpause",
      "outputs": [],
      "stateMutability": "nonpayable",
      "type": "function"
    },
    {
      "inputs": [],
      "name": "verifier",
      "outputs": [
        {
          "internalType": "contract IERC7857DataVerifier",
          "name": "",
          "type": "address"
        }
      ],
      "stateMutability": "view",
      "type": "function"
    }
  ],
  "transactionHash": "0xe52a4314d61fc5516e10a46d89960d3fd8ffbf026c22fd71581797c3fa6a82bc",
  "args": [
    "0x3ab9784ac2D04D1f1aAd0B435b61e456d0744cA4",
    "0x0f13e85B575964B8b4b77E37d43A6aE9E354e94C"
  ],
  "numDeployments": 1,
  "solcInputHash": "cf71b96473920e3554dedc6e65ef1cb6",
  "bytecode": "0x60c0346200025957601f9062004ff538819003838101601f1916830191906001600160401b038311848410176200025e57808492604094855283398101031262000259576200005c6020620000548362000274565b920162000274565b91600160008181558160055580600655806007556200007d600f5462000289565b8381116200020c575b507f447265616d73636170654167656e74000000000000000000000000000000001e600f55601054620000b99062000289565b90838211620001e0575b5050600a64445245414d60d81b01601055506001600160a01b039182169182156200019b5783161562000157575060a0526080526200010233620002c6565b506200010e3362000347565b506200011a33620003ea565b50620001263362000488565b50604051614aae90816200052782396080518181816119d001526122bd015260a051818181611d7c0152612b8d0152f35b6064906040519062461bcd60e51b82526020600483015260248201527f54726561737572792063616e6e6f74206265207a65726f2061646472657373006044820152fd5b60405162461bcd60e51b815260206004820152602481018390527f56657269666965722063616e6e6f74206265207a65726f2061646472657373006044820152606490fd5b601081528360208220920160051c8201915b828110620002015750620000c3565b8181558301620001f2565b600f8252830160051c7f8d1108e10bcb7c27dddfc02ed9d693a074039d026cf4ea4240b40f7d581ac8029081019083905b8281106200024d57505062000086565b8381550183906200023d565b600080fd5b634e487b7160e01b600052604160045260246000fd5b51906001600160a01b03821682036200025957565b90600182811c92168015620002bb575b6020831014620002a557565b634e487b7160e01b600052602260045260246000fd5b91607f169162000299565b6001600160a01b031660008181527fa6eef7e35abe7026729641147f7915573c7e97b47efa546f5f6e3230263bcb49602052604081205490919060ff16620003435781805260016020526040822081835260205260408220600160ff19825416179055339160008051602062004fd58339815191528180a4600190565b5090565b6001600160a01b031660008181527f50efbde2d46c37e9785f1791697f77e94bb7b701e19f1930a668820722d3769460205260408120549091907fa49807205ce4d355092ef5a8a18f56e8913cf4a201fbe287825b095693c217759060ff16620003e55780835260016020526040832082845260205260408320600160ff1982541617905560008051602062004fd5833981519152339380a4600190565b505090565b6001600160a01b031660008181527fb4fd2442cb0653849f414a2f81c1eb01ec27a0fc1bb28000d4ca51d98b75fd0360205260408120549091907f0ce23c3e399818cfee81a7ab0880f714e53d7672b08df0fa62f2843416e1ea099060ff16620003e55780835260016020526040832082845260205260408320600160ff1982541617905560008051602062004fd5833981519152339380a4600190565b6001600160a01b031660008181527fb9cbbae02fe941283ec0eefd7b121e3bc7f89fae077b27bdd75a7fd4cf1543a860205260408120549091907f65d7a28e3265b37a6474929f336521b332c1681b933f6cb9f3376673440d862a9060ff16620003e55780835260016020526040832082845260205260408320600160ff1982541617905560008051602062004fd5833981519152339380a460019056fe608080604052600436101561001357600080fd5b60003560e01c90816301ffc9a7146131f75750806304f74d74146131c657806306fdde0314613120578063140b79c8146130f45780631578e53b146130bb57806318160ddd1461069e57806319a6a6e914612eda5780631aeb542f14612e625780631f2e589e14612db9578063248a9ca314612d8a5780632980471d14612bbc5780632b7ac3f314612b775780632f2ff15d14612b3857806336568abe14612af15780633db43fb314612a215780633f4ba83a146129b75780634814f035146106bc5780634eb22e9e146129135780634f6ed44c14611c0e578063513856c814611b4a5780635436972c14611b145780635561991114611ab357806358c812aa14611a405780635c975abb14611a1d57806360c6d8ae146119ff57806361d027b3146119ba5780636352211e146119865780636a28ef3b1461195557806370a08231146118fb57806375794a3c146118dd57806375b238fc146118b457806380bb4012146118755780638456cb591461181b57806386e7b94d1461180157806391d14854146117b457806395d89b41146116d257806397ec23cb146116a35780639ccff749146107b1578063a217fddf14610795578063a32776d11461076b578063ab30be871461074e578063b323f19a1461071e578063b7125e9b146106f6578063c0d2d057146106bc578063c50537121461069e578063cc637afe1461063d578063d547741f146105fe578063d642b4b1146105db578063dfdad7de146104a1578063e32b178d14610435578063e63ab1e9146103fa578063e7705db6146103bf578063ea67780f1461033b578063ed2c77f2146103095763fa83d14e1461027c57600080fd5b34610304576040366003190112610304576102ca60043561029b6134cb565b9080600052600360205260018060a01b0360406000205416331480156102cc575b6102c590614436565b614572565b005b503360009081527f50efbde2d46c37e9785f1791697f77e94bb7b701e19f1930a668820722d37694602052604090205460ff166102bc565b600080fd5b346103045761033761032361031d3661328e565b90613db0565b6040519182916020835260208301906136c7565b0390f35b3461030457600036600319011261030457610354614648565b50604051635991f8cd60e11b8152336004820152600081602481305afa80156103b35761033791600091610390575b5060405191829182613560565b6103ad91503d806000833e6103a58183613462565b81019061475f565b82610383565b6040513d6000823e3d90fd5b346103045760003660031901126103045760206040517f0ce23c3e399818cfee81a7ab0880f714e53d7672b08df0fa62f2843416e1ea098152f35b346103045760003660031901126103045760206040517f65d7a28e3265b37a6474929f336521b332c1681b933f6cb9f3376673440d862a8152f35b3461030457602036600319011261030457600435610451613cf1565b50600081815260036020526040902054610475906001600160a01b03161515613d30565b600052600960205261033761048d6040600020613be9565b6040519182916020835260208301906134f7565b34610304576060366003190112610304576104ba6134e1565b6024356044356001600160401b038111610304576104dc90369060040161360f565b5050806000527f0ea8df787dde63a7bdc34d17097adf25749a3521f660e92dabdff8d6ee91d18a60206003815260018060a01b0380948160406000205416331480156105ad575b61052c90614436565b1693610539851515614482565b8460005260088252610550604060002054156144ce565b83600052600382526040600020541692836000526008825260006040812055846000528060406000205580600052600382526040600020856bffffffffffffffffffffffff60a01b825416178155600342910155604051908152a3005b50600080516020614a598339815191526000908152600184526040808220338352855290205460ff16610523565b3461030457600036600319011261030457602060405167016345785d8a00008152f35b34610304576040366003190112610304576102ca60043561061d6134cb565b908060005260016020526106386001604060002001546137bf565b613865565b34610304576020366003190112610304576004356001600160401b0381116103045760ff61068860206106758194369060040161365a565b8160405193828580945193849201613483565b8101600481520301902054166040519015158152f35b34610304576000366003190112610304576020600654604051908152f35b34610304576020366003190112610304576001600160a01b036106dd6134e1565b1660005260086020526020604060002054604051908152f35b34610304576020366003190112610304576020610714600435613ea4565b6040519015158152f35b346103045760203660031901126103045761033761074261073d6134e1565b6148db565b60405191829182613560565b346103045760003660031901126103045760206040516103e88152f35b34610304576000366003190112610304573360005260086020526020604060002054604051908152f35b3461030457600036600319011261030457602060405160008152f35b3461030457600319608036820112610304576001600160401b0360643511610304576101009060643536030112610304576107ea613b54565b600435600052600360205260018060a01b03604060002054163314801561166b575b8015611654575b61081c90613b72565b610827600435613ea4565b1561160f5761083a606435600401613f3e565b600435600052600a6020526108556024356040600020613bb4565b600435600052600c6020526108706044356040600020613bb4565b6004356000526003602052600860406000200161088d81546139c2565b9055600435600052600360205242600360406000200155600960205260406000204260028201556003602052600560086040600020015406156109c8575b5060043560005260036020526040600020600360088201540615610936575b600435600052600360205260076040600020015460405190602435825260208201527f871f9739b79e9efd6285318758001f00502185ff0d254a080922cd80580c3e02604060043592a2005b60070161094381546139c2565b9055600435600052600360205260076040600020015460001981019081116109b257600435600052600360205260076040600020015460405191825260208201527f06bbb7cb56b5f3845ce5ad015d25cbf87ed1c37c635e2082acb2610598f15cc7604060043592a2806108ea565b634e487b7160e01b600052601160045260246000fd5b6109d6606435600401613f3e565b6109df81613be9565b815460046064350135600081900b90036103045760ff610a07606435600401358284166140e3565b1660ff1982168117845560246064350135600081900b900361030457610a5991610a4391606435602401359160ff19161760081c60ff166140e3565b835461ff00191660089190911b61ff0016178355565b815460101c60ff1660643560440135600081900b900361030457610a87610a9f9160446064350135906140e3565b835462ff0000191660109190911b62ff000016178355565b815460181c60ff16606480350135600081900b900361030457610acb610ae591606480350135906140e3565b835463ff000000191660189190911b63ff00000016178355565b815460201c60ff1660643560840135600081900b900361030457610b13610b2f9160846064350135906140e3565b835464ff00000000191660209190911b64ff0000000016178355565b815460281c60ff1660643560a40135600081900b900361030457610b5d610b7b9160a46064350135906140e3565b835465ff0000000000191660289190911b65ff000000000016178355565b610b8f60c460643501606435600401613c5b565b906001600160401b03821161116c578190610bba82610bb160018801546132d2565b600188016139fc565b600090601f831160011461159e57600092611593575b50508160011b916000199060031b1c19161760018301555b60043560005260036020526040600020600a81019081549160ff83161561153a575b5050506004356000526003602052600b604060002001610c2a81546139c2565b9055600435600052600360205242600c60406000200155605a60ff6060610c5085613be9565b936055836040830151161080611529575b6114eb575b838382511610806114de575b6114a2575b83836020830151161080611492575b611458575b0151161080611446575b611406575b603c60ff8251161190816113f3575b816113e0575b816113cd575b816113ba575b816113a7575b508061136d575b6111eb575b610cde610cd982613be9565b614151565b600435600052600e602052604060002060405190816000825492610d01846132d2565b80845293600181169081156111c95750600114611182575b50610d2692500382613462565b602081519101208151602083012003610e23575b50610d5060405191604083526040830190613c8d565b81810360208301526064356004013560000b81526024606435013560000b60208201526044606435013560000b604082015260648035013560000b60608201526084606435013560000b608082015260a4606435013560000b60a0820152610dd8610dc560c46064350160643560040161395f565b61010060c085015261010084019161393e565b9060e460643501359060ff82168092036103045760e001527f4188327df0df4e6ad8674fc37ff48b2b049fdaae33e3c8e38275816040949af26024359280600435930390a3806108cb565b600435600052600e602052610e45610e4c60406000206040519283809261330c565b0382613462565b600435600052600e602052610e65826040600020613a43565b7f90f9e809e3805f30ac3fc3562ac1fb69527e27e23e063a99f43a92343f35c9d2610e9b604051926040845260408401906134a6565b91808303602082015280610eb260043594866134a6565b0390a26004356000526009602052610ecd6040600020613be9565b90604051918260808101106001600160401b0360808501111761116c57608083016040526003835260005b6060811061115b575060ff60a060405192610f1284613411565b82815116845282602082015116602085015282604082015116604085015282606082015116606085015282608082015116608085015201511660a082015260405190610f5d82613411565b604051610f6981613447565b600a8152696372656174697669747960b01b60208201528252610f8a61412b565b6020830152604051610f9b81613447565b6007815266656d706174687960c81b60208201526040830152604051610fc081613447565b600981526834b73a3ab4ba34b7b760b91b60208201526060830152604051610fe781613447565b600a815269726573696c69656e636560b01b6020820152608083015260405161100f81613447565b6009815268637572696f7369747960b81b602082015260a083015260005b600381106110d95750505061104d604051916040835260408301906134a6565b8181036020830152825180825260208201916020808360051b8301019501926000915b8383106110ac575050505050807fff8866d78ff3fc4f37232c9d6da12c9b2168edd42074faa52ea90054f0abcf6d91600435930390a281610d3a565b90919293956020806110ca600193601f198682030187528a516134a6565b98019301930191939290611070565b600060015b600681106111235750906000611118836110fb61111e95886142df565b51611106858b6139d1565b52611111848a6139d1565b50856142df565b526139c2565b61102d565b60ff61112f82866142df565b511660ff61113d84876142df565b511610611153575b61114e906139c2565b6110de565b905080611145565b806060602080938701015201610ef8565b634e487b7160e01b600052604160045260246000fd5b90506000929192526020600020906000915b8183106111ad575050906020610d269282010186610d19565b6020919350806001915483858801015201910190918392611194565b905060209250610d2694915060ff191682840152151560051b82010186610d19565b6040516111f781613447565b600d81526c18985b185b98d95917dcdbdd5b609a1b602082015260405161121d816133da565b6001815260ff600260208301924284526040810193603c8552600435600052600d6020526112686112526040600020886136a1565b92511515839060ff801983541691151516179055565b5160018201550191511660ff198254161790556004356000526003602052600d6040600020018054600160401b81101561116c576112ab916001820181556132a4565b61135757816112b991613a43565b604051606081527fd0ba61587fc16fc1a3274fc4cd4ecf1243baadf9d8dde73ab61d5a7af1474ff46112ee60608301846134a6565b91603c6020820152600081840393846040840152526020600435930190a27f4d4ca4452701c64d62e210aa5b23f7d376cf2d485ebc4fee8528e048afb0e2cf611342604051926040845260408401906134a6565b91603c602082015280600435930390a2610ccd565b634e487b7160e01b600052600060045260246000fd5b50600435600052600d60205260ff602d6040600020604051906c18985b185b98d95917dcdbdd5b609a1b8252600d82015220541615610cc8565b603c915060a060ff910151161182610cc1565b9050603c60ff6080830151161190610cbb565b9050603c60ff6060830151161190610cb5565b9050603c60ff6040830151161190610caf565b9050603c60ff6020830151161190610ca9565b61144160ff60608301511660405161141d81613447565b600f81526e73706972697475616c5f677569646560881b60208201526004356142f0565b610c9a565b50605a60ff6060830151161015610c95565b61148d8360208701511660405161146e81613447565b600a8152691b1bd9da58d7db1bdc9960b21b60208201526004356142f0565b610c8b565b5083836020870151161015610c86565b6114d9838651166040516114b581613447565b600f81526e63726561746976655f67656e69757360881b60208201526004356142f0565b610c77565b5083838651161015610c72565b6115248360408701511660405161150181613447565b600e81526d32b6b830ba343cafb6b0b9ba32b960911b60208201526004356142f0565b610c66565b506055836040870151161015610c61565b600160089360ff191617905501547f3699e9591a9a800af90ffae86552b9fa46719da5dbb81727a2bd1ee93c1f57ac6040516040815261157d6040820186613c8d565b92602082015280600435930390a2828080610c0a565b013590508480610bd0565b909250600185016000526020600020906000935b601f19841685106115f7576001945083601f198116106115dd575b505050811b016001830155610be8565b0135600019600384901b60f8161c191690558480806115cd565b818101358355602094850194600190930192016115b2565b60405162461bcd60e51b815260206004820152601d60248201527f4461696c7920647265616d20616c72656164792070726f6365737365640000006044820152606490fd5b5061081c611664336004356149f8565b9050610813565b503360009081527f50efbde2d46c37e9785f1791697f77e94bb7b701e19f1930a668820722d37694602052604090205460ff1661080c565b346103045760203660031901126103045760043560005260036020526020600260406000200154604051908152f35b346103045760003660031901126103045760405160006010546116f4816132d2565b8084529060019081811690811561178d5750600114611732575b6103378461171e81860382613462565b6040519182916020835260208301906134a6565b6010600090815292507f1b6847dc741a1b0cd08d278845f9d819d87b734759afb55fe2de5cb82a9ae6725b82841061177557505050810160200161171e8261170e565b8054602085870181019190915290930192810161175d565b60ff191660208087019190915292151560051b8501909201925061171e915083905061170e565b34610304576040366003190112610304576117cd6134cb565b600435600052600160205260406000209060018060a01b0316600052602052602060ff604060002054166040519015158152f35b34610304576103376103236118153661328e565b90613e40565b3461030457600036600319011261030457611834613763565b61183c613b54565b600160ff1960025416176002557f62e78cea01bee320cd4e420270b5ea74000d11b0c9f74754ebdbfc544b05a2586020604051338152a1005b34610304576118833661328e565b90600052600c60205260406000208054821015610304576020916118a6916132a4565b90546040519160031b1c8152f35b34610304576000366003190112610304576020604051600080516020614a598339815191528152f35b34610304576000366003190112610304576020600554604051908152f35b34610304576020366003190112610304576001600160a01b0361191c6134e1565b166119288115156138dc565b6000908152600860205260409020541561194c57602060015b60ff60405191168152f35b60206000611941565b34610304576119633661328e565b90600052600a60205260406000208054821015610304576020916118a6916132a4565b34610304576020366003190112610304576004356000526003602052602060018060a01b0360406000205416604051908152f35b34610304576000366003190112610304576040517f00000000000000000000000000000000000000000000000000000000000000006001600160a01b03168152602090f35b34610304576000366003190112610304576020600754604051908152f35b3461030457600036600319011261030457602060ff600254166040519015158152f35b34610304576040366003190112610304576024356001600160401b03811161030457611a8b611a75606092369060040161365a565b600435600052600d6020526040600020906136a1565b60ff8154169060ff600260018301549201541690604051921515835260208301526040820152f35b3461030457604036600319011261030457600435611acf6134cb565b90611ad86136fb565b6001600160a01b03918216917f0ea8df787dde63a7bdc34d17097adf25749a3521f660e92dabdff8d6ee91d18a90602090610539851515614482565b3461030457602036600319011261030457600435600052600e602052610337610e4561171e60406000206040519283809261330c565b34610304576020366003190112610304576004356000526003602052604060002060018060a01b0381541660405191611b9183611b8a816001850161330c565b0384613462565b6002810154906003810154906007810154600882015460098301549060ff600a8501541692600c600b86015495015495611bdd6040519a8b9a8b526101408060208d01528b01906134a6565b9760408a01526060890152608088015260a087015260c0860152151560e08501526101008401526101208301520390f35b6080366003190112610304576004356001600160401b03811161030457611c3990369060040161360f565b906024356001600160401b03811161030457611c5990369060040161360f565b916044356001600160401b03811161030457611c7990369060040161365a565b606435916001600160a01b038316830361030457600260005414612901576002600055611ca4613b54565b611cb86001600160a01b03841615156138dc565b6001600160a01b0383166000908152600860205260409020546128bc57858503612885576103e8600654101561284c5781518015159081612840575b501561280c5760ff6040516020818551611d118183858a01613483565b8101600481520301902054166127d95767016345785d8a0000341061279d57604051809663c2a93e3760e01b825280602483016020600485015252604482019060448160051b8401019380926000915b83831061276a57505050505080600092038160018060a01b037f0000000000000000000000000000000000000000000000000000000000000000165afa9485156103b357600095612681575b50611db88551613990565b9260005b8651811015611e2d576020611dd182896139d1565b51015115611df85780611de7611df392896139d1565b515161111882886139d1565b611dbc565b60405162461bcd60e51b815260206004820152600d60248201526c24b73b30b634b210383937b7b360991b6044820152606490fd5b508390856040516020818651611e468183858b01613483565b81016004815203019020600160ff1982541617905560055493611e68856139c2565b60055560018060a01b038616600052600860205284604060002055604051611e8f8161342c565b6000815260405190611ea08261342c565b6000825260405192611eb1846133a2565b6001600160a01b0389168452602084015242604084018190526060840152611ed88461391a565b611ee56040519182613462565b84815260208101368660051b8801116103045786905b8660051b8801821061265657505060808401528560a084015260c0830152600160e08301526000610100830152600061012083015260006101408301526000610160830152426101808301526101a082015284600052600360205260406000209060018060a01b038151166bffffffffffffffffffffffff60a01b835416178255611f8d602082015160018401613a43565b60408101516002830155606081015160038301556080810151805190600160401b821161116c5760048401548260048601558083106125dd575b506020016004840160005260206000206000915b8383106125c0575050505060a08101518051906001600160401b03821161116c57600160401b821161116c576005840154826005860155808310612593575b5060200160058401600052602060002060005b83811061257f575050505060c08101518051906001600160401b03821161116c57600160401b821161116c57602090600685015483600687015580841061255f575b500160068401600052602060002060005b83811061254257505050508060e06101a09201516007840155610100810151600884015561012081015160098401556120cf6101408201511515600a85019060ff801983541691151516179055565b610160810151600b840155610180810151600c840155015190815191600160401b831161116c57600d82015483600d8401558084106124c9575b506020600d9101910160005260206000206000915b8383106124ac5750505050604051612135816133f5565b603280825280602083015280604083015280606083015280608083015260a082015260405161216381613447565b60078152661b995d5d1c985b60ca1b602082015260c0820152600060e0820152846000526009602052600260e060406000209260ff81511660ff198554161784556121c660ff602083015116859061ff0082549160081b169061ff001916179055565b6040810151845462ff0000191660109190911b62ff0000161784556060810151845463ff000000191660189190911b63ff000000161784556080810151845464ff00000000191660209190911b64ff000000001617845560a0810151845465ff0000000000191660289190911b65ff00000000001617845561224f60c082015160018601613a43565b015191015583600052600e602052604060002061226c81546132d2565b601f811161248a575b50600e661b995d5d1c985b60ca1b019055600654612292906139c2565b60065560075467016345785d8a000081018091116109b257600755600080808067016345785d8a00007f00000000000000000000000000000000000000000000000000000000000000005af16122e6613b17565b50156124455767016345785d8a000034116123e7575b90612312604051936040855260408501906136c7565b918383036020850152808352602083019260208260051b82010193836000925b8484106123af576020896001600160a01b038c1633827f531bd8ca2b17505aaa50d843fabe2dfd9a3bb9e20c511d2288b24bd484861b028d8d038ea460405167016345785d8a00008152817f6fe296e805108cd514fea415210be4016149b01eeb08effbe130951b6a5f6c0b843393a36001600055604051908152f35b9091929394956020806123d7600193601f198682030188526123d18b8861395f565b9061393e565b9801940194019294939190612332565b67016345785d89ffff1934013481116109b257600080808093335af161240b613b17565b506122fc5760405162461bcd60e51b815260206004820152600d60248201526c1499599d5b990819985a5b1959609a1b6044820152606490fd5b60405162461bcd60e51b815260206004820152601760248201527f5472656173757279207061796d656e74206661696c65640000000000000000006044820152606490fd5b6124a69082600052601f6020600020910160051c8101906139e5565b86612275565b60016020826124bd83945186613a43565b0192019201919061211e565b600d83016000526020600020908482015b81830181106124ea575050612109565b806124f7600192546132d2565b80612504575b50016124da565b601f90818111841461251d575050600081555b8c6124fd565b61253960009284845260208420920160051c82018583016139e5565b81835555612517565b82516001600160a01b031681830155602090920191600101612080565b6125799060068701600052848460002091820191016139e5565b8a61206f565b60019060208451940193818401550161202d565b600585016000526020600020908382015b81830181106125b457505061201a565b600081556001016125a4565b60016020826125d183945186613a43565b01920192019190611fdb565b600485016000526020600020908382015b81830181106125fe575050611fc7565b8061260b600192546132d2565b80612618575b50016125ee565b601f908181118414612631575050600081555b8d612611565b61264d60009284845260208420920160051c82018583016139e5565b8183555561262b565b6001600160401b0382351161030457602080916126763685358c0161365a565b815201910190611efb565b9094503d806000833e6126948183613462565b60208282810103126103045781516001600160401b03811161030457820190808301601f83011215610304578151906126cc8261391a565b936126da6040519586613462565b828552602085019382820160208560061b83010111610304579360208501945b60208560061b8201018610612716575050505050509385611dad565b604086858501031261030457604051918260408101106001600160401b0360408501111761116c5760206040918483839601845289518152612759838b01613931565b8382015281520196019591506126fa565b919395602061278c819260019496986043199082030187526123d18a8761395f565b97019301930190928a949293611d61565b60405162461bcd60e51b8152602060048201526014602482015273125b9cdd59999a58da595b9d081c185e5b595b9d60621b6044820152606490fd5b60405162461bcd60e51b815260206004820152600b60248201526a4e616d652065786973747360a81b6044820152606490fd5b60405162461bcd60e51b815260206004820152600c60248201526b496e76616c6964206e616d6560a01b6044820152606490fd5b60209150111587611cf4565b60405162461bcd60e51b815260206004820152601160248201527013585e081b1a5b5a5d081c995858da1959607a1b6044820152606490fd5b60405162461bcd60e51b815260206004820152600f60248201526e098cadccee8d040dad2e6dac2e8c6d608b1b6044820152606490fd5b60405162461bcd60e51b815260206004820152601b60248201527f57616c6c657420616c72656164792068617320616e206167656e7400000000006044820152606490fd5b604051633ee5aeb560e01b8152600490fd5b34610304576020366003190112610304576004356000526009602052604060002080546002604051926129548461294d816001850161330c565b0385613462565b01546129ad60405193849360ff908181168652818160081c166020870152818160101c166040870152818160181c166060870152818160201c16608087015260281c1660a08501526101008060c08601528401906134a6565b9060e08301520390f35b34610304576000366003190112610304576129d0613763565b60025460ff811615612a0f5760ff19166002557f5db9ee0a495bf2e6ff9c91a7834c1ba4fdd244a5e8aa4e537bd38aeae4b073aa6020604051338152a1005b604051638dfc202b60e01b8152600490fd5b3461030457602036600319011261030457600435600081815260036020526040902054612a58906001600160a01b03161515613d30565b60005260036020526040600020600b8101546002600c830154920154804211600014612ae657612a8c620151809142613b47565b048015929083612ada576064830293838504606414841517156109b257612ac457606093045b60405192835260208301526040820152f35b634e487b7160e01b600052601260045260246000fd5b50606092506000612ab2565b506060916000612ab2565b3461030457604036600319011261030457612b0a6134cb565b336001600160a01b03821603612b26576102ca90600435613865565b60405163334bd91960e11b8152600490fd5b34610304576040366003190112610304576102ca600435612b576134cb565b90806000526001602052612b726001604060002001546137bf565b6137e5565b34610304576000366003190112610304576040517f00000000000000000000000000000000000000000000000000000000000000006001600160a01b03168152602090f35b3461030457606036600319011261030457602435600435604435600581101561030457612be7613b54565b81600052600360209080825260018060a01b036040600020541633148015612d5a575b8015612d45575b612c1a90613b72565b83600052600b8252612c30856040600020613bb4565b836000528082526009604060002001612c4981546139c2565b90558360005280825260406000204282820155600a60098201540615612cab575b50916040917fae9f8ea4031d27c12e1fca7c2bfaaef9034ff66849251188e28970cd44d1c590938560005281526009836000200154908351928352820152a3005b60079093919301612cbc81546139c2565b9055836000528282526007604060002001549160001983019283116109b2577fae9f8ea4031d27c12e1fca7c2bfaaef9034ff66849251188e28970cd44d1c59093857f06bbb7cb56b5f3845ce5ad015d25cbf87ed1c37c635e2082acb2610598f15cc760408096836000528486526007826000200154825191825286820152a291935091612c6a565b50612c1a612d5333866149f8565b9050612c11565b50600080516020614a5983398151915260005260018252604060002033600052825260ff60406000205416612c0a565b346103045760203660031901126103045760043560005260016020526020600160406000200154604051908152f35b34610304576040366003190112610304576001600160401b036024358181116103045736602382011215610304578060040135918211610304573660248383010111610304576020602491604093600435600052600d83528460002090808651958694018437820190815203019020815190612e34826133da565b60ff8154161515918281528360ff600260018501549485602086015201541691015282519182526020820152f35b34610304576020806003193601126103045760043560005260038152612e8e600660406000200161451a565b906040519181839283018184528251809152816040850193019160005b828110612eba57505050500390f35b83516001600160a01b031685528695509381019392810192600101612eab565b3461030457602036600319011261030457612ef3614648565b50600435600090815260036020526040902054612f1a906001600160a01b03161515613d30565b60043560005260036020526103376040600020613000600d60405192612f3f846133a2565b80546001600160a01b03168452604051612f6081610e45816001860161330c565b60208501526002810154604085015260038101546060850152612f85600482016146aa565b6080850152604051612f9e81610e458160058601613d73565b60a0850152612faf6006820161451a565b60c0850152600781015460e08501526008810154610100850152600981015461012085015260ff600a820154161515610140850152600b810154610160850152600c810154610180850152016146aa565b6101a0820152600435600052600960205261301e6040600020613be9565b60018060a01b03825116916020810151906040810151606082015160e08301516101008401519061012085015192610140860151151594610180610160880151970151976040519a61306f8c6133be565b6004358c5260208c015260408b015260608a0152608089015260a088015260c087015260e086015261010085015261012084015261014083015261016082015260405191829182613560565b34610304576020366003190112610304576004356000526003602052610337610e4561171e60016040600020016040519283809261330c565b34610304576040366003190112610304576102ca6131106134cb565b6131186136fb565b600435614572565b34610304576000366003190112610304576040516000600f54613142816132d2565b8084529060019081811690811561178d575060011461316b576103378461171e81860382613462565b600f600090815292507f8d1108e10bcb7c27dddfc02ed9d693a074039d026cf4ea4240b40f7d581ac8025b8284106131ae57505050810160200161171e8261170e565b80546020858701810191909152909301928101613196565b34610304576131d43661328e565b90600052600b60205260406000208054821015610304576020916118a6916132a4565b34610304576020366003190112610304576004359063ffffffff60e01b8216809203610304576020916301ffc9a760e01b8114908190811561327d575b821561326c575b821561324a575b505015158152f35b637965db0b60e01b1491508115613264575b508380613242565b90508361325c565b635b5e139f60e01b8114925061323b565b6380ac58cd60e01b81149250613234565b6040906003190112610304576004359060243590565b80548210156132bc5760005260206000200190600090565b634e487b7160e01b600052603260045260246000fd5b90600182811c92168015613302575b60208310146132ec57565b634e487b7160e01b600052602260045260246000fd5b91607f16916132e1565b906000929180549161331d836132d2565b91828252600193848116908160001461337f575060011461333f575b50505050565b90919394506000526020928360002092846000945b83861061336b575050505001019038808080613339565b805485870183015294019385908201613354565b9294505050602093945060ff191683830152151560051b01019038808080613339565b6101c081019081106001600160401b0382111761116c57604052565b61018081019081106001600160401b0382111761116c57604052565b606081019081106001600160401b0382111761116c57604052565b61010081019081106001600160401b0382111761116c57604052565b60c081019081106001600160401b0382111761116c57604052565b602081019081106001600160401b0382111761116c57604052565b604081019081106001600160401b0382111761116c57604052565b90601f801991011681019081106001600160401b0382111761116c57604052565b60005b8381106134965750506000910152565b8181015183820152602001613486565b906020916134bf81518092818552858086019101613483565b601f01601f1916010190565b602435906001600160a01b038216820361030457565b600435906001600160a01b038216820361030457565b9060ff80835116825280602084015116602083015280604084015116604083015280606084015116606083015280608084015116608083015260a08301511660a082015260e08061355760c08501516101008060c08701528501906134a6565b93015191015290565b9061360c91602081528151602082015260018060a01b0360208301511660408201526040820151906135a0610180928360608401526101a08301906134a6565b9260608101516080830152608081015160a083015260a081015160c083015260c081015160e083015260e08101516101009081840152810151151561012090818401528101516101409081840152810151906101609182840152015191601f19828503019101526134f7565b90565b9181601f84011215610304578235916001600160401b038311610304576020808501948460051b01011161030457565b6001600160401b03811161116c57601f01601f191660200190565b81601f82011215610304578035906136718261363f565b9261367f6040519485613462565b8284526020838301011161030457816000926020809301838601378301015290565b6020906136bb928260405194838680955193849201613483565b82019081520301902090565b90815180825260208080930193019160005b8281106136e7575050505090565b8351855293810193928101926001016136d9565b3360009081527f50efbde2d46c37e9785f1791697f77e94bb7b701e19f1930a668820722d376946020526040902054600080516020614a598339815191529060ff16156137455750565b6044906040519063e2517d3f60e01b82523360048301526024820152fd5b3360009081527fb9cbbae02fe941283ec0eefd7b121e3bc7f89fae077b27bdd75a7fd4cf1543a860205260409020547f65d7a28e3265b37a6474929f336521b332c1681b933f6cb9f3376673440d862a9060ff16156137455750565b80600052600160205260406000203360005260205260ff60406000205416156137455750565b906000918083526001602052604083209160018060a01b03169182845260205260ff604084205416156000146138605780835260016020526040832082845260205260408320600160ff198254161790557f2f8788117e7eff1d82e926ec794901d17c78024a50270940304540a733656f0d339380a4600190565b505090565b906000918083526001602052604083209160018060a01b03169182845260205260ff604084205416600014613860578083526001602052604083208284526020526040832060ff1981541690557ff6391f5c32d9c69d2a47ea670b442974b53935d1edc7fd64eb21e047a839171b339380a4600190565b156138e357565b60405162461bcd60e51b815260206004820152600f60248201526e496e76616c6964206164647265737360881b6044820152606490fd5b6001600160401b03811161116c5760051b60200190565b5190811515820361030457565b908060209392818452848401376000828201840152601f01601f1916010190565b9035601e19823603018112156103045701602081359101916001600160401b03821161030457813603831361030457565b9061399a8261391a565b6139a76040519182613462565b82815280926139b8601f199161391a565b0190602036910137565b60001981146109b25760010190565b80518210156132bc5760209160051b010190565b8181106139f0575050565b600081556001016139e5565b9190601f8111613a0b57505050565b613a37926000526020600020906020601f840160051c83019310613a39575b601f0160051c01906139e5565b565b9091508190613a2a565b91909182516001600160401b03811161116c57613a6a81613a6484546132d2565b846139fc565b602080601f8311600114613aa6575081929394600092613a9b575b50508160011b916000199060031b1c1916179055565b015190503880613a85565b90601f198316958460005282600020926000905b888210613af257505083600195969710613ad9575b505050811b019055565b015160001960f88460031b161c19169055388080613acf565b80600185968294968601518155019501930190613aba565b919082018092116109b257565b3d15613b42573d90613b288261363f565b91613b366040519384613462565b82523d6000602084013e565b606090565b919082039182116109b257565b60ff60025416613b6057565b60405163d93c066560e01b8152600490fd5b15613b7957565b60405162461bcd60e51b8152602060048201526013602482015272556e617574686f72697a65642061636365737360681b6044820152606490fd5b8054600160401b81101561116c57613bd1916001820181556132a4565b819291549060031b91821b91600019901b1916179055565b90604051613bf6816133f5565b60e060028294805460ff908181168652818160081c166020870152818160101c166040870152818160181c166060870152818160201c16608087015260281c1660a0850152604051613c4f81610e45816001860161330c565b60c08501520154910152565b903590601e198136030182121561030457018035906001600160401b0382116103045760200191813603831361030457565b90815460ff908181168352818160081c166020840152818160101c166040840152818160181c166060840152818160201c16608084015260281c1660a082015260e06002613ce86101008060c086015284016001860161330c565b93015491015290565b60405190613cfe826133f5565b8160e06000918281528260208201528260408201528260608201528260808201528260a0820152606060c08201520152565b15613d3757565b60405162461bcd60e51b81526020600482015260146024820152731059d95b9d08191bd95cc81b9bdd08195e1a5cdd60621b6044820152606490fd5b90815480825260208092019260005281600020916000905b828210613d99575050505090565b835485529384019360019384019390910190613d8b565b919091600052600a60205260406000209180158015613e35575b613e2057613dd781613990565b92613de3828254613b47565b60005b838110613df35750505050565b80613e0a613e04613e1b9385613b0a565b856132a4565b90549060031b1c61111882896139d1565b613de6565b509061360c610e459160405192838092613d73565b508254811015613dca565b919091600052600b60205260406000209180158015613e99575b613e2057613e6781613990565b92613e73828254613b47565b60005b838110613e835750505050565b80613e0a613e04613e949385613b0a565b613e76565b508254811015613e5a565b6000908152600360205260ff600a604083200154161561360c576009602052600260408220015490620151808201809211613edf5750421190565b634e487b7160e01b81526011600452602490fd5b15613efa57565b60405162461bcd60e51b815260206004820152600e60248201526d496e76616c6964206368616e676560901b6044820152606490fd5b3560ff811681036103045790565b803560009080820b8091036140df57613f65600919918281121590816140cc575b50613ef3565b602083013580830b8091036140db578082613f8892121590816140cc5750613ef3565b604083013580830b8091036140db578082613fab92121590816140cc5750613ef3565b606083013580830b8091036140db578082613fce92121590816140cc5750613ef3565b608083013580830b8091036140db578082613ff192121590816140cc5750613ef3565b60a08301359182810b8093036140d85750906140169181121590816140cc5750613ef3565b60e0810160ff61402582613f30565b16151590816140b4575b501561407e578060c0614043920190613c5b565b90501561404c57565b60405162461bcd60e51b815260206004820152600a602482015269115b5c1d1e481b5bdbd960b21b6044820152606490fd5b60405162461bcd60e51b815260206004820152600e60248201526d125b9d985b1a59081dd95a59da1d60921b6044820152606490fd5b606491506140c360ff91613f30565b1611153861402f565b600a9150131538613f5f565b80fd5b8280fd5b5080fd5b60ff1690600090810b91818382019384129112908015821691151617613edf57808212614123575b506064811361411b575b60ff1690565b506064614115565b90503861410b565b6040519061413882613447565b600a825269185b985b1e5d1a58d85b60b21b6020830152565b604660ff60409282828583015116118080916142d2575b1561419e57505050505161417b81613447565b6013815272656d70617468657469635f637265617469766560681b602082015290565b156141ca57505050516141b081613447565b600a815269656d706174686574696360b01b602082015290565b8282825116116000146141fc57505050516141e481613447565b6008815267637265617469766560c01b602082015290565b828260208301511611600014614218575050505061360c61412b565b82826060830151161160001461424e575050505161423581613447565b6009815268696e7475697469766560b81b602082015290565b828260808301511611600014614284575050505161426b81613447565b60098152681c995cda5b1a595b9d60ba1b602082015290565b60a001511611156142b0575161429981613447565b6007815266637572696f757360c81b602082015290565b516142ba81613447565b600881526718985b185b98d95960c21b602082015290565b50603c8383511611614168565b9060068110156132bc5760051b0190565b90929192604080948151614303816133da565b6001815260209160ff6002848401934285528287820194169485855261433761125260009d8e8d8152600d8b52208b6136a1565b5160018201550191511660ff1982541617905584875260038252600d83882001805490600160401b8210156144225790614376916001820181556132a4565b61440e57947fd0ba61587fc16fc1a3274fc4cd4ecf1243baadf9d8dde73ab61d5a7af1474ff48197986143ca877f4d4ca4452701c64d62e210aa5b23f7d376cf2d485ebc4fee8528e048afb0e2cf99613a43565b84865191606083526143df606084018a6134a6565b90868385015283820391828a860152520190a261440583519484869586528501906134a6565b918301520390a2565b634e487b7160e01b88526004889052602488fd5b634e487b7160e01b89526041600452602489fd5b1561443d57565b60405162461bcd60e51b815260206004820152601860248201527f4e6f74206167656e74206f776e6572206f722061646d696e00000000000000006044820152606490fd5b1561448957565b60405162461bcd60e51b815260206004820152601f60248201527f43616e6e6f74207472616e7366657220746f207a65726f2061646472657373006044820152606490fd5b156144d557565b60405162461bcd60e51b815260206004820152601e60248201527f526563697069656e7420616c72656164792068617320616e206167656e7400006044820152606490fd5b9060405191828154918282526020928383019160005283600020936000905b82821061454f57505050613a3792500383613462565b85546001600160a01b031684526001958601958895509381019390910190614539565b6001600160a01b0391821691821561460357600090828252600360205260066040832001805490600160401b8210156145ef57816145d89160017f32a4407627195670dd4c989ee38441e11ab643ccd4759c25d9c0bd6a635039db9695940181556132a4565b819291549060031b9187831b921b191617905580a3565b634e487b7160e01b84526041600452602484fd5b60405162461bcd60e51b815260206004820152601d60248201527f43616e6e6f7420617574686f72697a65207a65726f20616464726573730000006044820152606490fd5b60405190614655826133be565b816000808252806020830152606060408301528060608301528060808301528060a08301528060c08301528060e083015280610100830152806101208301526101408201526101606146a5613cf1565b910152565b9081546146b68161391a565b926040936146c685519182613462565b828152809460208092019260005281600020906000935b8585106146ec57505050505050565b6001848192845161470181610e45818a61330c565b8152019301940193916146dd565b81601f820112156103045780516147258161363f565b926147336040519485613462565b818452602082840101116103045761360c9160208085019101613483565b519060ff8216820361030457565b906020828203126103045781516001600160401b039283821161030457016101808183031261030457604091825193614797856133be565b8251855260208301516001600160a01b03811681036103045760208601528383015181811161030457826147cc91850161470f565b84860152606083015160608601526080830151608086015260a083015160a086015260c083015160c086015260e083015160e086015261010090614811828501613931565b82870152610120808501519087015261014080850151908701526101609384810151908282116103045701918284031261030457845194614851866133f5565b61485a83614751565b865261486860208401614751565b6020870152614878818401614751565b9086015261488860608301614751565b606086015261489960808301614751565b60808601526148aa60a08301614751565b60a086015260c08201519081116103045760e0926148c991830161470f565b60c0850152015160e083015282015290565b6148e3614648565b506001600160a01b03166000908152600860205260408082205490918115614950578251916319a6a6e960e01b835260048301528082602481305afa9283156149465750809261493257505090565b61360c92503d8091833e6103a58183613462565b51903d90823e3d90fd5b8251915061495d826133f5565b80825280602083015280838301528060608301528060808301528060a083015282516149888161342c565b81815260c08301528060e08301528251926149a2846133be565b8184528160208501528051906149b78261342c565b8282528401528060608401528060808401528060a08401528060c08401528060e0840152806101008401528061012084015261014083015261016082015290565b6000526003602052614a10600660406000200161451a565b9060005b8251811015614a50576001600160a01b0380614a3083866139d1565b511690831614614a4857614a43906139c2565b614a14565b505050600190565b50505060009056fea49807205ce4d355092ef5a8a18f56e8913cf4a201fbe287825b095693c21775a26469706673582212205713afcdf3896b9628ec2ac2b014ff9332bab39d45a71e8f8b10c4799f9dc7d664736f6c634300081400332f8788117e7eff1d82e926ec794901d17c78024a50270940304540a733656f0d",
  "devdoc": {
    "details": "Implements ERC-7857 with comprehensive personality evolution system. Limited to 1 agent per wallet.",
    "errors": {
      "AccessControlBadConfirmation()": [
        {
          "details": "The caller of a function is not the expected one. NOTE: Don't confuse with {AccessControlUnauthorizedAccount}."
        }
      ],
      "AccessControlUnauthorizedAccount(address,bytes32)": [
        {
          "details": "The `account` is missing a role."
        }
      ],
      "EnforcedPause()": [
        {
          "details": "The operation failed because the contract is paused."
        }
      ],
      "ExpectedPause()": [
        {
          "details": "The operation failed because the contract is not paused."
        }
      ],
      "ReentrancyGuardReentrantCall()": [
        {
          "details": "Unauthorized reentrant call."
        }
      ]
    },
    "events": {
      "AgentConversation(uint256,bytes32,uint8,uint256)": {
        "details": "Emitted when agent has a conversation (without personality evolution)"
      },
      "AuthorizedUsage(uint256,address)": {
        "details": "This emits when a user is authorized to use the data"
      },
      "Cloned(uint256,uint256,address,address)": {
        "details": "This emits when data is cloned"
      },
      "Minted(uint256,address,address,bytes32[],string[])": {
        "details": "This emits when a new functional NFT is minted"
      },
      "Paused(address)": {
        "details": "Emitted when the pause is triggered by `account`."
      },
      "PersonalityEvolved(uint256,bytes32,(uint8,uint8,uint8,uint8,uint8,uint8,string,uint256),(int8,int8,int8,int8,int8,int8,string,uint8))": {
        "details": "Emitted when agent personality evolves from dream processing"
      },
      "PersonalityMilestone(uint256,string,uint8,string)": {
        "details": "Emitted when agent reaches personality milestones"
      },
      "PublishedSealedKey(address,uint256,bytes16[])": {
        "details": "This emits when a sealed key is published"
      },
      "ResponseStyleEvolved(uint256,string,string[])": {
        "details": "Emitted when agent's response style evolves"
      },
      "RoleAdminChanged(bytes32,bytes32,bytes32)": {
        "details": "Emitted when `newAdminRole` is set as ``role``'s admin role, replacing `previousAdminRole` `DEFAULT_ADMIN_ROLE` is the starting admin for all roles, despite {RoleAdminChanged} not being emitted to signal this."
      },
      "RoleGranted(bytes32,address,address)": {
        "details": "Emitted when `account` is granted `role`. `sender` is the account that originated the contract call. This account bears the admin role (for the granted role). Expected in cases where the role was granted using the internal {AccessControl-_grantRole}."
      },
      "RoleRevoked(bytes32,address,address)": {
        "details": "Emitted when `account` is revoked `role`. `sender` is the account that originated the contract call:   - if using `revokeRole`, it is the admin role bearer   - if using `renounceRole`, it is the role bearer (i.e. `account`)"
      },
      "Transferred(uint256,address,address)": {
        "details": "This emits when data is transferred with ownership"
      },
      "Unpaused(address)": {
        "details": "Emitted when the pause is lifted by `account`."
      }
    },
    "kind": "dev",
    "methods": {
      "balanceOf(address)": {
        "params": {
          "owner": "Address to check"
        },
        "returns": {
          "_0": "Number of agents owned (0 or 1)"
        }
      },
      "canProcessDreamToday(uint256)": {
        "params": {
          "tokenId": "Agent to check"
        },
        "returns": {
          "canProcess": "True if agent can process a dream today"
        }
      },
      "emergencyAuthorizeUser(uint256,address)": {
        "details": "Only ADMIN_ROLE can use this in emergencies",
        "params": {
          "tokenId": "Agent to authorize user for",
          "user": "User to authorize"
        }
      },
      "emergencyTransfer(uint256,address)": {
        "details": "Only ADMIN_ROLE can use this in emergencies",
        "params": {
          "to": "New owner",
          "tokenId": "Agent to transfer"
        }
      },
      "getAgentInfo(uint256)": {
        "params": {
          "tokenId": "Agent to query"
        },
        "returns": {
          "info": "Complete agent information"
        }
      },
      "getAgentName(uint256)": {
        "params": {
          "tokenId": "Agent to query"
        },
        "returns": {
          "_0": "Agent name"
        }
      },
      "getConversationHistory(uint256,uint256)": {
        "params": {
          "limit": "Maximum number of conversations to return (0 = all)",
          "tokenId": "Agent to query"
        },
        "returns": {
          "conversationHashesArray": "Array of conversation storage hashes"
        }
      },
      "getCreationTime(uint256)": {
        "params": {
          "tokenId": "Agent to query"
        },
        "returns": {
          "_0": "Creation timestamp"
        }
      },
      "getDreamHistory(uint256,uint256)": {
        "params": {
          "limit": "Maximum number of dreams to return (0 = all)",
          "tokenId": "Agent to query"
        },
        "returns": {
          "dreamHashesArray": "Array of dream storage hashes"
        }
      },
      "getEvolutionStats(uint256)": {
        "params": {
          "tokenId": "Agent to analyze"
        },
        "returns": {
          "evolutionRate": "Rate of personality change",
          "lastEvolution": "Timestamp of last evolution",
          "totalEvolutions": "Number of personality changes"
        }
      },
      "getOwnerAgent(address)": {
        "params": {
          "owner": "Address to check"
        },
        "returns": {
          "info": "Complete agent information (or empty if no agent)"
        }
      },
      "getOwnerTokenId(address)": {
        "params": {
          "owner": "Address to check"
        },
        "returns": {
          "_0": "tokenId Agent token ID (0 if no agent)"
        }
      },
      "getPersonalityTraits(uint256)": {
        "params": {
          "tokenId": "Agent to query"
        },
        "returns": {
          "traits": "Current personality traits (neutral if not evolved yet)"
        }
      },
      "getRoleAdmin(bytes32)": {
        "details": "Returns the admin role that controls `role`. See {grantRole} and {revokeRole}. To change a role's admin, use {_setRoleAdmin}."
      },
      "getUserAgent()": {
        "returns": {
          "info": "Complete agent information (or empty if no agent)"
        }
      },
      "getUserTokenId()": {
        "returns": {
          "_0": "tokenId Agent token ID (0 if no agent)"
        }
      },
      "grantRole(bytes32,address)": {
        "details": "Grants `role` to `account`. If `account` had not been already granted `role`, emits a {RoleGranted} event. Requirements: - the caller must have ``role``'s admin role. May emit a {RoleGranted} event."
      },
      "hasMilestone(uint256,string)": {
        "params": {
          "milestone": "Milestone to check",
          "tokenId": "Agent to check"
        },
        "returns": {
          "achieved": "True if milestone has been achieved",
          "achievedAt": "Timestamp when milestone was achieved"
        }
      },
      "hasRole(bytes32,address)": {
        "details": "Returns `true` if `account` has been granted `role`."
      },
      "mintAgent(bytes[],string[],string,address)": {
        "params": {
          "agentName": "User-given name for the agent",
          "descriptions": "Data type descriptions",
          "proofs": "Ownership proofs for initial data",
          "to": "Address to mint agent for"
        },
        "returns": {
          "tokenId": "The newly minted agent token ID"
        }
      },
      "pause()": {
        "details": "Only accounts with PAUSER_ROLE can pause"
      },
      "paused()": {
        "details": "Returns true if the contract is paused, and false otherwise."
      },
      "processDailyDream(uint256,bytes32,bytes32,(int8,int8,int8,int8,int8,int8,string,uint8))": {
        "params": {
          "dreamAnalysisHash": "0G Storage hash of AI analysis",
          "dreamHash": "0G Storage hash of encrypted dream data",
          "impact": "Personality changes from dream analysis (only used every 5th dream)",
          "tokenId": "Agent to evolve"
        }
      },
      "recordConversation(uint256,bytes32,uint8)": {
        "params": {
          "contextType": "Type of conversation for context building",
          "conversationHash": "0G Storage hash of conversation data",
          "tokenId": "Agent having conversation"
        }
      },
      "renounceRole(bytes32,address)": {
        "details": "Revokes `role` from the calling account. Roles are often managed via {grantRole} and {revokeRole}: this function's purpose is to provide a mechanism for accounts to lose their privileges if they are compromised (such as when a trusted device is misplaced). If the calling account had been revoked `role`, emits a {RoleRevoked} event. Requirements: - the caller must be `callerConfirmation`. May emit a {RoleRevoked} event."
      },
      "revokeRole(bytes32,address)": {
        "details": "Revokes `role` from `account`. If `account` had been granted `role`, emits a {RoleRevoked} event. Requirements: - the caller must have ``role``'s admin role. May emit a {RoleRevoked} event."
      },
      "supportsInterface(bytes4)": {
        "params": {
          "interfaceId": "Interface identifier"
        },
        "returns": {
          "_0": "True if supported"
        }
      },
      "totalSupply()": {
        "returns": {
          "_0": "Total number of minted agents"
        }
      },
      "transfer(address,uint256,bytes[])": {
        "params": {
          "to": "New owner address",
          "tokenId": "Agent to transfer"
        }
      },
      "unpause()": {
        "details": "Only accounts with PAUSER_ROLE can unpause"
      }
    },
    "stateVariables": {
      "verifier": {
        "return": "The address of the verifier contract",
        "returns": {
          "_0": "The address of the verifier contract"
        }
      }
    },
    "title": "DreamscapeAgent - Enhanced Personality Evolution iNFTs",
    "version": 1
  },
  "userdoc": {
    "kind": "user",
    "methods": {
      "balanceOf(address)": {
        "notice": "Get balance of owner (0 or 1 due to one agent limit)"
      },
      "canProcessDreamToday(uint256)": {
        "notice": "Check if agent can process dream today (24h cooldown)"
      },
      "emergencyAuthorizeUser(uint256,address)": {
        "notice": "Emergency admin function to authorize user"
      },
      "emergencyTransfer(uint256,address)": {
        "notice": "Emergency admin function to transfer agent"
      },
      "getAgentInfo(uint256)": {
        "notice": "Get complete agent information by token ID"
      },
      "getAgentName(uint256)": {
        "notice": "Get agent's name"
      },
      "getConversationHistory(uint256,uint256)": {
        "notice": "Get agent's conversation history hashes"
      },
      "getCreationTime(uint256)": {
        "notice": "Get agent's creation timestamp"
      },
      "getDreamHistory(uint256,uint256)": {
        "notice": "Get agent's dream history hashes"
      },
      "getEvolutionStats(uint256)": {
        "notice": "Get personality evolution statistics"
      },
      "getOwnerAgent(address)": {
        "notice": "Get owner's agent complete information"
      },
      "getOwnerTokenId(address)": {
        "notice": "Get owner's agent token ID"
      },
      "getPersonalityTraits(uint256)": {
        "notice": "Get agent's current personality traits"
      },
      "getUserAgent()": {
        "notice": "Get caller's agent complete information"
      },
      "getUserTokenId()": {
        "notice": "Get caller's agent token ID"
      },
      "hasMilestone(uint256,string)": {
        "notice": "Check if agent has reached specific personality milestone"
      },
      "mintAgent(bytes[],string[],string,address)": {
        "notice": "Mint new dream agent (starts as blank slate)"
      },
      "pause()": {
        "notice": "Pause contract operations"
      },
      "processDailyDream(uint256,bytes32,bytes32,(int8,int8,int8,int8,int8,int8,string,uint8))": {
        "notice": "Process daily dream and evolve agent personality (every 5th dream)"
      },
      "recordConversation(uint256,bytes32,uint8)": {
        "notice": "Record conversation without personality evolution"
      },
      "supportsInterface(bytes4)": {
        "notice": "Check if contract supports interface"
      },
      "totalSupply()": {
        "notice": "Get total supply of agents"
      },
      "transfer(address,uint256,bytes[])": {
        "notice": "Transfer agent with personality preservation"
      },
      "unpause()": {
        "notice": "Unpause contract operations"
      },
      "verifier()": {
        "notice": "The verifier interface that this NFT uses"
      }
    },
    "notice": "Advanced dream agents that develop unique personalities based on user dreams",
    "version": 1
  },
  "storageLayout": {
    "storage": [
      {
        "astId": 527,
        "contract": "contracts/DreamscapeAgent.sol:DreamscapeAgent",
        "label": "_status",
        "offset": 0,
        "slot": "0",
        "type": "t_uint256"
      },
      {
        "astId": 26,
        "contract": "contracts/DreamscapeAgent.sol:DreamscapeAgent",
        "label": "_roles",
        "offset": 0,
        "slot": "1",
        "type": "t_mapping(t_bytes32,t_struct(RoleData)21_storage)"
      },
      {
        "astId": 417,
        "contract": "contracts/DreamscapeAgent.sol:DreamscapeAgent",
        "label": "_paused",
        "offset": 0,
        "slot": "2",
        "type": "t_bool"
      },
      {
        "astId": 774,
        "contract": "contracts/DreamscapeAgent.sol:DreamscapeAgent",
        "label": "agents",
        "offset": 0,
        "slot": "3",
        "type": "t_mapping(t_uint256,t_struct(DreamAgent)761_storage)"
      },
      {
        "astId": 778,
        "contract": "contracts/DreamscapeAgent.sol:DreamscapeAgent",
        "label": "nameExists",
        "offset": 0,
        "slot": "4",
        "type": "t_mapping(t_string_memory_ptr,t_bool)"
      },
      {
        "astId": 781,
        "contract": "contracts/DreamscapeAgent.sol:DreamscapeAgent",
        "label": "nextTokenId",
        "offset": 0,
        "slot": "5",
        "type": "t_uint256"
      },
      {
        "astId": 784,
        "contract": "contracts/DreamscapeAgent.sol:DreamscapeAgent",
        "label": "totalAgents",
        "offset": 0,
        "slot": "6",
        "type": "t_uint256"
      },
      {
        "astId": 787,
        "contract": "contracts/DreamscapeAgent.sol:DreamscapeAgent",
        "label": "totalFeesCollected",
        "offset": 0,
        "slot": "7",
        "type": "t_uint256"
      },
      {
        "astId": 791,
        "contract": "contracts/DreamscapeAgent.sol:DreamscapeAgent",
        "label": "ownerToTokenId",
        "offset": 0,
        "slot": "8",
        "type": "t_mapping(t_address,t_uint256)"
      },
      {
        "astId": 796,
        "contract": "contracts/DreamscapeAgent.sol:DreamscapeAgent",
        "label": "agentPersonalities",
        "offset": 0,
        "slot": "9",
        "type": "t_mapping(t_uint256,t_struct(PersonalityTraits)3395_storage)"
      },
      {
        "astId": 801,
        "contract": "contracts/DreamscapeAgent.sol:DreamscapeAgent",
        "label": "dreamHashes",
        "offset": 0,
        "slot": "10",
        "type": "t_mapping(t_uint256,t_array(t_bytes32)dyn_storage)"
      },
      {
        "astId": 806,
        "contract": "contracts/DreamscapeAgent.sol:DreamscapeAgent",
        "label": "conversationHashes",
        "offset": 0,
        "slot": "11",
        "type": "t_mapping(t_uint256,t_array(t_bytes32)dyn_storage)"
      },
      {
        "astId": 811,
        "contract": "contracts/DreamscapeAgent.sol:DreamscapeAgent",
        "label": "dreamAnalysisHashes",
        "offset": 0,
        "slot": "12",
        "type": "t_mapping(t_uint256,t_array(t_bytes32)dyn_storage)"
      },
      {
        "astId": 818,
        "contract": "contracts/DreamscapeAgent.sol:DreamscapeAgent",
        "label": "milestones",
        "offset": 0,
        "slot": "13",
        "type": "t_mapping(t_uint256,t_mapping(t_string_memory_ptr,t_struct(MilestoneData)769_storage))"
      },
      {
        "astId": 822,
        "contract": "contracts/DreamscapeAgent.sol:DreamscapeAgent",
        "label": "responseStyles",
        "offset": 0,
        "slot": "14",
        "type": "t_mapping(t_uint256,t_string_storage)"
      },
      {
        "astId": 825,
        "contract": "contracts/DreamscapeAgent.sol:DreamscapeAgent",
        "label": "name",
        "offset": 0,
        "slot": "15",
        "type": "t_string_storage"
      },
      {
        "astId": 828,
        "contract": "contracts/DreamscapeAgent.sol:DreamscapeAgent",
        "label": "symbol",
        "offset": 0,
        "slot": "16",
        "type": "t_string_storage"
      }
    ],
    "types": {
      "t_address": {
        "encoding": "inplace",
        "label": "address",
        "numberOfBytes": "20"
      },
      "t_array(t_address)dyn_storage": {
        "base": "t_address",
        "encoding": "dynamic_array",
        "label": "address[]",
        "numberOfBytes": "32"
      },
      "t_array(t_bytes32)dyn_storage": {
        "base": "t_bytes32",
        "encoding": "dynamic_array",
        "label": "bytes32[]",
        "numberOfBytes": "32"
      },
      "t_array(t_string_storage)dyn_storage": {
        "base": "t_string_storage",
        "encoding": "dynamic_array",
        "label": "string[]",
        "numberOfBytes": "32"
      },
      "t_bool": {
        "encoding": "inplace",
        "label": "bool",
        "numberOfBytes": "1"
      },
      "t_bytes32": {
        "encoding": "inplace",
        "label": "bytes32",
        "numberOfBytes": "32"
      },
      "t_mapping(t_address,t_bool)": {
        "encoding": "mapping",
        "key": "t_address",
        "label": "mapping(address => bool)",
        "numberOfBytes": "32",
        "value": "t_bool"
      },
      "t_mapping(t_address,t_uint256)": {
        "encoding": "mapping",
        "key": "t_address",
        "label": "mapping(address => uint256)",
        "numberOfBytes": "32",
        "value": "t_uint256"
      },
      "t_mapping(t_bytes32,t_struct(RoleData)21_storage)": {
        "encoding": "mapping",
        "key": "t_bytes32",
        "label": "mapping(bytes32 => struct AccessControl.RoleData)",
        "numberOfBytes": "32",
        "value": "t_struct(RoleData)21_storage"
      },
      "t_mapping(t_string_memory_ptr,t_bool)": {
        "encoding": "mapping",
        "key": "t_string_memory_ptr",
        "label": "mapping(string => bool)",
        "numberOfBytes": "32",
        "value": "t_bool"
      },
      "t_mapping(t_string_memory_ptr,t_struct(MilestoneData)769_storage)": {
        "encoding": "mapping",
        "key": "t_string_memory_ptr",
        "label": "mapping(string => struct DreamscapeAgent.MilestoneData)",
        "numberOfBytes": "32",
        "value": "t_struct(MilestoneData)769_storage"
      },
      "t_mapping(t_uint256,t_array(t_bytes32)dyn_storage)": {
        "encoding": "mapping",
        "key": "t_uint256",
        "label": "mapping(uint256 => bytes32[])",
        "numberOfBytes": "32",
        "value": "t_array(t_bytes32)dyn_storage"
      },
      "t_mapping(t_uint256,t_mapping(t_string_memory_ptr,t_struct(MilestoneData)769_storage))": {
        "encoding": "mapping",
        "key": "t_uint256",
        "label": "mapping(uint256 => mapping(string => struct DreamscapeAgent.MilestoneData))",
        "numberOfBytes": "32",
        "value": "t_mapping(t_string_memory_ptr,t_struct(MilestoneData)769_storage)"
      },
      "t_mapping(t_uint256,t_string_storage)": {
        "encoding": "mapping",
        "key": "t_uint256",
        "label": "mapping(uint256 => string)",
        "numberOfBytes": "32",
        "value": "t_string_storage"
      },
      "t_mapping(t_uint256,t_struct(DreamAgent)761_storage)": {
        "encoding": "mapping",
        "key": "t_uint256",
        "label": "mapping(uint256 => struct DreamscapeAgent.DreamAgent)",
        "numberOfBytes": "32",
        "value": "t_struct(DreamAgent)761_storage"
      },
      "t_mapping(t_uint256,t_struct(PersonalityTraits)3395_storage)": {
        "encoding": "mapping",
        "key": "t_uint256",
        "label": "mapping(uint256 => struct IPersonalityEvolution.PersonalityTraits)",
        "numberOfBytes": "32",
        "value": "t_struct(PersonalityTraits)3395_storage"
      },
      "t_string_memory_ptr": {
        "encoding": "bytes",
        "label": "string",
        "numberOfBytes": "32"
      },
      "t_string_storage": {
        "encoding": "bytes",
        "label": "string",
        "numberOfBytes": "32"
      },
      "t_struct(DreamAgent)761_storage": {
        "encoding": "inplace",
        "label": "struct DreamscapeAgent.DreamAgent",
        "members": [
          {
            "astId": 730,
            "contract": "contracts/DreamscapeAgent.sol:DreamscapeAgent",
            "label": "owner",
            "offset": 0,
            "slot": "0",
            "type": "t_address"
          },
          {
            "astId": 732,
            "contract": "contracts/DreamscapeAgent.sol:DreamscapeAgent",
            "label": "agentName",
            "offset": 0,
            "slot": "1",
            "type": "t_string_storage"
          },
          {
            "astId": 734,
            "contract": "contracts/DreamscapeAgent.sol:DreamscapeAgent",
            "label": "createdAt",
            "offset": 0,
            "slot": "2",
            "type": "t_uint256"
          },
          {
            "astId": 736,
            "contract": "contracts/DreamscapeAgent.sol:DreamscapeAgent",
            "label": "lastUpdated",
            "offset": 0,
            "slot": "3",
            "type": "t_uint256"
          },
          {
            "astId": 739,
            "contract": "contracts/DreamscapeAgent.sol:DreamscapeAgent",
            "label": "dataDescriptions",
            "offset": 0,
            "slot": "4",
            "type": "t_array(t_string_storage)dyn_storage"
          },
          {
            "astId": 742,
            "contract": "contracts/DreamscapeAgent.sol:DreamscapeAgent",
            "label": "dataHashes",
            "offset": 0,
            "slot": "5",
            "type": "t_array(t_bytes32)dyn_storage"
          },
          {
            "astId": 745,
            "contract": "contracts/DreamscapeAgent.sol:DreamscapeAgent",
            "label": "authorizedUsers",
            "offset": 0,
            "slot": "6",
            "type": "t_array(t_address)dyn_storage"
          },
          {
            "astId": 747,
            "contract": "contracts/DreamscapeAgent.sol:DreamscapeAgent",
            "label": "intelligenceLevel",
            "offset": 0,
            "slot": "7",
            "type": "t_uint256"
          },
          {
            "astId": 749,
            "contract": "contracts/DreamscapeAgent.sol:DreamscapeAgent",
            "label": "dreamCount",
            "offset": 0,
            "slot": "8",
            "type": "t_uint256"
          },
          {
            "astId": 751,
            "contract": "contracts/DreamscapeAgent.sol:DreamscapeAgent",
            "label": "conversationCount",
            "offset": 0,
            "slot": "9",
            "type": "t_uint256"
          },
          {
            "astId": 753,
            "contract": "contracts/DreamscapeAgent.sol:DreamscapeAgent",
            "label": "personalityInitialized",
            "offset": 0,
            "slot": "10",
            "type": "t_bool"
          },
          {
            "astId": 755,
            "contract": "contracts/DreamscapeAgent.sol:DreamscapeAgent",
            "label": "totalEvolutions",
            "offset": 0,
            "slot": "11",
            "type": "t_uint256"
          },
          {
            "astId": 757,
            "contract": "contracts/DreamscapeAgent.sol:DreamscapeAgent",
            "label": "lastEvolutionDate",
            "offset": 0,
            "slot": "12",
            "type": "t_uint256"
          },
          {
            "astId": 760,
            "contract": "contracts/DreamscapeAgent.sol:DreamscapeAgent",
            "label": "achievedMilestones",
            "offset": 0,
            "slot": "13",
            "type": "t_array(t_string_storage)dyn_storage"
          }
        ],
        "numberOfBytes": "448"
      },
      "t_struct(MilestoneData)769_storage": {
        "encoding": "inplace",
        "label": "struct DreamscapeAgent.MilestoneData",
        "members": [
          {
            "astId": 764,
            "contract": "contracts/DreamscapeAgent.sol:DreamscapeAgent",
            "label": "achieved",
            "offset": 0,
            "slot": "0",
            "type": "t_bool"
          },
          {
            "astId": 766,
            "contract": "contracts/DreamscapeAgent.sol:DreamscapeAgent",
            "label": "achievedAt",
            "offset": 0,
            "slot": "1",
            "type": "t_uint256"
          },
          {
            "astId": 768,
            "contract": "contracts/DreamscapeAgent.sol:DreamscapeAgent",
            "label": "traitValue",
            "offset": 0,
            "slot": "2",
            "type": "t_uint8"
          }
        ],
        "numberOfBytes": "96"
      },
      "t_struct(PersonalityTraits)3395_storage": {
        "encoding": "inplace",
        "label": "struct IPersonalityEvolution.PersonalityTraits",
        "members": [
          {
            "astId": 3380,
            "contract": "contracts/DreamscapeAgent.sol:DreamscapeAgent",
            "label": "creativity",
            "offset": 0,
            "slot": "0",
            "type": "t_uint8"
          },
          {
            "astId": 3382,
            "contract": "contracts/DreamscapeAgent.sol:DreamscapeAgent",
            "label": "analytical",
            "offset": 1,
            "slot": "0",
            "type": "t_uint8"
          },
          {
            "astId": 3384,
            "contract": "contracts/DreamscapeAgent.sol:DreamscapeAgent",
            "label": "empathy",
            "offset": 2,
            "slot": "0",
            "type": "t_uint8"
          },
          {
            "astId": 3386,
            "contract": "contracts/DreamscapeAgent.sol:DreamscapeAgent",
            "label": "intuition",
            "offset": 3,
            "slot": "0",
            "type": "t_uint8"
          },
          {
            "astId": 3388,
            "contract": "contracts/DreamscapeAgent.sol:DreamscapeAgent",
            "label": "resilience",
            "offset": 4,
            "slot": "0",
            "type": "t_uint8"
          },
          {
            "astId": 3390,
            "contract": "contracts/DreamscapeAgent.sol:DreamscapeAgent",
            "label": "curiosity",
            "offset": 5,
            "slot": "0",
            "type": "t_uint8"
          },
          {
            "astId": 3392,
            "contract": "contracts/DreamscapeAgent.sol:DreamscapeAgent",
            "label": "dominantMood",
            "offset": 0,
            "slot": "1",
            "type": "t_string_storage"
          },
          {
            "astId": 3394,
            "contract": "contracts/DreamscapeAgent.sol:DreamscapeAgent",
            "label": "lastDreamDate",
            "offset": 0,
            "slot": "2",
            "type": "t_uint256"
          }
        ],
        "numberOfBytes": "96"
      },
      "t_struct(RoleData)21_storage": {
        "encoding": "inplace",
        "label": "struct AccessControl.RoleData",
        "members": [
          {
            "astId": 18,
            "contract": "contracts/DreamscapeAgent.sol:DreamscapeAgent",
            "label": "hasRole",
            "offset": 0,
            "slot": "0",
            "type": "t_mapping(t_address,t_bool)"
          },
          {
            "astId": 20,
            "contract": "contracts/DreamscapeAgent.sol:DreamscapeAgent",
            "label": "adminRole",
            "offset": 0,
            "slot": "1",
            "type": "t_bytes32"
          }
        ],
        "numberOfBytes": "64"
      },
      "t_uint256": {
        "encoding": "inplace",
        "label": "uint256",
        "numberOfBytes": "32"
      },
      "t_uint8": {
        "encoding": "inplace",
        "label": "uint8",
        "numberOfBytes": "1"
      }
    }
  }
}