{
  "address": "0x9795fD7264932B2D75A8890bAdF5a7DeFffA4e69",
  "abi": [
    {
      "inputs": [
        {
          "internalType": "address",
          "name": "_verifier",
          "type": "address"
        },
        {
          "internalType": "address",
          "name": "_treasury",
          "type": "address"
        }
      ],
      "stateMutability": "nonpayable",
      "type": "constructor"
    },
    {
      "inputs": [],
      "name": "AccessControlBadConfirmation",
      "type": "error"
    },
    {
      "inputs": [
        {
          "internalType": "address",
          "name": "account",
          "type": "address"
        },
        {
          "internalType": "bytes32",
          "name": "neededRole",
          "type": "bytes32"
        }
      ],
      "name": "AccessControlUnauthorizedAccount",
      "type": "error"
    },
    {
      "inputs": [],
      "name": "EnforcedPause",
      "type": "error"
    },
    {
      "inputs": [],
      "name": "ExpectedPause",
      "type": "error"
    },
    {
      "inputs": [],
      "name": "ReentrancyGuardReentrantCall",
      "type": "error"
    },
    {
      "anonymous": false,
      "inputs": [
        {
          "indexed": true,
          "internalType": "uint256",
          "name": "tokenId",
          "type": "uint256"
        },
        {
          "indexed": true,
          "internalType": "bytes32",
          "name": "conversationHash",
          "type": "bytes32"
        },
        {
          "indexed": false,
          "internalType": "enum IPersonalityEvolution.ContextType",
          "name": "contextType",
          "type": "uint8"
        },
        {
          "indexed": false,
          "internalType": "uint256",
          "name": "conversationCount",
          "type": "uint256"
        }
      ],
      "name": "AgentConversation",
      "type": "event"
    },
    {
      "anonymous": false,
      "inputs": [
        {
          "indexed": true,
          "internalType": "uint256",
          "name": "tokenId",
          "type": "uint256"
        },
        {
          "indexed": false,
          "internalType": "uint256",
          "name": "oldLevel",
          "type": "uint256"
        },
        {
          "indexed": false,
          "internalType": "uint256",
          "name": "newLevel",
          "type": "uint256"
        }
      ],
      "name": "AgentEvolved",
      "type": "event"
    },
    {
      "anonymous": false,
      "inputs": [
        {
          "indexed": true,
          "internalType": "uint256",
          "name": "_tokenId",
          "type": "uint256"
        },
        {
          "indexed": true,
          "internalType": "address",
          "name": "_user",
          "type": "address"
        }
      ],
      "name": "AuthorizedUsage",
      "type": "event"
    },
    {
      "anonymous": false,
      "inputs": [
        {
          "indexed": true,
          "internalType": "uint256",
          "name": "_tokenId",
          "type": "uint256"
        },
        {
          "indexed": true,
          "internalType": "uint256",
          "name": "_newTokenId",
          "type": "uint256"
        },
        {
          "indexed": false,
          "internalType": "address",
          "name": "_from",
          "type": "address"
        },
        {
          "indexed": false,
          "internalType": "address",
          "name": "_to",
          "type": "address"
        }
      ],
      "name": "Cloned",
      "type": "event"
    },
    {
      "anonymous": false,
      "inputs": [
        {
          "indexed": true,
          "internalType": "uint256",
          "name": "tokenId",
          "type": "uint256"
        },
        {
          "indexed": false,
          "internalType": "string",
          "name": "period",
          "type": "string"
        },
        {
          "indexed": false,
          "internalType": "uint256",
          "name": "bonus",
          "type": "uint256"
        },
        {
          "indexed": false,
          "internalType": "string",
          "name": "specialReward",
          "type": "string"
        }
      ],
      "name": "ConsolidationCompleted",
      "type": "event"
    },
    {
      "anonymous": false,
      "inputs": [
        {
          "indexed": true,
          "internalType": "uint256",
          "name": "tokenId",
          "type": "uint256"
        },
        {
          "indexed": false,
          "internalType": "uint8",
          "name": "month",
          "type": "uint8"
        },
        {
          "indexed": false,
          "internalType": "uint16",
          "name": "year",
          "type": "uint16"
        },
        {
          "indexed": false,
          "internalType": "string",
          "name": "consolidationType",
          "type": "string"
        }
      ],
      "name": "ConsolidationNeeded",
      "type": "event"
    },
    {
      "anonymous": false,
      "inputs": [
        {
          "indexed": true,
          "internalType": "uint256",
          "name": "tokenId",
          "type": "uint256"
        },
        {
          "indexed": false,
          "internalType": "bytes32",
          "name": "dreamHash",
          "type": "bytes32"
        },
        {
          "indexed": false,
          "internalType": "uint256",
          "name": "intelligenceLevel",
          "type": "uint256"
        }
      ],
      "name": "DreamProcessed",
      "type": "event"
    },
    {
      "anonymous": false,
      "inputs": [
        {
          "indexed": true,
          "internalType": "uint256",
          "name": "tokenId",
          "type": "uint256"
        },
        {
          "indexed": true,
          "internalType": "address",
          "name": "payer",
          "type": "address"
        },
        {
          "indexed": false,
          "internalType": "uint256",
          "name": "amount",
          "type": "uint256"
        }
      ],
      "name": "FeePaid",
      "type": "event"
    },
    {
      "anonymous": false,
      "inputs": [
        {
          "indexed": true,
          "internalType": "uint256",
          "name": "tokenId",
          "type": "uint256"
        },
        {
          "indexed": false,
          "internalType": "string",
          "name": "achievement",
          "type": "string"
        },
        {
          "indexed": false,
          "internalType": "uint256",
          "name": "totalInteractions",
          "type": "uint256"
        }
      ],
      "name": "MemoryMilestone",
      "type": "event"
    },
    {
      "anonymous": false,
      "inputs": [
        {
          "indexed": true,
          "internalType": "uint256",
          "name": "tokenId",
          "type": "uint256"
        },
        {
          "indexed": false,
          "internalType": "string",
          "name": "memoryType",
          "type": "string"
        },
        {
          "indexed": false,
          "internalType": "bytes32",
          "name": "newHash",
          "type": "bytes32"
        },
        {
          "indexed": false,
          "internalType": "bytes32",
          "name": "oldHash",
          "type": "bytes32"
        }
      ],
      "name": "MemoryUpdated",
      "type": "event"
    },
    {
      "anonymous": false,
      "inputs": [
        {
          "indexed": true,
          "internalType": "uint256",
          "name": "tokenId",
          "type": "uint256"
        },
        {
          "indexed": false,
          "internalType": "string",
          "name": "milestone",
          "type": "string"
        },
        {
          "indexed": false,
          "internalType": "uint8",
          "name": "value",
          "type": "uint8"
        }
      ],
      "name": "MilestoneUnlocked",
      "type": "event"
    },
    {
      "anonymous": false,
      "inputs": [
        {
          "indexed": true,
          "internalType": "uint256",
          "name": "_tokenId",
          "type": "uint256"
        },
        {
          "indexed": true,
          "internalType": "address",
          "name": "_creator",
          "type": "address"
        },
        {
          "indexed": true,
          "internalType": "address",
          "name": "_owner",
          "type": "address"
        },
        {
          "indexed": false,
          "internalType": "bytes32[]",
          "name": "_dataHashes",
          "type": "bytes32[]"
        },
        {
          "indexed": false,
          "internalType": "string[]",
          "name": "_dataDescriptions",
          "type": "string[]"
        }
      ],
      "name": "Minted",
      "type": "event"
    },
    {
      "anonymous": false,
      "inputs": [
        {
          "indexed": false,
          "internalType": "address",
          "name": "account",
          "type": "address"
        }
      ],
      "name": "Paused",
      "type": "event"
    },
    {
      "anonymous": false,
      "inputs": [
        {
          "indexed": true,
          "internalType": "uint256",
          "name": "tokenId",
          "type": "uint256"
        },
        {
          "components": [
            {
              "internalType": "uint8",
              "name": "creativity",
              "type": "uint8"
            },
            {
              "internalType": "uint8",
              "name": "analytical",
              "type": "uint8"
            },
            {
              "internalType": "uint8",
              "name": "empathy",
              "type": "uint8"
            },
            {
              "internalType": "uint8",
              "name": "intuition",
              "type": "uint8"
            },
            {
              "internalType": "uint8",
              "name": "resilience",
              "type": "uint8"
            },
            {
              "internalType": "uint8",
              "name": "curiosity",
              "type": "uint8"
            },
            {
              "internalType": "string",
              "name": "dominantMood",
              "type": "string"
            },
            {
              "internalType": "uint256",
              "name": "lastDreamDate",
              "type": "uint256"
            }
          ],
          "indexed": false,
          "internalType": "struct IPersonalityEvolution.PersonalityTraits",
          "name": "traits",
          "type": "tuple"
        },
        {
          "indexed": false,
          "internalType": "uint256",
          "name": "dreamCount",
          "type": "uint256"
        }
      ],
      "name": "PersonalityActivated",
      "type": "event"
    },
    {
      "anonymous": false,
      "inputs": [
        {
          "indexed": true,
          "internalType": "uint256",
          "name": "tokenId",
          "type": "uint256"
        },
        {
          "indexed": true,
          "internalType": "bytes32",
          "name": "dreamHash",
          "type": "bytes32"
        },
        {
          "components": [
            {
              "internalType": "uint8",
              "name": "creativity",
              "type": "uint8"
            },
            {
              "internalType": "uint8",
              "name": "analytical",
              "type": "uint8"
            },
            {
              "internalType": "uint8",
              "name": "empathy",
              "type": "uint8"
            },
            {
              "internalType": "uint8",
              "name": "intuition",
              "type": "uint8"
            },
            {
              "internalType": "uint8",
              "name": "resilience",
              "type": "uint8"
            },
            {
              "internalType": "uint8",
              "name": "curiosity",
              "type": "uint8"
            },
            {
              "internalType": "string",
              "name": "dominantMood",
              "type": "string"
            },
            {
              "internalType": "uint256",
              "name": "lastDreamDate",
              "type": "uint256"
            }
          ],
          "indexed": false,
          "internalType": "struct IPersonalityEvolution.PersonalityTraits",
          "name": "newPersonality",
          "type": "tuple"
        },
        {
          "components": [
            {
              "internalType": "int8",
              "name": "creativityChange",
              "type": "int8"
            },
            {
              "internalType": "int8",
              "name": "analyticalChange",
              "type": "int8"
            },
            {
              "internalType": "int8",
              "name": "empathyChange",
              "type": "int8"
            },
            {
              "internalType": "int8",
              "name": "intuitionChange",
              "type": "int8"
            },
            {
              "internalType": "int8",
              "name": "resilienceChange",
              "type": "int8"
            },
            {
              "internalType": "int8",
              "name": "curiosityChange",
              "type": "int8"
            },
            {
              "internalType": "string",
              "name": "moodShift",
              "type": "string"
            },
            {
              "internalType": "uint8",
              "name": "evolutionWeight",
              "type": "uint8"
            }
          ],
          "indexed": false,
          "internalType": "struct IPersonalityEvolution.PersonalityImpact",
          "name": "impact",
          "type": "tuple"
        }
      ],
      "name": "PersonalityEvolved",
      "type": "event"
    },
    {
      "anonymous": false,
      "inputs": [
        {
          "indexed": true,
          "internalType": "uint256",
          "name": "tokenId",
          "type": "uint256"
        },
        {
          "indexed": false,
          "internalType": "string",
          "name": "milestone",
          "type": "string"
        },
        {
          "indexed": false,
          "internalType": "uint8",
          "name": "traitValue",
          "type": "uint8"
        },
        {
          "indexed": false,
          "internalType": "string",
          "name": "traitName",
          "type": "string"
        }
      ],
      "name": "PersonalityMilestone",
      "type": "event"
    },
    {
      "anonymous": false,
      "inputs": [
        {
          "indexed": true,
          "internalType": "address",
          "name": "_to",
          "type": "address"
        },
        {
          "indexed": true,
          "internalType": "uint256",
          "name": "_tokenId",
          "type": "uint256"
        },
        {
          "indexed": false,
          "internalType": "bytes16[]",
          "name": "_sealedKeys",
          "type": "bytes16[]"
        }
      ],
      "name": "PublishedSealedKey",
      "type": "event"
    },
    {
      "anonymous": false,
      "inputs": [
        {
          "indexed": true,
          "internalType": "uint256",
          "name": "tokenId",
          "type": "uint256"
        },
        {
          "indexed": false,
          "internalType": "string",
          "name": "newStyle",
          "type": "string"
        },
        {
          "indexed": false,
          "internalType": "string[]",
          "name": "dominantTraits",
          "type": "string[]"
        }
      ],
      "name": "ResponseStyleEvolved",
      "type": "event"
    },
    {
      "anonymous": false,
      "inputs": [
        {
          "indexed": true,
          "internalType": "uint256",
          "name": "tokenId",
          "type": "uint256"
        },
        {
          "indexed": false,
          "internalType": "string",
          "name": "oldStyle",
          "type": "string"
        },
        {
          "indexed": false,
          "internalType": "string",
          "name": "newStyle",
          "type": "string"
        }
      ],
      "name": "ResponseStyleUpdated",
      "type": "event"
    },
    {
      "anonymous": false,
      "inputs": [
        {
          "indexed": true,
          "internalType": "bytes32",
          "name": "role",
          "type": "bytes32"
        },
        {
          "indexed": true,
          "internalType": "bytes32",
          "name": "previousAdminRole",
          "type": "bytes32"
        },
        {
          "indexed": true,
          "internalType": "bytes32",
          "name": "newAdminRole",
          "type": "bytes32"
        }
      ],
      "name": "RoleAdminChanged",
      "type": "event"
    },
    {
      "anonymous": false,
      "inputs": [
        {
          "indexed": true,
          "internalType": "bytes32",
          "name": "role",
          "type": "bytes32"
        },
        {
          "indexed": true,
          "internalType": "address",
          "name": "account",
          "type": "address"
        },
        {
          "indexed": true,
          "internalType": "address",
          "name": "sender",
          "type": "address"
        }
      ],
      "name": "RoleGranted",
      "type": "event"
    },
    {
      "anonymous": false,
      "inputs": [
        {
          "indexed": true,
          "internalType": "bytes32",
          "name": "role",
          "type": "bytes32"
        },
        {
          "indexed": true,
          "internalType": "address",
          "name": "account",
          "type": "address"
        },
        {
          "indexed": true,
          "internalType": "address",
          "name": "sender",
          "type": "address"
        }
      ],
      "name": "RoleRevoked",
      "type": "event"
    },
    {
      "anonymous": false,
      "inputs": [
        {
          "indexed": false,
          "internalType": "uint256",
          "name": "_tokenId",
          "type": "uint256"
        },
        {
          "indexed": true,
          "internalType": "address",
          "name": "_from",
          "type": "address"
        },
        {
          "indexed": true,
          "internalType": "address",
          "name": "_to",
          "type": "address"
        }
      ],
      "name": "Transferred",
      "type": "event"
    },
    {
      "anonymous": false,
      "inputs": [
        {
          "indexed": false,
          "internalType": "address",
          "name": "account",
          "type": "address"
        }
      ],
      "name": "Unpaused",
      "type": "event"
    },
    {
      "anonymous": false,
      "inputs": [
        {
          "indexed": true,
          "internalType": "uint256",
          "name": "tokenId",
          "type": "uint256"
        },
        {
          "indexed": false,
          "internalType": "uint16",
          "name": "year",
          "type": "uint16"
        }
      ],
      "name": "YearlyReflectionAvailable",
      "type": "event"
    },
    {
      "inputs": [],
      "name": "ADMIN_ROLE",
      "outputs": [
        {
          "internalType": "bytes32",
          "name": "",
          "type": "bytes32"
        }
      ],
      "stateMutability": "view",
      "type": "function"
    },
    {
      "inputs": [],
      "name": "DEFAULT_ADMIN_ROLE",
      "outputs": [
        {
          "internalType": "bytes32",
          "name": "",
          "type": "bytes32"
        }
      ],
      "stateMutability": "view",
      "type": "function"
    },
    {
      "inputs": [],
      "name": "MAX_AGENTS",
      "outputs": [
        {
          "internalType": "uint256",
          "name": "",
          "type": "uint256"
        }
      ],
      "stateMutability": "view",
      "type": "function"
    },
    {
      "inputs": [],
      "name": "MINTING_FEE",
      "outputs": [
        {
          "internalType": "uint256",
          "name": "",
          "type": "uint256"
        }
      ],
      "stateMutability": "view",
      "type": "function"
    },
    {
      "inputs": [],
      "name": "PAUSER_ROLE",
      "outputs": [
        {
          "internalType": "bytes32",
          "name": "",
          "type": "bytes32"
        }
      ],
      "stateMutability": "view",
      "type": "function"
    },
    {
      "inputs": [],
      "name": "VERIFIER_ROLE",
      "outputs": [
        {
          "internalType": "bytes32",
          "name": "",
          "type": "bytes32"
        }
      ],
      "stateMutability": "view",
      "type": "function"
    },
    {
      "inputs": [
        {
          "internalType": "uint256",
          "name": "",
          "type": "uint256"
        }
      ],
      "name": "agentMemories",
      "outputs": [
        {
          "internalType": "bytes32",
          "name": "memoryCoreHash",
          "type": "bytes32"
        },
        {
          "internalType": "bytes32",
          "name": "currentDreamDailyHash",
          "type": "bytes32"
        },
        {
          "internalType": "bytes32",
          "name": "currentConvDailyHash",
          "type": "bytes32"
        },
        {
          "internalType": "bytes32",
          "name": "lastDreamMonthlyHash",
          "type": "bytes32"
        },
        {
          "internalType": "bytes32",
          "name": "lastConvMonthlyHash",
          "type": "bytes32"
        },
        {
          "internalType": "uint256",
          "name": "lastConsolidation",
          "type": "uint256"
        },
        {
          "internalType": "uint8",
          "name": "currentMonth",
          "type": "uint8"
        },
        {
          "internalType": "uint16",
          "name": "currentYear",
          "type": "uint16"
        }
      ],
      "stateMutability": "view",
      "type": "function"
    },
    {
      "inputs": [
        {
          "internalType": "uint256",
          "name": "",
          "type": "uint256"
        }
      ],
      "name": "agentPersonalities",
      "outputs": [
        {
          "internalType": "uint8",
          "name": "creativity",
          "type": "uint8"
        },
        {
          "internalType": "uint8",
          "name": "analytical",
          "type": "uint8"
        },
        {
          "internalType": "uint8",
          "name": "empathy",
          "type": "uint8"
        },
        {
          "internalType": "uint8",
          "name": "intuition",
          "type": "uint8"
        },
        {
          "internalType": "uint8",
          "name": "resilience",
          "type": "uint8"
        },
        {
          "internalType": "uint8",
          "name": "curiosity",
          "type": "uint8"
        },
        {
          "internalType": "string",
          "name": "dominantMood",
          "type": "string"
        },
        {
          "internalType": "uint256",
          "name": "lastDreamDate",
          "type": "uint256"
        }
      ],
      "stateMutability": "view",
      "type": "function"
    },
    {
      "inputs": [
        {
          "internalType": "uint256",
          "name": "",
          "type": "uint256"
        }
      ],
      "name": "agents",
      "outputs": [
        {
          "internalType": "address",
          "name": "owner",
          "type": "address"
        },
        {
          "internalType": "string",
          "name": "agentName",
          "type": "string"
        },
        {
          "internalType": "uint256",
          "name": "createdAt",
          "type": "uint256"
        },
        {
          "internalType": "uint256",
          "name": "lastUpdated",
          "type": "uint256"
        },
        {
          "internalType": "uint256",
          "name": "intelligenceLevel",
          "type": "uint256"
        },
        {
          "internalType": "uint256",
          "name": "dreamCount",
          "type": "uint256"
        },
        {
          "internalType": "uint256",
          "name": "conversationCount",
          "type": "uint256"
        },
        {
          "internalType": "bool",
          "name": "personalityInitialized",
          "type": "bool"
        },
        {
          "internalType": "uint256",
          "name": "totalEvolutions",
          "type": "uint256"
        },
        {
          "internalType": "uint256",
          "name": "lastEvolutionDate",
          "type": "uint256"
        }
      ],
      "stateMutability": "view",
      "type": "function"
    },
    {
      "inputs": [
        {
          "internalType": "uint256",
          "name": "tokenId",
          "type": "uint256"
        },
        {
          "internalType": "address",
          "name": "user",
          "type": "address"
        }
      ],
      "name": "authorizeUsage",
      "outputs": [],
      "stateMutability": "nonpayable",
      "type": "function"
    },
    {
      "inputs": [
        {
          "internalType": "uint256",
          "name": "tokenId",
          "type": "uint256"
        }
      ],
      "name": "authorizedUsersOf",
      "outputs": [
        {
          "internalType": "address[]",
          "name": "",
          "type": "address[]"
        }
      ],
      "stateMutability": "view",
      "type": "function"
    },
    {
      "inputs": [
        {
          "internalType": "address",
          "name": "owner",
          "type": "address"
        }
      ],
      "name": "balanceOf",
      "outputs": [
        {
          "internalType": "uint256",
          "name": "",
          "type": "uint256"
        }
      ],
      "stateMutability": "view",
      "type": "function"
    },
    {
      "inputs": [
        {
          "internalType": "uint256",
          "name": "tokenId",
          "type": "uint256"
        }
      ],
      "name": "canProcessDreamToday",
      "outputs": [
        {
          "internalType": "bool",
          "name": "",
          "type": "bool"
        }
      ],
      "stateMutability": "view",
      "type": "function"
    },
    {
      "inputs": [
        {
          "internalType": "uint256",
          "name": "tokenId",
          "type": "uint256"
        },
        {
          "internalType": "bytes32",
          "name": "dreamMonthlyHash",
          "type": "bytes32"
        },
        {
          "internalType": "bytes32",
          "name": "convMonthlyHash",
          "type": "bytes32"
        },
        {
          "internalType": "uint8",
          "name": "month",
          "type": "uint8"
        },
        {
          "internalType": "uint16",
          "name": "year",
          "type": "uint16"
        }
      ],
      "name": "consolidateMonth",
      "outputs": [],
      "stateMutability": "nonpayable",
      "type": "function"
    },
    {
      "inputs": [
        {
          "internalType": "uint256",
          "name": "",
          "type": "uint256"
        }
      ],
      "name": "consolidationStreak",
      "outputs": [
        {
          "internalType": "uint256",
          "name": "",
          "type": "uint256"
        }
      ],
      "stateMutability": "view",
      "type": "function"
    },
    {
      "inputs": [
        {
          "internalType": "uint256",
          "name": "tokenId",
          "type": "uint256"
        },
        {
          "internalType": "address",
          "name": "user",
          "type": "address"
        }
      ],
      "name": "emergencyAuthorizeUser",
      "outputs": [],
      "stateMutability": "nonpayable",
      "type": "function"
    },
    {
      "inputs": [
        {
          "internalType": "uint256",
          "name": "tokenId",
          "type": "uint256"
        },
        {
          "internalType": "address",
          "name": "to",
          "type": "address"
        }
      ],
      "name": "emergencyTransfer",
      "outputs": [],
      "stateMutability": "nonpayable",
      "type": "function"
    },
    {
      "inputs": [
        {
          "internalType": "uint256",
          "name": "",
          "type": "uint256"
        },
        {
          "internalType": "uint256",
          "name": "",
          "type": "uint256"
        }
      ],
      "name": "getConversationHistory",
      "outputs": [
        {
          "internalType": "bytes32[]",
          "name": "",
          "type": "bytes32[]"
        }
      ],
      "stateMutability": "pure",
      "type": "function"
    },
    {
      "inputs": [
        {
          "internalType": "uint256",
          "name": "",
          "type": "uint256"
        },
        {
          "internalType": "uint256",
          "name": "",
          "type": "uint256"
        }
      ],
      "name": "getDreamHistory",
      "outputs": [
        {
          "internalType": "bytes32[]",
          "name": "",
          "type": "bytes32[]"
        }
      ],
      "stateMutability": "pure",
      "type": "function"
    },
    {
      "inputs": [
        {
          "internalType": "uint256",
          "name": "tokenId",
          "type": "uint256"
        }
      ],
      "name": "getEvolutionStats",
      "outputs": [
        {
          "internalType": "uint256",
          "name": "totalEvolutions",
          "type": "uint256"
        },
        {
          "internalType": "uint256",
          "name": "evolutionRate",
          "type": "uint256"
        },
        {
          "internalType": "uint256",
          "name": "lastEvolution",
          "type": "uint256"
        }
      ],
      "stateMutability": "view",
      "type": "function"
    },
    {
      "inputs": [
        {
          "internalType": "uint256",
          "name": "tokenId",
          "type": "uint256"
        }
      ],
      "name": "getPersonalityTraits",
      "outputs": [
        {
          "components": [
            {
              "internalType": "uint8",
              "name": "creativity",
              "type": "uint8"
            },
            {
              "internalType": "uint8",
              "name": "analytical",
              "type": "uint8"
            },
            {
              "internalType": "uint8",
              "name": "empathy",
              "type": "uint8"
            },
            {
              "internalType": "uint8",
              "name": "intuition",
              "type": "uint8"
            },
            {
              "internalType": "uint8",
              "name": "resilience",
              "type": "uint8"
            },
            {
              "internalType": "uint8",
              "name": "curiosity",
              "type": "uint8"
            },
            {
              "internalType": "string",
              "name": "dominantMood",
              "type": "string"
            },
            {
              "internalType": "uint256",
              "name": "lastDreamDate",
              "type": "uint256"
            }
          ],
          "internalType": "struct IPersonalityEvolution.PersonalityTraits",
          "name": "",
          "type": "tuple"
        }
      ],
      "stateMutability": "view",
      "type": "function"
    },
    {
      "inputs": [
        {
          "internalType": "bytes32",
          "name": "role",
          "type": "bytes32"
        }
      ],
      "name": "getRoleAdmin",
      "outputs": [
        {
          "internalType": "bytes32",
          "name": "",
          "type": "bytes32"
        }
      ],
      "stateMutability": "view",
      "type": "function"
    },
    {
      "inputs": [
        {
          "internalType": "bytes32",
          "name": "role",
          "type": "bytes32"
        },
        {
          "internalType": "address",
          "name": "account",
          "type": "address"
        }
      ],
      "name": "grantRole",
      "outputs": [],
      "stateMutability": "nonpayable",
      "type": "function"
    },
    {
      "inputs": [
        {
          "internalType": "uint256",
          "name": "tokenId",
          "type": "uint256"
        },
        {
          "internalType": "string",
          "name": "name",
          "type": "string"
        }
      ],
      "name": "hasMilestone",
      "outputs": [
        {
          "internalType": "bool",
          "name": "achieved",
          "type": "bool"
        },
        {
          "internalType": "uint256",
          "name": "at",
          "type": "uint256"
        }
      ],
      "stateMutability": "view",
      "type": "function"
    },
    {
      "inputs": [
        {
          "internalType": "bytes32",
          "name": "role",
          "type": "bytes32"
        },
        {
          "internalType": "address",
          "name": "account",
          "type": "address"
        }
      ],
      "name": "hasRole",
      "outputs": [
        {
          "internalType": "bool",
          "name": "",
          "type": "bool"
        }
      ],
      "stateMutability": "view",
      "type": "function"
    },
    {
      "inputs": [
        {
          "internalType": "uint256",
          "name": "",
          "type": "uint256"
        },
        {
          "internalType": "string",
          "name": "",
          "type": "string"
        }
      ],
      "name": "milestones",
      "outputs": [
        {
          "internalType": "bool",
          "name": "achieved",
          "type": "bool"
        },
        {
          "internalType": "uint256",
          "name": "achievedAt",
          "type": "uint256"
        },
        {
          "internalType": "uint8",
          "name": "traitValue",
          "type": "uint8"
        }
      ],
      "stateMutability": "view",
      "type": "function"
    },
    {
      "inputs": [
        {
          "internalType": "bytes[]",
          "name": "proofs",
          "type": "bytes[]"
        },
        {
          "internalType": "string[]",
          "name": "descriptions",
          "type": "string[]"
        },
        {
          "internalType": "string",
          "name": "agentName",
          "type": "string"
        },
        {
          "internalType": "address",
          "name": "to",
          "type": "address"
        }
      ],
      "name": "mintAgent",
      "outputs": [
        {
          "internalType": "uint256",
          "name": "tokenId",
          "type": "uint256"
        }
      ],
      "stateMutability": "payable",
      "type": "function"
    },
    {
      "inputs": [
        {
          "internalType": "string",
          "name": "",
          "type": "string"
        }
      ],
      "name": "nameExists",
      "outputs": [
        {
          "internalType": "bool",
          "name": "",
          "type": "bool"
        }
      ],
      "stateMutability": "view",
      "type": "function"
    },
    {
      "inputs": [],
      "name": "nextTokenId",
      "outputs": [
        {
          "internalType": "uint256",
          "name": "",
          "type": "uint256"
        }
      ],
      "stateMutability": "view",
      "type": "function"
    },
    {
      "inputs": [
        {
          "internalType": "uint256",
          "name": "tokenId",
          "type": "uint256"
        }
      ],
      "name": "ownerOf",
      "outputs": [
        {
          "internalType": "address",
          "name": "",
          "type": "address"
        }
      ],
      "stateMutability": "view",
      "type": "function"
    },
    {
      "inputs": [
        {
          "internalType": "address",
          "name": "",
          "type": "address"
        }
      ],
      "name": "ownerToTokenId",
      "outputs": [
        {
          "internalType": "uint256",
          "name": "",
          "type": "uint256"
        }
      ],
      "stateMutability": "view",
      "type": "function"
    },
    {
      "inputs": [],
      "name": "pause",
      "outputs": [],
      "stateMutability": "nonpayable",
      "type": "function"
    },
    {
      "inputs": [],
      "name": "paused",
      "outputs": [
        {
          "internalType": "bool",
          "name": "",
          "type": "bool"
        }
      ],
      "stateMutability": "view",
      "type": "function"
    },
    {
      "inputs": [
        {
          "internalType": "uint256",
          "name": "",
          "type": "uint256"
        }
      ],
      "name": "pendingRewards",
      "outputs": [
        {
          "internalType": "uint256",
          "name": "intelligenceBonus",
          "type": "uint256"
        },
        {
          "internalType": "string",
          "name": "specialMilestone",
          "type": "string"
        },
        {
          "internalType": "bool",
          "name": "yearlyReflection",
          "type": "bool"
        }
      ],
      "stateMutability": "view",
      "type": "function"
    },
    {
      "inputs": [
        {
          "internalType": "uint256",
          "name": "tokenId",
          "type": "uint256"
        },
        {
          "internalType": "bytes32",
          "name": "dreamHash",
          "type": "bytes32"
        },
        {
          "internalType": "bytes32",
          "name": "dreamAnalysisHash",
          "type": "bytes32"
        },
        {
          "components": [
            {
              "internalType": "int8",
              "name": "creativityChange",
              "type": "int8"
            },
            {
              "internalType": "int8",
              "name": "analyticalChange",
              "type": "int8"
            },
            {
              "internalType": "int8",
              "name": "empathyChange",
              "type": "int8"
            },
            {
              "internalType": "int8",
              "name": "intuitionChange",
              "type": "int8"
            },
            {
              "internalType": "int8",
              "name": "resilienceChange",
              "type": "int8"
            },
            {
              "internalType": "int8",
              "name": "curiosityChange",
              "type": "int8"
            },
            {
              "internalType": "string",
              "name": "moodShift",
              "type": "string"
            },
            {
              "internalType": "uint8",
              "name": "evolutionWeight",
              "type": "uint8"
            }
          ],
          "internalType": "struct IPersonalityEvolution.PersonalityImpact",
          "name": "impact",
          "type": "tuple"
        }
      ],
      "name": "processDailyDream",
      "outputs": [],
      "stateMutability": "nonpayable",
      "type": "function"
    },
    {
      "inputs": [
        {
          "internalType": "uint256",
          "name": "tokenId",
          "type": "uint256"
        },
        {
          "internalType": "bytes32",
          "name": "conversationHash",
          "type": "bytes32"
        },
        {
          "internalType": "enum IPersonalityEvolution.ContextType",
          "name": "contextType",
          "type": "uint8"
        }
      ],
      "name": "recordConversation",
      "outputs": [],
      "stateMutability": "nonpayable",
      "type": "function"
    },
    {
      "inputs": [
        {
          "internalType": "bytes32",
          "name": "role",
          "type": "bytes32"
        },
        {
          "internalType": "address",
          "name": "callerConfirmation",
          "type": "address"
        }
      ],
      "name": "renounceRole",
      "outputs": [],
      "stateMutability": "nonpayable",
      "type": "function"
    },
    {
      "inputs": [
        {
          "internalType": "uint256",
          "name": "",
          "type": "uint256"
        }
      ],
      "name": "responseStyles",
      "outputs": [
        {
          "internalType": "string",
          "name": "",
          "type": "string"
        }
      ],
      "stateMutability": "view",
      "type": "function"
    },
    {
      "inputs": [
        {
          "internalType": "bytes32",
          "name": "role",
          "type": "bytes32"
        },
        {
          "internalType": "address",
          "name": "account",
          "type": "address"
        }
      ],
      "name": "revokeRole",
      "outputs": [],
      "stateMutability": "nonpayable",
      "type": "function"
    },
    {
      "inputs": [
        {
          "internalType": "bytes4",
          "name": "id",
          "type": "bytes4"
        }
      ],
      "name": "supportsInterface",
      "outputs": [
        {
          "internalType": "bool",
          "name": "",
          "type": "bool"
        }
      ],
      "stateMutability": "view",
      "type": "function"
    },
    {
      "inputs": [],
      "name": "totalAgents",
      "outputs": [
        {
          "internalType": "uint256",
          "name": "",
          "type": "uint256"
        }
      ],
      "stateMutability": "view",
      "type": "function"
    },
    {
      "inputs": [],
      "name": "totalFeesCollected",
      "outputs": [
        {
          "internalType": "uint256",
          "name": "",
          "type": "uint256"
        }
      ],
      "stateMutability": "view",
      "type": "function"
    },
    {
      "inputs": [],
      "name": "totalSupply",
      "outputs": [
        {
          "internalType": "uint256",
          "name": "",
          "type": "uint256"
        }
      ],
      "stateMutability": "view",
      "type": "function"
    },
    {
      "inputs": [
        {
          "internalType": "address",
          "name": "to",
          "type": "address"
        },
        {
          "internalType": "uint256",
          "name": "tokenId",
          "type": "uint256"
        },
        {
          "internalType": "bytes[]",
          "name": "",
          "type": "bytes[]"
        }
      ],
      "name": "transfer",
      "outputs": [],
      "stateMutability": "nonpayable",
      "type": "function"
    },
    {
      "inputs": [],
      "name": "treasury",
      "outputs": [
        {
          "internalType": "address",
          "name": "",
          "type": "address"
        }
      ],
      "stateMutability": "view",
      "type": "function"
    },
    {
      "inputs": [],
      "name": "unpause",
      "outputs": [],
      "stateMutability": "nonpayable",
      "type": "function"
    },
    {
      "inputs": [
        {
          "internalType": "uint256",
          "name": "tokenId",
          "type": "uint256"
        },
        {
          "internalType": "bytes32",
          "name": "newHash",
          "type": "bytes32"
        }
      ],
      "name": "updateConversationMemory",
      "outputs": [],
      "stateMutability": "nonpayable",
      "type": "function"
    },
    {
      "inputs": [
        {
          "internalType": "uint256",
          "name": "tokenId",
          "type": "uint256"
        },
        {
          "internalType": "bytes32",
          "name": "newHash",
          "type": "bytes32"
        }
      ],
      "name": "updateDreamMemory",
      "outputs": [],
      "stateMutability": "nonpayable",
      "type": "function"
    },
    {
      "inputs": [
        {
          "internalType": "uint256",
          "name": "tokenId",
          "type": "uint256"
        },
        {
          "internalType": "bytes32",
          "name": "newHash",
          "type": "bytes32"
        }
      ],
      "name": "updateMemoryCore",
      "outputs": [],
      "stateMutability": "nonpayable",
      "type": "function"
    },
    {
      "inputs": [],
      "name": "verifier",
      "outputs": [
        {
          "internalType": "contract IERC7857DataVerifier",
          "name": "",
          "type": "address"
        }
      ],
      "stateMutability": "view",
      "type": "function"
    }
  ],
  "transactionHash": "0x11c0046fe857a6bec3b23726ea76d27446cc8037a83367b325646f56f292c7da",
  "args": [
    "0x3ab9784ac2D04D1f1aAd0B435b61e456d0744cA4",
    "0x0f13e85B575964B8b4b77E37d43A6aE9E354e94C"
  ],
  "numDeployments": 4,
  "solcInputHash": "0ff1910b5d90523379d0ae7a80a5f6ba",
  "bytecode": "0x60c0346200013357601f620054cc38819003918201601f19168301916001600160401b038311848410176200013857808492604094855283398101031262000133576200005a602062000052836200014e565b92016200014e565b9060016000556001600c556000600d556000600e5560018060a01b039182811615620000ee576080521660a052620000923362000163565b506200009e33620001e4565b50620000aa3362000287565b50620000b63362000325565b506040516150e89081620003c482396080518181816121250152612a88015260a0518181816125e601528181612da401526136090152f35b60405162461bcd60e51b815260206004820152601460248201527f7472656173757279203d207a65726f20616464720000000000000000000000006044820152606490fd5b600080fd5b634e487b7160e01b600052604160045260246000fd5b51906001600160a01b03821682036200013357565b6001600160a01b031660008181527fa6eef7e35abe7026729641147f7915573c7e97b47efa546f5f6e3230263bcb49602052604081205490919060ff16620001e05781805260016020526040822081835260205260408220600160ff198254161790553391600080516020620054ac8339815191528180a4600190565b5090565b6001600160a01b031660008181527f50efbde2d46c37e9785f1791697f77e94bb7b701e19f1930a668820722d3769460205260408120549091907fa49807205ce4d355092ef5a8a18f56e8913cf4a201fbe287825b095693c217759060ff16620002825780835260016020526040832082845260205260408320600160ff19825416179055600080516020620054ac833981519152339380a4600190565b505090565b6001600160a01b031660008181527fb4fd2442cb0653849f414a2f81c1eb01ec27a0fc1bb28000d4ca51d98b75fd0360205260408120549091907f0ce23c3e399818cfee81a7ab0880f714e53d7672b08df0fa62f2843416e1ea099060ff16620002825780835260016020526040832082845260205260408320600160ff19825416179055600080516020620054ac833981519152339380a4600190565b6001600160a01b031660008181527fb9cbbae02fe941283ec0eefd7b121e3bc7f89fae077b27bdd75a7fd4cf1543a860205260408120549091907f65d7a28e3265b37a6474929f336521b332c1681b933f6cb9f3376673440d862a9060ff16620002825780835260016020526040832082845260205260408320600160ff19825416179055600080516020620054ac833981519152339380a460019056fe608080604052600436101561001357600080fd5b60003560e01c90816301ffc9a7146139e757508063074abfb7146138f3578063140b79c8146138c757806318160ddd146106955780631aeb542f1461384f5780631f2e589e146137a6578063248a9ca3146137775780632980471d146136385780632b7ac3f3146135f35780632f2ff15d146135b45780633326ed821461346a57806336568abe146134235780633db43fb3146132a95780633f4ba83a1461323f5780634814f035146132055780634eb22e9e146131615780634f6ed44c146124c7578063513856c8146124035780635436972c146123b557806355619911146122b257806358c812aa1461223f5780635c975abb1461221c5780635e1d7c2e1461219e5780635f292a321461217257806360c6d8ae1461215457806361d027b31461210f5780636352211e146120db57806370a082311461205257806375794a3c1461203457806375b238fc1461200b5780637813685914611f105780637dcb2abf14611ea257806382ca08ae146118bd5780638456cb591461186357806386e7b94d146102c057806391d14854146118165780639ccff7491461075e578063a217fddf14610742578063ab30be8714610725578063b7125e9b146106b3578063c505371214610695578063cc637afe14610634578063d547741f146105f5578063d642b4b1146105d2578063dfdad7de14610463578063e32b178d1461033b578063e63ab1e914610300578063e7705db6146102c5578063ed2c77f2146102c05763fa83d14e1461024557600080fd5b346102bb5760403660031901126102bb57610293600435610264613a9a565b9080600052600360205260018060a01b036040600020541633148015610295575b61028e90614354565b6143ab565b005b50336000908152600080516020615073833981519152602052604090205460ff16610285565b600080fd5b613d8f565b346102bb5760003660031901126102bb5760206040517f0ce23c3e399818cfee81a7ab0880f714e53d7672b08df0fa62f2843416e1ea098152f35b346102bb5760003660031901126102bb5760206040517f65d7a28e3265b37a6474929f336521b332c1681b933f6cb9f3376673440d862a8152f35b346102bb576020806003193601126102bb57600435600060e060405161036081613bcd565b82815282858201528260408201528260608201528260808201528260a0820152606060c08201520152806000526003825260018060a01b03604060002054161561042f57600052600681526103b860406000206141f4565b9060405191818392835260ff809181845116818601528301511660408401528060408301511660608401528060608301511660808401528060808301511660a084015260a08201511660c083015260c081015160e0610424610100928383870152610120860190613c7e565b920151908301520390f35b60405162461bcd60e51b815260048101839052600c60248201526b1859d95b9d0808595e1a5cdd60a21b6044820152606490fd5b346102bb5760603660031901126102bb5761047c613ab0565b6024356044356001600160401b0381116102bb5761049e903690600401613ca3565b50508060005260206003815260018060a01b0380938160406000205416331480156105a4575b6104cd90614354565b16926104da84151561446d565b836000526005825260406000205461056757907f0ea8df787dde63a7bdc34d17097adf25749a3521f660e92dabdff8d6ee91d18a9183600052600382526040600020541692836000526005825260006040812055846000528060406000205580600052600382526040600020856001600160601b0360a01b825416178155600342910155604051908152a3005b60405162461bcd60e51b81526004810183905260156024820152741d1bc8185b1c9958591e481bdddb9cc81859d95b9d605a1b6044820152606490fd5b506000805160206150938339815191526000908152600184526040808220338352855290205460ff166104c4565b346102bb5760003660031901126102bb57602060405167016345785d8a00008152f35b346102bb5760403660031901126102bb57610293600435610614613a9a565b9080600052600160205261062f600160406000200154613e78565b613f1e565b346102bb5760203660031901126102bb576004356001600160401b0381116102bb5760ff61067f602061066c81943690600401613cee565b8160405193828580945193849201613c5b565b8101600481520301902054166040519015158152f35b346102bb5760003660031901126102bb576020600d54604051908152f35b346102bb5760203660031901126102bb57600435600052600660205260e06106de60406000206141f4565b0151801580156106f6575b6020906040519015158152f35b5062015180810180911161070f576020904210156106e9565b634e487b7160e01b600052601160045260246000fd5b346102bb5760003660031901126102bb5760206040516103e88152f35b346102bb5760003660031901126102bb57602060405160008152f35b346102bb576003196080368201126102bb576001600160401b03606435116102bb5761010090606435360301126102bb57610797614199565b600435600052600360205260018060a01b0360406000205416331480156117f0575b80156117d9575b6107c9906141b7565b60ff6107d960e460643501614505565b161515806117bf575b15611784576107fb60c460643501606435600401614266565b9050156117525760046064350135600081900b90036102bb5761082360643560040135614513565b80611732575b80611712575b806116f3575b806116d3575b806116b3575b1561167c5760043560005260036020526040600020600660205260406000209060028201548015908115611664575b501561162f57600681015460018101811161070f576001016006820155426003820155426002830155600681015460038106156115e8575b60059006156108ee575b6005015460405190602435825260208201527f871f9739b79e9efd6285318758001f00502185ff0d254a080922cd80580c3e02604060043592a2005b6108f7826141f4565b825460ff61090d6064356004013582841661452f565b1660ff1982168117855560246064350135600081900b90036102bb5761095f9161094991606435602401359160ff19161760081c60ff1661452f565b845461ff00191660089190911b61ff0016178455565b825460101c60ff1660643560440135600081900b90036102bb5761098d6109a591604460643501359061452f565b845462ff0000191660109190911b62ff000016178455565b825460181c60ff16606480350135600081900b90036102bb576109d16109eb916064803501359061452f565b845463ff000000191660189190911b63ff00000016178455565b825460201c60ff1660643560840135600081900b90036102bb57610a19610a3591608460643501359061452f565b845464ff00000000191660209190911b64ff0000000016178455565b825460281c60ff1660643560a40135600081900b90036102bb57610a63610a819160a460643501359061452f565b845465ff0000000000191660289190911b65ff000000000016178455565b610a9560c460643501606435600401614266565b906001600160401b038211611073578190610ac082610ab76001890154613ac6565b6001890161404e565b600090601f83116001146115775760009261156c575b50508160011b916000199060031b1c19161760018401555b60088201805460ff811615611513575b5050600982015460018101811161070f57600101600983015542600a830155605a60ff6060610b2c866141f4565b936055836040830151161080611502575b6114c4575b838382511610806114b7575b61147b575b8383602083015116108061146b575b611431575b015116108061141f575b6113df575b603c60ff8251161190816113cc575b816113b9575b816113a6575b81611393575b81611380575b5080611346575b6111e8575b6004356000526006602052610bc160406000206141f4565b6046908160ff604083015116118080916111da575b1561108957505050604051610bea81613c1f565b6013815272656d70617468657469635f637265617469766560681b60208201525b600435600052600b602052610c2d610c34604060002060405192838092613b00565b0382613c3a565b602081519101208151602083012003610d32575b50610c5e60405192604084526040840190614298565b9180830360208201526064356004013560000b83526024606435013560000b60208401526044606435013560000b604084015260648035013560000b60608401526084606435013560000b608084015260a4606435013560000b60a0840152610ce7610cd460c460643501606435600401613fcd565b61010060c0870152610100860191613fac565b60e4606435013560ff81168091036102bb5760e060059501527f4188327df0df4e6ad8674fc37ff48b2b049fdaae33e3c8e38275816040949af26024359280600435930390a36108b2565b600435600052600b602052610c2d610d54604060002060405192838092613b00565b600435600052600b602052610d6d826040600020614095565b7f90f9e809e3805f30ac3fc3562ac1fb69527e27e23e063a99f43a92343f35c9d2610da360405192604084526040840190613c7e565b91808303602082015280610dba6004359486613c7e565b0390a26004356000526006602052610dd560406000206141f4565b9060ff60a060405193610de785613be9565b82815116855282602082015116602086015282604082015116604086015282606082015116606086015282608082015116608086015201511660a0830152604051610e3181613be9565b604051610e3d81613c1f565b600a8152696372656174697669747960b01b60208201528152610e5e61458b565b6020820152604051610e6f81613c1f565b6007815266656d706174687960c81b60208201526040820152604051610e9481613c1f565b600981526834b73a3ab4ba34b7b760b91b60208201526060820152604051610ebb81613c1f565b600a815269726573696c69656e636560b01b60208201526080820152604051610ee381613c1f565b6009815268637572696f7369747960b81b602082015260a0820152604051928360808101106001600160401b0360808601111761107357608084016040526003845260005b60608110611062575060005b60038110610fe057505050610f5460405191604083526040830190613c7e565b8181036020830152825180825260208201916020808360051b8301019501926000915b838310610fb3575050505050807fff8866d78ff3fc4f37232c9d6da12c9b2168edd42074faa52ea90054f0abcf6d91600435930390a282610c48565b9091929395602080610fd1600193601f198682030187528a51613c7e565b98019301930191939290610f77565b600060015b6006811061102a575090600061101f8361100261102595886145b1565b5161100d858b61400d565b52611018848a61400d565b50856145b1565b52613ffe565b610f34565b60ff61103682866145b1565b511660ff61104484876145b1565b51161061105a575b61105590613ffe565b610fe5565b90508061104c565b806060602080938801015201610f28565b634e487b7160e01b600052604160045260246000fd5b156110b857505060405161109c81613c1f565b600a815269656d706174686574696360b01b6020820152610c0b565b8160ff825116116000146110ee5750506040516110d481613c1f565b6008815267637265617469766560c01b6020820152610c0b565b8160ff6020830151161160001461110e57505061110961458b565b610c0b565b8160ff6060830151161160001461114857505060405161112d81613c1f565b6009815268696e7475697469766560b81b6020820152610c0b565b8160ff6080830151161160001461118257505060405161116781613c1f565b60098152681c995cda5b1a595b9d60ba1b6020820152610c0b565b60a0015160ff1611156111b45760405161119b81613c1f565b6007815266637572696f757360c81b6020820152610c0b565b6040516111c081613c1f565b600881526718985b185b98d95960c21b6020820152610c0b565b50603c60ff83511611610bd6565b6040516111f481613c1f565b600d81526c18985b185b98d95917dcdbdd5b609a1b602082015260405161121a81613b96565b6001815260ff600260208301924284526040810193603c8552600435600052600a60205261126561124f604060002088613d35565b92511515839060ff801983541691151516179055565b5160018201550191511660ff198254161790556004356000526003602052600b6040600020018054600160401b811015611073576112a891600182018155614393565b61133057816112b691614095565b604051606081526000805160206150338339815191526112d96060830184613c7e565b91603c6020820152600081840393846040840152526020600435930190a260008051602061501383398151915261131b60405192604084526040840190613c7e565b91603c602082015280600435930390a2610ba9565b634e487b7160e01b600052600060045260246000fd5b50600435600052600a60205260ff602d6040600020604051906c18985b185b98d95917dcdbdd5b609a1b8252600d82015220541615610ba4565b603c915060a060ff910151161183610b9d565b9050603c60ff6080830151161190610b97565b9050603c60ff6060830151161190610b91565b9050603c60ff6040830151161190610b8b565b9050603c60ff6020830151161190610b85565b61141a60ff6060830151166040516113f681613c1f565b600f81526e73706972697475616c5f677569646560881b60208201526004356145c2565b610b76565b50605a60ff6060830151161015610b71565b6114668360208701511660405161144781613c1f565b600a8152691b1bd9da58d7db1bdc9960b21b60208201526004356145c2565b610b67565b5083836020870151161015610b62565b6114b28386511660405161148e81613c1f565b600f81526e63726561746976655f67656e69757360881b60208201526004356145c2565b610b53565b5083838651161015610b4e565b6114fd836040870151166040516114da81613c1f565b600e81526d32b6b830ba343cafb6b0b9ba32b960911b60208201526004356145c2565b610b42565b506055836040870151161015610b3d565b60019060ff191617905560068201547f3699e9591a9a800af90ffae86552b9fa46719da5dbb81727a2bd1ee93c1f57ac604051604081526115576040820187614298565b92602082015280600435930390a28380610afe565b013590508580610ad6565b909250600186016000526020600020906000935b601f19841685106115d0576001945083601f198116106115b6575b505050811b016001840155610aee565b0135600019600384901b60f8161c191690558580806115a6565b8181013583556020948501946001909301920161158b565b60058201549060018201821161070f578160016005930183850155600160405191808352016020820152600080516020615053833981519152604060043592a290506108a8565b60405162461bcd60e51b815260206004820152600d60248201526c0c6deded8c8deeedc40786468d609b1b6044820152606490fd5b905062015180810180911161070f5742101583610870565b60405162461bcd60e51b815260206004820152600f60248201526ece94206f7574206f662072616e676560881b6044820152606490fd5b5060a460643501358060000b81036102bb576116ce90614513565b610841565b50608460643501358060000b81036102bb576116ee90614513565b61083b565b506064803501358060000b81036102bb5761170d90614513565b610835565b50604460643501358060000b81036102bb5761172d90614513565b61082f565b50602460643501358060000b81036102bb5761174d90614513565b610829565b60405162461bcd60e51b815260206004820152600a602482015269195b5c1d1e481b5bdbd960b21b6044820152606490fd5b60405162461bcd60e51b8152602060048201526013602482015272776569676874206f7574206f662072616e676560681b6044820152606490fd5b50606460ff6117d160e4833501614505565b1611156107e2565b506107c96117e9336004356144a5565b90506107c0565b50336000908152600080516020615073833981519152602052604090205460ff166107b9565b346102bb5760403660031901126102bb5761182f613a9a565b600435600052600160205260406000209060018060a01b0316600052602052602060ff604060002054166040519015158152f35b346102bb5760003660031901126102bb5761187c613e1c565b611884614199565b600160ff1960025416176002557f62e78cea01bee320cd4e420270b5ea74000d11b0c9f74754ebdbfc544b05a2586020604051338152a1005b346102bb5760a03660031901126102bb5760043560643560ff81168091036102bb576084359061ffff908183168093036102bb576118f9614199565b8360005260039160209280845260018060a01b036040600020541633148015611e72575b8015611e5d575b61192d906141b7565b600183101580611e52575b15611e1d576107e885101580611e11575b15611ddd578560005260078452604060002091856006840154918560ff84161492831593611dcd575b50505015611d9257602490813581840155604435600484015560059283429101558660005260098552604060002080549060018201809211611d5a575560008781526009865260409020546002908290600c8110611d6f575050838101809111611d45575b876000526007865283604060002001546203f4808101809111611d5a57421115611d38575b611a0588614846565b91886000528087528460406000200193845495611a22848861415c565b80965560405192611a3284613bb1565b604051611a3e81613c1f565b60078152664a616e7561727960c81b8b8201528452604051611a5f81613c1f565b6008815267466562727561727960c01b8b8201528a850152604051611a8381613c1f565b8281526409ac2e4c6d60db1b8b8201526040850152604051611aa481613c1f565b82815264105c1c9a5b60da1b8b820152606085015260405190611ac682613c1f565b8152624d617960e81b8a8201526080840152604051611ae481613c1f565b60048152634a756e6560e01b8a82015260a0840152604051611b0581613c1f565b60048152634a756c7960e01b8a82015260c0840152604051611b2681613c1f565b6006815265105d59dd5cdd60d21b8a82015260e0840152604051611b4981613c1f565b600981526829b2b83a32b6b132b960b91b8a820152610100840152604051611b7081613c1f565b600781526627b1ba37b132b960c91b8a820152610120840152604051611b9581613c1f565b60088152672737bb32b6b132b960c11b8a820152610140840152604051611bbb81613c1f565b60088152672232b1b2b6b132b960c11b8a82015261016084015260001988019160ff8311611d2457600c60ff84161015611d1057507f06f9bc160d6aa05f662af6ffef695374f8b5bfc09362dcd998b9deb9c1436519611ca68b611cb68c8f9a9699604099611c93600c9f9e9a611c4f8f9a916000805160206150538339815191529f611fe0906021941b16015197614f50565b968d519781611c678a935180928a8087019101613c5b565b8201600160fd1b88820152611c84825180938a8785019101613c5b565b01036001810188520186613c3a565b8a51958695606087526060870190613c7e565b928501528382038a850152613c7e565b0390a2825191825287820152a214611cca57005b7fae7fce676281a763ee71049f846d28ee4796c9195fd81fc1c7e78fbae4a4d4759183600052600882526002604060002001600160ff19825416179055604051908152a2005b634e487b7160e01b60009081526032600452fd5b634e487b7160e01b60009081526011600452fd5b60018101809111156119fc575b82634e487b7160e01b60005260116004526000fd5b83634e487b7160e01b60005260116004526000fd5b60068110611d8657508101809111611d45576119d7565b106119d75750806119d7565b60405162461bcd60e51b81526004810185905260136024820152720e6e8d2d8d840c6eae4e4cadce840dadedce8d606b1b6044820152606490fd5b60081c1614159050858880611972565b60405162461bcd60e51b815260048101859052600c60248201526b34b73b30b634b2103cb2b0b960a11b6044820152606490fd5b50610834851115611949565b60405162461bcd60e51b815260048101859052600d60248201526c0d2dcecc2d8d2c840dadedce8d609b1b6044820152606490fd5b50600c831115611938565b5061192d611e6b33886144a5565b9050611924565b5060008051602061509383398151915260005260018452604060002033600052845260ff6040600020541661191d565b346102bb5760203660031901126102bb5760043560005260086020526040600020805460ff600260405193611ee585611ede8160018501613b00565b0386613c3a565b015416611f046040519384938452606060208501526060840190613c7e565b90151560408301520390f35b346102bb5761029360a07f10c6861248a0d0f4376512cb8e7482a88a8865601494eb1fd99ec02dfc295833611f4436613a84565b9092839291611f51614199565b836000526003602052600180831b036040600020541633148015611fe5575b8015611fd0575b611f80906141b7565b8360005260076020526002604060002001818154915560405191606083526012606084015271636f6e766572736174696f6e5f6461696c7960701b608084015260208301526040820152a26146e4565b50611f80611fde33866144a5565b9050611f77565b50336000908152600080516020615073833981519152602052604090205460ff16611f70565b346102bb5760003660031901126102bb5760206040516000805160206150938339815191528152f35b346102bb5760003660031901126102bb576020600c54604051908152f35b346102bb5760203660031901126102bb576001600160a01b03612073613ab0565b1680156120a9576000526005602052604060002054156000146120a057602060005b60ff60405191168152f35b60206001612095565b60405162461bcd60e51b815260206004820152600a6024820152693d32b9379037bbb732b960b11b6044820152606490fd5b346102bb5760203660031901126102bb576004356000526003602052602060018060a01b0360406000205416604051908152f35b346102bb5760003660031901126102bb576040517f00000000000000000000000000000000000000000000000000000000000000006001600160a01b03168152602090f35b346102bb5760003660031901126102bb576020600e54604051908152f35b346102bb5760203660031901126102bb5760043560005260096020526020604060002054604051908152f35b346102bb5760203660031901126102bb576004356000526007602052610100604060002061ffff815491600181015490600281015460038201546004830154916006600585015494015494604051978852602088015260408701526060860152608085015260a084015260ff811660c084015260081c1660e0820152f35b346102bb5760003660031901126102bb57602060ff600254166040519015158152f35b346102bb5760403660031901126102bb576024356001600160401b0381116102bb5761228a6122746060923690600401613cee565b600435600052600a602052604060002090613d35565b60ff8154169060ff600260018301549201541690604051921515835260208301526040820152f35b346102bb5760403660031901126102bb576004356122ce613a9a565b906122d7613dc6565b6001600160a01b03918216916122ee83151561446d565b826000526020906005825260406000205461237e57907f0ea8df787dde63a7bdc34d17097adf25749a3521f660e92dabdff8d6ee91d18a9183600052600382526040600020541692836000526005825260006040812055846000528060406000205580600052600382526040600020856001600160601b0360a01b825416178155600342910155604051908152a3005b60405162461bcd60e51b815260048101839052600f60248201526e746f20616c7265616479206f776e7360881b6044820152606490fd5b346102bb5760203660031901126102bb57600435600052600b6020526123ff610c2d6123eb604060002060405192838092613b00565b604051918291602083526020830190613c7e565b0390f35b346102bb5760203660031901126102bb576004356000526003602052604060002060018060a01b038154166040519161244a836124438160018501613b00565b0384613c3a565b6002810154906003810154906005810154600682015460078301549060ff60088501541692600a6009860154950154956124966040519a8b9a8b526101408060208d01528b0190613c7e565b9760408a01526060890152608088015260a087015260c0860152151560e08501526101008401526101208301520390f35b60803660031901126102bb576004356001600160401b0381116102bb576124f2903690600401613ca3565b906024356001600160401b0381116102bb57612512903690600401613ca3565b91906044356001600160401b0381116102bb57612533903690600401613cee565b606435949093906001600160a01b03861686036102bb5760026000541461314f576002600055612561614199565b6001600160a01b03861615613118576001600160a01b0386166000908152600560205260409020546130d3576103e8600d541015613099578451801515908161308d575b501561305a5760ff60405160208188516125c28183858d01613c5b565b8101600481520301902054166130275767016345785d8a00003410612ff3576060937f00000000000000000000000000000000000000000000000000000000000000006001600160a01b0316612d4a575b5050604051602081865161262a8183858b01613c5b565b81016004815203019020600160ff19825416179055600c549361264c85613ffe565b600c5560018060a01b03861660005260056020528460406000205560405161267381613c04565b600081526040519061268482613c04565b600082526040519261269584613bb1565b60018060a01b038916845260208401524260408401524260608401526080830152600160a0830152600060c0830152600060e0830152600061010083015260006101208301524261014083015261016082015284600052600360205260406000209060018060a01b038151166001600160601b0360a01b835416178255612723602082015160018401614095565b604081015160028301556060810151600383015560808101518051906001600160401b03821161107357600160401b8211611073576020906004850154836004870155808410612d2a575b500160048401600052602060002060005b838110612d0d57505050508060a0610160920151600584015560c0810151600684015560e081015160078401556127cc6101008201511515600885019060ff801983541691151516179055565b6101208101516009840155610140810151600a840155015190815191600160401b831161107357600b82015483600b840155808410612c94575b506020600b9101910160005260206000206000915b838310612c77575050505060405161283281613bcd565b603280825280602083015280604083015280606083015280608083015260a082015260405161286081613c1f565b60078152661b995d5d1c985b60ca1b602082015260c0820152600060e0820152846000526006602052600260e060406000209260ff81511660ff198554161784556128c360ff602083015116859061ff0082549160081b169061ff001916179055565b6040810151845462ff0000191660109190911b62ff0000161784556060810151845463ff000000191660189190911b63ff000000161784556080810151845464ff00000000191660209190911b64ff000000001617845560a0810151845465ff0000000000191660289190911b65ff00000000001617845561294c60c082015160018601614095565b015191015583600052600b60205260406000206129698154613ac6565b601f8111612c55575b50600e661b995d5d1c985b60ca1b019055612a4f61298e614f1c565b612996614f36565b60ff604051926129a584613bcd565b60008452600060208501526000604085015260006060850152600060808501524260a08501521660c083015261ffff908160e084019116815287600052600760205260ff60c060066040600020865181556020870151600182015560408701516002820155606087015160038201556080870151600482015560a08701516005820155019401511660ff19845416178355511662ffff0082549160081b169062ffff001916179055565b600d546001810180911161070f57600d55600e5467016345785d8a0000810180911161070f57600e55600080808067016345785d8a00007f00000000000000000000000000000000000000000000000000000000000000005af1612ab1614169565b5015612c105767016345785d8a00003411612bb2575b90612add60405193604085526040850190613d5b565b918383036020850152808352602083019260208260051b82010193836000925b848410612b7a576020896001600160a01b038c1633827f531bd8ca2b17505aaa50d843fabe2dfd9a3bb9e20c511d2288b24bd484861b028d8d038ea460405167016345785d8a00008152817f6fe296e805108cd514fea415210be4016149b01eeb08effbe130951b6a5f6c0b843393a36001600055604051908152f35b909192939495602080612ba2600193601f19868203018852612b9c8b88613fcd565b90613fac565b9801940194019294939190612afd565b67016345785d89ffff19340134811161070f57600080808093335af1612bd6614169565b50612ac75760405162461bcd60e51b815260206004820152600d60248201526c1c99599d5b990819985a5b1959609a1b6044820152606490fd5b60405162461bcd60e51b815260206004820152601860248201527f7472656173757279207472616e73666572206661696c656400000000000000006044820152606490fd5b612c719082600052601f6020600020910160051c810190614037565b86612972565b6001602082612c8883945186614095565b0192019201919061281b565b600b83016000526020600020908482015b8183018110612cb5575050612806565b80612cc260019254613ac6565b80612ccf575b5001612ca5565b601f908181118414612ce8575050600081555b8c612cc8565b612d0460009284845260208420920160051c8201858301614037565b81835555612ce2565b82516001600160a01b03168183015560209092019160010161277f565b612d44906004870160005284846000209182019101614037565b8a61276e565b90809693945082959203612fbf57604051809663c2a93e3760e01b825280602483016020600485015252604482019060448160051b8401019380926000915b838310612f8c57505050505080600092038160018060a01b037f0000000000000000000000000000000000000000000000000000000000000000165afa948515612f8057600095612e8a575b50845192612de284613f95565b93612df06040519586613c3a565b808552612dff601f1991613f95565b01366020860137839060005b8751811015612e7c576020612e20828a61400d565b51015115612e475780612e36612e42928a61400d565b515161101f828961400d565b612e0b565b60405162461bcd60e51b815260206004820152600d60248201526c34b73b30b634b210383937b7b360991b6044820152606490fd5b509295509250928580612613565b9094503d806000833e612e9d8183613c3a565b60208282810103126102bb578151906001600160401b0382116102bb57808301601f8385010112156102bb578183015190612ed782613f95565b93612ee56040519586613c3a565b828552602085019382820160208560061b8385010101116102bb5793602085830101945b60208560061b82850101018610612f27575050505050509385612dd5565b60408685850103126102bb576040518060408101106001600160401b03604083011117611073576040810160405286518152602087015180151581036102bb576020938285928360409501528152019601959150612f09565b6040513d6000823e3d90fd5b9193956020612fae81926001949698604319908203018752612b9c8a87613fcd565b97019301930190928a949293612d89565b60405162461bcd60e51b815260206004820152600c60248201526b0d8cadc40dad2e6dac2e8c6d60a31b6044820152606490fd5b60405162461bcd60e51b815260206004820152600c60248201526b666565203c20302e31204f4760a01b6044820152606490fd5b60405162461bcd60e51b815260206004820152600b60248201526a6e616d652065786973747360a81b6044820152606490fd5b60405162461bcd60e51b815260206004820152600b60248201526a0dcc2daca40d8cadccee8d60ab1b6044820152606490fd5b602091501115876125a5565b60405162461bcd60e51b81526020600482015260126024820152711b585e081cdd5c1c1b1e481c995858da195960721b6044820152606490fd5b60405162461bcd60e51b815260206004820152601860248201527f77616c6c657420616c726561647920686173206167656e7400000000000000006044820152606490fd5b60405162461bcd60e51b815260206004820152600f60248201526e34b73b30b634b2103a379030b2323960891b6044820152606490fd5b604051633ee5aeb560e01b8152600490fd5b346102bb5760203660031901126102bb576004356000526006602052604060002080546002604051926131a28461319b8160018501613b00565b0385613c3a565b01546131fb60405193849360ff908181168652818160081c166020870152818160101c166040870152818160181c166060870152818160201c16608087015260281c1660a08501526101008060c0860152840190613c7e565b9060e08301520390f35b346102bb5760203660031901126102bb576001600160a01b03613226613ab0565b1660005260056020526020604060002054604051908152f35b346102bb5760003660031901126102bb57613258613e1c565b60025460ff8116156132975760ff19166002557f5db9ee0a495bf2e6ff9c91a7834c1ba4fdd244a5e8aa4e537bd38aeae4b073aa6020604051338152a1005b604051638dfc202b60e01b8152600490fd5b346102bb576020806003193601126102bb576004356000526003815260406000206040516132d681613bb1565b81546001600160a01b03168152604051600191906132fa81610c2d81878701613b00565b848201526002830154916040820192835260038401546060830152613321600485016142fc565b6080830152600584015460a0830152600684015460c0830152600784015460e083015260ff60088501541615156101008301526009840154916101208101928352600b600a8601549561014083019687520191825461337f81613f95565b9361338d6040519586613c3a565b8185526000908152888120898087015b8484106133fe5750505050505061016001525191519051420342811161070f5762015180900492836133e157606093506000905b6040519384528301526040820152f35b60648302938385046064148415171561070f5760609404906133d1565b8591829160405161341381610c2d8189613b00565b8152019201920191908a9061339d565b346102bb5760403660031901126102bb5761343c613a9a565b336001600160a01b038216036134585761029390600435613f1e565b60405163334bd91960e11b8152600490fd5b346102bb5761347836613a84565b613480614199565b81600052817f10c6861248a0d0f4376512cb8e7482a88a8865601494eb1fd99ec02dfc29583360a060209360038552600180831b036040600020541633148015613584575b801561356f575b6134d5906141b7565b8360005260078552604060002081815491556040519160608352600b60608401526a6d656d6f72795f636f726560a81b6080840152868301526040820152a281600052600881526002604060002001805460ff811661353057005b60ff1916905560038152600560406000200180546005810180821161070f576000805160206150538339815191529381604094558351928352820152a2005b506134d561357d33866144a5565b90506134cc565b5060008051602061509383398151915260005260018552604060002033600052855260ff604060002054166134c5565b346102bb5760403660031901126102bb576102936004356135d3613a9a565b908060005260016020526135ee600160406000200154613e78565b613e9e565b346102bb5760003660031901126102bb576040517f00000000000000000000000000000000000000000000000000000000000000006001600160a01b03168152602090f35b346102bb5760603660031901126102bb5760443560043560058210156102bb57613660614199565b8060005260206003815260018060a01b036040600020541633148015613747575b8015613732575b613691906141b7565b816000526003815260406000209060078201918254926001840180941161070f57839055426003820155600a8306156136f9575b506040519384528301527fae9f8ea4031d27c12e1fca7c2bfaaef9034ff66849251188e28970cd44d1c590604060243593a3005b600501805490600182019081831161070f578592826000805160206150538339815191529360409355825191825285820152a2846136c5565b5061369161374033846144a5565b9050613688565b5060008051602061509383398151915260005260018152604060002033600052815260ff60406000205416613681565b346102bb5760203660031901126102bb5760043560005260016020526020600160406000200154604051908152f35b346102bb5760403660031901126102bb576001600160401b036024358181116102bb57366023820112156102bb5780600401359182116102bb5736602483830101116102bb576020602491604093600435600052600a8352846000209080865195869401843782019081520301902081519061382182613b96565b60ff8154161515918281528360ff600260018501549485602086015201541691015282519182526020820152f35b346102bb576020806003193601126102bb576004356000526003815261387b60046040600020016142fc565b906040519181839283018184528251809152816040850193019160005b8281106138a757505050500390f35b83516001600160a01b031685528695509381019392810192600101613898565b346102bb5760403660031901126102bb576102936138e3613a9a565b6138eb613dc6565b6004356143ab565b346102bb5761029360a07f10c6861248a0d0f4376512cb8e7482a88a8865601494eb1fd99ec02dfc29583361392736613a84565b9092839291613934614199565b836000526003602052600180831b0360406000205416331480156139c1575b80156139ac575b613963906141b7565b836000526007602052600160406000200181815491556040519160608352600b60608401526a647265616d5f6461696c7960a81b608084015260208301526040820152a26146e4565b506139636139ba33866144a5565b905061395a565b50336000908152600080516020615073833981519152602052604090205460ff16613953565b346102bb5760203660031901126102bb576004359063ffffffff60e01b82168092036102bb576020916380ac58cd60e01b8114908115613a73575b8115613a62575b8115613a37575b5015158152f35b637965db0b60e01b811491508115613a51575b5083613a30565b6301ffc9a760e01b14905083613a4a565b633bcd582960e11b81149150613a29565b635b5e139f60e01b81149150613a22565b60409060031901126102bb576004359060243590565b602435906001600160a01b03821682036102bb57565b600435906001600160a01b03821682036102bb57565b90600182811c92168015613af6575b6020831014613ae057565b634e487b7160e01b600052602260045260246000fd5b91607f1691613ad5565b9060009291805491613b1183613ac6565b918282526001938481169081600014613b735750600114613b33575b50505050565b90919394506000526020928360002092846000945b838610613b5f575050505001019038808080613b2d565b805485870183015294019385908201613b48565b9294505050602093945060ff191683830152151560051b01019038808080613b2d565b606081019081106001600160401b0382111761107357604052565b61018081019081106001600160401b0382111761107357604052565b61010081019081106001600160401b0382111761107357604052565b60c081019081106001600160401b0382111761107357604052565b602081019081106001600160401b0382111761107357604052565b604081019081106001600160401b0382111761107357604052565b90601f801991011681019081106001600160401b0382111761107357604052565b60005b838110613c6e5750506000910152565b8181015183820152602001613c5e565b90602091613c9781518092818552858086019101613c5b565b601f01601f1916010190565b9181601f840112156102bb578235916001600160401b0383116102bb576020808501948460051b0101116102bb57565b6001600160401b03811161107357601f01601f191660200190565b81601f820112156102bb57803590613d0582613cd3565b92613d136040519485613c3a565b828452602083830101116102bb57816000926020809301838601378301015290565b602090613d4f928260405194838680955193849201613c5b565b82019081520301902090565b90815180825260208080930193019160005b828110613d7b575050505090565b835185529381019392810192600101613d6d565b346102bb57613d9d36613a84565b50506123ff604051613dae81613c04565b60008152604051918291602083526020830190613d5b565b33600090815260008051602061507383398151915260205260409020546000805160206150938339815191529060ff1615613dfe5750565b6044906040519063e2517d3f60e01b82523360048301526024820152fd5b3360009081527fb9cbbae02fe941283ec0eefd7b121e3bc7f89fae077b27bdd75a7fd4cf1543a860205260409020547f65d7a28e3265b37a6474929f336521b332c1681b933f6cb9f3376673440d862a9060ff1615613dfe5750565b80600052600160205260406000203360005260205260ff6040600020541615613dfe5750565b906000918083526001602052604083209160018060a01b03169182845260205260ff60408420541615600014613f195780835260016020526040832082845260205260408320600160ff198254161790557f2f8788117e7eff1d82e926ec794901d17c78024a50270940304540a733656f0d339380a4600190565b505090565b906000918083526001602052604083209160018060a01b03169182845260205260ff604084205416600014613f19578083526001602052604083208284526020526040832060ff1981541690557ff6391f5c32d9c69d2a47ea670b442974b53935d1edc7fd64eb21e047a839171b339380a4600190565b6001600160401b0381116110735760051b60200190565b908060209392818452848401376000828201840152601f01601f1916010190565b9035601e19823603018112156102bb5701602081359101916001600160401b0382116102bb5781360383136102bb57565b600019811461070f5760010190565b80518210156140215760209160051b010190565b634e487b7160e01b600052603260045260246000fd5b818110614042575050565b60008155600101614037565b9190601f811161405d57505050565b614089926000526020600020906020601f840160051c8301931061408b575b601f0160051c0190614037565b565b909150819061407c565b91909182516001600160401b038111611073576140bc816140b68454613ac6565b8461404e565b602080601f83116001146140f85750819293946000926140ed575b50508160011b916000199060031b1c1916179055565b0151905038806140d7565b90601f198316958460005282600020926000905b8882106141445750508360019596971061412b575b505050811b019055565b015160001960f88460031b161c19169055388080614121565b8060018596829496860151815501950193019061410c565b9190820180921161070f57565b3d15614194573d9061417a82613cd3565b916141886040519384613c3a565b82523d6000602084013e565b606090565b60ff600254166141a557565b60405163d93c066560e01b8152600490fd5b156141be57565b60405162461bcd60e51b815260206004820152600e60248201526d1b9bdd08185d5d1a1bdc9a5cd95960921b6044820152606490fd5b9060405161420181613bcd565b60e060028294805460ff908181168652818160081c166020870152818160101c166040870152818160181c166060870152818160201c16608087015260281c1660a085015260405161425a81610c2d8160018601613b00565b60c08501520154910152565b903590601e19813603018212156102bb57018035906001600160401b0382116102bb576020019181360383136102bb57565b90815460ff908181168352818160081c166020840152818160101c166040840152818160181c166060840152818160201c16608084015260281c1660a082015260e060026142f36101008060c0860152840160018601613b00565b93015491015290565b9060405191828154918282526020928383019160005283600020936000905b8282106143315750505061408992500383613c3a565b85546001600160a01b03168452600195860195889550938101939091019061431b565b1561435b57565b60405162461bcd60e51b815260206004820152601060248201526f6f776e65722f61646d696e206f6e6c7960801b6044820152606490fd5b80548210156140215760005260206000200190600090565b6001600160a01b0391821691821561443c57600090828252600360205260046040832001805490600160401b82101561442857816144119160017f32a4407627195670dd4c989ee38441e11ab643ccd4759c25d9c0bd6a635039db969594018155614393565b819291549060031b9187831b921b191617905580a3565b634e487b7160e01b84526041600452602484fd5b60405162461bcd60e51b81526020600482015260096024820152683d32b937903ab9b2b960b91b6044820152606490fd5b1561447457565b60405162461bcd60e51b8152602060048201526009602482015268746f203d207a65726f60b81b6044820152606490fd5b60005260036020526144bd60046040600020016142fc565b9060005b82518110156144fd576001600160a01b03806144dd838661400d565b5116908316146144f5576144f090613ffe565b6144c1565b505050600190565b505050600090565b3560ff811681036102bb5790565b60000b6009198112159081614526575090565b600a9150131590565b60ff1690600090810b918183820193841291129080158216911516176145775780821261456f575b5060648113614567575b60ff1690565b506064614561565b905038614557565b634e487b7160e01b81526011600452602490fd5b6040519061459882613c1f565b600a825269185b985b1e5d1a58d85b60b21b6020830152565b9060068110156140215760051b0190565b909291926040809481516145d581613b96565b6001815260209160ff6002848401934285528287820194169485855261460961124f60009d8e8d8152600a8b52208b613d35565b5160018201550191511660ff1982541617905584875260038252600b83882001805490600160401b8210156146d0579061464891600182018155614393565b6146bc57946000805160206150338339815191528197986146788760008051602061501383398151915299614095565b848651916060835261468d606084018a613c7e565b90868385015283820391828a860152520190a26146b38351948486958652850190613c7e565b918301520390a2565b634e487b7160e01b88526004889052602488fd5b634e487b7160e01b89526041600452602489fd5b6000908082526007602052604082206146fb614f1c565b90614704614f36565b916006820192835460ff81161561481e575083549360ff808616931680841480159061480a575b61473a575b5050505050505050565b600595877f730360d9766138aaf0bfbcb8ba19e14d040c069cb9b8daab2e5c3576d2b545e660a06147b69760405190815261ffff8560081c1660208201526060604082015260076060820152666d6f6e74686c7960c81b6080820152a260ff19161781559062ffff0082549160081b169062ffff001916179055565b83600182015583600282015501546230c78081018091116147f65742116147e3575b808080808080614730565b81526009602052604081205538806147d8565b634e487b7160e01b83526011600452602483fd5b5061ffff808416908760081c16141561472b565b62ffffff191660ff929092169190911760089190911b62ffff00161790915550614089915050565b60009080825260206009815260409182842054600390818114614dea5760068114614ca957600c8114614b6c57601814614a06578185528252614895838520600760068201549101549061415c565b90606482146149985761016d80831461492f57506103e88092146148c65750505051906148c182613c04565b815290565b90929193507f85b48c5b9cdd55cc3a41e735f9aa599cffba8d8c300f240111645d63939d2c2a608083518481526011858201527013595b5bdc9e48135a5b1b195b9b9a585b607a1b9586606083015287820152a2519161492583613c1f565b6011835282015290565b9392945090507f85b48c5b9cdd55cc3a41e735f9aa599cffba8d8c300f240111645d63939d2c2a608083518481526010858201526f59656172206f66204d656d6f7269657360801b9586606083015287820152a2519161498e83613c1f565b6010835282015290565b92919350508051918183526013828401527f85b48c5b9cdd55cc3a41e735f9aa599cffba8d8c300f240111645d63939d2c2a60807243656e74757279206f66204d656d6f7269657360681b94856060820152606487820152a251916149fc83613c1f565b6013835282015290565b8392939594955190614a1782613c1f565b600e82526d657465726e616c5f6d656d6f727960901b858301528460ff60028651614a4181613b96565b600181528a614a6961124f8a87850193428552600a8287019960188b528d8352522089613d35565b5160018201550191511660ff198254161790558287528452600b83872001805490600160401b821015614b585790614aa691600182018155614393565b614b445781836000805160206150338339815191526d457465726e616c204d656d6f727960901b979899614aec60008051602061501383398151915296614b2696614095565b8988519160608352614b016060840187613c7e565b9060188385015283820391828c860152520190a2845191829186835286830190613c7e565b6018888301520390a25191614b3a83613c1f565b600e835282015290565b634e487b7160e01b87526004879052602487fd5b634e487b7160e01b88526041600452602488fd5b508392939594955190614b7e82613c1f565b600d82526c36b2b6b7b93cafb6b0b9ba32b960991b858301528460ff60028651614ba781613b96565b600181528a614bcf61124f8a87850193428552600a82870199600c8b528d8352522089613d35565b5160018201550191511660ff198254161790558287528452600b83872001805490600160401b821015614b585790614c0c91600182018155614393565b614b445781836000805160206150338339815191526c26b2b6b7b93c9026b0b9ba32b960991b979899614c5160008051602061501383398151915296614c8b96614095565b8988519160608352614c666060840187613c7e565b90600c8385015283820391828c860152520190a2845191829186835286830190613c7e565b600c888301520390a25191614c9f83613c1f565b600d835282015290565b508392939594955190614cbb82613c1f565b600f82526e36b2b6b7b93cafb3bab0b93234b0b760891b858301528460ff60028651614ce681613b96565b600181528a614d0e61124f8a87850193428552600a8287019960068b528d8352522089613d35565b5160018201550191511660ff198254161790558287528452600b83872001805490600160401b821015614b585790614d4b91600182018155614393565b614b445781836000805160206150338339815191526e26b2b6b7b93c9023bab0b93234b0b760891b979899614d9260008051602061501383398151915296614dcc96614095565b8988519160608352614da76060840187613c7e565b9060068385015283820391828c860152520190a2845191829186835286830190613c7e565b6006888301520390a25191614de083613c1f565b600f835282015290565b508392939594955190614dfc82613c1f565b600d82526c36b2b6b7b93cafb5b2b2b832b960991b858301528460ff60028651614e2581613b96565b600181528a614e4c61124f8a87850193428552600a828701998b8b528d8352522089613d35565b5160018201550191511660ff19825416179055828752808552600b84882001805490600160401b8210156146d05790614e8a91600182018155614393565b6146bc5791614f0991846000805160206150338339815191526c26b2b6b7b93c9025b2b2b832b960991b98999a614ed08560008051602061501383398151915298614095565b8a89519160608352614ee56060840188613c7e565b90868385015283820391828d860152520190a2855192839287845287840190613c7e565b90888301520390a25191614c9f83613c1f565b600160ff600c62278d00420406160160ff811161070f5790565b6107e86301e133804204810180911161070f5761ffff1690565b8015614ff457600081805b614fe05750614f6981613cd3565b91614f776040519384613c3a565b818352601f19614f8683613cd3565b01908060209236848701375b614f9c5750505090565b600a90603093828206850180951161070f57801561070f5760001901809486518210156140215760f81b6001600160f81b03191660001a9086018401530480614f92565b90614fec600a91613ffe565b910480614f5b565b5060405161500181613c1f565b60018152600360fc1b60208201529056fe4d4ca4452701c64d62e210aa5b23f7d376cf2d485ebc4fee8528e048afb0e2cfd0ba61587fc16fc1a3274fc4cd4ecf1243baadf9d8dde73ab61d5a7af1474ff406bbb7cb56b5f3845ce5ad015d25cbf87ed1c37c635e2082acb2610598f15cc750efbde2d46c37e9785f1791697f77e94bb7b701e19f1930a668820722d37694a49807205ce4d355092ef5a8a18f56e8913cf4a201fbe287825b095693c21775a26469706673582212200a654e4b122b99e5a5e74e9c02f05a43eb91d506d5735ae86b49e030166a3f9864736f6c634300081400332f8788117e7eff1d82e926ec794901d17c78024a50270940304540a733656f0d",
  "devdoc": {
    "details": "Designed for direct deployment  no upgrade proxy included.  For         upgradability, wrap this logic in a UUPS/Beacon proxy.",
    "errors": {
      "AccessControlBadConfirmation()": [
        {
          "details": "The caller of a function is not the expected one. NOTE: Don't confuse with {AccessControlUnauthorizedAccount}."
        }
      ],
      "AccessControlUnauthorizedAccount(address,bytes32)": [
        {
          "details": "The `account` is missing a role."
        }
      ],
      "EnforcedPause()": [
        {
          "details": "The operation failed because the contract is paused."
        }
      ],
      "ExpectedPause()": [
        {
          "details": "The operation failed because the contract is not paused."
        }
      ],
      "ReentrancyGuardReentrantCall()": [
        {
          "details": "Unauthorized reentrant call."
        }
      ]
    },
    "events": {
      "AgentConversation(uint256,bytes32,uint8,uint256)": {
        "details": "Emitted when agent has a conversation (without personality evolution)"
      },
      "AuthorizedUsage(uint256,address)": {
        "details": "This emits when a user is authorized to use the data"
      },
      "Cloned(uint256,uint256,address,address)": {
        "details": "This emits when data is cloned"
      },
      "Minted(uint256,address,address,bytes32[],string[])": {
        "details": "This emits when a new functional NFT is minted"
      },
      "Paused(address)": {
        "details": "Emitted when the pause is triggered by `account`."
      },
      "PersonalityEvolved(uint256,bytes32,(uint8,uint8,uint8,uint8,uint8,uint8,string,uint256),(int8,int8,int8,int8,int8,int8,string,uint8))": {
        "details": "Emitted when agent personality evolves from dream processing"
      },
      "PersonalityMilestone(uint256,string,uint8,string)": {
        "details": "Emitted when agent reaches personality milestones"
      },
      "PublishedSealedKey(address,uint256,bytes16[])": {
        "details": "This emits when a sealed key is published"
      },
      "ResponseStyleEvolved(uint256,string,string[])": {
        "details": "Emitted when agent's response style evolves"
      },
      "RoleAdminChanged(bytes32,bytes32,bytes32)": {
        "details": "Emitted when `newAdminRole` is set as ``role``'s admin role, replacing `previousAdminRole` `DEFAULT_ADMIN_ROLE` is the starting admin for all roles, despite {RoleAdminChanged} not being emitted to signal this."
      },
      "RoleGranted(bytes32,address,address)": {
        "details": "Emitted when `account` is granted `role`. `sender` is the account that originated the contract call. This account bears the admin role (for the granted role). Expected in cases where the role was granted using the internal {AccessControl-_grantRole}."
      },
      "RoleRevoked(bytes32,address,address)": {
        "details": "Emitted when `account` is revoked `role`. `sender` is the account that originated the contract call:   - if using `revokeRole`, it is the admin role bearer   - if using `renounceRole`, it is the role bearer (i.e. `account`)"
      },
      "Transferred(uint256,address,address)": {
        "details": "This emits when data is transferred with ownership"
      },
      "Unpaused(address)": {
        "details": "Emitted when the pause is lifted by `account`."
      }
    },
    "kind": "dev",
    "methods": {
      "canProcessDreamToday(uint256)": {
        "params": {
          "tokenId": "Agent to check"
        },
        "returns": {
          "_0": "True if agent can process a dream today"
        }
      },
      "getDreamHistory(uint256,uint256)": {
        "details": "*Deprecated*  original ERC7857 function retained for ABI stability      but returns an empty array because full history is now offchain."
      },
      "getEvolutionStats(uint256)": {
        "params": {
          "tokenId": "Agent to analyze"
        },
        "returns": {
          "evolutionRate": "Rate of personality change",
          "lastEvolution": "Timestamp of last evolution",
          "totalEvolutions": "Number of personality changes"
        }
      },
      "getPersonalityTraits(uint256)": {
        "params": {
          "tokenId": "Agent to query"
        },
        "returns": {
          "_0": "Current personality traits"
        }
      },
      "getRoleAdmin(bytes32)": {
        "details": "Returns the admin role that controls `role`. See {grantRole} and {revokeRole}. To change a role's admin, use {_setRoleAdmin}."
      },
      "grantRole(bytes32,address)": {
        "details": "Grants `role` to `account`. If `account` had not been already granted `role`, emits a {RoleGranted} event. Requirements: - the caller must have ``role``'s admin role. May emit a {RoleGranted} event."
      },
      "hasRole(bytes32,address)": {
        "details": "Returns `true` if `account` has been granted `role`."
      },
      "mintAgent(bytes[],string[],string,address)": {
        "params": {
          "agentName": "Unique display name (32 bytes)",
          "descriptions": "Data descriptions parallel to `proofs`",
          "proofs": "Optional ZKproof blobs (pass `[]` to skip)",
          "to": "Recipient address (must NOT already own an agent)"
        }
      },
      "paused()": {
        "details": "Returns true if the contract is paused, and false otherwise."
      },
      "processDailyDream(uint256,bytes32,bytes32,(int8,int8,int8,int8,int8,int8,string,uint8))": {
        "details": "ZKverified dream *content* lives offchain; contract stores only         hash + counters to keep gas low."
      },
      "renounceRole(bytes32,address)": {
        "details": "Revokes `role` from the calling account. Roles are often managed via {grantRole} and {revokeRole}: this function's purpose is to provide a mechanism for accounts to lose their privileges if they are compromised (such as when a trusted device is misplaced). If the calling account had been revoked `role`, emits a {RoleRevoked} event. Requirements: - the caller must be `callerConfirmation`. May emit a {RoleRevoked} event."
      },
      "revokeRole(bytes32,address)": {
        "details": "Revokes `role` from `account`. If `account` had been granted `role`, emits a {RoleRevoked} event. Requirements: - the caller must have ``role``'s admin role. May emit a {RoleRevoked} event."
      },
      "updateConversationMemory(uint256,bytes32)": {
        "details": "Appendonly daily hash for conversations."
      },
      "updateDreamMemory(uint256,bytes32)": {
        "details": "Appendonly daily hash for dreams; resets automatically on month change."
      }
    },
    "stateVariables": {
      "verifier": {
        "return": "The address of the verifier contract",
        "returns": {
          "_0": "The address of the verifier contract"
        }
      }
    },
    "title": "DreamscapeAgent  iNFT with Hierarchical Memory & Personality Evolution",
    "version": 1
  },
  "userdoc": {
    "kind": "user",
    "methods": {
      "canProcessDreamToday(uint256)": {
        "notice": "Check if agent can process dream today (24h cooldown)"
      },
      "consolidateMonth(uint256,bytes32,bytes32,uint8,uint16)": {
        "notice": "Userdriven monthly consolidation.  Merges daily files offchain and         stores the finalised month hash onchain, rewarding the agent."
      },
      "getEvolutionStats(uint256)": {
        "notice": "Get personality evolution statistics"
      },
      "getPersonalityTraits(uint256)": {
        "notice": "Get agent's current personality traits"
      },
      "mintAgent(bytes[],string[],string,address)": {
        "notice": "Mint a *blankslate* agent.  One per wallet."
      },
      "processDailyDream(uint256,bytes32,bytes32,(int8,int8,int8,int8,int8,int8,string,uint8))": {
        "notice": "Called once per dream; every 5th dream triggers evolution."
      },
      "recordConversation(uint256,bytes32,uint8)": {
        "notice": "Lightweight conversation recording; boosts intelligence every 10th convo."
      },
      "updateMemoryCore(uint256,bytes32)": {
        "notice": "Stores the yearly memory core hash and grants bonus INT."
      },
      "verifier()": {
        "notice": "The verifier interface that this NFT uses"
      }
    },
    "notice": "Singleperwallet autonomous agent that stores memories in a threelayer         hierarchy (daily  monthly  yearly) and evolves its personality from         analysed dreams & conversations.         This contract is a *lean* revision: we removed unbounded onchain arrays         of raw hashes to save gas and instead rely on offchain storage + a         rotating current hash per period.  All public getters needed by dApp         remain, but they now return an empty array and are marked *deprecated*.         The contract **still** complies with ERC7857 by preserving the original         ABI of `mintAgent(...)`; callers MAY pass empty arrays when proofs are         not needed.  Optional ZKP verification can be disabled by setting the         `verifier` address to zero at deployment.",
    "version": 1
  },
  "storageLayout": {
    "storage": [
      {
        "astId": 672,
        "contract": "contracts/DreamscapeAgent.sol:DreamscapeAgent",
        "label": "_status",
        "offset": 0,
        "slot": "0",
        "type": "t_uint256"
      },
      {
        "astId": 26,
        "contract": "contracts/DreamscapeAgent.sol:DreamscapeAgent",
        "label": "_roles",
        "offset": 0,
        "slot": "1",
        "type": "t_mapping(t_bytes32,t_struct(RoleData)21_storage)"
      },
      {
        "astId": 562,
        "contract": "contracts/DreamscapeAgent.sol:DreamscapeAgent",
        "label": "_paused",
        "offset": 0,
        "slot": "2",
        "type": "t_bool"
      },
      {
        "astId": 880,
        "contract": "contracts/DreamscapeAgent.sol:DreamscapeAgent",
        "label": "agents",
        "offset": 0,
        "slot": "3",
        "type": "t_mapping(t_uint256,t_struct(DreamAgent)841_storage)"
      },
      {
        "astId": 884,
        "contract": "contracts/DreamscapeAgent.sol:DreamscapeAgent",
        "label": "nameExists",
        "offset": 0,
        "slot": "4",
        "type": "t_mapping(t_string_memory_ptr,t_bool)"
      },
      {
        "astId": 888,
        "contract": "contracts/DreamscapeAgent.sol:DreamscapeAgent",
        "label": "ownerToTokenId",
        "offset": 0,
        "slot": "5",
        "type": "t_mapping(t_address,t_uint256)"
      },
      {
        "astId": 893,
        "contract": "contracts/DreamscapeAgent.sol:DreamscapeAgent",
        "label": "agentPersonalities",
        "offset": 0,
        "slot": "6",
        "type": "t_mapping(t_uint256,t_struct(PersonalityTraits)3773_storage)"
      },
      {
        "astId": 898,
        "contract": "contracts/DreamscapeAgent.sol:DreamscapeAgent",
        "label": "agentMemories",
        "offset": 0,
        "slot": "7",
        "type": "t_mapping(t_uint256,t_struct(AgentMemory)867_storage)"
      },
      {
        "astId": 903,
        "contract": "contracts/DreamscapeAgent.sol:DreamscapeAgent",
        "label": "pendingRewards",
        "offset": 0,
        "slot": "8",
        "type": "t_mapping(t_uint256,t_struct(ConsolidationReward)875_storage)"
      },
      {
        "astId": 907,
        "contract": "contracts/DreamscapeAgent.sol:DreamscapeAgent",
        "label": "consolidationStreak",
        "offset": 0,
        "slot": "9",
        "type": "t_mapping(t_uint256,t_uint256)"
      },
      {
        "astId": 914,
        "contract": "contracts/DreamscapeAgent.sol:DreamscapeAgent",
        "label": "milestones",
        "offset": 0,
        "slot": "10",
        "type": "t_mapping(t_uint256,t_mapping(t_string_memory_ptr,t_struct(MilestoneData)849_storage))"
      },
      {
        "astId": 918,
        "contract": "contracts/DreamscapeAgent.sol:DreamscapeAgent",
        "label": "responseStyles",
        "offset": 0,
        "slot": "11",
        "type": "t_mapping(t_uint256,t_string_storage)"
      },
      {
        "astId": 921,
        "contract": "contracts/DreamscapeAgent.sol:DreamscapeAgent",
        "label": "nextTokenId",
        "offset": 0,
        "slot": "12",
        "type": "t_uint256"
      },
      {
        "astId": 924,
        "contract": "contracts/DreamscapeAgent.sol:DreamscapeAgent",
        "label": "totalAgents",
        "offset": 0,
        "slot": "13",
        "type": "t_uint256"
      },
      {
        "astId": 927,
        "contract": "contracts/DreamscapeAgent.sol:DreamscapeAgent",
        "label": "totalFeesCollected",
        "offset": 0,
        "slot": "14",
        "type": "t_uint256"
      }
    ],
    "types": {
      "t_address": {
        "encoding": "inplace",
        "label": "address",
        "numberOfBytes": "20"
      },
      "t_array(t_address)dyn_storage": {
        "base": "t_address",
        "encoding": "dynamic_array",
        "label": "address[]",
        "numberOfBytes": "32"
      },
      "t_array(t_string_storage)dyn_storage": {
        "base": "t_string_storage",
        "encoding": "dynamic_array",
        "label": "string[]",
        "numberOfBytes": "32"
      },
      "t_bool": {
        "encoding": "inplace",
        "label": "bool",
        "numberOfBytes": "1"
      },
      "t_bytes32": {
        "encoding": "inplace",
        "label": "bytes32",
        "numberOfBytes": "32"
      },
      "t_mapping(t_address,t_bool)": {
        "encoding": "mapping",
        "key": "t_address",
        "label": "mapping(address => bool)",
        "numberOfBytes": "32",
        "value": "t_bool"
      },
      "t_mapping(t_address,t_uint256)": {
        "encoding": "mapping",
        "key": "t_address",
        "label": "mapping(address => uint256)",
        "numberOfBytes": "32",
        "value": "t_uint256"
      },
      "t_mapping(t_bytes32,t_struct(RoleData)21_storage)": {
        "encoding": "mapping",
        "key": "t_bytes32",
        "label": "mapping(bytes32 => struct AccessControl.RoleData)",
        "numberOfBytes": "32",
        "value": "t_struct(RoleData)21_storage"
      },
      "t_mapping(t_string_memory_ptr,t_bool)": {
        "encoding": "mapping",
        "key": "t_string_memory_ptr",
        "label": "mapping(string => bool)",
        "numberOfBytes": "32",
        "value": "t_bool"
      },
      "t_mapping(t_string_memory_ptr,t_struct(MilestoneData)849_storage)": {
        "encoding": "mapping",
        "key": "t_string_memory_ptr",
        "label": "mapping(string => struct DreamscapeAgent.MilestoneData)",
        "numberOfBytes": "32",
        "value": "t_struct(MilestoneData)849_storage"
      },
      "t_mapping(t_uint256,t_mapping(t_string_memory_ptr,t_struct(MilestoneData)849_storage))": {
        "encoding": "mapping",
        "key": "t_uint256",
        "label": "mapping(uint256 => mapping(string => struct DreamscapeAgent.MilestoneData))",
        "numberOfBytes": "32",
        "value": "t_mapping(t_string_memory_ptr,t_struct(MilestoneData)849_storage)"
      },
      "t_mapping(t_uint256,t_string_storage)": {
        "encoding": "mapping",
        "key": "t_uint256",
        "label": "mapping(uint256 => string)",
        "numberOfBytes": "32",
        "value": "t_string_storage"
      },
      "t_mapping(t_uint256,t_struct(AgentMemory)867_storage)": {
        "encoding": "mapping",
        "key": "t_uint256",
        "label": "mapping(uint256 => struct DreamscapeAgent.AgentMemory)",
        "numberOfBytes": "32",
        "value": "t_struct(AgentMemory)867_storage"
      },
      "t_mapping(t_uint256,t_struct(ConsolidationReward)875_storage)": {
        "encoding": "mapping",
        "key": "t_uint256",
        "label": "mapping(uint256 => struct DreamscapeAgent.ConsolidationReward)",
        "numberOfBytes": "32",
        "value": "t_struct(ConsolidationReward)875_storage"
      },
      "t_mapping(t_uint256,t_struct(DreamAgent)841_storage)": {
        "encoding": "mapping",
        "key": "t_uint256",
        "label": "mapping(uint256 => struct DreamscapeAgent.DreamAgent)",
        "numberOfBytes": "32",
        "value": "t_struct(DreamAgent)841_storage"
      },
      "t_mapping(t_uint256,t_struct(PersonalityTraits)3773_storage)": {
        "encoding": "mapping",
        "key": "t_uint256",
        "label": "mapping(uint256 => struct IPersonalityEvolution.PersonalityTraits)",
        "numberOfBytes": "32",
        "value": "t_struct(PersonalityTraits)3773_storage"
      },
      "t_mapping(t_uint256,t_uint256)": {
        "encoding": "mapping",
        "key": "t_uint256",
        "label": "mapping(uint256 => uint256)",
        "numberOfBytes": "32",
        "value": "t_uint256"
      },
      "t_string_memory_ptr": {
        "encoding": "bytes",
        "label": "string",
        "numberOfBytes": "32"
      },
      "t_string_storage": {
        "encoding": "bytes",
        "label": "string",
        "numberOfBytes": "32"
      },
      "t_struct(AgentMemory)867_storage": {
        "encoding": "inplace",
        "label": "struct DreamscapeAgent.AgentMemory",
        "members": [
          {
            "astId": 852,
            "contract": "contracts/DreamscapeAgent.sol:DreamscapeAgent",
            "label": "memoryCoreHash",
            "offset": 0,
            "slot": "0",
            "type": "t_bytes32"
          },
          {
            "astId": 854,
            "contract": "contracts/DreamscapeAgent.sol:DreamscapeAgent",
            "label": "currentDreamDailyHash",
            "offset": 0,
            "slot": "1",
            "type": "t_bytes32"
          },
          {
            "astId": 856,
            "contract": "contracts/DreamscapeAgent.sol:DreamscapeAgent",
            "label": "currentConvDailyHash",
            "offset": 0,
            "slot": "2",
            "type": "t_bytes32"
          },
          {
            "astId": 858,
            "contract": "contracts/DreamscapeAgent.sol:DreamscapeAgent",
            "label": "lastDreamMonthlyHash",
            "offset": 0,
            "slot": "3",
            "type": "t_bytes32"
          },
          {
            "astId": 860,
            "contract": "contracts/DreamscapeAgent.sol:DreamscapeAgent",
            "label": "lastConvMonthlyHash",
            "offset": 0,
            "slot": "4",
            "type": "t_bytes32"
          },
          {
            "astId": 862,
            "contract": "contracts/DreamscapeAgent.sol:DreamscapeAgent",
            "label": "lastConsolidation",
            "offset": 0,
            "slot": "5",
            "type": "t_uint256"
          },
          {
            "astId": 864,
            "contract": "contracts/DreamscapeAgent.sol:DreamscapeAgent",
            "label": "currentMonth",
            "offset": 0,
            "slot": "6",
            "type": "t_uint8"
          },
          {
            "astId": 866,
            "contract": "contracts/DreamscapeAgent.sol:DreamscapeAgent",
            "label": "currentYear",
            "offset": 1,
            "slot": "6",
            "type": "t_uint16"
          }
        ],
        "numberOfBytes": "224"
      },
      "t_struct(ConsolidationReward)875_storage": {
        "encoding": "inplace",
        "label": "struct DreamscapeAgent.ConsolidationReward",
        "members": [
          {
            "astId": 870,
            "contract": "contracts/DreamscapeAgent.sol:DreamscapeAgent",
            "label": "intelligenceBonus",
            "offset": 0,
            "slot": "0",
            "type": "t_uint256"
          },
          {
            "astId": 872,
            "contract": "contracts/DreamscapeAgent.sol:DreamscapeAgent",
            "label": "specialMilestone",
            "offset": 0,
            "slot": "1",
            "type": "t_string_storage"
          },
          {
            "astId": 874,
            "contract": "contracts/DreamscapeAgent.sol:DreamscapeAgent",
            "label": "yearlyReflection",
            "offset": 0,
            "slot": "2",
            "type": "t_bool"
          }
        ],
        "numberOfBytes": "96"
      },
      "t_struct(DreamAgent)841_storage": {
        "encoding": "inplace",
        "label": "struct DreamscapeAgent.DreamAgent",
        "members": [
          {
            "astId": 816,
            "contract": "contracts/DreamscapeAgent.sol:DreamscapeAgent",
            "label": "owner",
            "offset": 0,
            "slot": "0",
            "type": "t_address"
          },
          {
            "astId": 818,
            "contract": "contracts/DreamscapeAgent.sol:DreamscapeAgent",
            "label": "agentName",
            "offset": 0,
            "slot": "1",
            "type": "t_string_storage"
          },
          {
            "astId": 820,
            "contract": "contracts/DreamscapeAgent.sol:DreamscapeAgent",
            "label": "createdAt",
            "offset": 0,
            "slot": "2",
            "type": "t_uint256"
          },
          {
            "astId": 822,
            "contract": "contracts/DreamscapeAgent.sol:DreamscapeAgent",
            "label": "lastUpdated",
            "offset": 0,
            "slot": "3",
            "type": "t_uint256"
          },
          {
            "astId": 825,
            "contract": "contracts/DreamscapeAgent.sol:DreamscapeAgent",
            "label": "authorizedUsers",
            "offset": 0,
            "slot": "4",
            "type": "t_array(t_address)dyn_storage"
          },
          {
            "astId": 827,
            "contract": "contracts/DreamscapeAgent.sol:DreamscapeAgent",
            "label": "intelligenceLevel",
            "offset": 0,
            "slot": "5",
            "type": "t_uint256"
          },
          {
            "astId": 829,
            "contract": "contracts/DreamscapeAgent.sol:DreamscapeAgent",
            "label": "dreamCount",
            "offset": 0,
            "slot": "6",
            "type": "t_uint256"
          },
          {
            "astId": 831,
            "contract": "contracts/DreamscapeAgent.sol:DreamscapeAgent",
            "label": "conversationCount",
            "offset": 0,
            "slot": "7",
            "type": "t_uint256"
          },
          {
            "astId": 833,
            "contract": "contracts/DreamscapeAgent.sol:DreamscapeAgent",
            "label": "personalityInitialized",
            "offset": 0,
            "slot": "8",
            "type": "t_bool"
          },
          {
            "astId": 835,
            "contract": "contracts/DreamscapeAgent.sol:DreamscapeAgent",
            "label": "totalEvolutions",
            "offset": 0,
            "slot": "9",
            "type": "t_uint256"
          },
          {
            "astId": 837,
            "contract": "contracts/DreamscapeAgent.sol:DreamscapeAgent",
            "label": "lastEvolutionDate",
            "offset": 0,
            "slot": "10",
            "type": "t_uint256"
          },
          {
            "astId": 840,
            "contract": "contracts/DreamscapeAgent.sol:DreamscapeAgent",
            "label": "achievedMilestones",
            "offset": 0,
            "slot": "11",
            "type": "t_array(t_string_storage)dyn_storage"
          }
        ],
        "numberOfBytes": "384"
      },
      "t_struct(MilestoneData)849_storage": {
        "encoding": "inplace",
        "label": "struct DreamscapeAgent.MilestoneData",
        "members": [
          {
            "astId": 844,
            "contract": "contracts/DreamscapeAgent.sol:DreamscapeAgent",
            "label": "achieved",
            "offset": 0,
            "slot": "0",
            "type": "t_bool"
          },
          {
            "astId": 846,
            "contract": "contracts/DreamscapeAgent.sol:DreamscapeAgent",
            "label": "achievedAt",
            "offset": 0,
            "slot": "1",
            "type": "t_uint256"
          },
          {
            "astId": 848,
            "contract": "contracts/DreamscapeAgent.sol:DreamscapeAgent",
            "label": "traitValue",
            "offset": 0,
            "slot": "2",
            "type": "t_uint8"
          }
        ],
        "numberOfBytes": "96"
      },
      "t_struct(PersonalityTraits)3773_storage": {
        "encoding": "inplace",
        "label": "struct IPersonalityEvolution.PersonalityTraits",
        "members": [
          {
            "astId": 3758,
            "contract": "contracts/DreamscapeAgent.sol:DreamscapeAgent",
            "label": "creativity",
            "offset": 0,
            "slot": "0",
            "type": "t_uint8"
          },
          {
            "astId": 3760,
            "contract": "contracts/DreamscapeAgent.sol:DreamscapeAgent",
            "label": "analytical",
            "offset": 1,
            "slot": "0",
            "type": "t_uint8"
          },
          {
            "astId": 3762,
            "contract": "contracts/DreamscapeAgent.sol:DreamscapeAgent",
            "label": "empathy",
            "offset": 2,
            "slot": "0",
            "type": "t_uint8"
          },
          {
            "astId": 3764,
            "contract": "contracts/DreamscapeAgent.sol:DreamscapeAgent",
            "label": "intuition",
            "offset": 3,
            "slot": "0",
            "type": "t_uint8"
          },
          {
            "astId": 3766,
            "contract": "contracts/DreamscapeAgent.sol:DreamscapeAgent",
            "label": "resilience",
            "offset": 4,
            "slot": "0",
            "type": "t_uint8"
          },
          {
            "astId": 3768,
            "contract": "contracts/DreamscapeAgent.sol:DreamscapeAgent",
            "label": "curiosity",
            "offset": 5,
            "slot": "0",
            "type": "t_uint8"
          },
          {
            "astId": 3770,
            "contract": "contracts/DreamscapeAgent.sol:DreamscapeAgent",
            "label": "dominantMood",
            "offset": 0,
            "slot": "1",
            "type": "t_string_storage"
          },
          {
            "astId": 3772,
            "contract": "contracts/DreamscapeAgent.sol:DreamscapeAgent",
            "label": "lastDreamDate",
            "offset": 0,
            "slot": "2",
            "type": "t_uint256"
          }
        ],
        "numberOfBytes": "96"
      },
      "t_struct(RoleData)21_storage": {
        "encoding": "inplace",
        "label": "struct AccessControl.RoleData",
        "members": [
          {
            "astId": 18,
            "contract": "contracts/DreamscapeAgent.sol:DreamscapeAgent",
            "label": "hasRole",
            "offset": 0,
            "slot": "0",
            "type": "t_mapping(t_address,t_bool)"
          },
          {
            "astId": 20,
            "contract": "contracts/DreamscapeAgent.sol:DreamscapeAgent",
            "label": "adminRole",
            "offset": 0,
            "slot": "1",
            "type": "t_bytes32"
          }
        ],
        "numberOfBytes": "64"
      },
      "t_uint16": {
        "encoding": "inplace",
        "label": "uint16",
        "numberOfBytes": "2"
      },
      "t_uint256": {
        "encoding": "inplace",
        "label": "uint256",
        "numberOfBytes": "32"
      },
      "t_uint8": {
        "encoding": "inplace",
        "label": "uint8",
        "numberOfBytes": "1"
      }
    }
  }
}