{
  "address": "0xA7147Ffb491a4b5a91acB6d7Dd4AA2036A909947",
  "abi": [
    {
      "inputs": [
        {
          "internalType": "address",
          "name": "_verifier",
          "type": "address"
        },
        {
          "internalType": "address",
          "name": "_treasury",
          "type": "address"
        }
      ],
      "stateMutability": "nonpayable",
      "type": "constructor"
    },
    {
      "inputs": [],
      "name": "AccessControlBadConfirmation",
      "type": "error"
    },
    {
      "inputs": [
        {
          "internalType": "address",
          "name": "account",
          "type": "address"
        },
        {
          "internalType": "bytes32",
          "name": "neededRole",
          "type": "bytes32"
        }
      ],
      "name": "AccessControlUnauthorizedAccount",
      "type": "error"
    },
    {
      "inputs": [],
      "name": "EnforcedPause",
      "type": "error"
    },
    {
      "inputs": [],
      "name": "ExpectedPause",
      "type": "error"
    },
    {
      "inputs": [],
      "name": "ReentrancyGuardReentrantCall",
      "type": "error"
    },
    {
      "anonymous": false,
      "inputs": [
        {
          "indexed": true,
          "internalType": "uint256",
          "name": "tokenId",
          "type": "uint256"
        },
        {
          "indexed": true,
          "internalType": "bytes32",
          "name": "conversationHash",
          "type": "bytes32"
        },
        {
          "indexed": false,
          "internalType": "enum IPersonalityEvolution.ContextType",
          "name": "contextType",
          "type": "uint8"
        },
        {
          "indexed": false,
          "internalType": "uint256",
          "name": "conversationCount",
          "type": "uint256"
        }
      ],
      "name": "AgentConversation",
      "type": "event"
    },
    {
      "anonymous": false,
      "inputs": [
        {
          "indexed": true,
          "internalType": "uint256",
          "name": "tokenId",
          "type": "uint256"
        },
        {
          "indexed": false,
          "internalType": "uint256",
          "name": "oldLevel",
          "type": "uint256"
        },
        {
          "indexed": false,
          "internalType": "uint256",
          "name": "newLevel",
          "type": "uint256"
        }
      ],
      "name": "AgentEvolved",
      "type": "event"
    },
    {
      "anonymous": false,
      "inputs": [
        {
          "indexed": true,
          "internalType": "uint256",
          "name": "_tokenId",
          "type": "uint256"
        },
        {
          "indexed": true,
          "internalType": "address",
          "name": "_user",
          "type": "address"
        }
      ],
      "name": "AuthorizedUsage",
      "type": "event"
    },
    {
      "anonymous": false,
      "inputs": [
        {
          "indexed": true,
          "internalType": "uint256",
          "name": "_tokenId",
          "type": "uint256"
        },
        {
          "indexed": true,
          "internalType": "uint256",
          "name": "_newTokenId",
          "type": "uint256"
        },
        {
          "indexed": false,
          "internalType": "address",
          "name": "_from",
          "type": "address"
        },
        {
          "indexed": false,
          "internalType": "address",
          "name": "_to",
          "type": "address"
        }
      ],
      "name": "Cloned",
      "type": "event"
    },
    {
      "anonymous": false,
      "inputs": [
        {
          "indexed": true,
          "internalType": "uint256",
          "name": "tokenId",
          "type": "uint256"
        },
        {
          "indexed": false,
          "internalType": "string",
          "name": "period",
          "type": "string"
        },
        {
          "indexed": false,
          "internalType": "uint256",
          "name": "bonus",
          "type": "uint256"
        },
        {
          "indexed": false,
          "internalType": "string",
          "name": "specialReward",
          "type": "string"
        }
      ],
      "name": "ConsolidationCompleted",
      "type": "event"
    },
    {
      "anonymous": false,
      "inputs": [
        {
          "indexed": true,
          "internalType": "uint256",
          "name": "tokenId",
          "type": "uint256"
        },
        {
          "indexed": false,
          "internalType": "uint8",
          "name": "month",
          "type": "uint8"
        },
        {
          "indexed": false,
          "internalType": "uint16",
          "name": "year",
          "type": "uint16"
        },
        {
          "indexed": false,
          "internalType": "string",
          "name": "consolidationType",
          "type": "string"
        }
      ],
      "name": "ConsolidationNeeded",
      "type": "event"
    },
    {
      "anonymous": false,
      "inputs": [
        {
          "indexed": true,
          "internalType": "uint256",
          "name": "tokenId",
          "type": "uint256"
        },
        {
          "indexed": false,
          "internalType": "bytes32",
          "name": "dreamHash",
          "type": "bytes32"
        },
        {
          "indexed": false,
          "internalType": "uint256",
          "name": "intelligenceLevel",
          "type": "uint256"
        }
      ],
      "name": "DreamProcessed",
      "type": "event"
    },
    {
      "anonymous": false,
      "inputs": [
        {
          "indexed": true,
          "internalType": "uint256",
          "name": "tokenId",
          "type": "uint256"
        },
        {
          "indexed": true,
          "internalType": "address",
          "name": "payer",
          "type": "address"
        },
        {
          "indexed": false,
          "internalType": "uint256",
          "name": "amount",
          "type": "uint256"
        }
      ],
      "name": "FeePaid",
      "type": "event"
    },
    {
      "anonymous": false,
      "inputs": [
        {
          "indexed": true,
          "internalType": "uint256",
          "name": "tokenId",
          "type": "uint256"
        },
        {
          "indexed": false,
          "internalType": "string",
          "name": "achievement",
          "type": "string"
        },
        {
          "indexed": false,
          "internalType": "uint256",
          "name": "totalInteractions",
          "type": "uint256"
        }
      ],
      "name": "MemoryMilestone",
      "type": "event"
    },
    {
      "anonymous": false,
      "inputs": [
        {
          "indexed": true,
          "internalType": "uint256",
          "name": "tokenId",
          "type": "uint256"
        },
        {
          "indexed": false,
          "internalType": "string",
          "name": "memoryType",
          "type": "string"
        },
        {
          "indexed": false,
          "internalType": "bytes32",
          "name": "newHash",
          "type": "bytes32"
        },
        {
          "indexed": false,
          "internalType": "bytes32",
          "name": "oldHash",
          "type": "bytes32"
        }
      ],
      "name": "MemoryUpdated",
      "type": "event"
    },
    {
      "anonymous": false,
      "inputs": [
        {
          "indexed": true,
          "internalType": "uint256",
          "name": "tokenId",
          "type": "uint256"
        },
        {
          "indexed": false,
          "internalType": "string",
          "name": "milestone",
          "type": "string"
        },
        {
          "indexed": false,
          "internalType": "uint8",
          "name": "value",
          "type": "uint8"
        }
      ],
      "name": "MilestoneUnlocked",
      "type": "event"
    },
    {
      "anonymous": false,
      "inputs": [
        {
          "indexed": true,
          "internalType": "uint256",
          "name": "_tokenId",
          "type": "uint256"
        },
        {
          "indexed": true,
          "internalType": "address",
          "name": "_creator",
          "type": "address"
        },
        {
          "indexed": true,
          "internalType": "address",
          "name": "_owner",
          "type": "address"
        },
        {
          "indexed": false,
          "internalType": "bytes32[]",
          "name": "_dataHashes",
          "type": "bytes32[]"
        },
        {
          "indexed": false,
          "internalType": "string[]",
          "name": "_dataDescriptions",
          "type": "string[]"
        }
      ],
      "name": "Minted",
      "type": "event"
    },
    {
      "anonymous": false,
      "inputs": [
        {
          "indexed": false,
          "internalType": "address",
          "name": "account",
          "type": "address"
        }
      ],
      "name": "Paused",
      "type": "event"
    },
    {
      "anonymous": false,
      "inputs": [
        {
          "indexed": true,
          "internalType": "uint256",
          "name": "tokenId",
          "type": "uint256"
        },
        {
          "components": [
            {
              "internalType": "uint8",
              "name": "creativity",
              "type": "uint8"
            },
            {
              "internalType": "uint8",
              "name": "analytical",
              "type": "uint8"
            },
            {
              "internalType": "uint8",
              "name": "empathy",
              "type": "uint8"
            },
            {
              "internalType": "uint8",
              "name": "intuition",
              "type": "uint8"
            },
            {
              "internalType": "uint8",
              "name": "resilience",
              "type": "uint8"
            },
            {
              "internalType": "uint8",
              "name": "curiosity",
              "type": "uint8"
            },
            {
              "internalType": "string",
              "name": "dominantMood",
              "type": "string"
            },
            {
              "internalType": "uint256",
              "name": "lastDreamDate",
              "type": "uint256"
            },
            {
              "components": [
                {
                  "internalType": "string",
                  "name": "name",
                  "type": "string"
                },
                {
                  "internalType": "string",
                  "name": "description",
                  "type": "string"
                },
                {
                  "internalType": "uint8",
                  "name": "intensity",
                  "type": "uint8"
                },
                {
                  "internalType": "uint256",
                  "name": "addedAt",
                  "type": "uint256"
                }
              ],
              "internalType": "struct IPersonalityEvolution.UniqueFeature[]",
              "name": "uniqueFeatures",
              "type": "tuple[]"
            }
          ],
          "indexed": false,
          "internalType": "struct IPersonalityEvolution.PersonalityTraits",
          "name": "traits",
          "type": "tuple"
        },
        {
          "indexed": false,
          "internalType": "uint256",
          "name": "dreamCount",
          "type": "uint256"
        }
      ],
      "name": "PersonalityActivated",
      "type": "event"
    },
    {
      "anonymous": false,
      "inputs": [
        {
          "indexed": true,
          "internalType": "uint256",
          "name": "tokenId",
          "type": "uint256"
        },
        {
          "indexed": true,
          "internalType": "bytes32",
          "name": "dreamHash",
          "type": "bytes32"
        },
        {
          "components": [
            {
              "internalType": "uint8",
              "name": "creativity",
              "type": "uint8"
            },
            {
              "internalType": "uint8",
              "name": "analytical",
              "type": "uint8"
            },
            {
              "internalType": "uint8",
              "name": "empathy",
              "type": "uint8"
            },
            {
              "internalType": "uint8",
              "name": "intuition",
              "type": "uint8"
            },
            {
              "internalType": "uint8",
              "name": "resilience",
              "type": "uint8"
            },
            {
              "internalType": "uint8",
              "name": "curiosity",
              "type": "uint8"
            },
            {
              "internalType": "string",
              "name": "dominantMood",
              "type": "string"
            },
            {
              "internalType": "uint256",
              "name": "lastDreamDate",
              "type": "uint256"
            },
            {
              "components": [
                {
                  "internalType": "string",
                  "name": "name",
                  "type": "string"
                },
                {
                  "internalType": "string",
                  "name": "description",
                  "type": "string"
                },
                {
                  "internalType": "uint8",
                  "name": "intensity",
                  "type": "uint8"
                },
                {
                  "internalType": "uint256",
                  "name": "addedAt",
                  "type": "uint256"
                }
              ],
              "internalType": "struct IPersonalityEvolution.UniqueFeature[]",
              "name": "uniqueFeatures",
              "type": "tuple[]"
            }
          ],
          "indexed": false,
          "internalType": "struct IPersonalityEvolution.PersonalityTraits",
          "name": "newPersonality",
          "type": "tuple"
        },
        {
          "components": [
            {
              "internalType": "int8",
              "name": "creativityChange",
              "type": "int8"
            },
            {
              "internalType": "int8",
              "name": "analyticalChange",
              "type": "int8"
            },
            {
              "internalType": "int8",
              "name": "empathyChange",
              "type": "int8"
            },
            {
              "internalType": "int8",
              "name": "intuitionChange",
              "type": "int8"
            },
            {
              "internalType": "int8",
              "name": "resilienceChange",
              "type": "int8"
            },
            {
              "internalType": "int8",
              "name": "curiosityChange",
              "type": "int8"
            },
            {
              "internalType": "string",
              "name": "moodShift",
              "type": "string"
            },
            {
              "internalType": "uint8",
              "name": "evolutionWeight",
              "type": "uint8"
            },
            {
              "components": [
                {
                  "internalType": "string",
                  "name": "name",
                  "type": "string"
                },
                {
                  "internalType": "string",
                  "name": "description",
                  "type": "string"
                },
                {
                  "internalType": "uint8",
                  "name": "intensity",
                  "type": "uint8"
                },
                {
                  "internalType": "uint256",
                  "name": "addedAt",
                  "type": "uint256"
                }
              ],
              "internalType": "struct IPersonalityEvolution.UniqueFeature[]",
              "name": "newFeatures",
              "type": "tuple[]"
            }
          ],
          "indexed": false,
          "internalType": "struct IPersonalityEvolution.PersonalityImpact",
          "name": "impact",
          "type": "tuple"
        }
      ],
      "name": "PersonalityEvolved",
      "type": "event"
    },
    {
      "anonymous": false,
      "inputs": [
        {
          "indexed": true,
          "internalType": "uint256",
          "name": "tokenId",
          "type": "uint256"
        },
        {
          "indexed": false,
          "internalType": "string",
          "name": "milestone",
          "type": "string"
        },
        {
          "indexed": false,
          "internalType": "uint8",
          "name": "traitValue",
          "type": "uint8"
        },
        {
          "indexed": false,
          "internalType": "string",
          "name": "traitName",
          "type": "string"
        }
      ],
      "name": "PersonalityMilestone",
      "type": "event"
    },
    {
      "anonymous": false,
      "inputs": [
        {
          "indexed": true,
          "internalType": "address",
          "name": "_to",
          "type": "address"
        },
        {
          "indexed": true,
          "internalType": "uint256",
          "name": "_tokenId",
          "type": "uint256"
        },
        {
          "indexed": false,
          "internalType": "bytes16[]",
          "name": "_sealedKeys",
          "type": "bytes16[]"
        }
      ],
      "name": "PublishedSealedKey",
      "type": "event"
    },
    {
      "anonymous": false,
      "inputs": [
        {
          "indexed": true,
          "internalType": "uint256",
          "name": "tokenId",
          "type": "uint256"
        },
        {
          "indexed": false,
          "internalType": "string",
          "name": "newStyle",
          "type": "string"
        },
        {
          "indexed": false,
          "internalType": "string[]",
          "name": "dominantTraits",
          "type": "string[]"
        }
      ],
      "name": "ResponseStyleEvolved",
      "type": "event"
    },
    {
      "anonymous": false,
      "inputs": [
        {
          "indexed": true,
          "internalType": "uint256",
          "name": "tokenId",
          "type": "uint256"
        },
        {
          "indexed": false,
          "internalType": "string",
          "name": "oldStyle",
          "type": "string"
        },
        {
          "indexed": false,
          "internalType": "string",
          "name": "newStyle",
          "type": "string"
        }
      ],
      "name": "ResponseStyleUpdated",
      "type": "event"
    },
    {
      "anonymous": false,
      "inputs": [
        {
          "indexed": true,
          "internalType": "bytes32",
          "name": "role",
          "type": "bytes32"
        },
        {
          "indexed": true,
          "internalType": "bytes32",
          "name": "previousAdminRole",
          "type": "bytes32"
        },
        {
          "indexed": true,
          "internalType": "bytes32",
          "name": "newAdminRole",
          "type": "bytes32"
        }
      ],
      "name": "RoleAdminChanged",
      "type": "event"
    },
    {
      "anonymous": false,
      "inputs": [
        {
          "indexed": true,
          "internalType": "bytes32",
          "name": "role",
          "type": "bytes32"
        },
        {
          "indexed": true,
          "internalType": "address",
          "name": "account",
          "type": "address"
        },
        {
          "indexed": true,
          "internalType": "address",
          "name": "sender",
          "type": "address"
        }
      ],
      "name": "RoleGranted",
      "type": "event"
    },
    {
      "anonymous": false,
      "inputs": [
        {
          "indexed": true,
          "internalType": "bytes32",
          "name": "role",
          "type": "bytes32"
        },
        {
          "indexed": true,
          "internalType": "address",
          "name": "account",
          "type": "address"
        },
        {
          "indexed": true,
          "internalType": "address",
          "name": "sender",
          "type": "address"
        }
      ],
      "name": "RoleRevoked",
      "type": "event"
    },
    {
      "anonymous": false,
      "inputs": [
        {
          "indexed": false,
          "internalType": "uint256",
          "name": "_tokenId",
          "type": "uint256"
        },
        {
          "indexed": true,
          "internalType": "address",
          "name": "_from",
          "type": "address"
        },
        {
          "indexed": true,
          "internalType": "address",
          "name": "_to",
          "type": "address"
        }
      ],
      "name": "Transferred",
      "type": "event"
    },
    {
      "anonymous": false,
      "inputs": [
        {
          "indexed": true,
          "internalType": "uint256",
          "name": "tokenId",
          "type": "uint256"
        },
        {
          "components": [
            {
              "internalType": "string",
              "name": "name",
              "type": "string"
            },
            {
              "internalType": "string",
              "name": "description",
              "type": "string"
            },
            {
              "internalType": "uint8",
              "name": "intensity",
              "type": "uint8"
            },
            {
              "internalType": "uint256",
              "name": "addedAt",
              "type": "uint256"
            }
          ],
          "indexed": false,
          "internalType": "struct IPersonalityEvolution.UniqueFeature[]",
          "name": "newFeatures",
          "type": "tuple[]"
        },
        {
          "indexed": false,
          "internalType": "uint256",
          "name": "totalFeatures",
          "type": "uint256"
        }
      ],
      "name": "UniqueFeaturesAdded",
      "type": "event"
    },
    {
      "anonymous": false,
      "inputs": [
        {
          "indexed": false,
          "internalType": "address",
          "name": "account",
          "type": "address"
        }
      ],
      "name": "Unpaused",
      "type": "event"
    },
    {
      "anonymous": false,
      "inputs": [
        {
          "indexed": true,
          "internalType": "uint256",
          "name": "tokenId",
          "type": "uint256"
        },
        {
          "indexed": false,
          "internalType": "uint16",
          "name": "year",
          "type": "uint16"
        }
      ],
      "name": "YearlyReflectionAvailable",
      "type": "event"
    },
    {
      "inputs": [],
      "name": "ADMIN_ROLE",
      "outputs": [
        {
          "internalType": "bytes32",
          "name": "",
          "type": "bytes32"
        }
      ],
      "stateMutability": "view",
      "type": "function"
    },
    {
      "inputs": [],
      "name": "DEFAULT_ADMIN_ROLE",
      "outputs": [
        {
          "internalType": "bytes32",
          "name": "",
          "type": "bytes32"
        }
      ],
      "stateMutability": "view",
      "type": "function"
    },
    {
      "inputs": [],
      "name": "MAX_AGENTS",
      "outputs": [
        {
          "internalType": "uint256",
          "name": "",
          "type": "uint256"
        }
      ],
      "stateMutability": "view",
      "type": "function"
    },
    {
      "inputs": [],
      "name": "MINTING_FEE",
      "outputs": [
        {
          "internalType": "uint256",
          "name": "",
          "type": "uint256"
        }
      ],
      "stateMutability": "view",
      "type": "function"
    },
    {
      "inputs": [],
      "name": "PAUSER_ROLE",
      "outputs": [
        {
          "internalType": "bytes32",
          "name": "",
          "type": "bytes32"
        }
      ],
      "stateMutability": "view",
      "type": "function"
    },
    {
      "inputs": [],
      "name": "VERIFIER_ROLE",
      "outputs": [
        {
          "internalType": "bytes32",
          "name": "",
          "type": "bytes32"
        }
      ],
      "stateMutability": "view",
      "type": "function"
    },
    {
      "inputs": [
        {
          "internalType": "uint256",
          "name": "",
          "type": "uint256"
        }
      ],
      "name": "agentMemories",
      "outputs": [
        {
          "internalType": "bytes32",
          "name": "memoryCoreHash",
          "type": "bytes32"
        },
        {
          "internalType": "bytes32",
          "name": "currentDreamDailyHash",
          "type": "bytes32"
        },
        {
          "internalType": "bytes32",
          "name": "currentConvDailyHash",
          "type": "bytes32"
        },
        {
          "internalType": "bytes32",
          "name": "lastDreamMonthlyHash",
          "type": "bytes32"
        },
        {
          "internalType": "bytes32",
          "name": "lastConvMonthlyHash",
          "type": "bytes32"
        },
        {
          "internalType": "uint256",
          "name": "lastConsolidation",
          "type": "uint256"
        },
        {
          "internalType": "uint8",
          "name": "currentMonth",
          "type": "uint8"
        },
        {
          "internalType": "uint16",
          "name": "currentYear",
          "type": "uint16"
        }
      ],
      "stateMutability": "view",
      "type": "function"
    },
    {
      "inputs": [
        {
          "internalType": "uint256",
          "name": "",
          "type": "uint256"
        }
      ],
      "name": "agentPersonalities",
      "outputs": [
        {
          "internalType": "uint8",
          "name": "creativity",
          "type": "uint8"
        },
        {
          "internalType": "uint8",
          "name": "analytical",
          "type": "uint8"
        },
        {
          "internalType": "uint8",
          "name": "empathy",
          "type": "uint8"
        },
        {
          "internalType": "uint8",
          "name": "intuition",
          "type": "uint8"
        },
        {
          "internalType": "uint8",
          "name": "resilience",
          "type": "uint8"
        },
        {
          "internalType": "uint8",
          "name": "curiosity",
          "type": "uint8"
        },
        {
          "internalType": "string",
          "name": "dominantMood",
          "type": "string"
        },
        {
          "internalType": "uint256",
          "name": "lastDreamDate",
          "type": "uint256"
        }
      ],
      "stateMutability": "view",
      "type": "function"
    },
    {
      "inputs": [
        {
          "internalType": "uint256",
          "name": "",
          "type": "uint256"
        }
      ],
      "name": "agents",
      "outputs": [
        {
          "internalType": "address",
          "name": "owner",
          "type": "address"
        },
        {
          "internalType": "string",
          "name": "agentName",
          "type": "string"
        },
        {
          "internalType": "uint256",
          "name": "createdAt",
          "type": "uint256"
        },
        {
          "internalType": "uint256",
          "name": "lastUpdated",
          "type": "uint256"
        },
        {
          "internalType": "uint256",
          "name": "intelligenceLevel",
          "type": "uint256"
        },
        {
          "internalType": "uint256",
          "name": "dreamCount",
          "type": "uint256"
        },
        {
          "internalType": "uint256",
          "name": "conversationCount",
          "type": "uint256"
        },
        {
          "internalType": "bool",
          "name": "personalityInitialized",
          "type": "bool"
        },
        {
          "internalType": "uint256",
          "name": "totalEvolutions",
          "type": "uint256"
        },
        {
          "internalType": "uint256",
          "name": "lastEvolutionDate",
          "type": "uint256"
        }
      ],
      "stateMutability": "view",
      "type": "function"
    },
    {
      "inputs": [
        {
          "internalType": "uint256",
          "name": "tokenId",
          "type": "uint256"
        },
        {
          "internalType": "address",
          "name": "user",
          "type": "address"
        }
      ],
      "name": "authorizeUsage",
      "outputs": [],
      "stateMutability": "nonpayable",
      "type": "function"
    },
    {
      "inputs": [
        {
          "internalType": "uint256",
          "name": "tokenId",
          "type": "uint256"
        }
      ],
      "name": "authorizedUsersOf",
      "outputs": [
        {
          "internalType": "address[]",
          "name": "",
          "type": "address[]"
        }
      ],
      "stateMutability": "view",
      "type": "function"
    },
    {
      "inputs": [
        {
          "internalType": "address",
          "name": "owner",
          "type": "address"
        }
      ],
      "name": "balanceOf",
      "outputs": [
        {
          "internalType": "uint256",
          "name": "",
          "type": "uint256"
        }
      ],
      "stateMutability": "view",
      "type": "function"
    },
    {
      "inputs": [
        {
          "internalType": "uint256",
          "name": "tokenId",
          "type": "uint256"
        }
      ],
      "name": "canProcessDreamToday",
      "outputs": [
        {
          "internalType": "bool",
          "name": "canProcess",
          "type": "bool"
        }
      ],
      "stateMutability": "view",
      "type": "function"
    },
    {
      "inputs": [
        {
          "internalType": "uint256",
          "name": "tokenId",
          "type": "uint256"
        },
        {
          "internalType": "bytes32",
          "name": "dreamMonthlyHash",
          "type": "bytes32"
        },
        {
          "internalType": "bytes32",
          "name": "convMonthlyHash",
          "type": "bytes32"
        },
        {
          "internalType": "uint8",
          "name": "month",
          "type": "uint8"
        },
        {
          "internalType": "uint16",
          "name": "year",
          "type": "uint16"
        }
      ],
      "name": "consolidateMonth",
      "outputs": [],
      "stateMutability": "nonpayable",
      "type": "function"
    },
    {
      "inputs": [
        {
          "internalType": "uint256",
          "name": "",
          "type": "uint256"
        }
      ],
      "name": "consolidationStreak",
      "outputs": [
        {
          "internalType": "uint256",
          "name": "",
          "type": "uint256"
        }
      ],
      "stateMutability": "view",
      "type": "function"
    },
    {
      "inputs": [
        {
          "internalType": "uint256",
          "name": "tokenId",
          "type": "uint256"
        },
        {
          "internalType": "address",
          "name": "user",
          "type": "address"
        }
      ],
      "name": "emergencyAuthorizeUser",
      "outputs": [],
      "stateMutability": "nonpayable",
      "type": "function"
    },
    {
      "inputs": [
        {
          "internalType": "uint256",
          "name": "tokenId",
          "type": "uint256"
        },
        {
          "internalType": "address",
          "name": "to",
          "type": "address"
        }
      ],
      "name": "emergencyTransfer",
      "outputs": [],
      "stateMutability": "nonpayable",
      "type": "function"
    },
    {
      "inputs": [
        {
          "internalType": "uint256",
          "name": "tokenId",
          "type": "uint256"
        }
      ],
      "name": "getAgentMemory",
      "outputs": [
        {
          "components": [
            {
              "internalType": "bytes32",
              "name": "memoryCoreHash",
              "type": "bytes32"
            },
            {
              "internalType": "bytes32",
              "name": "currentDreamDailyHash",
              "type": "bytes32"
            },
            {
              "internalType": "bytes32",
              "name": "currentConvDailyHash",
              "type": "bytes32"
            },
            {
              "internalType": "bytes32",
              "name": "lastDreamMonthlyHash",
              "type": "bytes32"
            },
            {
              "internalType": "bytes32",
              "name": "lastConvMonthlyHash",
              "type": "bytes32"
            },
            {
              "internalType": "uint256",
              "name": "lastConsolidation",
              "type": "uint256"
            },
            {
              "internalType": "uint8",
              "name": "currentMonth",
              "type": "uint8"
            },
            {
              "internalType": "uint16",
              "name": "currentYear",
              "type": "uint16"
            }
          ],
          "internalType": "struct IPersonalityEvolution.AgentMemory",
          "name": "",
          "type": "tuple"
        }
      ],
      "stateMutability": "view",
      "type": "function"
    },
    {
      "inputs": [
        {
          "internalType": "uint256",
          "name": "tokenId",
          "type": "uint256"
        }
      ],
      "name": "getConsolidationReward",
      "outputs": [
        {
          "internalType": "uint256",
          "name": "baseReward",
          "type": "uint256"
        },
        {
          "internalType": "uint256",
          "name": "streakBonus",
          "type": "uint256"
        },
        {
          "internalType": "uint256",
          "name": "earlyBirdBonus",
          "type": "uint256"
        },
        {
          "internalType": "uint256",
          "name": "totalReward",
          "type": "uint256"
        }
      ],
      "stateMutability": "view",
      "type": "function"
    },
    {
      "inputs": [
        {
          "internalType": "uint256",
          "name": "tokenId",
          "type": "uint256"
        }
      ],
      "name": "getEvolutionStats",
      "outputs": [
        {
          "internalType": "uint256",
          "name": "totalEvolutions",
          "type": "uint256"
        },
        {
          "internalType": "uint256",
          "name": "evolutionRate",
          "type": "uint256"
        },
        {
          "internalType": "uint256",
          "name": "lastEvolution",
          "type": "uint256"
        }
      ],
      "stateMutability": "view",
      "type": "function"
    },
    {
      "inputs": [
        {
          "internalType": "uint256",
          "name": "tokenId",
          "type": "uint256"
        }
      ],
      "name": "getMemoryAccess",
      "outputs": [
        {
          "internalType": "uint256",
          "name": "monthsAccessible",
          "type": "uint256"
        },
        {
          "internalType": "string",
          "name": "memoryDepth",
          "type": "string"
        }
      ],
      "stateMutability": "view",
      "type": "function"
    },
    {
      "inputs": [
        {
          "internalType": "uint256",
          "name": "tokenId",
          "type": "uint256"
        }
      ],
      "name": "getPersonalityTraits",
      "outputs": [
        {
          "components": [
            {
              "internalType": "uint8",
              "name": "creativity",
              "type": "uint8"
            },
            {
              "internalType": "uint8",
              "name": "analytical",
              "type": "uint8"
            },
            {
              "internalType": "uint8",
              "name": "empathy",
              "type": "uint8"
            },
            {
              "internalType": "uint8",
              "name": "intuition",
              "type": "uint8"
            },
            {
              "internalType": "uint8",
              "name": "resilience",
              "type": "uint8"
            },
            {
              "internalType": "uint8",
              "name": "curiosity",
              "type": "uint8"
            },
            {
              "internalType": "string",
              "name": "dominantMood",
              "type": "string"
            },
            {
              "internalType": "uint256",
              "name": "lastDreamDate",
              "type": "uint256"
            },
            {
              "components": [
                {
                  "internalType": "string",
                  "name": "name",
                  "type": "string"
                },
                {
                  "internalType": "string",
                  "name": "description",
                  "type": "string"
                },
                {
                  "internalType": "uint8",
                  "name": "intensity",
                  "type": "uint8"
                },
                {
                  "internalType": "uint256",
                  "name": "addedAt",
                  "type": "uint256"
                }
              ],
              "internalType": "struct IPersonalityEvolution.UniqueFeature[]",
              "name": "uniqueFeatures",
              "type": "tuple[]"
            }
          ],
          "internalType": "struct IPersonalityEvolution.PersonalityTraits",
          "name": "",
          "type": "tuple"
        }
      ],
      "stateMutability": "view",
      "type": "function"
    },
    {
      "inputs": [
        {
          "internalType": "bytes32",
          "name": "role",
          "type": "bytes32"
        }
      ],
      "name": "getRoleAdmin",
      "outputs": [
        {
          "internalType": "bytes32",
          "name": "",
          "type": "bytes32"
        }
      ],
      "stateMutability": "view",
      "type": "function"
    },
    {
      "inputs": [
        {
          "internalType": "uint256",
          "name": "tokenId",
          "type": "uint256"
        }
      ],
      "name": "getUniqueFeatures",
      "outputs": [
        {
          "components": [
            {
              "internalType": "string",
              "name": "name",
              "type": "string"
            },
            {
              "internalType": "string",
              "name": "description",
              "type": "string"
            },
            {
              "internalType": "uint8",
              "name": "intensity",
              "type": "uint8"
            },
            {
              "internalType": "uint256",
              "name": "addedAt",
              "type": "uint256"
            }
          ],
          "internalType": "struct IPersonalityEvolution.UniqueFeature[]",
          "name": "features",
          "type": "tuple[]"
        }
      ],
      "stateMutability": "view",
      "type": "function"
    },
    {
      "inputs": [
        {
          "internalType": "bytes32",
          "name": "role",
          "type": "bytes32"
        },
        {
          "internalType": "address",
          "name": "account",
          "type": "address"
        }
      ],
      "name": "grantRole",
      "outputs": [],
      "stateMutability": "nonpayable",
      "type": "function"
    },
    {
      "inputs": [
        {
          "internalType": "uint256",
          "name": "tokenId",
          "type": "uint256"
        },
        {
          "internalType": "string",
          "name": "milestoneName",
          "type": "string"
        }
      ],
      "name": "hasMilestone",
      "outputs": [
        {
          "internalType": "bool",
          "name": "achieved",
          "type": "bool"
        },
        {
          "internalType": "uint256",
          "name": "at",
          "type": "uint256"
        }
      ],
      "stateMutability": "view",
      "type": "function"
    },
    {
      "inputs": [
        {
          "internalType": "bytes32",
          "name": "role",
          "type": "bytes32"
        },
        {
          "internalType": "address",
          "name": "account",
          "type": "address"
        }
      ],
      "name": "hasRole",
      "outputs": [
        {
          "internalType": "bool",
          "name": "",
          "type": "bool"
        }
      ],
      "stateMutability": "view",
      "type": "function"
    },
    {
      "inputs": [
        {
          "internalType": "uint256",
          "name": "",
          "type": "uint256"
        },
        {
          "internalType": "string",
          "name": "",
          "type": "string"
        }
      ],
      "name": "milestones",
      "outputs": [
        {
          "internalType": "bool",
          "name": "achieved",
          "type": "bool"
        },
        {
          "internalType": "uint256",
          "name": "achievedAt",
          "type": "uint256"
        },
        {
          "internalType": "uint8",
          "name": "traitValue",
          "type": "uint8"
        }
      ],
      "stateMutability": "view",
      "type": "function"
    },
    {
      "inputs": [
        {
          "internalType": "bytes[]",
          "name": "proofs",
          "type": "bytes[]"
        },
        {
          "internalType": "string[]",
          "name": "descriptions",
          "type": "string[]"
        },
        {
          "internalType": "string",
          "name": "agentName",
          "type": "string"
        },
        {
          "internalType": "address",
          "name": "to",
          "type": "address"
        }
      ],
      "name": "mintAgent",
      "outputs": [
        {
          "internalType": "uint256",
          "name": "tokenId",
          "type": "uint256"
        }
      ],
      "stateMutability": "payable",
      "type": "function"
    },
    {
      "inputs": [],
      "name": "name",
      "outputs": [
        {
          "internalType": "string",
          "name": "",
          "type": "string"
        }
      ],
      "stateMutability": "pure",
      "type": "function"
    },
    {
      "inputs": [
        {
          "internalType": "string",
          "name": "",
          "type": "string"
        }
      ],
      "name": "nameExists",
      "outputs": [
        {
          "internalType": "bool",
          "name": "",
          "type": "bool"
        }
      ],
      "stateMutability": "view",
      "type": "function"
    },
    {
      "inputs": [
        {
          "internalType": "uint256",
          "name": "tokenId",
          "type": "uint256"
        }
      ],
      "name": "needsConsolidation",
      "outputs": [
        {
          "internalType": "bool",
          "name": "isNeeded",
          "type": "bool"
        },
        {
          "internalType": "uint8",
          "name": "currentMonth",
          "type": "uint8"
        },
        {
          "internalType": "uint16",
          "name": "currentYear",
          "type": "uint16"
        }
      ],
      "stateMutability": "view",
      "type": "function"
    },
    {
      "inputs": [],
      "name": "nextTokenId",
      "outputs": [
        {
          "internalType": "uint256",
          "name": "",
          "type": "uint256"
        }
      ],
      "stateMutability": "view",
      "type": "function"
    },
    {
      "inputs": [
        {
          "internalType": "uint256",
          "name": "tokenId",
          "type": "uint256"
        }
      ],
      "name": "ownerOf",
      "outputs": [
        {
          "internalType": "address",
          "name": "",
          "type": "address"
        }
      ],
      "stateMutability": "view",
      "type": "function"
    },
    {
      "inputs": [
        {
          "internalType": "address",
          "name": "",
          "type": "address"
        }
      ],
      "name": "ownerToTokenId",
      "outputs": [
        {
          "internalType": "uint256",
          "name": "",
          "type": "uint256"
        }
      ],
      "stateMutability": "view",
      "type": "function"
    },
    {
      "inputs": [],
      "name": "pause",
      "outputs": [],
      "stateMutability": "nonpayable",
      "type": "function"
    },
    {
      "inputs": [],
      "name": "paused",
      "outputs": [
        {
          "internalType": "bool",
          "name": "",
          "type": "bool"
        }
      ],
      "stateMutability": "view",
      "type": "function"
    },
    {
      "inputs": [
        {
          "internalType": "uint256",
          "name": "",
          "type": "uint256"
        }
      ],
      "name": "pendingRewards",
      "outputs": [
        {
          "internalType": "uint256",
          "name": "intelligenceBonus",
          "type": "uint256"
        },
        {
          "internalType": "string",
          "name": "specialMilestone",
          "type": "string"
        },
        {
          "internalType": "bool",
          "name": "yearlyReflection",
          "type": "bool"
        }
      ],
      "stateMutability": "view",
      "type": "function"
    },
    {
      "inputs": [
        {
          "internalType": "uint256",
          "name": "tokenId",
          "type": "uint256"
        },
        {
          "internalType": "bytes32",
          "name": "dreamHash",
          "type": "bytes32"
        },
        {
          "components": [
            {
              "internalType": "int8",
              "name": "creativityChange",
              "type": "int8"
            },
            {
              "internalType": "int8",
              "name": "analyticalChange",
              "type": "int8"
            },
            {
              "internalType": "int8",
              "name": "empathyChange",
              "type": "int8"
            },
            {
              "internalType": "int8",
              "name": "intuitionChange",
              "type": "int8"
            },
            {
              "internalType": "int8",
              "name": "resilienceChange",
              "type": "int8"
            },
            {
              "internalType": "int8",
              "name": "curiosityChange",
              "type": "int8"
            },
            {
              "internalType": "string",
              "name": "moodShift",
              "type": "string"
            },
            {
              "internalType": "uint8",
              "name": "evolutionWeight",
              "type": "uint8"
            },
            {
              "components": [
                {
                  "internalType": "string",
                  "name": "name",
                  "type": "string"
                },
                {
                  "internalType": "string",
                  "name": "description",
                  "type": "string"
                },
                {
                  "internalType": "uint8",
                  "name": "intensity",
                  "type": "uint8"
                },
                {
                  "internalType": "uint256",
                  "name": "addedAt",
                  "type": "uint256"
                }
              ],
              "internalType": "struct IPersonalityEvolution.UniqueFeature[]",
              "name": "newFeatures",
              "type": "tuple[]"
            }
          ],
          "internalType": "struct IPersonalityEvolution.PersonalityImpact",
          "name": "impact",
          "type": "tuple"
        }
      ],
      "name": "processDailyDream",
      "outputs": [],
      "stateMutability": "nonpayable",
      "type": "function"
    },
    {
      "inputs": [
        {
          "internalType": "uint256",
          "name": "tokenId",
          "type": "uint256"
        },
        {
          "internalType": "bytes32",
          "name": "conversationHash",
          "type": "bytes32"
        },
        {
          "internalType": "enum IPersonalityEvolution.ContextType",
          "name": "contextType",
          "type": "uint8"
        }
      ],
      "name": "recordConversation",
      "outputs": [],
      "stateMutability": "nonpayable",
      "type": "function"
    },
    {
      "inputs": [
        {
          "internalType": "bytes32",
          "name": "role",
          "type": "bytes32"
        },
        {
          "internalType": "address",
          "name": "callerConfirmation",
          "type": "address"
        }
      ],
      "name": "renounceRole",
      "outputs": [],
      "stateMutability": "nonpayable",
      "type": "function"
    },
    {
      "inputs": [
        {
          "internalType": "uint256",
          "name": "",
          "type": "uint256"
        }
      ],
      "name": "responseStyles",
      "outputs": [
        {
          "internalType": "string",
          "name": "",
          "type": "string"
        }
      ],
      "stateMutability": "view",
      "type": "function"
    },
    {
      "inputs": [
        {
          "internalType": "bytes32",
          "name": "role",
          "type": "bytes32"
        },
        {
          "internalType": "address",
          "name": "account",
          "type": "address"
        }
      ],
      "name": "revokeRole",
      "outputs": [],
      "stateMutability": "nonpayable",
      "type": "function"
    },
    {
      "inputs": [
        {
          "internalType": "bytes4",
          "name": "id",
          "type": "bytes4"
        }
      ],
      "name": "supportsInterface",
      "outputs": [
        {
          "internalType": "bool",
          "name": "",
          "type": "bool"
        }
      ],
      "stateMutability": "view",
      "type": "function"
    },
    {
      "inputs": [],
      "name": "symbol",
      "outputs": [
        {
          "internalType": "string",
          "name": "",
          "type": "string"
        }
      ],
      "stateMutability": "pure",
      "type": "function"
    },
    {
      "inputs": [],
      "name": "totalAgents",
      "outputs": [
        {
          "internalType": "uint256",
          "name": "",
          "type": "uint256"
        }
      ],
      "stateMutability": "view",
      "type": "function"
    },
    {
      "inputs": [],
      "name": "totalFeesCollected",
      "outputs": [
        {
          "internalType": "uint256",
          "name": "",
          "type": "uint256"
        }
      ],
      "stateMutability": "view",
      "type": "function"
    },
    {
      "inputs": [],
      "name": "totalSupply",
      "outputs": [
        {
          "internalType": "uint256",
          "name": "",
          "type": "uint256"
        }
      ],
      "stateMutability": "view",
      "type": "function"
    },
    {
      "inputs": [
        {
          "internalType": "address",
          "name": "to",
          "type": "address"
        },
        {
          "internalType": "uint256",
          "name": "tokenId",
          "type": "uint256"
        },
        {
          "internalType": "bytes[]",
          "name": "",
          "type": "bytes[]"
        }
      ],
      "name": "transfer",
      "outputs": [],
      "stateMutability": "nonpayable",
      "type": "function"
    },
    {
      "inputs": [],
      "name": "treasury",
      "outputs": [
        {
          "internalType": "address",
          "name": "",
          "type": "address"
        }
      ],
      "stateMutability": "view",
      "type": "function"
    },
    {
      "inputs": [],
      "name": "unpause",
      "outputs": [],
      "stateMutability": "nonpayable",
      "type": "function"
    },
    {
      "inputs": [
        {
          "internalType": "uint256",
          "name": "tokenId",
          "type": "uint256"
        },
        {
          "internalType": "bytes32",
          "name": "newHash",
          "type": "bytes32"
        }
      ],
      "name": "updateMemoryCore",
      "outputs": [],
      "stateMutability": "nonpayable",
      "type": "function"
    },
    {
      "inputs": [],
      "name": "verifier",
      "outputs": [
        {
          "internalType": "contract IERC7857DataVerifier",
          "name": "",
          "type": "address"
        }
      ],
      "stateMutability": "view",
      "type": "function"
    }
  ],
  "transactionHash": "0xcbeb91d55723bf4b072ece8123d56e2de1b73e31eadaf7053689111a38c53eed",
  "args": [
    "0x3ab9784ac2D04D1f1aAd0B435b61e456d0744cA4",
    "0x0f13e85B575964B8b4b77E37d43A6aE9E354e94C"
  ],
  "numDeployments": 9,
  "solcInputHash": "039bd3223ca2d0ab66adf77bec319913",
  "bytecode": "0x60c0346200013357601f6200631538819003918201601f19168301916001600160401b038311848410176200013857808492604094855283398101031262000133576200005a602062000052836200014e565b92016200014e565b9060016000556001600c556000600d556000600e5560018060a01b039182811615620000ee576080521660a052620000923362000163565b506200009e33620001e4565b50620000aa3362000287565b50620000b63362000325565b50604051615f319081620003c48239608051818181612a40015261344d015260a051818181612efd015281816137de015261413c0152f35b60405162461bcd60e51b815260206004820152601460248201527f7472656173757279203d207a65726f20616464720000000000000000000000006044820152606490fd5b600080fd5b634e487b7160e01b600052604160045260246000fd5b51906001600160a01b03821682036200013357565b6001600160a01b031660008181527fa6eef7e35abe7026729641147f7915573c7e97b47efa546f5f6e3230263bcb49602052604081205490919060ff16620001e05781805260016020526040822081835260205260408220600160ff198254161790553391600080516020620062f58339815191528180a4600190565b5090565b6001600160a01b031660008181527f50efbde2d46c37e9785f1791697f77e94bb7b701e19f1930a668820722d3769460205260408120549091907fa49807205ce4d355092ef5a8a18f56e8913cf4a201fbe287825b095693c217759060ff16620002825780835260016020526040832082845260205260408320600160ff19825416179055600080516020620062f5833981519152339380a4600190565b505090565b6001600160a01b031660008181527fb4fd2442cb0653849f414a2f81c1eb01ec27a0fc1bb28000d4ca51d98b75fd0360205260408120549091907f0ce23c3e399818cfee81a7ab0880f714e53d7672b08df0fa62f2843416e1ea099060ff16620002825780835260016020526040832082845260205260408320600160ff19825416179055600080516020620062f5833981519152339380a4600190565b6001600160a01b031660008181527fb9cbbae02fe941283ec0eefd7b121e3bc7f89fae077b27bdd75a7fd4cf1543a860205260408120549091907f65d7a28e3265b37a6474929f336521b332c1681b933f6cb9f3376673440d862a9060ff16620002825780835260016020526040832082845260205260408320600160ff19825416179055600080516020620062f5833981519152339380a460019056fe608080604052600436101561001357600080fd5b60003560e01c90816301ffc9a7146145165750806306fdde03146144c6578063140b79c81461449a57806318160ddd146107ca5780631aeb542f146144225780631f2e589e14614379578063248a9ca31461434a5780632980471d1461416b5780632b7ac3f3146141265780632f2ff15d146140e75780633326ed8214613f94578063359bf14314613ea457806336568abe14613e5d5780633db43fb314613ce35780633f4ba83a14613c795780634814f03514613c3f5780634eb22e9e14613b9b5780634f6ed44c14612dde578063513856c814612d1a5780635436972c14612cd05780635561991114612bcd57806358c812aa14612b5a5780635c975abb14612b375780635e1d7c2e14612ab95780635f292a3214612a8d57806360c6d8ae14612a6f57806361d027b314612a2a5780636352211e146129f65780636a7468e9146127f35780636d9dfd89146111b857806370a082311461112f57806375794a3c1461111157806375b238fc146110e85780637dcb2abf1461107a57806382ca08ae14610a955780638456cb5914610a3b578063877789b9146108f657806391d14854146108a957806395d89b4114610863578063a217fddf14610847578063ab30be871461082a578063b7125e9b146107e8578063c5053712146107ca578063cc637afe14610769578063d547741f1461072a578063d642b4b114610707578063da97ca09146105e5578063df02defc1461057f578063dfdad7de14610410578063e32b178d14610369578063e63ab1e91461032e578063e7705db6146102f35763fa83d14e1461026657600080fd5b346102ee5760403660031901126102ee576102b46004356102856145fb565b9080600052600360205260018060a01b0360406000205416331480156102b6575b6102af906151cb565b615222565b005b503360009081527f50efbde2d46c37e9785f1791697f77e94bb7b701e19f1930a668820722d37694602052604090205460ff166102a6565b600080fd5b346102ee5760003660031901126102ee5760206040517f0ce23c3e399818cfee81a7ab0880f714e53d7672b08df0fa62f2843416e1ea098152f35b346102ee5760003660031901126102ee5760206040517f65d7a28e3265b37a6474929f336521b332c1681b933f6cb9f3376673440d862a8152f35b346102ee576020806003193601126102ee57600435606061010060405161038f81614765565b600081526000858201526000604082015260008382015260006080820152600060a08201528260c0820152600060e0820152015280600052600382526103e360018060a01b03604060002054161515615138565b600052600681526103f76040600020614f1c565b9061040c60405192828493845283019061494a565b0390f35b346102ee5760603660031901126102ee57610429614611565b6024356044356001600160401b0381116102ee5761044b9036906004016147f3565b50508060005260206003815260018060a01b038093816040600020541633148015610551575b61047a906151cb565b16926104878415156152e4565b836000526005825260406000205461051457907f0ea8df787dde63a7bdc34d17097adf25749a3521f660e92dabdff8d6ee91d18a9183600052600382526040600020541692836000526005825260006040812055846000528060406000205580600052600382526040600020856001600160601b0360a01b825416178155600342910155604051908152a3005b60405162461bcd60e51b81526004810183905260156024820152741d1bc8185b1c9958591e481bdddb9cc81859d95b9d605a1b6044820152606490fd5b50600080516020615edc8339815191526000908152600184526040808220338352855290205460ff16610471565b346102ee5760203660031901126102ee576004356000818152600360205260409020546105b6906001600160a01b03161515615138565b600052600660205261040c6105d16003604060002001614e7d565b6040519182916020835260208301906148b9565b346102ee576020806003193601126102ee5761010090600435600060e060405161060e81614712565b82815282858201528260408201528260608201528260808201528260a08201528260c08201520152806000526003825261065660018060a01b03604060002054161515615138565b600052600781526040600020906040519161067083614712565b60ff81549384815260018301549284820193845260028101546040830190815260038201546060840190815260048301549160808501928352600660058501549460a0870195865201549760e060c0870196888b168852019761ffff809a60081c1689526040519a8b5251908a01525160408901525160608801525160808701525160a0860152511660c0840152511660e0820152f35b346102ee5760003660031901126102ee57602060405167016345785d8a00008152f35b346102ee5760403660031901126102ee576102b46004356107496145fb565b90806000526001602052610764600160406000200154614a90565b614b36565b346102ee5760203660031901126102ee576004356001600160401b0381116102ee5760ff6107b460206107a18194369060040161483e565b81604051938285809451938492016145b3565b8101600481520301902054166040519015158152f35b346102ee5760003660031901126102ee576020600d54604051908152f35b346102ee5760203660031901126102ee5760043560009081526003602052604090205461081f906001600160a01b03161515615138565b602060405160018152f35b346102ee5760003660031901126102ee5760206040516103e88152f35b346102ee5760003660031901126102ee57602060405160008152f35b346102ee5760003660031901126102ee5761040c6040516108838161479c565b6005815264445245414d60d81b60208201526040519182916020835260208301906145d6565b346102ee5760403660031901126102ee576108c26145fb565b600435600052600160205260406000209060018060a01b0316600052602052602060ff604060002054166040519015158152f35b346102ee576020806003193601126102ee57600435600081815260038352604090205461092d906001600160a01b03161515615138565b6000908152600982526040902054600c8110610a1357506005905b60078152604060002060405161095d81614712565b8154815260018201548382015260028201546040820152600382015460608201526004820154608082015260e061ffff60066005850154948560a0860152015460ff811660c085015260081c169101526203f48081018091116109f5574211610a0b576001915b8060020192836002116109f5576109dd81608095614de5565b91604051936002855284015260408301526060820152f35b634e487b7160e01b600052601160045260246000fd5b6000916109c4565b60068110610a245750600390610948565b600311610a3357600190610948565b600090610948565b346102ee5760003660031901126102ee57610a54614a34565b610a5c614e22565b600160ff1960025416176002557f62e78cea01bee320cd4e420270b5ea74000d11b0c9f74754ebdbfc544b05a2586020604051338152a1005b346102ee5760a03660031901126102ee5760043560643560ff81168091036102ee576084359061ffff908183168093036102ee57610ad1614e22565b8360005260039160209280845260018060a01b03604060002054163314801561104a575b8015611035575b610b0590614e40565b60018310158061102a575b15610ff5576107e885101580610fe9575b15610fb5578560005260078452604060002091856006840154918560ff84161492831593610fa5575b50505015610f6a57602490813581840155604435600484015560059283429101558660005260098552604060002080549060018201809211610f32575560008781526009865260409020546002908290600c8110610f47575050838101809111610f1d575b876000526007865283604060002001546203f4808101809111610f3257421115610f10575b610bdd886156af565b91886000528087528460406000200193845495610bfa8488614de5565b80965560405192610c0a8461472e565b604051610c168161479c565b60078152664a616e7561727960c81b8b8201528452604051610c378161479c565b6008815267466562727561727960c01b8b8201528a850152604051610c5b8161479c565b8281526409ac2e4c6d60db1b8b8201526040850152604051610c7c8161479c565b82815264105c1c9a5b60da1b8b820152606085015260405190610c9e8261479c565b8152624d617960e81b8a8201526080840152604051610cbc8161479c565b60048152634a756e6560e01b8a82015260a0840152604051610cdd8161479c565b60048152634a756c7960e01b8a82015260c0840152604051610cfe8161479c565b6006815265105d59dd5cdd60d21b8a82015260e0840152604051610d218161479c565b600981526829b2b83a32b6b132b960b91b8a820152610100840152604051610d488161479c565b600781526627b1ba37b132b960c91b8a820152610120840152604051610d6d8161479c565b60088152672737bb32b6b132b960c11b8a820152610140840152604051610d938161479c565b60088152672232b1b2b6b132b960c11b8a82015261016084015260001988019160ff8311610efc57600c60ff84161015610ee857507f06f9bc160d6aa05f662af6ffef695374f8b5bfc09362dcd998b9deb9c1436519610e7e8b610e8e8c8f9a9699604099610e6b600c9f9e9a610e278f9a91600080516020615ebc8339815191529f611fe0906021941b16015197615db9565b968d519781610e3f8a935180928a80870191016145b3565b8201600160fd1b88820152610e5c825180938a87850191016145b3565b010360018101885201866147d2565b8a519586956060875260608701906145d6565b928501528382038a8501526145d6565b0390a2825191825287820152a214610ea257005b7fae7fce676281a763ee71049f846d28ee4796c9195fd81fc1c7e78fbae4a4d4759183600052600882526002604060002001600160ff19825416179055604051908152a2005b634e487b7160e01b60009081526032600452fd5b634e487b7160e01b60009081526011600452fd5b6001810180911115610bd4575b82634e487b7160e01b60005260116004526000fd5b83634e487b7160e01b60005260116004526000fd5b60068110610f5e57508101809111610f1d57610baf565b10610baf575080610baf565b60405162461bcd60e51b81526004810185905260136024820152720e6e8d2d8d840c6eae4e4cadce840dadedce8d606b1b6044820152606490fd5b60081c1614159050858880610b4a565b60405162461bcd60e51b815260048101859052600c60248201526b34b73b30b634b2103cb2b0b960a11b6044820152606490fd5b50610834851115610b21565b60405162461bcd60e51b815260048101859052600d60248201526c0d2dcecc2d8d2c840dadedce8d609b1b6044820152606490fd5b50600c831115610b10565b50610b05611043338861531c565b9050610afc565b50600080516020615edc83398151915260005260018452604060002033600052845260ff60406000205416610af5565b346102ee5760203660031901126102ee5760043560005260086020526040600020805460ff6002604051936110bd856110b68160018501614661565b03866147d2565b0154166110dc60405193849384526060602085015260608401906145d6565b90151560408301520390f35b346102ee5760003660031901126102ee576020604051600080516020615edc8339815191528152f35b346102ee5760003660031901126102ee576020600c54604051908152f35b346102ee5760203660031901126102ee576001600160a01b03611150614611565b1680156111865760005260056020526040600020541560001461117d57602060005b60ff60405191168152f35b60206001611172565b60405162461bcd60e51b815260206004820152600a6024820152693d32b9379037bbb732b960b11b6044820152606490fd5b346102ee576003196060368201126102ee576001600160401b03604435116102ee5761012090604435360301126102ee576111f1614e22565b600435600052600360205260018060a01b0360406000205416331480156127bb575b80156127a4575b61122390614e40565b60ff61123360e46044350161506a565b16151580612789575b1561274e5761125560c460443501604435600401614fa0565b90501561271c5760046044350135600081900b90036102ee5761127d6044356004013561537c565b806126fc575b806126dd575b806126bd575b8061269d575b8061267d575b156126465760026112b761010460443501604435600401614fd2565b9050116126015760005b6112d661010460443501604435600401614fd2565b90508110156114375761131361130a611304836112fe61010460443501604435600401614fd2565b90615007565b80614fa0565b90501515615029565b61133961132f826112fe61010460443501604435600401614fd2565b6020810190614fa0565b9050156113f25760ff6113666040611360846112fe61010460443501604435600401614fd2565b0161506a565b161515806113c7575b156113825761137d90614c16565b6112c1565b60405162461bcd60e51b815260206004820152601e60248201527f6665617475726520696e74656e73697479206f7574206f662072616e676500006044820152606490fd5b50606460ff6113ea6040611360856112fe61010460443501604435600401614fd2565b16111561136f565b60405162461bcd60e51b815260206004820152601960248201527f66656174757265206465736372697074696f6e20656d707479000000000000006044820152606490fd5b60043560005260036020526040600020600660205260406000209060068101546001810181116109f55760010160068201554260038201554260028301556004356000526007602052600160406000200180549060243590556040519060608252600b60608301526a647265616d5f6461696c7960a81b6080830152602435602083015260408201527f10c6861248a0d0f4376512cb8e7482a88a8865601494eb1fd99ec02dfc29583360a060043592a26114f360043561554d565b600681015460038106156125ba575b6005900615611548575b6005015460405190602435825260208201527f871f9739b79e9efd6285318758001f00502185ff0d254a080922cd80580c3e02604060043592a2005b61155182614f1c565b825460ff61156760443560040135828416615398565b1660ff1982168117855560246044350135600081900b90036102ee576115b9916115a391604435602401359160ff19161760081c60ff16615398565b845461ff00191660089190911b61ff0016178455565b8254604480350135600081900b90036102ee576115e56115fd9160ff6044803501359160101c16615398565b845462ff0000191660109190911b62ff000016178455565b825460443560640135600081900b90036102ee5761162b6116459160ff606460443501359160181c16615398565b845463ff000000191660189190911b63ff00000016178455565b825460201c60ff1660443560840135600081900b90036102ee5761167361168f916084604435013590615398565b845464ff00000000191660209190911b64ff0000000016178455565b825460443560a40135600081900b90036102ee576116bd6116db9160ff60a460443501359160281c16615398565b845465ff0000000000191660289190911b65ff000000000016178455565b6116ef60c460443501604435600401614fa0565b906001600160401b0382116120ce57819061171a826117116001890154614627565b60018901614c50565b600090601f83116001146125495760009261253e575b50508160011b916000199060031b1c19161760018401555b61175d61010460443501604435600401614fd2565b90506122b3575b60098201546001810181116109f557600101600983015542600a830155606061178c84614f1c565b91605560ff60408301511610806122a1575b612262575b60ff605a92828483819551161080612255575b612219575b83836020830151161080612209575b6121cf575b0151161090816121bd575b5061217d575b603c60ff82511611908161216a575b81612157575b81612144575b81612131575b8161211e575b50806120e4575b611f70575b600435600052600660205261182b6040600020614f1c565b6046908160ff60408301511611808091611f62575b15611e11575050506040516118548161479c565b6013815272656d70617468657469635f637265617469766560681b60208201525b600435600052600b60205261189761189e604060002060405192838092614661565b03826147d2565b602081519101208151602083012003611ae6575b50604051916040835260ff81548181166040860152818160081c166060860152818160101c166080860152818160181c1660a0860152818160201c1660c086015260281c1660e0840152610120610100840152611916610160840160018301614661565b6002820154610120850152603f198482030161014085015260038201548082526020820191600360208360051b83010194016000526020600020926000915b838310611a8757505050505082810360208401526044356004013560000b81526024604435013560000b602082015260448035013560000b60408201526064604435013560000b60608201526084604435013560000b608082015260a4604435013560000b60a08201526119e96119d660c460443501604435600401614be5565b61012060c0850152610120840191614bc4565b9260ff6119fa60e4604435016148ab565b1660e0830152604435610104810135903603602219018112156102ee576044350191602460048401359301916001600160401b0384116102ee578360051b360383136102ee5780611a7f87846101007fc8bec314a35b40dea82669a3be2a9d776d7ba0edda16488c7d3421e696f3a07b9660059b039101526024359660043596615078565b0390a361150c565b909192939460206004600192601f1985820301865260808152611abf611ab0608083018b614661565b82810385840152858b01614661565b9060ff60028b0154166040820152606060038b015491015297019301930191939290611955565b600435600052600b602052611897611b08604060002060405192838092614661565b600435600052600b602052611b21826040600020614c97565b7f90f9e809e3805f30ac3fc3562ac1fb69527e27e23e063a99f43a92343f35c9d2611b57604051926040845260408401906145d6565b91808303602082015280611b6e60043594866145d6565b0390a26004356000526006602052611b896040600020614f1c565b9060ff60a060405193611b9b85614781565b82815116855282602082015116602086015282604082015116604086015282606082015116606086015282608082015116608086015201511660a0830152604051611be581614781565b604051611bf18161479c565b600a8152696372656174697669747960b01b60208201528152611c126153f4565b6020820152604051611c238161479c565b6007815266656d706174687960c81b60208201526040820152604051611c488161479c565b600981526834b73a3ab4ba34b7b760b91b60208201526060820152604051611c6f8161479c565b600a815269726573696c69656e636560b01b60208201526080820152604051611c978161479c565b6009815268637572696f7369747960b81b602082015260a082015260405192611cbf8461474a565b6003845260005b60608110611e00575060005b60038110611d7e57505050611cf2604051916040835260408301906145d6565b8181036020830152825180825260208201916020808360051b8301019501926000915b838310611d51575050505050807fff8866d78ff3fc4f37232c9d6da12c9b2168edd42074faa52ea90054f0abcf6d91600435930390a2826118b2565b9091929395602080611d6f600193601f198682030187528a516145d6565b98019301930191939290611d15565b600060015b60068110611dc85750906000611dbd83611da0611dc3958861541a565b51611dab858b614c25565b52611db6848a614c25565b508561541a565b52614c16565b611cd2565b60ff611dd4828661541a565b511660ff611de2848761541a565b511610611df8575b611df390614c16565b611d83565b905080611dea565b806060602080938801015201611cc6565b15611e40575050604051611e248161479c565b600a815269656d706174686574696360b01b6020820152611875565b8160ff82511611600014611e76575050604051611e5c8161479c565b6008815267637265617469766560c01b6020820152611875565b8160ff60208301511611600014611e96575050611e916153f4565b611875565b8160ff60608301511611600014611ed0575050604051611eb58161479c565b6009815268696e7475697469766560b81b6020820152611875565b8160ff60808301511611600014611f0a575050604051611eef8161479c565b60098152681c995cda5b1a595b9d60ba1b6020820152611875565b60a0015160ff161115611f3c57604051611f238161479c565b6007815266637572696f757360c81b6020820152611875565b604051611f488161479c565b600881526718985b185b98d95960c21b6020820152611875565b50603c60ff83511611611840565b604051611f7c8161479c565b600d81526c18985b185b98d95917dcdbdd5b609a1b6020820152604051611fa2816146f7565b6001815260ff600260208301924284526040810193603c8552600435600052600a602052611fed611fd7604060002088614885565b92511515839060ff801983541691151516179055565b5160018201550191511660ff198254161790556004356000526003602052600b6040600020018054600160401b8110156120ce576120309160018201815561520a565b6120b8578161203e91614c97565b60405160608152600080516020615e9c83398151915261206160608301846145d6565b91603c6020820152600081840393846040840152526020600435930190a2600080516020615e7c8339815191526120a3604051926040845260408401906145d6565b91603c602082015280600435930390a2611813565b634e487b7160e01b600052600060045260246000fd5b634e487b7160e01b600052604160045260246000fd5b50600435600052600a60205260ff602d6040600020604051906c18985b185b98d95917dcdbdd5b609a1b8252600d8201522054161561180e565b603c915060a060ff910151161183611807565b9050603c60ff6080830151161190611801565b9050603c60ff60608301511611906117fb565b9050603c60ff60408301511611906117f5565b9050603c60ff60208301511611906117ef565b6121b860ff6060830151166040516121948161479c565b600f81526e73706972697475616c5f677569646560881b602082015260043561542b565b6117e0565b905060ff6060830151161015846117da565b612204836020880151166040516121e58161479c565b600a8152691b1bd9da58d7db1bdc9960b21b602082015260043561542b565b6117cf565b50838360208801511610156117ca565b6122508387511660405161222c8161479c565b600f81526e63726561746976655f67656e69757360881b602082015260043561542b565b6117bb565b50838387511610156117b6565b61229c60ff6040850151166040516122798161479c565b600e81526d32b6b830ba343cafb6b0b9ba32b960911b602082015260043561542b565b6117a3565b50605560ff604085015116101561179e565b9060026122cb61010460443501604435600401614fd2565b9050116124f95760005b6122ea61010460443501604435600401614fd2565b90508110156124905761231261130a611304836112fe61010460443501604435600401614fd2565b60ff6123326040611360846112fe61010460443501604435600401614fd2565b16151580612465575b1561242c57612359816112fe61010460443501604435600401614fd2565b906080823603126102ee57604051916123718361474a565b80356001600160401b0381116102ee5761238e903690830161483e565b835260208101356001600160401b0381116102ee576123c1916123b66040923690830161483e565b6020860152016148ab565b60408301524260608301526003850154600160401b8110156120ce5760018101806003880155811015612416576124119261240c916003880160005260206000209060021b01614da7565b614c16565b6122d5565b634e487b7160e01b600052603260045260246000fd5b60405162461bcd60e51b8152602060048201526011602482015270696e76616c696420696e74656e7369747960781b6044820152606490fd5b50606460ff6124886040611360856112fe61010460443501604435600401614fd2565b16111561233b565b50907f56c85a45a366fc3081186d763cd16834a63c469f3480f94a9d5f5b937c2e6fb66124c861010460443501604435600401614fd2565b6124e660038794939401549360405192604084526040840191615078565b92602082015280600435930390a2611764565b60405162461bcd60e51b815260206004820152601860248201527f6d617820322066656174757265732070657220647265616d00000000000000006044820152606490fd5b013590508580611730565b909250600186016000526020600020906000935b601f19841685106125a2576001945083601f19811610612588575b505050811b016001840155611748565b0135600019600384901b60f8161c19169055858080612578565b8181013583556020948501946001909301920161255d565b6005820154906001820182116109f5578160016005930183850155600160405191808352016020820152600080516020615ebc833981519152604060043592a29050611502565b60405162461bcd60e51b815260206004820152601960248201527f6d617820322066656174757265732070657220696d70616374000000000000006044820152606490fd5b60405162461bcd60e51b815260206004820152600f60248201526ece94206f7574206f662072616e676560881b6044820152606490fd5b5060a460443501358060000b81036102ee576126989061537c565b61129b565b50608460443501358060000b81036102ee576126b89061537c565b611295565b50606460443501358060000b81036102ee576126d89061537c565b61128f565b506044803501358060000b81036102ee576126f79061537c565b611289565b50602460443501358060000b81036102ee576127179061537c565b611283565b60405162461bcd60e51b815260206004820152600a602482015269195b5c1d1e481b5bdbd960b21b6044820152606490fd5b60405162461bcd60e51b8152602060048201526013602482015272776569676874206f7574206f662072616e676560681b6044820152606490fd5b50606460ff61279c60e46044350161506a565b16111561123c565b506112236127b43360043561531c565b905061121a565b503360009081527f50efbde2d46c37e9785f1791697f77e94bb7b701e19f1930a668820722d37694602052604090205460ff16611213565b346102ee576020806003193601126102ee57600435600081815260038352604090205461282a906001600160a01b03161515615138565b6000908152600382526040902060050154603c81106128955750603c61040c6040516128558161479c565b601881527f3520796561727320636f6d706c65746520617263686976650000000000000000848201525b60408051948594855284015260408301906145d6565b603081106128c75750603061040c6040516128af8161479c565b60078152663420796561727360c81b8482015261287f565b602481106128f95750602461040c6040516128e18161479c565b60078152663320796561727360c81b8482015261287f565b6018811061292b5750601861040c6040516129138161479c565b60078152663220796561727360c81b8482015261287f565b600c811061295c5750600c61040c6040516129458161479c565b6006815265185b9b9d585b60d21b8482015261287f565b600681106129905750600661040c6040516129768161479c565b60098152683430b63316bcb2b0b960b91b8482015261287f565b6003116129c257600361040c6040516129a88161479c565b6009815268717561727465726c7960b81b8482015261287f565b600161040c6040516129d38161479c565b601281527163757272656e74206d6f6e7468206f6e6c7960701b8482015261287f565b346102ee5760203660031901126102ee576004356000526003602052602060018060a01b0360406000205416604051908152f35b346102ee5760003660031901126102ee576040517f00000000000000000000000000000000000000000000000000000000000000006001600160a01b03168152602090f35b346102ee5760003660031901126102ee576020600e54604051908152f35b346102ee5760203660031901126102ee5760043560005260096020526020604060002054604051908152f35b346102ee5760203660031901126102ee576004356000526007602052610100604060002061ffff815491600181015490600281015460038201546004830154916006600585015494015494604051978852602088015260408701526060860152608085015260a084015260ff811660c084015260081c1660e0820152f35b346102ee5760003660031901126102ee57602060ff600254166040519015158152f35b346102ee5760403660031901126102ee576024356001600160401b0381116102ee57612ba5612b8f606092369060040161483e565b600435600052600a602052604060002090614885565b60ff8154169060ff600260018301549201541690604051921515835260208301526040820152f35b346102ee5760403660031901126102ee57600435612be96145fb565b90612bf26149cc565b6001600160a01b0391821691612c098315156152e4565b8260005260209060058252604060002054612c9957907f0ea8df787dde63a7bdc34d17097adf25749a3521f660e92dabdff8d6ee91d18a9183600052600382526040600020541692836000526005825260006040812055846000528060406000205580600052600382526040600020856001600160601b0360a01b825416178155600342910155604051908152a3005b60405162461bcd60e51b815260048101839052600f60248201526e746f20616c7265616479206f776e7360881b6044820152606490fd5b346102ee5760203660031901126102ee57600435600052600b60205261040c611897612d06604060002060405192838092614661565b6040519182916020835260208301906145d6565b346102ee5760203660031901126102ee576004356000526003602052604060002060018060a01b0381541660405191612d6183612d5a8160018501614661565b03846147d2565b6002810154906003810154906005810154600682015460078301549060ff60088501541692600a600986015495015495612dad6040519a8b9a8b526101408060208d01528b01906145d6565b9760408a01526060890152608088015260a087015260c0860152151560e08501526101008401526101208301520390f35b60803660031901126102ee576004356001600160401b0381116102ee57612e099036906004016147f3565b906024356001600160401b0381116102ee57612e299036906004016147f3565b91906044356001600160401b0381116102ee57612e4a90369060040161483e565b606435949093906001600160a01b03861686036102ee57600260005414613b89576002600055612e78614e22565b6001600160a01b03861615613b52576001600160a01b038616600090815260056020526040902054613b0d576103e8600d541015613ad35784518015159081613ac7575b5015613a945760ff6040516020818851612ed98183858d016145b3565b810160048152030190205416613a615767016345785d8a00003410613a2d576060937f00000000000000000000000000000000000000000000000000000000000000006001600160a01b0316613784575b50506040516020818651612f418183858b016145b3565b81016004815203019020600160ff19825416179055600c5493612f6385614c16565b600c5560018060a01b038616600052600560205284604060002055604051612f8a816147b7565b6000815260405190612f9b826147b7565b6000825260405192612fac8461472e565b60018060a01b038916845260208401524260408401524260608401526080830152600160a0830152600060c0830152600060e0830152600161010083015260006101208301524261014083015261016082015284600052600360205260406000209060018060a01b038151166001600160601b0360a01b83541617825561303a602082015160018401614c97565b604081015160028301556060810151600383015560808101518051906001600160401b0382116120ce57600160401b82116120ce576020906004850154836004870155808410613764575b500160048401600052602060002060005b83811061374757505050508060a0610160920151600584015560c0810151600684015560e081015160078401556130e36101008201511515600885019060ff801983541691151516179055565b6101208101516009840155610140810151600a840155015190815191600160401b83116120ce57600b82015483600b840155808410613714575b506020600b9101910160005260206000206000915b8383106136f75750505050604051613149816147b7565b600081526040519061315a82614765565b6032825260326020830152603260408301526032606083015260326080830152603260a083015260405161318d8161479c565b60078152661b995d5d1c985b60ca1b602082015260c0830152600060e0830152610100820152846000526006602052604060002060ff82511660ff198254161781556131f160ff602084015116829061ff0082549160081b169061ff001916179055565b6040820151815462ff0000191660109190911b62ff0000161781556060820151815463ff000000191660189190911b63ff000000161781556080820151815464ff00000000191660209190911b64ff000000001617815560a0820151815465ff0000000000191660289190911b65ff00000000001617815561327a60c083015160018301614c97565b60e0820151600282015561010082015190815191600160401b83116120ce57600382015483600384015580841061368c575b5090600360208995949301910160005260206000206000915b838310613664575050505061333b7f84b741ef7c940b4463796b0578f5f6b9d29c8193517e2da1a67f0b07fb8115b99183600052600b602052604060002061330d8154614627565b601f8111613642575b50600e661b995d5d1c985b60ca1b01905560405191829160408352604083019061494a565b600060208301520390a2613414613350615d85565b61ffff61335b615d9f565b60ff6040519361336a85614712565b60008552600060208601526000604086015260006060860152600060808601524260a08601521660c08401521660e082015285600052600760205261ffff60e060066040600020845181556020850151600182015560408501516002820155606085015160038201556080850151600482015560a08501516005820155019260ff60c08201511660ff1985541617845501511662ffff0082549160081b169062ffff001916179055565b600d54600181018091116109f557600d55600e5467016345785d8a000081018091116109f557600e55600080808067016345785d8a00007f00000000000000000000000000000000000000000000000000000000000000005af1613476614df2565b50156135fd5767016345785d8a0000341161359f575b9190604051926040840160408552835180915260206060860194019060005b818110613589575050508383036020850152808352602083019260208260051b82010193836000925b848410613551576020896001600160a01b038c1633827f531bd8ca2b17505aaa50d843fabe2dfd9a3bb9e20c511d2288b24bd484861b028d8d038ea460405167016345785d8a00008152817f6fe296e805108cd514fea415210be4016149b01eeb08effbe130951b6a5f6c0b843393a36001600055604051908152f35b909192939495602080613579600193601f198682030188526135738b88614be5565b90614bc4565b98019401940192949391906134d4565b82518652602095860195909201916001016134ab565b67016345785d89ffff1934013481116109f557600080808093335af16135c3614df2565b5061348c5760405162461bcd60e51b815260206004820152600d60248201526c1c99599d5b990819985a5b1959609a1b6044820152606490fd5b60405162461bcd60e51b815260206004820152601860248201527f7472656173757279207472616e73666572206661696c656400000000000000006044820152606490fd5b61365e9082600052601f6020600020910160051c810190614c39565b8a613316565b600191929394955060208161367c6004935186614da7565b01920192019091889493926132c5565b6001600160fe1b0381811682036109f557841684036109f5576003830160005260206000208460021b81015b8260021b820181106136cb5750506132ac565b806136d7600492614d5e565b6136e360018201614d5e565b6000600282015560006003820155016136b8565b600160208261370883945186614c97565b01920192019190613132565b600b83016000526020600020908482015b818301811061373557505061311d565b80613741600192614d5e565b01613725565b82516001600160a01b031681830155602090920191600101613096565b61377e906004870160005284846000209182019101614c39565b8a613085565b908096939450829592036139f957604051809663c2a93e3760e01b825280602483016020600485015252604482019060448160051b8401019380926000915b8383106139c657505050505080600092038160018060a01b037f0000000000000000000000000000000000000000000000000000000000000000165afa9485156139ba576000956138c4575b5084519261381c84614bad565b9361382a60405195866147d2565b808552613839601f1991614bad565b01366020860137839060005b87518110156138b657602061385a828a614c25565b51015115613881578061387061387c928a614c25565b5151611dbd8289614c25565b613845565b60405162461bcd60e51b815260206004820152600d60248201526c34b73b30b634b210383937b7b360991b6044820152606490fd5b509295509250928580612f2a565b9094503d806000833e6138d781836147d2565b60208282810103126102ee578151906001600160401b0382116102ee57808301601f8385010112156102ee57818301519061391182614bad565b9361391f60405195866147d2565b828552602085019382820160208560061b8385010101116102ee5793602085830101945b60208560061b8285010101861061396157505050505050938561380f565b60408685850103126102ee576040518060408101106001600160401b036040830111176120ce576040810160405286518152602087015180151581036102ee576020938285928360409501528152019601959150613943565b6040513d6000823e3d90fd5b91939560206139e8819260019496986043199082030187526135738a87614be5565b97019301930190928a9492936137c3565b60405162461bcd60e51b815260206004820152600c60248201526b0d8cadc40dad2e6dac2e8c6d60a31b6044820152606490fd5b60405162461bcd60e51b815260206004820152600c60248201526b666565203c20302e31204f4760a01b6044820152606490fd5b60405162461bcd60e51b815260206004820152600b60248201526a6e616d652065786973747360a81b6044820152606490fd5b60405162461bcd60e51b815260206004820152600b60248201526a0dcc2daca40d8cadccee8d60ab1b6044820152606490fd5b60209150111587612ebc565b60405162461bcd60e51b81526020600482015260126024820152711b585e081cdd5c1c1b1e481c995858da195960721b6044820152606490fd5b60405162461bcd60e51b815260206004820152601860248201527f77616c6c657420616c726561647920686173206167656e7400000000000000006044820152606490fd5b60405162461bcd60e51b815260206004820152600f60248201526e34b73b30b634b2103a379030b2323960891b6044820152606490fd5b604051633ee5aeb560e01b8152600490fd5b346102ee5760203660031901126102ee57600435600052600660205260406000208054600260405192613bdc84613bd58160018501614661565b03856147d2565b0154613c3560405193849360ff908181168652818160081c166020870152818160101c166040870152818160181c166060870152818160201c16608087015260281c1660a08501526101008060c08601528401906145d6565b9060e08301520390f35b346102ee5760203660031901126102ee576001600160a01b03613c60614611565b1660005260056020526020604060002054604051908152f35b346102ee5760003660031901126102ee57613c92614a34565b60025460ff811615613cd15760ff19166002557f5db9ee0a495bf2e6ff9c91a7834c1ba4fdd244a5e8aa4e537bd38aeae4b073aa6020604051338152a1005b604051638dfc202b60e01b8152600490fd5b346102ee576020806003193601126102ee57600435600052600381526040600020604051613d108161472e565b81546001600160a01b0316815260405160019190613d348161189781878701614661565b848201526002830154916040820192835260038401546060830152613d5b60048501615173565b6080830152600584015460a0830152600684015460c0830152600784015460e083015260ff60088501541615156101008301526009840154916101208101928352600b600a86015495610140830196875201918254613db981614bad565b93613dc760405195866147d2565b8185526000908152888120898087015b848410613e38575050505050506101600152519151905142034281116109f5576201518090049283613e1b57606093506000905b6040519384528301526040820152f35b6064830293838504606414841517156109f5576060940490613e0b565b85918291604051613e4d816118978189614661565b8152019201920191908a90613dd7565b346102ee5760403660031901126102ee57613e766145fb565b336001600160a01b03821603613e92576102b490600435614b36565b60405163334bd91960e11b8152600490fd5b346102ee5760203660031901126102ee57600435600081815260036020526040902054613edb906001600160a01b03161515615138565b600052600760205260606040600020600660405191613ef983614712565b80548352600181015460208401526002810154604084015260038101548484015260048101546080840152600581015460a0840152015460e060c083019260ff83168452019161ffff809260081c168352613f52615d85565b60ff80613f5d615d9f565b935116911680911493841594613f84575b5060405193151584526020840152166040820152f35b5183168383161415935085613f6e565b346102ee5760403660031901126102ee57600435602435613fb3614e22565b81600052817f10c6861248a0d0f4376512cb8e7482a88a8865601494eb1fd99ec02dfc29583360a060209360038552600180831b0360406000205416331480156140b7575b80156140a2575b61400890614e40565b8360005260078552604060002081815491556040519160608352600b60608401526a6d656d6f72795f636f726560a81b6080840152868301526040820152a281600052600881526002604060002001805460ff811661406357005b60ff191690556003815260056040600020018054600581018082116109f557600080516020615ebc8339815191529381604094558351928352820152a2005b506140086140b0338661531c565b9050613fff565b50600080516020615edc83398151915260005260018552604060002033600052855260ff60406000205416613ff8565b346102ee5760403660031901126102ee576102b46004356141066145fb565b90806000526001602052614121600160406000200154614a90565b614ab6565b346102ee5760003660031901126102ee576040517f00000000000000000000000000000000000000000000000000000000000000006001600160a01b03168152602090f35b346102ee5760603660031901126102ee5760243560043560443560058110156102ee57614196614e22565b8160005260206003815260018060a01b03604060002054163314801561431a575b8015614305575b6141c790614e40565b8260005260038152604060002090600782018054600181018091116109f55781554260038401558460005260078252847f10c6861248a0d0f4376512cb8e7482a88a8865601494eb1fd99ec02dfc29583360a06002604060002001898154915560405190606082526012606083015271636f6e766572736174696f6e5f6461696c7960701b60808301528a878301526040820152a26142658561554d565b5491600a8306156142a3575b50916040917fae9f8ea4031d27c12e1fca7c2bfaaef9034ff66849251188e28970cd44d1c590938351928352820152a3005b6005018054600181019491939192908581116109f557600080516020615ebc83398151915260408892887fae9f8ea4031d27c12e1fca7c2bfaaef9034ff66849251188e28970cd44d1c59099839955825191825285820152a291935091614271565b506141c7614313338561531c565b90506141be565b50600080516020615edc83398151915260005260018152604060002033600052815260ff604060002054166141b7565b346102ee5760203660031901126102ee5760043560005260016020526020600160406000200154604051908152f35b346102ee5760403660031901126102ee576001600160401b036024358181116102ee57366023820112156102ee5780600401359182116102ee5736602483830101116102ee576020602491604093600435600052600a835284600020908086519586940184378201908152030190208151906143f4826146f7565b60ff8154161515918281528360ff600260018501549485602086015201541691015282519182526020820152f35b346102ee576020806003193601126102ee576004356000526003815261444e6004604060002001615173565b906040519181839283018184528251809152816040850193019160005b82811061447a57505050500390f35b83516001600160a01b03168552869550938101939281019260010161446b565b346102ee5760403660031901126102ee576102b46144b66145fb565b6144be6149cc565b600435615222565b346102ee5760003660031901126102ee5761040c6040516144e68161479c565b600f81526e111c99585b5cd8d85c195059d95b9d608a1b60208201526040519182916020835260208301906145d6565b346102ee5760203660031901126102ee576004359063ffffffff60e01b82168092036102ee576020916380ac58cd60e01b81149081156145a2575b8115614591575b8115614566575b5015158152f35b637965db0b60e01b811491508115614580575b508361455f565b6301ffc9a760e01b14905083614579565b633bcd582960e11b81149150614558565b635b5e139f60e01b81149150614551565b60005b8381106145c65750506000910152565b81810151838201526020016145b6565b906020916145ef815180928185528580860191016145b3565b601f01601f1916010190565b602435906001600160a01b03821682036102ee57565b600435906001600160a01b03821682036102ee57565b90600182811c92168015614657575b602083101461464157565b634e487b7160e01b600052602260045260246000fd5b91607f1691614636565b906000929180549161467283614627565b9182825260019384811690816000146146d45750600114614694575b50505050565b90919394506000526020928360002092846000945b8386106146c057505050500101903880808061468e565b8054858701830152940193859082016146a9565b9294505050602093945060ff191683830152151560051b0101903880808061468e565b606081019081106001600160401b038211176120ce57604052565b61010081019081106001600160401b038211176120ce57604052565b61018081019081106001600160401b038211176120ce57604052565b608081019081106001600160401b038211176120ce57604052565b61012081019081106001600160401b038211176120ce57604052565b60c081019081106001600160401b038211176120ce57604052565b604081019081106001600160401b038211176120ce57604052565b602081019081106001600160401b038211176120ce57604052565b90601f801991011681019081106001600160401b038211176120ce57604052565b9181601f840112156102ee578235916001600160401b0383116102ee576020808501948460051b0101116102ee57565b6001600160401b0381116120ce57601f01601f191660200190565b81601f820112156102ee5780359061485582614823565b9261486360405194856147d2565b828452602083830101116102ee57816000926020809301838601378301015290565b60209061489f9282604051948386809551938492016145b3565b82019081520301902090565b359060ff821682036102ee57565b908082519081815260208091019281808460051b8301019501936000915b8483106148e75750505050505090565b9091929394958480600192601f19858203018652895190614923614913835160808085528401906145d6565b84840151838203868501526145d6565b91604060ff81830151169083015260608091015191015298019301930191949392906148d7565b906149c99160ff80825116835280602083015116602084015280604083015116604084015280606083015116606084015280608083015116608084015260a08201511660a08301526149ab60c08201516101208060c08601528401906145d6565b9160e082015160e082015261010080920151918184039101526148b9565b90565b3360009081527f50efbde2d46c37e9785f1791697f77e94bb7b701e19f1930a668820722d376946020526040902054600080516020615edc8339815191529060ff1615614a165750565b6044906040519063e2517d3f60e01b82523360048301526024820152fd5b3360009081527fb9cbbae02fe941283ec0eefd7b121e3bc7f89fae077b27bdd75a7fd4cf1543a860205260409020547f65d7a28e3265b37a6474929f336521b332c1681b933f6cb9f3376673440d862a9060ff1615614a165750565b80600052600160205260406000203360005260205260ff6040600020541615614a165750565b906000918083526001602052604083209160018060a01b03169182845260205260ff60408420541615600014614b315780835260016020526040832082845260205260408320600160ff198254161790557f2f8788117e7eff1d82e926ec794901d17c78024a50270940304540a733656f0d339380a4600190565b505090565b906000918083526001602052604083209160018060a01b03169182845260205260ff604084205416600014614b31578083526001602052604083208284526020526040832060ff1981541690557ff6391f5c32d9c69d2a47ea670b442974b53935d1edc7fd64eb21e047a839171b339380a4600190565b6001600160401b0381116120ce5760051b60200190565b908060209392818452848401376000828201840152601f01601f1916010190565b9035601e19823603018112156102ee5701602081359101916001600160401b0382116102ee5781360383136102ee57565b60001981146109f55760010190565b80518210156124165760209160051b010190565b818110614c44575050565b60008155600101614c39565b9190601f8111614c5f57505050565b614c8b926000526020600020906020601f840160051c83019310614c8d575b601f0160051c0190614c39565b565b9091508190614c7e565b91909182516001600160401b0381116120ce57614cbe81614cb88454614627565b84614c50565b602080601f8311600114614cfa575081929394600092614cef575b50508160011b916000199060031b1c1916179055565b015190503880614cd9565b90601f198316958460005282600020926000905b888210614d4657505083600195969710614d2d575b505050811b019055565b015160001960f88460031b161c19169055388080614d23565b80600185968294968601518155019501930190614d0e565b614d688154614627565b9081614d72575050565b81601f60009311600114614d84575055565b908083918252614da3601f60208420940160051c840160018501614c39565b5555565b906060600391614db8815185614c97565b614dc9602082015160018601614c97565b6002840160ff60408301511660ff198254161790550151910155565b919082018092116109f557565b3d15614e1d573d90614e0382614823565b91614e1160405193846147d2565b82523d6000602084013e565b606090565b60ff60025416614e2e57565b60405163d93c066560e01b8152600490fd5b15614e4757565b60405162461bcd60e51b815260206004820152600e60248201526d1b9bdd08185d5d1a1bdc9a5cd95960921b6044820152606490fd5b908154614e8981614bad565b92604093614e99855191826147d2565b828152809460208092019260005281600020906000935b858510614ebf57505050505050565b6004846001928451614ed08161474a565b8551614ee081611897818b614661565b81528551614ef48161189781898c01614661565b8382015260ff6002880154168682015260038701546060820152815201930194019391614eb0565b90604051614f2981614765565b610100614f9b60038395805460ff908181168752818160081c166020880152818160101c166040880152818160181c166060880152818160201c16608088015260281c1660a0860152604051614f86816118978160018601614661565b60c0860152600281015460e086015201614e7d565b910152565b903590601e19813603018212156102ee57018035906001600160401b0382116102ee576020019181360383136102ee57565b903590601e19813603018212156102ee57018035906001600160401b0382116102ee57602001918160051b360383136102ee57565b91908110156124165760051b81013590607e19813603018212156102ee570190565b1561503057565b60405162461bcd60e51b815260206004820152601260248201527166656174757265206e616d6520656d70747960701b6044820152606490fd5b3560ff811681036102ee5790565b90918092808252602080920191808260051b8601019484600080925b8584106150a657505050505050505090565b9091929394959697601f198282030188528835607e1985360301811215615134578660019286829301906151066150ed6150e08480614be5565b6080808652850191614bc4565b6150f985850185614be5565b9084830387860152614bc4565b91604060ff6151168284016148ab565b16908301526060908101359101529a01980196959401929190615094565b8380fd5b1561513f57565b60405162461bcd60e51b815260206004820152600c60248201526b1859d95b9d0808595e1a5cdd60a21b6044820152606490fd5b9060405191828154918282526020928383019160005283600020936000905b8282106151a857505050614c8b925003836147d2565b85546001600160a01b031684526001958601958895509381019390910190615192565b156151d257565b60405162461bcd60e51b815260206004820152601060248201526f6f776e65722f61646d696e206f6e6c7960801b6044820152606490fd5b80548210156124165760005260206000200190600090565b6001600160a01b039182169182156152b357600090828252600360205260046040832001805490600160401b82101561529f57816152889160017f32a4407627195670dd4c989ee38441e11ab643ccd4759c25d9c0bd6a635039db96959401815561520a565b819291549060031b9187831b921b191617905580a3565b634e487b7160e01b84526041600452602484fd5b60405162461bcd60e51b81526020600482015260096024820152683d32b937903ab9b2b960b91b6044820152606490fd5b156152eb57565b60405162461bcd60e51b8152602060048201526009602482015268746f203d207a65726f60b81b6044820152606490fd5b60005260036020526153346004604060002001615173565b9060005b8251811015615374576001600160a01b03806153548386614c25565b51169083161461536c5761536790614c16565b615338565b505050600190565b505050600090565b60000b600919811215908161538f575090565b600a9150131590565b60ff1690600090810b918183820193841291129080158216911516176153e0578082126153d8575b50606481136153d0575b60ff1690565b5060646153ca565b9050386153c0565b634e487b7160e01b81526011600452602490fd5b604051906154018261479c565b600a825269185b985b1e5d1a58d85b60b21b6020830152565b9060068110156124165760051b0190565b9092919260408094815161543e816146f7565b6001815260209160ff60028484019342855282878201941694858552615472611fd760009d8e8d8152600a8b52208b614885565b5160018201550191511660ff1982541617905584875260038252600b83882001805490600160401b82101561553957906154b19160018201815561520a565b6155255794600080516020615e9c8339815191528197986154e187600080516020615e7c83398151915299614c97565b84865191606083526154f6606084018a6145d6565b90868385015283820391828a860152520190a261551c83519484869586528501906145d6565b918301520390a2565b634e487b7160e01b88526004889052602488fd5b634e487b7160e01b89526041600452602489fd5b600090808252600760205260408220615564615d85565b9061556d615d9f565b916006820192835460ff811615615687575083549360ff8086169316808414801590615673575b6155a3575b5050505050505050565b600595877f730360d9766138aaf0bfbcb8ba19e14d040c069cb9b8daab2e5c3576d2b545e660a061561f9760405190815261ffff8560081c1660208201526060604082015260076060820152666d6f6e74686c7960c81b6080820152a260ff19161781559062ffff0082549160081b169062ffff001916179055565b83600182015583600282015501546230c780810180911161565f57421161564c575b808080808080615599565b8152600960205260408120553880615641565b634e487b7160e01b83526011600452602483fd5b5061ffff808416908760081c161415615594565b62ffffff191660ff929092169190911760089190911b62ffff00161790915550614c8b915050565b60009080825260206009815260409182842054600390818114615c535760068114615b1257600c81146159d55760181461586f5781855282526156fe8385206007600682015491015490614de5565b90606482146158015761016d80831461579857506103e880921461572f57505050519061572a826147b7565b815290565b90929193507f85b48c5b9cdd55cc3a41e735f9aa599cffba8d8c300f240111645d63939d2c2a608083518481526011858201527013595b5bdc9e48135a5b1b195b9b9a585b607a1b9586606083015287820152a2519161578e8361479c565b6011835282015290565b9392945090507f85b48c5b9cdd55cc3a41e735f9aa599cffba8d8c300f240111645d63939d2c2a608083518481526010858201526f59656172206f66204d656d6f7269657360801b9586606083015287820152a251916157f78361479c565b6010835282015290565b92919350508051918183526013828401527f85b48c5b9cdd55cc3a41e735f9aa599cffba8d8c300f240111645d63939d2c2a60807243656e74757279206f66204d656d6f7269657360681b94856060820152606487820152a251916158658361479c565b6013835282015290565b83929395949551906158808261479c565b600e82526d657465726e616c5f6d656d6f727960901b858301528460ff600286516158aa816146f7565b600181528a6158d2611fd78a87850193428552600a8287019960188b528d8352522089614885565b5160018201550191511660ff198254161790558287528452600b83872001805490600160401b8210156159c1579061590f9160018201815561520a565b6159ad578183600080516020615e9c8339815191526d457465726e616c204d656d6f727960901b979899615955600080516020615e7c8339815191529661598f96614c97565b898851916060835261596a60608401876145d6565b9060188385015283820391828c860152520190a28451918291868352868301906145d6565b6018888301520390a251916159a38361479c565b600e835282015290565b634e487b7160e01b87526004879052602487fd5b634e487b7160e01b88526041600452602488fd5b5083929395949551906159e78261479c565b600d82526c36b2b6b7b93cafb6b0b9ba32b960991b858301528460ff60028651615a10816146f7565b600181528a615a38611fd78a87850193428552600a82870199600c8b528d8352522089614885565b5160018201550191511660ff198254161790558287528452600b83872001805490600160401b8210156159c15790615a759160018201815561520a565b6159ad578183600080516020615e9c8339815191526c26b2b6b7b93c9026b0b9ba32b960991b979899615aba600080516020615e7c83398151915296615af496614c97565b8988519160608352615acf60608401876145d6565b90600c8385015283820391828c860152520190a28451918291868352868301906145d6565b600c888301520390a25191615b088361479c565b600d835282015290565b508392939594955190615b248261479c565b600f82526e36b2b6b7b93cafb3bab0b93234b0b760891b858301528460ff60028651615b4f816146f7565b600181528a615b77611fd78a87850193428552600a8287019960068b528d8352522089614885565b5160018201550191511660ff198254161790558287528452600b83872001805490600160401b8210156159c15790615bb49160018201815561520a565b6159ad578183600080516020615e9c8339815191526e26b2b6b7b93c9023bab0b93234b0b760891b979899615bfb600080516020615e7c83398151915296615c3596614c97565b8988519160608352615c1060608401876145d6565b9060068385015283820391828c860152520190a28451918291868352868301906145d6565b6006888301520390a25191615c498361479c565b600f835282015290565b508392939594955190615c658261479c565b600d82526c36b2b6b7b93cafb5b2b2b832b960991b858301528460ff60028651615c8e816146f7565b600181528a615cb5611fd78a87850193428552600a828701998b8b528d8352522089614885565b5160018201550191511660ff19825416179055828752808552600b84882001805490600160401b8210156155395790615cf39160018201815561520a565b6155255791615d729184600080516020615e9c8339815191526c26b2b6b7b93c9025b2b2b832b960991b98999a615d3985600080516020615e7c83398151915298614c97565b8a89519160608352615d4e60608401886145d6565b90868385015283820391828d860152520190a28551928392878452878401906145d6565b90888301520390a25191615b088361479c565b600160ff600c62278d00420406160160ff81116109f55790565b6107e86301e13380420481018091116109f55761ffff1690565b8015615e5d57600081805b615e495750615dd281614823565b91615de060405193846147d2565b818352601f19615def83614823565b01908060209236848701375b615e055750505090565b600a9060309382820685018095116109f55780156109f55760001901809486518210156124165760f81b6001600160f81b03191660001a9086018401530480615dfb565b90615e55600a91614c16565b910480615dc4565b50604051615e6a8161479c565b60018152600360fc1b60208201529056fe4d4ca4452701c64d62e210aa5b23f7d376cf2d485ebc4fee8528e048afb0e2cfd0ba61587fc16fc1a3274fc4cd4ecf1243baadf9d8dde73ab61d5a7af1474ff406bbb7cb56b5f3845ce5ad015d25cbf87ed1c37c635e2082acb2610598f15cc7a49807205ce4d355092ef5a8a18f56e8913cf4a201fbe287825b095693c21775a2646970667358221220ea833ed64a68313f3b96584fa30b766fdfb9281b3df14a95d3be14a02bb7b37264736f6c634300081400332f8788117e7eff1d82e926ec794901d17c78024a50270940304540a733656f0d",
  "devdoc": {
    "details": "Designed for direct deployment  no upgrade proxy included.  For         upgradability, wrap this logic in a UUPS/Beacon proxy.",
    "errors": {
      "AccessControlBadConfirmation()": [
        {
          "details": "The caller of a function is not the expected one. NOTE: Don't confuse with {AccessControlUnauthorizedAccount}."
        }
      ],
      "AccessControlUnauthorizedAccount(address,bytes32)": [
        {
          "details": "The `account` is missing a role."
        }
      ],
      "EnforcedPause()": [
        {
          "details": "The operation failed because the contract is paused."
        }
      ],
      "ExpectedPause()": [
        {
          "details": "The operation failed because the contract is not paused."
        }
      ],
      "ReentrancyGuardReentrantCall()": [
        {
          "details": "Unauthorized reentrant call."
        }
      ]
    },
    "events": {
      "AgentConversation(uint256,bytes32,uint8,uint256)": {
        "details": "Emitted when agent has a conversation (without personality evolution)"
      },
      "AuthorizedUsage(uint256,address)": {
        "details": "This emits when a user is authorized to use the data"
      },
      "Cloned(uint256,uint256,address,address)": {
        "details": "This emits when data is cloned"
      },
      "Minted(uint256,address,address,bytes32[],string[])": {
        "details": "This emits when a new functional NFT is minted"
      },
      "Paused(address)": {
        "details": "Emitted when the pause is triggered by `account`."
      },
      "PersonalityEvolved(uint256,bytes32,(uint8,uint8,uint8,uint8,uint8,uint8,string,uint256,(string,string,uint8,uint256)[]),(int8,int8,int8,int8,int8,int8,string,uint8,(string,string,uint8,uint256)[]))": {
        "details": "Emitted when agent personality evolves from dream processing"
      },
      "PersonalityMilestone(uint256,string,uint8,string)": {
        "details": "Emitted when agent reaches personality milestones"
      },
      "PublishedSealedKey(address,uint256,bytes16[])": {
        "details": "This emits when a sealed key is published"
      },
      "ResponseStyleEvolved(uint256,string,string[])": {
        "details": "Emitted when agent's response style evolves"
      },
      "RoleAdminChanged(bytes32,bytes32,bytes32)": {
        "details": "Emitted when `newAdminRole` is set as ``role``'s admin role, replacing `previousAdminRole` `DEFAULT_ADMIN_ROLE` is the starting admin for all roles, despite {RoleAdminChanged} not being emitted to signal this."
      },
      "RoleGranted(bytes32,address,address)": {
        "details": "Emitted when `account` is granted `role`. `sender` is the account that originated the contract call. This account bears the admin role (for the granted role). Expected in cases where the role was granted using the internal {AccessControl-_grantRole}."
      },
      "RoleRevoked(bytes32,address,address)": {
        "details": "Emitted when `account` is revoked `role`. `sender` is the account that originated the contract call:   - if using `revokeRole`, it is the admin role bearer   - if using `renounceRole`, it is the role bearer (i.e. `account`)"
      },
      "Transferred(uint256,address,address)": {
        "details": "This emits when data is transferred with ownership"
      },
      "UniqueFeaturesAdded(uint256,(string,string,uint8,uint256)[],uint256)": {
        "details": "Emitted when AI adds unique features to agent"
      },
      "Unpaused(address)": {
        "details": "Emitted when the pause is lifted by `account`."
      }
    },
    "kind": "dev",
    "methods": {
      "canProcessDreamToday(uint256)": {
        "params": {
          "tokenId": "Agent to check"
        },
        "returns": {
          "canProcess": "True if agent can process a dream today"
        }
      },
      "getAgentMemory(uint256)": {
        "params": {
          "tokenId": "Agent to query"
        },
        "returns": {
          "_0": "memory Current memory structure"
        }
      },
      "getConsolidationReward(uint256)": {
        "params": {
          "tokenId": "Agent to check"
        },
        "returns": {
          "baseReward": "Base intelligence reward",
          "earlyBirdBonus": "Bonus for early consolidation",
          "streakBonus": "Bonus from consolidation streak",
          "totalReward": "Total intelligence reward"
        }
      },
      "getEvolutionStats(uint256)": {
        "params": {
          "tokenId": "Agent to analyze"
        },
        "returns": {
          "evolutionRate": "Rate of personality change",
          "lastEvolution": "Timestamp of last evolution",
          "totalEvolutions": "Number of personality changes"
        }
      },
      "getMemoryAccess(uint256)": {
        "params": {
          "tokenId": "Agent to check"
        },
        "returns": {
          "memoryDepth": "Human-readable description",
          "monthsAccessible": "Number of months accessible "
        }
      },
      "getPersonalityTraits(uint256)": {
        "params": {
          "tokenId": "Agent to query"
        },
        "returns": {
          "_0": "Current personality traits"
        }
      },
      "getRoleAdmin(bytes32)": {
        "details": "Returns the admin role that controls `role`. See {grantRole} and {revokeRole}. To change a role's admin, use {_setRoleAdmin}."
      },
      "getUniqueFeatures(uint256)": {
        "params": {
          "tokenId": "Agent to query"
        },
        "returns": {
          "features": "Array of unique features"
        }
      },
      "grantRole(bytes32,address)": {
        "details": "Grants `role` to `account`. If `account` had not been already granted `role`, emits a {RoleGranted} event. Requirements: - the caller must have ``role``'s admin role. May emit a {RoleGranted} event."
      },
      "hasMilestone(uint256,string)": {
        "params": {
          "milestoneName": "Milestone to check (\"empathy_master\", \"creative_genius\", etc.)",
          "tokenId": "Agent to check"
        },
        "returns": {
          "achieved": "True if milestone has been achieved",
          "at": "Timestamp when milestone was achieved (0 if not achieved)"
        }
      },
      "hasRole(bytes32,address)": {
        "details": "Returns `true` if `account` has been granted `role`."
      },
      "mintAgent(bytes[],string[],string,address)": {
        "params": {
          "agentName": "Unique display name (32 bytes)",
          "descriptions": "Data descriptions parallel to `proofs`",
          "proofs": "Optional ZKproof blobs (pass `[]` to skip)",
          "to": "Recipient address (must NOT already own an agent)"
        }
      },
      "name()": {
        "returns": {
          "_0": "The contract name \"DreamscapeAgent\""
        }
      },
      "needsConsolidation(uint256)": {
        "params": {
          "tokenId": "Agent to check"
        },
        "returns": {
          "currentMonth": "Current month",
          "currentYear": "Current year",
          "isNeeded": "True if month has changed since last consolidation"
        }
      },
      "paused()": {
        "details": "Returns true if the contract is paused, and false otherwise."
      },
      "processDailyDream(uint256,bytes32,(int8,int8,int8,int8,int8,int8,string,uint8,(string,string,uint8,uint256)[]))": {
        "details": "ZKverified dream *content* lives offchain; contract stores only         hash + counters to keep gas low."
      },
      "renounceRole(bytes32,address)": {
        "details": "Revokes `role` from the calling account. Roles are often managed via {grantRole} and {revokeRole}: this function's purpose is to provide a mechanism for accounts to lose their privileges if they are compromised (such as when a trusted device is misplaced). If the calling account had been revoked `role`, emits a {RoleRevoked} event. Requirements: - the caller must be `callerConfirmation`. May emit a {RoleRevoked} event."
      },
      "revokeRole(bytes32,address)": {
        "details": "Revokes `role` from `account`. If `account` had been granted `role`, emits a {RoleRevoked} event. Requirements: - the caller must have ``role``'s admin role. May emit a {RoleRevoked} event."
      },
      "symbol()": {
        "returns": {
          "_0": "The contract symbol \"DREAM\""
        }
      }
    },
    "stateVariables": {
      "verifier": {
        "return": "The address of the verifier contract",
        "returns": {
          "_0": "The address of the verifier contract"
        }
      }
    },
    "title": "DreamscapeAgent  iNFT with Hierarchical Memory & Personality Evolution",
    "version": 1
  },
  "userdoc": {
    "kind": "user",
    "methods": {
      "canProcessDreamToday(uint256)": {
        "notice": "Check if agent can process dream today (24h cooldown)"
      },
      "consolidateMonth(uint256,bytes32,bytes32,uint8,uint16)": {
        "notice": "Userdriven monthly consolidation.  Merges daily files offchain and         stores the finalised month hash onchain, rewarding the agent."
      },
      "getAgentMemory(uint256)": {
        "notice": "Get agent's hierarchical memory structure"
      },
      "getConsolidationReward(uint256)": {
        "notice": "Get consolidation reward preview"
      },
      "getEvolutionStats(uint256)": {
        "notice": "Get personality evolution statistics"
      },
      "getMemoryAccess(uint256)": {
        "notice": "Get memory access level based on intelligence"
      },
      "getPersonalityTraits(uint256)": {
        "notice": "Get agent's current personality traits"
      },
      "getUniqueFeatures(uint256)": {
        "notice": "Get agent's unique AI-generated features"
      },
      "hasMilestone(uint256,string)": {
        "notice": "Check if agent has reached specific personality milestone"
      },
      "mintAgent(bytes[],string[],string,address)": {
        "notice": "Mint a *blankslate* agent.  One per wallet."
      },
      "name()": {
        "notice": "Returns the name of the contract collection"
      },
      "needsConsolidation(uint256)": {
        "notice": "Check if consolidation is needed"
      },
      "processDailyDream(uint256,bytes32,(int8,int8,int8,int8,int8,int8,string,uint8,(string,string,uint8,uint256)[]))": {
        "notice": "Called once per dream; every 5th dream triggers evolution.         Also updates hierarchical memory with dream hash."
      },
      "recordConversation(uint256,bytes32,uint8)": {
        "notice": "Lightweight conversation recording; boosts intelligence every 10th convo.         Also updates hierarchical memory with conversation hash."
      },
      "symbol()": {
        "notice": "Returns the symbol of the contract collection  "
      },
      "updateMemoryCore(uint256,bytes32)": {
        "notice": "Stores the yearly memory core hash and grants bonus INT."
      },
      "verifier()": {
        "notice": "The verifier interface that this NFT uses"
      }
    },
    "notice": "Singleperwallet autonomous agent that stores memories in a threelayer         hierarchy (daily  monthly  yearly) and evolves its personality from         analysed dreams & conversations.         This contract is a *lean* revision: we removed unbounded onchain arrays         of raw hashes to save gas and instead rely on offchain storage + a         rotating current hash per period.  All public getters needed by dApp         remain, but they now return an empty array and are marked *deprecated*.         The contract **still** complies with ERC7857 by preserving the original         ABI of `mintAgent(...)`; callers MAY pass empty arrays when proofs are         not needed.  Optional ZKP verification can be disabled by setting the         `verifier` address to zero at deployment.",
    "version": 1
  },
  "storageLayout": {
    "storage": [
      {
        "astId": 672,
        "contract": "contracts/DreamscapeAgent.sol:DreamscapeAgent",
        "label": "_status",
        "offset": 0,
        "slot": "0",
        "type": "t_uint256"
      },
      {
        "astId": 26,
        "contract": "contracts/DreamscapeAgent.sol:DreamscapeAgent",
        "label": "_roles",
        "offset": 0,
        "slot": "1",
        "type": "t_mapping(t_bytes32,t_struct(RoleData)21_storage)"
      },
      {
        "astId": 562,
        "contract": "contracts/DreamscapeAgent.sol:DreamscapeAgent",
        "label": "_paused",
        "offset": 0,
        "slot": "2",
        "type": "t_bool"
      },
      {
        "astId": 862,
        "contract": "contracts/DreamscapeAgent.sol:DreamscapeAgent",
        "label": "agents",
        "offset": 0,
        "slot": "3",
        "type": "t_mapping(t_uint256,t_struct(DreamAgent)841_storage)"
      },
      {
        "astId": 866,
        "contract": "contracts/DreamscapeAgent.sol:DreamscapeAgent",
        "label": "nameExists",
        "offset": 0,
        "slot": "4",
        "type": "t_mapping(t_string_memory_ptr,t_bool)"
      },
      {
        "astId": 870,
        "contract": "contracts/DreamscapeAgent.sol:DreamscapeAgent",
        "label": "ownerToTokenId",
        "offset": 0,
        "slot": "5",
        "type": "t_mapping(t_address,t_uint256)"
      },
      {
        "astId": 875,
        "contract": "contracts/DreamscapeAgent.sol:DreamscapeAgent",
        "label": "agentPersonalities",
        "offset": 0,
        "slot": "6",
        "type": "t_mapping(t_uint256,t_struct(PersonalityTraits)4209_storage)"
      },
      {
        "astId": 880,
        "contract": "contracts/DreamscapeAgent.sol:DreamscapeAgent",
        "label": "agentMemories",
        "offset": 0,
        "slot": "7",
        "type": "t_mapping(t_uint256,t_struct(AgentMemory)4256_storage)"
      },
      {
        "astId": 885,
        "contract": "contracts/DreamscapeAgent.sol:DreamscapeAgent",
        "label": "pendingRewards",
        "offset": 0,
        "slot": "8",
        "type": "t_mapping(t_uint256,t_struct(ConsolidationReward)857_storage)"
      },
      {
        "astId": 889,
        "contract": "contracts/DreamscapeAgent.sol:DreamscapeAgent",
        "label": "consolidationStreak",
        "offset": 0,
        "slot": "9",
        "type": "t_mapping(t_uint256,t_uint256)"
      },
      {
        "astId": 896,
        "contract": "contracts/DreamscapeAgent.sol:DreamscapeAgent",
        "label": "milestones",
        "offset": 0,
        "slot": "10",
        "type": "t_mapping(t_uint256,t_mapping(t_string_memory_ptr,t_struct(MilestoneData)849_storage))"
      },
      {
        "astId": 900,
        "contract": "contracts/DreamscapeAgent.sol:DreamscapeAgent",
        "label": "responseStyles",
        "offset": 0,
        "slot": "11",
        "type": "t_mapping(t_uint256,t_string_storage)"
      },
      {
        "astId": 903,
        "contract": "contracts/DreamscapeAgent.sol:DreamscapeAgent",
        "label": "nextTokenId",
        "offset": 0,
        "slot": "12",
        "type": "t_uint256"
      },
      {
        "astId": 906,
        "contract": "contracts/DreamscapeAgent.sol:DreamscapeAgent",
        "label": "totalAgents",
        "offset": 0,
        "slot": "13",
        "type": "t_uint256"
      },
      {
        "astId": 909,
        "contract": "contracts/DreamscapeAgent.sol:DreamscapeAgent",
        "label": "totalFeesCollected",
        "offset": 0,
        "slot": "14",
        "type": "t_uint256"
      }
    ],
    "types": {
      "t_address": {
        "encoding": "inplace",
        "label": "address",
        "numberOfBytes": "20"
      },
      "t_array(t_address)dyn_storage": {
        "base": "t_address",
        "encoding": "dynamic_array",
        "label": "address[]",
        "numberOfBytes": "32"
      },
      "t_array(t_string_storage)dyn_storage": {
        "base": "t_string_storage",
        "encoding": "dynamic_array",
        "label": "string[]",
        "numberOfBytes": "32"
      },
      "t_array(t_struct(UniqueFeature)4187_storage)dyn_storage": {
        "base": "t_struct(UniqueFeature)4187_storage",
        "encoding": "dynamic_array",
        "label": "struct IPersonalityEvolution.UniqueFeature[]",
        "numberOfBytes": "32"
      },
      "t_bool": {
        "encoding": "inplace",
        "label": "bool",
        "numberOfBytes": "1"
      },
      "t_bytes32": {
        "encoding": "inplace",
        "label": "bytes32",
        "numberOfBytes": "32"
      },
      "t_mapping(t_address,t_bool)": {
        "encoding": "mapping",
        "key": "t_address",
        "label": "mapping(address => bool)",
        "numberOfBytes": "32",
        "value": "t_bool"
      },
      "t_mapping(t_address,t_uint256)": {
        "encoding": "mapping",
        "key": "t_address",
        "label": "mapping(address => uint256)",
        "numberOfBytes": "32",
        "value": "t_uint256"
      },
      "t_mapping(t_bytes32,t_struct(RoleData)21_storage)": {
        "encoding": "mapping",
        "key": "t_bytes32",
        "label": "mapping(bytes32 => struct AccessControl.RoleData)",
        "numberOfBytes": "32",
        "value": "t_struct(RoleData)21_storage"
      },
      "t_mapping(t_string_memory_ptr,t_bool)": {
        "encoding": "mapping",
        "key": "t_string_memory_ptr",
        "label": "mapping(string => bool)",
        "numberOfBytes": "32",
        "value": "t_bool"
      },
      "t_mapping(t_string_memory_ptr,t_struct(MilestoneData)849_storage)": {
        "encoding": "mapping",
        "key": "t_string_memory_ptr",
        "label": "mapping(string => struct DreamscapeAgent.MilestoneData)",
        "numberOfBytes": "32",
        "value": "t_struct(MilestoneData)849_storage"
      },
      "t_mapping(t_uint256,t_mapping(t_string_memory_ptr,t_struct(MilestoneData)849_storage))": {
        "encoding": "mapping",
        "key": "t_uint256",
        "label": "mapping(uint256 => mapping(string => struct DreamscapeAgent.MilestoneData))",
        "numberOfBytes": "32",
        "value": "t_mapping(t_string_memory_ptr,t_struct(MilestoneData)849_storage)"
      },
      "t_mapping(t_uint256,t_string_storage)": {
        "encoding": "mapping",
        "key": "t_uint256",
        "label": "mapping(uint256 => string)",
        "numberOfBytes": "32",
        "value": "t_string_storage"
      },
      "t_mapping(t_uint256,t_struct(AgentMemory)4256_storage)": {
        "encoding": "mapping",
        "key": "t_uint256",
        "label": "mapping(uint256 => struct IPersonalityEvolution.AgentMemory)",
        "numberOfBytes": "32",
        "value": "t_struct(AgentMemory)4256_storage"
      },
      "t_mapping(t_uint256,t_struct(ConsolidationReward)857_storage)": {
        "encoding": "mapping",
        "key": "t_uint256",
        "label": "mapping(uint256 => struct DreamscapeAgent.ConsolidationReward)",
        "numberOfBytes": "32",
        "value": "t_struct(ConsolidationReward)857_storage"
      },
      "t_mapping(t_uint256,t_struct(DreamAgent)841_storage)": {
        "encoding": "mapping",
        "key": "t_uint256",
        "label": "mapping(uint256 => struct DreamscapeAgent.DreamAgent)",
        "numberOfBytes": "32",
        "value": "t_struct(DreamAgent)841_storage"
      },
      "t_mapping(t_uint256,t_struct(PersonalityTraits)4209_storage)": {
        "encoding": "mapping",
        "key": "t_uint256",
        "label": "mapping(uint256 => struct IPersonalityEvolution.PersonalityTraits)",
        "numberOfBytes": "32",
        "value": "t_struct(PersonalityTraits)4209_storage"
      },
      "t_mapping(t_uint256,t_uint256)": {
        "encoding": "mapping",
        "key": "t_uint256",
        "label": "mapping(uint256 => uint256)",
        "numberOfBytes": "32",
        "value": "t_uint256"
      },
      "t_string_memory_ptr": {
        "encoding": "bytes",
        "label": "string",
        "numberOfBytes": "32"
      },
      "t_string_storage": {
        "encoding": "bytes",
        "label": "string",
        "numberOfBytes": "32"
      },
      "t_struct(AgentMemory)4256_storage": {
        "encoding": "inplace",
        "label": "struct IPersonalityEvolution.AgentMemory",
        "members": [
          {
            "astId": 4241,
            "contract": "contracts/DreamscapeAgent.sol:DreamscapeAgent",
            "label": "memoryCoreHash",
            "offset": 0,
            "slot": "0",
            "type": "t_bytes32"
          },
          {
            "astId": 4243,
            "contract": "contracts/DreamscapeAgent.sol:DreamscapeAgent",
            "label": "currentDreamDailyHash",
            "offset": 0,
            "slot": "1",
            "type": "t_bytes32"
          },
          {
            "astId": 4245,
            "contract": "contracts/DreamscapeAgent.sol:DreamscapeAgent",
            "label": "currentConvDailyHash",
            "offset": 0,
            "slot": "2",
            "type": "t_bytes32"
          },
          {
            "astId": 4247,
            "contract": "contracts/DreamscapeAgent.sol:DreamscapeAgent",
            "label": "lastDreamMonthlyHash",
            "offset": 0,
            "slot": "3",
            "type": "t_bytes32"
          },
          {
            "astId": 4249,
            "contract": "contracts/DreamscapeAgent.sol:DreamscapeAgent",
            "label": "lastConvMonthlyHash",
            "offset": 0,
            "slot": "4",
            "type": "t_bytes32"
          },
          {
            "astId": 4251,
            "contract": "contracts/DreamscapeAgent.sol:DreamscapeAgent",
            "label": "lastConsolidation",
            "offset": 0,
            "slot": "5",
            "type": "t_uint256"
          },
          {
            "astId": 4253,
            "contract": "contracts/DreamscapeAgent.sol:DreamscapeAgent",
            "label": "currentMonth",
            "offset": 0,
            "slot": "6",
            "type": "t_uint8"
          },
          {
            "astId": 4255,
            "contract": "contracts/DreamscapeAgent.sol:DreamscapeAgent",
            "label": "currentYear",
            "offset": 1,
            "slot": "6",
            "type": "t_uint16"
          }
        ],
        "numberOfBytes": "224"
      },
      "t_struct(ConsolidationReward)857_storage": {
        "encoding": "inplace",
        "label": "struct DreamscapeAgent.ConsolidationReward",
        "members": [
          {
            "astId": 852,
            "contract": "contracts/DreamscapeAgent.sol:DreamscapeAgent",
            "label": "intelligenceBonus",
            "offset": 0,
            "slot": "0",
            "type": "t_uint256"
          },
          {
            "astId": 854,
            "contract": "contracts/DreamscapeAgent.sol:DreamscapeAgent",
            "label": "specialMilestone",
            "offset": 0,
            "slot": "1",
            "type": "t_string_storage"
          },
          {
            "astId": 856,
            "contract": "contracts/DreamscapeAgent.sol:DreamscapeAgent",
            "label": "yearlyReflection",
            "offset": 0,
            "slot": "2",
            "type": "t_bool"
          }
        ],
        "numberOfBytes": "96"
      },
      "t_struct(DreamAgent)841_storage": {
        "encoding": "inplace",
        "label": "struct DreamscapeAgent.DreamAgent",
        "members": [
          {
            "astId": 816,
            "contract": "contracts/DreamscapeAgent.sol:DreamscapeAgent",
            "label": "owner",
            "offset": 0,
            "slot": "0",
            "type": "t_address"
          },
          {
            "astId": 818,
            "contract": "contracts/DreamscapeAgent.sol:DreamscapeAgent",
            "label": "agentName",
            "offset": 0,
            "slot": "1",
            "type": "t_string_storage"
          },
          {
            "astId": 820,
            "contract": "contracts/DreamscapeAgent.sol:DreamscapeAgent",
            "label": "createdAt",
            "offset": 0,
            "slot": "2",
            "type": "t_uint256"
          },
          {
            "astId": 822,
            "contract": "contracts/DreamscapeAgent.sol:DreamscapeAgent",
            "label": "lastUpdated",
            "offset": 0,
            "slot": "3",
            "type": "t_uint256"
          },
          {
            "astId": 825,
            "contract": "contracts/DreamscapeAgent.sol:DreamscapeAgent",
            "label": "authorizedUsers",
            "offset": 0,
            "slot": "4",
            "type": "t_array(t_address)dyn_storage"
          },
          {
            "astId": 827,
            "contract": "contracts/DreamscapeAgent.sol:DreamscapeAgent",
            "label": "intelligenceLevel",
            "offset": 0,
            "slot": "5",
            "type": "t_uint256"
          },
          {
            "astId": 829,
            "contract": "contracts/DreamscapeAgent.sol:DreamscapeAgent",
            "label": "dreamCount",
            "offset": 0,
            "slot": "6",
            "type": "t_uint256"
          },
          {
            "astId": 831,
            "contract": "contracts/DreamscapeAgent.sol:DreamscapeAgent",
            "label": "conversationCount",
            "offset": 0,
            "slot": "7",
            "type": "t_uint256"
          },
          {
            "astId": 833,
            "contract": "contracts/DreamscapeAgent.sol:DreamscapeAgent",
            "label": "personalityInitialized",
            "offset": 0,
            "slot": "8",
            "type": "t_bool"
          },
          {
            "astId": 835,
            "contract": "contracts/DreamscapeAgent.sol:DreamscapeAgent",
            "label": "totalEvolutions",
            "offset": 0,
            "slot": "9",
            "type": "t_uint256"
          },
          {
            "astId": 837,
            "contract": "contracts/DreamscapeAgent.sol:DreamscapeAgent",
            "label": "lastEvolutionDate",
            "offset": 0,
            "slot": "10",
            "type": "t_uint256"
          },
          {
            "astId": 840,
            "contract": "contracts/DreamscapeAgent.sol:DreamscapeAgent",
            "label": "achievedMilestones",
            "offset": 0,
            "slot": "11",
            "type": "t_array(t_string_storage)dyn_storage"
          }
        ],
        "numberOfBytes": "384"
      },
      "t_struct(MilestoneData)849_storage": {
        "encoding": "inplace",
        "label": "struct DreamscapeAgent.MilestoneData",
        "members": [
          {
            "astId": 844,
            "contract": "contracts/DreamscapeAgent.sol:DreamscapeAgent",
            "label": "achieved",
            "offset": 0,
            "slot": "0",
            "type": "t_bool"
          },
          {
            "astId": 846,
            "contract": "contracts/DreamscapeAgent.sol:DreamscapeAgent",
            "label": "achievedAt",
            "offset": 0,
            "slot": "1",
            "type": "t_uint256"
          },
          {
            "astId": 848,
            "contract": "contracts/DreamscapeAgent.sol:DreamscapeAgent",
            "label": "traitValue",
            "offset": 0,
            "slot": "2",
            "type": "t_uint8"
          }
        ],
        "numberOfBytes": "96"
      },
      "t_struct(PersonalityTraits)4209_storage": {
        "encoding": "inplace",
        "label": "struct IPersonalityEvolution.PersonalityTraits",
        "members": [
          {
            "astId": 4190,
            "contract": "contracts/DreamscapeAgent.sol:DreamscapeAgent",
            "label": "creativity",
            "offset": 0,
            "slot": "0",
            "type": "t_uint8"
          },
          {
            "astId": 4192,
            "contract": "contracts/DreamscapeAgent.sol:DreamscapeAgent",
            "label": "analytical",
            "offset": 1,
            "slot": "0",
            "type": "t_uint8"
          },
          {
            "astId": 4194,
            "contract": "contracts/DreamscapeAgent.sol:DreamscapeAgent",
            "label": "empathy",
            "offset": 2,
            "slot": "0",
            "type": "t_uint8"
          },
          {
            "astId": 4196,
            "contract": "contracts/DreamscapeAgent.sol:DreamscapeAgent",
            "label": "intuition",
            "offset": 3,
            "slot": "0",
            "type": "t_uint8"
          },
          {
            "astId": 4198,
            "contract": "contracts/DreamscapeAgent.sol:DreamscapeAgent",
            "label": "resilience",
            "offset": 4,
            "slot": "0",
            "type": "t_uint8"
          },
          {
            "astId": 4200,
            "contract": "contracts/DreamscapeAgent.sol:DreamscapeAgent",
            "label": "curiosity",
            "offset": 5,
            "slot": "0",
            "type": "t_uint8"
          },
          {
            "astId": 4202,
            "contract": "contracts/DreamscapeAgent.sol:DreamscapeAgent",
            "label": "dominantMood",
            "offset": 0,
            "slot": "1",
            "type": "t_string_storage"
          },
          {
            "astId": 4204,
            "contract": "contracts/DreamscapeAgent.sol:DreamscapeAgent",
            "label": "lastDreamDate",
            "offset": 0,
            "slot": "2",
            "type": "t_uint256"
          },
          {
            "astId": 4208,
            "contract": "contracts/DreamscapeAgent.sol:DreamscapeAgent",
            "label": "uniqueFeatures",
            "offset": 0,
            "slot": "3",
            "type": "t_array(t_struct(UniqueFeature)4187_storage)dyn_storage"
          }
        ],
        "numberOfBytes": "128"
      },
      "t_struct(RoleData)21_storage": {
        "encoding": "inplace",
        "label": "struct AccessControl.RoleData",
        "members": [
          {
            "astId": 18,
            "contract": "contracts/DreamscapeAgent.sol:DreamscapeAgent",
            "label": "hasRole",
            "offset": 0,
            "slot": "0",
            "type": "t_mapping(t_address,t_bool)"
          },
          {
            "astId": 20,
            "contract": "contracts/DreamscapeAgent.sol:DreamscapeAgent",
            "label": "adminRole",
            "offset": 0,
            "slot": "1",
            "type": "t_bytes32"
          }
        ],
        "numberOfBytes": "64"
      },
      "t_struct(UniqueFeature)4187_storage": {
        "encoding": "inplace",
        "label": "struct IPersonalityEvolution.UniqueFeature",
        "members": [
          {
            "astId": 4180,
            "contract": "contracts/DreamscapeAgent.sol:DreamscapeAgent",
            "label": "name",
            "offset": 0,
            "slot": "0",
            "type": "t_string_storage"
          },
          {
            "astId": 4182,
            "contract": "contracts/DreamscapeAgent.sol:DreamscapeAgent",
            "label": "description",
            "offset": 0,
            "slot": "1",
            "type": "t_string_storage"
          },
          {
            "astId": 4184,
            "contract": "contracts/DreamscapeAgent.sol:DreamscapeAgent",
            "label": "intensity",
            "offset": 0,
            "slot": "2",
            "type": "t_uint8"
          },
          {
            "astId": 4186,
            "contract": "contracts/DreamscapeAgent.sol:DreamscapeAgent",
            "label": "addedAt",
            "offset": 0,
            "slot": "3",
            "type": "t_uint256"
          }
        ],
        "numberOfBytes": "128"
      },
      "t_uint16": {
        "encoding": "inplace",
        "label": "uint16",
        "numberOfBytes": "2"
      },
      "t_uint256": {
        "encoding": "inplace",
        "label": "uint256",
        "numberOfBytes": "32"
      },
      "t_uint8": {
        "encoding": "inplace",
        "label": "uint8",
        "numberOfBytes": "1"
      }
    }
  }
}