{
  "address": "0xc8433d78E6a9BceFA384c6090C53e57FB6b84191",
  "abi": [
    {
      "inputs": [
        {
          "internalType": "address",
          "name": "_verifier",
          "type": "address"
        },
        {
          "internalType": "address",
          "name": "_treasury",
          "type": "address"
        }
      ],
      "stateMutability": "nonpayable",
      "type": "constructor"
    },
    {
      "inputs": [],
      "name": "AccessControlBadConfirmation",
      "type": "error"
    },
    {
      "inputs": [
        {
          "internalType": "address",
          "name": "account",
          "type": "address"
        },
        {
          "internalType": "bytes32",
          "name": "neededRole",
          "type": "bytes32"
        }
      ],
      "name": "AccessControlUnauthorizedAccount",
      "type": "error"
    },
    {
      "inputs": [],
      "name": "EnforcedPause",
      "type": "error"
    },
    {
      "inputs": [],
      "name": "ExpectedPause",
      "type": "error"
    },
    {
      "inputs": [],
      "name": "ReentrancyGuardReentrantCall",
      "type": "error"
    },
    {
      "anonymous": false,
      "inputs": [
        {
          "indexed": true,
          "internalType": "uint256",
          "name": "tokenId",
          "type": "uint256"
        },
        {
          "indexed": true,
          "internalType": "bytes32",
          "name": "conversationHash",
          "type": "bytes32"
        },
        {
          "indexed": false,
          "internalType": "enum IPersonalityEvolution.ContextType",
          "name": "contextType",
          "type": "uint8"
        },
        {
          "indexed": false,
          "internalType": "uint256",
          "name": "conversationCount",
          "type": "uint256"
        }
      ],
      "name": "AgentConversation",
      "type": "event"
    },
    {
      "anonymous": false,
      "inputs": [
        {
          "indexed": true,
          "internalType": "uint256",
          "name": "tokenId",
          "type": "uint256"
        },
        {
          "indexed": false,
          "internalType": "uint256",
          "name": "oldLevel",
          "type": "uint256"
        },
        {
          "indexed": false,
          "internalType": "uint256",
          "name": "newLevel",
          "type": "uint256"
        }
      ],
      "name": "AgentEvolved",
      "type": "event"
    },
    {
      "anonymous": false,
      "inputs": [
        {
          "indexed": true,
          "internalType": "uint256",
          "name": "_tokenId",
          "type": "uint256"
        },
        {
          "indexed": true,
          "internalType": "address",
          "name": "_user",
          "type": "address"
        }
      ],
      "name": "AuthorizedUsage",
      "type": "event"
    },
    {
      "anonymous": false,
      "inputs": [
        {
          "indexed": true,
          "internalType": "uint256",
          "name": "_tokenId",
          "type": "uint256"
        },
        {
          "indexed": true,
          "internalType": "uint256",
          "name": "_newTokenId",
          "type": "uint256"
        },
        {
          "indexed": false,
          "internalType": "address",
          "name": "_from",
          "type": "address"
        },
        {
          "indexed": false,
          "internalType": "address",
          "name": "_to",
          "type": "address"
        }
      ],
      "name": "Cloned",
      "type": "event"
    },
    {
      "anonymous": false,
      "inputs": [
        {
          "indexed": true,
          "internalType": "uint256",
          "name": "tokenId",
          "type": "uint256"
        },
        {
          "indexed": false,
          "internalType": "string",
          "name": "period",
          "type": "string"
        },
        {
          "indexed": false,
          "internalType": "uint256",
          "name": "bonus",
          "type": "uint256"
        },
        {
          "indexed": false,
          "internalType": "string",
          "name": "specialReward",
          "type": "string"
        }
      ],
      "name": "ConsolidationCompleted",
      "type": "event"
    },
    {
      "anonymous": false,
      "inputs": [
        {
          "indexed": true,
          "internalType": "uint256",
          "name": "tokenId",
          "type": "uint256"
        },
        {
          "indexed": false,
          "internalType": "uint8",
          "name": "month",
          "type": "uint8"
        },
        {
          "indexed": false,
          "internalType": "uint16",
          "name": "year",
          "type": "uint16"
        },
        {
          "indexed": false,
          "internalType": "string",
          "name": "consolidationType",
          "type": "string"
        }
      ],
      "name": "ConsolidationNeeded",
      "type": "event"
    },
    {
      "anonymous": false,
      "inputs": [
        {
          "indexed": true,
          "internalType": "uint256",
          "name": "tokenId",
          "type": "uint256"
        },
        {
          "indexed": false,
          "internalType": "bytes32",
          "name": "dreamHash",
          "type": "bytes32"
        },
        {
          "indexed": false,
          "internalType": "uint256",
          "name": "intelligenceLevel",
          "type": "uint256"
        }
      ],
      "name": "DreamProcessed",
      "type": "event"
    },
    {
      "anonymous": false,
      "inputs": [
        {
          "indexed": true,
          "internalType": "uint256",
          "name": "tokenId",
          "type": "uint256"
        },
        {
          "indexed": true,
          "internalType": "address",
          "name": "payer",
          "type": "address"
        },
        {
          "indexed": false,
          "internalType": "uint256",
          "name": "amount",
          "type": "uint256"
        }
      ],
      "name": "FeePaid",
      "type": "event"
    },
    {
      "anonymous": false,
      "inputs": [
        {
          "indexed": true,
          "internalType": "uint256",
          "name": "tokenId",
          "type": "uint256"
        },
        {
          "indexed": false,
          "internalType": "string",
          "name": "achievement",
          "type": "string"
        },
        {
          "indexed": false,
          "internalType": "uint256",
          "name": "totalInteractions",
          "type": "uint256"
        }
      ],
      "name": "MemoryMilestone",
      "type": "event"
    },
    {
      "anonymous": false,
      "inputs": [
        {
          "indexed": true,
          "internalType": "uint256",
          "name": "tokenId",
          "type": "uint256"
        },
        {
          "indexed": false,
          "internalType": "string",
          "name": "memoryType",
          "type": "string"
        },
        {
          "indexed": false,
          "internalType": "bytes32",
          "name": "newHash",
          "type": "bytes32"
        },
        {
          "indexed": false,
          "internalType": "bytes32",
          "name": "oldHash",
          "type": "bytes32"
        }
      ],
      "name": "MemoryUpdated",
      "type": "event"
    },
    {
      "anonymous": false,
      "inputs": [
        {
          "indexed": true,
          "internalType": "uint256",
          "name": "tokenId",
          "type": "uint256"
        },
        {
          "indexed": false,
          "internalType": "string",
          "name": "milestone",
          "type": "string"
        },
        {
          "indexed": false,
          "internalType": "uint8",
          "name": "value",
          "type": "uint8"
        }
      ],
      "name": "MilestoneUnlocked",
      "type": "event"
    },
    {
      "anonymous": false,
      "inputs": [
        {
          "indexed": true,
          "internalType": "uint256",
          "name": "_tokenId",
          "type": "uint256"
        },
        {
          "indexed": true,
          "internalType": "address",
          "name": "_creator",
          "type": "address"
        },
        {
          "indexed": true,
          "internalType": "address",
          "name": "_owner",
          "type": "address"
        },
        {
          "indexed": false,
          "internalType": "bytes32[]",
          "name": "_dataHashes",
          "type": "bytes32[]"
        },
        {
          "indexed": false,
          "internalType": "string[]",
          "name": "_dataDescriptions",
          "type": "string[]"
        }
      ],
      "name": "Minted",
      "type": "event"
    },
    {
      "anonymous": false,
      "inputs": [
        {
          "indexed": false,
          "internalType": "address",
          "name": "account",
          "type": "address"
        }
      ],
      "name": "Paused",
      "type": "event"
    },
    {
      "anonymous": false,
      "inputs": [
        {
          "indexed": true,
          "internalType": "uint256",
          "name": "tokenId",
          "type": "uint256"
        },
        {
          "components": [
            {
              "internalType": "uint8",
              "name": "creativity",
              "type": "uint8"
            },
            {
              "internalType": "uint8",
              "name": "analytical",
              "type": "uint8"
            },
            {
              "internalType": "uint8",
              "name": "empathy",
              "type": "uint8"
            },
            {
              "internalType": "uint8",
              "name": "intuition",
              "type": "uint8"
            },
            {
              "internalType": "uint8",
              "name": "resilience",
              "type": "uint8"
            },
            {
              "internalType": "uint8",
              "name": "curiosity",
              "type": "uint8"
            },
            {
              "internalType": "string",
              "name": "dominantMood",
              "type": "string"
            },
            {
              "internalType": "uint256",
              "name": "lastDreamDate",
              "type": "uint256"
            },
            {
              "components": [
                {
                  "internalType": "string",
                  "name": "name",
                  "type": "string"
                },
                {
                  "internalType": "string",
                  "name": "description",
                  "type": "string"
                },
                {
                  "internalType": "uint8",
                  "name": "intensity",
                  "type": "uint8"
                },
                {
                  "internalType": "uint256",
                  "name": "addedAt",
                  "type": "uint256"
                }
              ],
              "internalType": "struct IPersonalityEvolution.UniqueFeature[]",
              "name": "uniqueFeatures",
              "type": "tuple[]"
            }
          ],
          "indexed": false,
          "internalType": "struct IPersonalityEvolution.PersonalityTraits",
          "name": "traits",
          "type": "tuple"
        },
        {
          "indexed": false,
          "internalType": "uint256",
          "name": "dreamCount",
          "type": "uint256"
        }
      ],
      "name": "PersonalityActivated",
      "type": "event"
    },
    {
      "anonymous": false,
      "inputs": [
        {
          "indexed": true,
          "internalType": "uint256",
          "name": "tokenId",
          "type": "uint256"
        },
        {
          "indexed": true,
          "internalType": "bytes32",
          "name": "dreamHash",
          "type": "bytes32"
        },
        {
          "components": [
            {
              "internalType": "uint8",
              "name": "creativity",
              "type": "uint8"
            },
            {
              "internalType": "uint8",
              "name": "analytical",
              "type": "uint8"
            },
            {
              "internalType": "uint8",
              "name": "empathy",
              "type": "uint8"
            },
            {
              "internalType": "uint8",
              "name": "intuition",
              "type": "uint8"
            },
            {
              "internalType": "uint8",
              "name": "resilience",
              "type": "uint8"
            },
            {
              "internalType": "uint8",
              "name": "curiosity",
              "type": "uint8"
            },
            {
              "internalType": "string",
              "name": "dominantMood",
              "type": "string"
            },
            {
              "internalType": "uint256",
              "name": "lastDreamDate",
              "type": "uint256"
            },
            {
              "components": [
                {
                  "internalType": "string",
                  "name": "name",
                  "type": "string"
                },
                {
                  "internalType": "string",
                  "name": "description",
                  "type": "string"
                },
                {
                  "internalType": "uint8",
                  "name": "intensity",
                  "type": "uint8"
                },
                {
                  "internalType": "uint256",
                  "name": "addedAt",
                  "type": "uint256"
                }
              ],
              "internalType": "struct IPersonalityEvolution.UniqueFeature[]",
              "name": "uniqueFeatures",
              "type": "tuple[]"
            }
          ],
          "indexed": false,
          "internalType": "struct IPersonalityEvolution.PersonalityTraits",
          "name": "newPersonality",
          "type": "tuple"
        },
        {
          "components": [
            {
              "internalType": "int8",
              "name": "creativityChange",
              "type": "int8"
            },
            {
              "internalType": "int8",
              "name": "analyticalChange",
              "type": "int8"
            },
            {
              "internalType": "int8",
              "name": "empathyChange",
              "type": "int8"
            },
            {
              "internalType": "int8",
              "name": "intuitionChange",
              "type": "int8"
            },
            {
              "internalType": "int8",
              "name": "resilienceChange",
              "type": "int8"
            },
            {
              "internalType": "int8",
              "name": "curiosityChange",
              "type": "int8"
            },
            {
              "internalType": "string",
              "name": "moodShift",
              "type": "string"
            },
            {
              "internalType": "uint8",
              "name": "evolutionWeight",
              "type": "uint8"
            },
            {
              "components": [
                {
                  "internalType": "string",
                  "name": "name",
                  "type": "string"
                },
                {
                  "internalType": "string",
                  "name": "description",
                  "type": "string"
                },
                {
                  "internalType": "uint8",
                  "name": "intensity",
                  "type": "uint8"
                },
                {
                  "internalType": "uint256",
                  "name": "addedAt",
                  "type": "uint256"
                }
              ],
              "internalType": "struct IPersonalityEvolution.UniqueFeature[]",
              "name": "newFeatures",
              "type": "tuple[]"
            }
          ],
          "indexed": false,
          "internalType": "struct IPersonalityEvolution.PersonalityImpact",
          "name": "impact",
          "type": "tuple"
        }
      ],
      "name": "PersonalityEvolved",
      "type": "event"
    },
    {
      "anonymous": false,
      "inputs": [
        {
          "indexed": true,
          "internalType": "uint256",
          "name": "tokenId",
          "type": "uint256"
        },
        {
          "indexed": false,
          "internalType": "string",
          "name": "milestone",
          "type": "string"
        },
        {
          "indexed": false,
          "internalType": "uint8",
          "name": "traitValue",
          "type": "uint8"
        },
        {
          "indexed": false,
          "internalType": "string",
          "name": "traitName",
          "type": "string"
        }
      ],
      "name": "PersonalityMilestone",
      "type": "event"
    },
    {
      "anonymous": false,
      "inputs": [
        {
          "indexed": true,
          "internalType": "address",
          "name": "_to",
          "type": "address"
        },
        {
          "indexed": true,
          "internalType": "uint256",
          "name": "_tokenId",
          "type": "uint256"
        },
        {
          "indexed": false,
          "internalType": "bytes16[]",
          "name": "_sealedKeys",
          "type": "bytes16[]"
        }
      ],
      "name": "PublishedSealedKey",
      "type": "event"
    },
    {
      "anonymous": false,
      "inputs": [
        {
          "indexed": true,
          "internalType": "uint256",
          "name": "tokenId",
          "type": "uint256"
        },
        {
          "indexed": false,
          "internalType": "string",
          "name": "newStyle",
          "type": "string"
        },
        {
          "indexed": false,
          "internalType": "string[]",
          "name": "dominantTraits",
          "type": "string[]"
        }
      ],
      "name": "ResponseStyleEvolved",
      "type": "event"
    },
    {
      "anonymous": false,
      "inputs": [
        {
          "indexed": true,
          "internalType": "uint256",
          "name": "tokenId",
          "type": "uint256"
        },
        {
          "indexed": false,
          "internalType": "string",
          "name": "oldStyle",
          "type": "string"
        },
        {
          "indexed": false,
          "internalType": "string",
          "name": "newStyle",
          "type": "string"
        }
      ],
      "name": "ResponseStyleUpdated",
      "type": "event"
    },
    {
      "anonymous": false,
      "inputs": [
        {
          "indexed": true,
          "internalType": "bytes32",
          "name": "role",
          "type": "bytes32"
        },
        {
          "indexed": true,
          "internalType": "bytes32",
          "name": "previousAdminRole",
          "type": "bytes32"
        },
        {
          "indexed": true,
          "internalType": "bytes32",
          "name": "newAdminRole",
          "type": "bytes32"
        }
      ],
      "name": "RoleAdminChanged",
      "type": "event"
    },
    {
      "anonymous": false,
      "inputs": [
        {
          "indexed": true,
          "internalType": "bytes32",
          "name": "role",
          "type": "bytes32"
        },
        {
          "indexed": true,
          "internalType": "address",
          "name": "account",
          "type": "address"
        },
        {
          "indexed": true,
          "internalType": "address",
          "name": "sender",
          "type": "address"
        }
      ],
      "name": "RoleGranted",
      "type": "event"
    },
    {
      "anonymous": false,
      "inputs": [
        {
          "indexed": true,
          "internalType": "bytes32",
          "name": "role",
          "type": "bytes32"
        },
        {
          "indexed": true,
          "internalType": "address",
          "name": "account",
          "type": "address"
        },
        {
          "indexed": true,
          "internalType": "address",
          "name": "sender",
          "type": "address"
        }
      ],
      "name": "RoleRevoked",
      "type": "event"
    },
    {
      "anonymous": false,
      "inputs": [
        {
          "indexed": false,
          "internalType": "uint256",
          "name": "_tokenId",
          "type": "uint256"
        },
        {
          "indexed": true,
          "internalType": "address",
          "name": "_from",
          "type": "address"
        },
        {
          "indexed": true,
          "internalType": "address",
          "name": "_to",
          "type": "address"
        }
      ],
      "name": "Transferred",
      "type": "event"
    },
    {
      "anonymous": false,
      "inputs": [
        {
          "indexed": true,
          "internalType": "uint256",
          "name": "tokenId",
          "type": "uint256"
        },
        {
          "components": [
            {
              "internalType": "string",
              "name": "name",
              "type": "string"
            },
            {
              "internalType": "string",
              "name": "description",
              "type": "string"
            },
            {
              "internalType": "uint8",
              "name": "intensity",
              "type": "uint8"
            },
            {
              "internalType": "uint256",
              "name": "addedAt",
              "type": "uint256"
            }
          ],
          "indexed": false,
          "internalType": "struct IPersonalityEvolution.UniqueFeature[]",
          "name": "newFeatures",
          "type": "tuple[]"
        },
        {
          "indexed": false,
          "internalType": "uint256",
          "name": "totalFeatures",
          "type": "uint256"
        }
      ],
      "name": "UniqueFeaturesAdded",
      "type": "event"
    },
    {
      "anonymous": false,
      "inputs": [
        {
          "indexed": false,
          "internalType": "address",
          "name": "account",
          "type": "address"
        }
      ],
      "name": "Unpaused",
      "type": "event"
    },
    {
      "anonymous": false,
      "inputs": [
        {
          "indexed": true,
          "internalType": "uint256",
          "name": "tokenId",
          "type": "uint256"
        },
        {
          "indexed": false,
          "internalType": "uint16",
          "name": "year",
          "type": "uint16"
        }
      ],
      "name": "YearlyReflectionAvailable",
      "type": "event"
    },
    {
      "inputs": [],
      "name": "ADMIN_ROLE",
      "outputs": [
        {
          "internalType": "bytes32",
          "name": "",
          "type": "bytes32"
        }
      ],
      "stateMutability": "view",
      "type": "function"
    },
    {
      "inputs": [],
      "name": "DEFAULT_ADMIN_ROLE",
      "outputs": [
        {
          "internalType": "bytes32",
          "name": "",
          "type": "bytes32"
        }
      ],
      "stateMutability": "view",
      "type": "function"
    },
    {
      "inputs": [],
      "name": "MAX_AGENTS",
      "outputs": [
        {
          "internalType": "uint256",
          "name": "",
          "type": "uint256"
        }
      ],
      "stateMutability": "view",
      "type": "function"
    },
    {
      "inputs": [],
      "name": "MINTING_FEE",
      "outputs": [
        {
          "internalType": "uint256",
          "name": "",
          "type": "uint256"
        }
      ],
      "stateMutability": "view",
      "type": "function"
    },
    {
      "inputs": [],
      "name": "PAUSER_ROLE",
      "outputs": [
        {
          "internalType": "bytes32",
          "name": "",
          "type": "bytes32"
        }
      ],
      "stateMutability": "view",
      "type": "function"
    },
    {
      "inputs": [],
      "name": "VERIFIER_ROLE",
      "outputs": [
        {
          "internalType": "bytes32",
          "name": "",
          "type": "bytes32"
        }
      ],
      "stateMutability": "view",
      "type": "function"
    },
    {
      "inputs": [
        {
          "internalType": "uint256",
          "name": "",
          "type": "uint256"
        }
      ],
      "name": "agentMemories",
      "outputs": [
        {
          "internalType": "bytes32",
          "name": "memoryCoreHash",
          "type": "bytes32"
        },
        {
          "internalType": "bytes32",
          "name": "currentDreamDailyHash",
          "type": "bytes32"
        },
        {
          "internalType": "bytes32",
          "name": "currentConvDailyHash",
          "type": "bytes32"
        },
        {
          "internalType": "bytes32",
          "name": "lastDreamMonthlyHash",
          "type": "bytes32"
        },
        {
          "internalType": "bytes32",
          "name": "lastConvMonthlyHash",
          "type": "bytes32"
        },
        {
          "internalType": "uint256",
          "name": "lastConsolidation",
          "type": "uint256"
        },
        {
          "internalType": "uint8",
          "name": "currentMonth",
          "type": "uint8"
        },
        {
          "internalType": "uint16",
          "name": "currentYear",
          "type": "uint16"
        }
      ],
      "stateMutability": "view",
      "type": "function"
    },
    {
      "inputs": [
        {
          "internalType": "uint256",
          "name": "",
          "type": "uint256"
        }
      ],
      "name": "agentPersonalities",
      "outputs": [
        {
          "internalType": "uint8",
          "name": "creativity",
          "type": "uint8"
        },
        {
          "internalType": "uint8",
          "name": "analytical",
          "type": "uint8"
        },
        {
          "internalType": "uint8",
          "name": "empathy",
          "type": "uint8"
        },
        {
          "internalType": "uint8",
          "name": "intuition",
          "type": "uint8"
        },
        {
          "internalType": "uint8",
          "name": "resilience",
          "type": "uint8"
        },
        {
          "internalType": "uint8",
          "name": "curiosity",
          "type": "uint8"
        },
        {
          "internalType": "string",
          "name": "dominantMood",
          "type": "string"
        },
        {
          "internalType": "uint256",
          "name": "lastDreamDate",
          "type": "uint256"
        }
      ],
      "stateMutability": "view",
      "type": "function"
    },
    {
      "inputs": [
        {
          "internalType": "uint256",
          "name": "",
          "type": "uint256"
        }
      ],
      "name": "agents",
      "outputs": [
        {
          "internalType": "address",
          "name": "owner",
          "type": "address"
        },
        {
          "internalType": "string",
          "name": "agentName",
          "type": "string"
        },
        {
          "internalType": "uint256",
          "name": "createdAt",
          "type": "uint256"
        },
        {
          "internalType": "uint256",
          "name": "lastUpdated",
          "type": "uint256"
        },
        {
          "internalType": "uint256",
          "name": "intelligenceLevel",
          "type": "uint256"
        },
        {
          "internalType": "uint256",
          "name": "dreamCount",
          "type": "uint256"
        },
        {
          "internalType": "uint256",
          "name": "conversationCount",
          "type": "uint256"
        },
        {
          "internalType": "bool",
          "name": "personalityInitialized",
          "type": "bool"
        },
        {
          "internalType": "uint256",
          "name": "totalEvolutions",
          "type": "uint256"
        },
        {
          "internalType": "uint256",
          "name": "lastEvolutionDate",
          "type": "uint256"
        }
      ],
      "stateMutability": "view",
      "type": "function"
    },
    {
      "inputs": [
        {
          "internalType": "uint256",
          "name": "tokenId",
          "type": "uint256"
        },
        {
          "internalType": "address",
          "name": "user",
          "type": "address"
        }
      ],
      "name": "authorizeUsage",
      "outputs": [],
      "stateMutability": "nonpayable",
      "type": "function"
    },
    {
      "inputs": [
        {
          "internalType": "uint256",
          "name": "tokenId",
          "type": "uint256"
        }
      ],
      "name": "authorizedUsersOf",
      "outputs": [
        {
          "internalType": "address[]",
          "name": "",
          "type": "address[]"
        }
      ],
      "stateMutability": "view",
      "type": "function"
    },
    {
      "inputs": [
        {
          "internalType": "address",
          "name": "owner",
          "type": "address"
        }
      ],
      "name": "balanceOf",
      "outputs": [
        {
          "internalType": "uint256",
          "name": "",
          "type": "uint256"
        }
      ],
      "stateMutability": "view",
      "type": "function"
    },
    {
      "inputs": [
        {
          "internalType": "uint256",
          "name": "tokenId",
          "type": "uint256"
        }
      ],
      "name": "canProcessDreamToday",
      "outputs": [
        {
          "internalType": "bool",
          "name": "canProcess",
          "type": "bool"
        }
      ],
      "stateMutability": "view",
      "type": "function"
    },
    {
      "inputs": [
        {
          "internalType": "uint256",
          "name": "tokenId",
          "type": "uint256"
        },
        {
          "internalType": "bytes32",
          "name": "dreamMonthlyHash",
          "type": "bytes32"
        },
        {
          "internalType": "bytes32",
          "name": "convMonthlyHash",
          "type": "bytes32"
        },
        {
          "internalType": "uint8",
          "name": "month",
          "type": "uint8"
        },
        {
          "internalType": "uint16",
          "name": "year",
          "type": "uint16"
        }
      ],
      "name": "consolidateMonth",
      "outputs": [],
      "stateMutability": "nonpayable",
      "type": "function"
    },
    {
      "inputs": [
        {
          "internalType": "uint256",
          "name": "",
          "type": "uint256"
        }
      ],
      "name": "consolidationStreak",
      "outputs": [
        {
          "internalType": "uint256",
          "name": "",
          "type": "uint256"
        }
      ],
      "stateMutability": "view",
      "type": "function"
    },
    {
      "inputs": [
        {
          "internalType": "uint256",
          "name": "tokenId",
          "type": "uint256"
        },
        {
          "internalType": "address",
          "name": "user",
          "type": "address"
        }
      ],
      "name": "emergencyAuthorizeUser",
      "outputs": [],
      "stateMutability": "nonpayable",
      "type": "function"
    },
    {
      "inputs": [
        {
          "internalType": "uint256",
          "name": "tokenId",
          "type": "uint256"
        },
        {
          "internalType": "address",
          "name": "to",
          "type": "address"
        }
      ],
      "name": "emergencyTransfer",
      "outputs": [],
      "stateMutability": "nonpayable",
      "type": "function"
    },
    {
      "inputs": [
        {
          "internalType": "uint256",
          "name": "tokenId",
          "type": "uint256"
        }
      ],
      "name": "getAgentMemory",
      "outputs": [
        {
          "components": [
            {
              "internalType": "bytes32",
              "name": "memoryCoreHash",
              "type": "bytes32"
            },
            {
              "internalType": "bytes32",
              "name": "currentDreamDailyHash",
              "type": "bytes32"
            },
            {
              "internalType": "bytes32",
              "name": "currentConvDailyHash",
              "type": "bytes32"
            },
            {
              "internalType": "bytes32",
              "name": "lastDreamMonthlyHash",
              "type": "bytes32"
            },
            {
              "internalType": "bytes32",
              "name": "lastConvMonthlyHash",
              "type": "bytes32"
            },
            {
              "internalType": "uint256",
              "name": "lastConsolidation",
              "type": "uint256"
            },
            {
              "internalType": "uint8",
              "name": "currentMonth",
              "type": "uint8"
            },
            {
              "internalType": "uint16",
              "name": "currentYear",
              "type": "uint16"
            }
          ],
          "internalType": "struct IPersonalityEvolution.AgentMemory",
          "name": "",
          "type": "tuple"
        }
      ],
      "stateMutability": "view",
      "type": "function"
    },
    {
      "inputs": [
        {
          "internalType": "uint256",
          "name": "tokenId",
          "type": "uint256"
        }
      ],
      "name": "getConsolidationReward",
      "outputs": [
        {
          "internalType": "uint256",
          "name": "baseReward",
          "type": "uint256"
        },
        {
          "internalType": "uint256",
          "name": "streakBonus",
          "type": "uint256"
        },
        {
          "internalType": "uint256",
          "name": "earlyBirdBonus",
          "type": "uint256"
        },
        {
          "internalType": "uint256",
          "name": "totalReward",
          "type": "uint256"
        }
      ],
      "stateMutability": "view",
      "type": "function"
    },
    {
      "inputs": [
        {
          "internalType": "uint256",
          "name": "tokenId",
          "type": "uint256"
        }
      ],
      "name": "getEvolutionStats",
      "outputs": [
        {
          "internalType": "uint256",
          "name": "totalEvolutions",
          "type": "uint256"
        },
        {
          "internalType": "uint256",
          "name": "evolutionRate",
          "type": "uint256"
        },
        {
          "internalType": "uint256",
          "name": "lastEvolution",
          "type": "uint256"
        }
      ],
      "stateMutability": "view",
      "type": "function"
    },
    {
      "inputs": [
        {
          "internalType": "uint256",
          "name": "tokenId",
          "type": "uint256"
        }
      ],
      "name": "getMemoryAccess",
      "outputs": [
        {
          "internalType": "uint256",
          "name": "monthsAccessible",
          "type": "uint256"
        },
        {
          "internalType": "string",
          "name": "memoryDepth",
          "type": "string"
        }
      ],
      "stateMutability": "view",
      "type": "function"
    },
    {
      "inputs": [
        {
          "internalType": "uint256",
          "name": "tokenId",
          "type": "uint256"
        }
      ],
      "name": "getPersonalityTraits",
      "outputs": [
        {
          "components": [
            {
              "internalType": "uint8",
              "name": "creativity",
              "type": "uint8"
            },
            {
              "internalType": "uint8",
              "name": "analytical",
              "type": "uint8"
            },
            {
              "internalType": "uint8",
              "name": "empathy",
              "type": "uint8"
            },
            {
              "internalType": "uint8",
              "name": "intuition",
              "type": "uint8"
            },
            {
              "internalType": "uint8",
              "name": "resilience",
              "type": "uint8"
            },
            {
              "internalType": "uint8",
              "name": "curiosity",
              "type": "uint8"
            },
            {
              "internalType": "string",
              "name": "dominantMood",
              "type": "string"
            },
            {
              "internalType": "uint256",
              "name": "lastDreamDate",
              "type": "uint256"
            },
            {
              "components": [
                {
                  "internalType": "string",
                  "name": "name",
                  "type": "string"
                },
                {
                  "internalType": "string",
                  "name": "description",
                  "type": "string"
                },
                {
                  "internalType": "uint8",
                  "name": "intensity",
                  "type": "uint8"
                },
                {
                  "internalType": "uint256",
                  "name": "addedAt",
                  "type": "uint256"
                }
              ],
              "internalType": "struct IPersonalityEvolution.UniqueFeature[]",
              "name": "uniqueFeatures",
              "type": "tuple[]"
            }
          ],
          "internalType": "struct IPersonalityEvolution.PersonalityTraits",
          "name": "",
          "type": "tuple"
        }
      ],
      "stateMutability": "view",
      "type": "function"
    },
    {
      "inputs": [
        {
          "internalType": "bytes32",
          "name": "role",
          "type": "bytes32"
        }
      ],
      "name": "getRoleAdmin",
      "outputs": [
        {
          "internalType": "bytes32",
          "name": "",
          "type": "bytes32"
        }
      ],
      "stateMutability": "view",
      "type": "function"
    },
    {
      "inputs": [
        {
          "internalType": "uint256",
          "name": "tokenId",
          "type": "uint256"
        }
      ],
      "name": "getUniqueFeatures",
      "outputs": [
        {
          "components": [
            {
              "internalType": "string",
              "name": "name",
              "type": "string"
            },
            {
              "internalType": "string",
              "name": "description",
              "type": "string"
            },
            {
              "internalType": "uint8",
              "name": "intensity",
              "type": "uint8"
            },
            {
              "internalType": "uint256",
              "name": "addedAt",
              "type": "uint256"
            }
          ],
          "internalType": "struct IPersonalityEvolution.UniqueFeature[]",
          "name": "features",
          "type": "tuple[]"
        }
      ],
      "stateMutability": "view",
      "type": "function"
    },
    {
      "inputs": [
        {
          "internalType": "bytes32",
          "name": "role",
          "type": "bytes32"
        },
        {
          "internalType": "address",
          "name": "account",
          "type": "address"
        }
      ],
      "name": "grantRole",
      "outputs": [],
      "stateMutability": "nonpayable",
      "type": "function"
    },
    {
      "inputs": [
        {
          "internalType": "uint256",
          "name": "tokenId",
          "type": "uint256"
        },
        {
          "internalType": "string",
          "name": "milestoneName",
          "type": "string"
        }
      ],
      "name": "hasMilestone",
      "outputs": [
        {
          "internalType": "bool",
          "name": "achieved",
          "type": "bool"
        },
        {
          "internalType": "uint256",
          "name": "at",
          "type": "uint256"
        }
      ],
      "stateMutability": "view",
      "type": "function"
    },
    {
      "inputs": [
        {
          "internalType": "bytes32",
          "name": "role",
          "type": "bytes32"
        },
        {
          "internalType": "address",
          "name": "account",
          "type": "address"
        }
      ],
      "name": "hasRole",
      "outputs": [
        {
          "internalType": "bool",
          "name": "",
          "type": "bool"
        }
      ],
      "stateMutability": "view",
      "type": "function"
    },
    {
      "inputs": [
        {
          "internalType": "uint256",
          "name": "",
          "type": "uint256"
        },
        {
          "internalType": "string",
          "name": "",
          "type": "string"
        }
      ],
      "name": "milestones",
      "outputs": [
        {
          "internalType": "bool",
          "name": "achieved",
          "type": "bool"
        },
        {
          "internalType": "uint256",
          "name": "achievedAt",
          "type": "uint256"
        },
        {
          "internalType": "uint8",
          "name": "traitValue",
          "type": "uint8"
        }
      ],
      "stateMutability": "view",
      "type": "function"
    },
    {
      "inputs": [
        {
          "internalType": "bytes[]",
          "name": "proofs",
          "type": "bytes[]"
        },
        {
          "internalType": "string[]",
          "name": "descriptions",
          "type": "string[]"
        },
        {
          "internalType": "string",
          "name": "agentName",
          "type": "string"
        },
        {
          "internalType": "address",
          "name": "to",
          "type": "address"
        }
      ],
      "name": "mintAgent",
      "outputs": [
        {
          "internalType": "uint256",
          "name": "tokenId",
          "type": "uint256"
        }
      ],
      "stateMutability": "payable",
      "type": "function"
    },
    {
      "inputs": [],
      "name": "name",
      "outputs": [
        {
          "internalType": "string",
          "name": "",
          "type": "string"
        }
      ],
      "stateMutability": "pure",
      "type": "function"
    },
    {
      "inputs": [
        {
          "internalType": "string",
          "name": "",
          "type": "string"
        }
      ],
      "name": "nameExists",
      "outputs": [
        {
          "internalType": "bool",
          "name": "",
          "type": "bool"
        }
      ],
      "stateMutability": "view",
      "type": "function"
    },
    {
      "inputs": [
        {
          "internalType": "uint256",
          "name": "tokenId",
          "type": "uint256"
        }
      ],
      "name": "needsConsolidation",
      "outputs": [
        {
          "internalType": "bool",
          "name": "isNeeded",
          "type": "bool"
        },
        {
          "internalType": "uint8",
          "name": "currentMonth",
          "type": "uint8"
        },
        {
          "internalType": "uint16",
          "name": "currentYear",
          "type": "uint16"
        }
      ],
      "stateMutability": "view",
      "type": "function"
    },
    {
      "inputs": [],
      "name": "nextTokenId",
      "outputs": [
        {
          "internalType": "uint256",
          "name": "",
          "type": "uint256"
        }
      ],
      "stateMutability": "view",
      "type": "function"
    },
    {
      "inputs": [
        {
          "internalType": "uint256",
          "name": "tokenId",
          "type": "uint256"
        }
      ],
      "name": "ownerOf",
      "outputs": [
        {
          "internalType": "address",
          "name": "",
          "type": "address"
        }
      ],
      "stateMutability": "view",
      "type": "function"
    },
    {
      "inputs": [
        {
          "internalType": "address",
          "name": "",
          "type": "address"
        }
      ],
      "name": "ownerToTokenId",
      "outputs": [
        {
          "internalType": "uint256",
          "name": "",
          "type": "uint256"
        }
      ],
      "stateMutability": "view",
      "type": "function"
    },
    {
      "inputs": [],
      "name": "pause",
      "outputs": [],
      "stateMutability": "nonpayable",
      "type": "function"
    },
    {
      "inputs": [],
      "name": "paused",
      "outputs": [
        {
          "internalType": "bool",
          "name": "",
          "type": "bool"
        }
      ],
      "stateMutability": "view",
      "type": "function"
    },
    {
      "inputs": [
        {
          "internalType": "uint256",
          "name": "",
          "type": "uint256"
        }
      ],
      "name": "pendingRewards",
      "outputs": [
        {
          "internalType": "uint256",
          "name": "intelligenceBonus",
          "type": "uint256"
        },
        {
          "internalType": "string",
          "name": "specialMilestone",
          "type": "string"
        },
        {
          "internalType": "bool",
          "name": "yearlyReflection",
          "type": "bool"
        }
      ],
      "stateMutability": "view",
      "type": "function"
    },
    {
      "inputs": [
        {
          "internalType": "uint256",
          "name": "tokenId",
          "type": "uint256"
        },
        {
          "internalType": "bytes32",
          "name": "dreamHash",
          "type": "bytes32"
        },
        {
          "components": [
            {
              "internalType": "int8",
              "name": "creativityChange",
              "type": "int8"
            },
            {
              "internalType": "int8",
              "name": "analyticalChange",
              "type": "int8"
            },
            {
              "internalType": "int8",
              "name": "empathyChange",
              "type": "int8"
            },
            {
              "internalType": "int8",
              "name": "intuitionChange",
              "type": "int8"
            },
            {
              "internalType": "int8",
              "name": "resilienceChange",
              "type": "int8"
            },
            {
              "internalType": "int8",
              "name": "curiosityChange",
              "type": "int8"
            },
            {
              "internalType": "string",
              "name": "moodShift",
              "type": "string"
            },
            {
              "internalType": "uint8",
              "name": "evolutionWeight",
              "type": "uint8"
            },
            {
              "components": [
                {
                  "internalType": "string",
                  "name": "name",
                  "type": "string"
                },
                {
                  "internalType": "string",
                  "name": "description",
                  "type": "string"
                },
                {
                  "internalType": "uint8",
                  "name": "intensity",
                  "type": "uint8"
                },
                {
                  "internalType": "uint256",
                  "name": "addedAt",
                  "type": "uint256"
                }
              ],
              "internalType": "struct IPersonalityEvolution.UniqueFeature[]",
              "name": "newFeatures",
              "type": "tuple[]"
            }
          ],
          "internalType": "struct IPersonalityEvolution.PersonalityImpact",
          "name": "impact",
          "type": "tuple"
        }
      ],
      "name": "processDailyDream",
      "outputs": [],
      "stateMutability": "nonpayable",
      "type": "function"
    },
    {
      "inputs": [
        {
          "internalType": "uint256",
          "name": "tokenId",
          "type": "uint256"
        },
        {
          "internalType": "bytes32",
          "name": "conversationHash",
          "type": "bytes32"
        },
        {
          "internalType": "enum IPersonalityEvolution.ContextType",
          "name": "contextType",
          "type": "uint8"
        }
      ],
      "name": "recordConversation",
      "outputs": [],
      "stateMutability": "nonpayable",
      "type": "function"
    },
    {
      "inputs": [
        {
          "internalType": "bytes32",
          "name": "role",
          "type": "bytes32"
        },
        {
          "internalType": "address",
          "name": "callerConfirmation",
          "type": "address"
        }
      ],
      "name": "renounceRole",
      "outputs": [],
      "stateMutability": "nonpayable",
      "type": "function"
    },
    {
      "inputs": [
        {
          "internalType": "uint256",
          "name": "",
          "type": "uint256"
        }
      ],
      "name": "responseStyles",
      "outputs": [
        {
          "internalType": "string",
          "name": "",
          "type": "string"
        }
      ],
      "stateMutability": "view",
      "type": "function"
    },
    {
      "inputs": [
        {
          "internalType": "bytes32",
          "name": "role",
          "type": "bytes32"
        },
        {
          "internalType": "address",
          "name": "account",
          "type": "address"
        }
      ],
      "name": "revokeRole",
      "outputs": [],
      "stateMutability": "nonpayable",
      "type": "function"
    },
    {
      "inputs": [
        {
          "internalType": "bytes4",
          "name": "id",
          "type": "bytes4"
        }
      ],
      "name": "supportsInterface",
      "outputs": [
        {
          "internalType": "bool",
          "name": "",
          "type": "bool"
        }
      ],
      "stateMutability": "view",
      "type": "function"
    },
    {
      "inputs": [],
      "name": "symbol",
      "outputs": [
        {
          "internalType": "string",
          "name": "",
          "type": "string"
        }
      ],
      "stateMutability": "pure",
      "type": "function"
    },
    {
      "inputs": [],
      "name": "totalAgents",
      "outputs": [
        {
          "internalType": "uint256",
          "name": "",
          "type": "uint256"
        }
      ],
      "stateMutability": "view",
      "type": "function"
    },
    {
      "inputs": [],
      "name": "totalFeesCollected",
      "outputs": [
        {
          "internalType": "uint256",
          "name": "",
          "type": "uint256"
        }
      ],
      "stateMutability": "view",
      "type": "function"
    },
    {
      "inputs": [],
      "name": "totalSupply",
      "outputs": [
        {
          "internalType": "uint256",
          "name": "",
          "type": "uint256"
        }
      ],
      "stateMutability": "view",
      "type": "function"
    },
    {
      "inputs": [
        {
          "internalType": "address",
          "name": "to",
          "type": "address"
        },
        {
          "internalType": "uint256",
          "name": "tokenId",
          "type": "uint256"
        },
        {
          "internalType": "bytes[]",
          "name": "",
          "type": "bytes[]"
        }
      ],
      "name": "transfer",
      "outputs": [],
      "stateMutability": "nonpayable",
      "type": "function"
    },
    {
      "inputs": [],
      "name": "treasury",
      "outputs": [
        {
          "internalType": "address",
          "name": "",
          "type": "address"
        }
      ],
      "stateMutability": "view",
      "type": "function"
    },
    {
      "inputs": [],
      "name": "unpause",
      "outputs": [],
      "stateMutability": "nonpayable",
      "type": "function"
    },
    {
      "inputs": [
        {
          "internalType": "uint256",
          "name": "tokenId",
          "type": "uint256"
        },
        {
          "internalType": "bytes32",
          "name": "newHash",
          "type": "bytes32"
        }
      ],
      "name": "updateMemoryCore",
      "outputs": [],
      "stateMutability": "nonpayable",
      "type": "function"
    },
    {
      "inputs": [],
      "name": "verifier",
      "outputs": [
        {
          "internalType": "contract IERC7857DataVerifier",
          "name": "",
          "type": "address"
        }
      ],
      "stateMutability": "view",
      "type": "function"
    }
  ],
  "transactionHash": "0xe0e59b1b80c54d16dc67d6eb65fa7d928d57d0484d8f152d594536b977d4fe70",
  "args": [
    "0x3ab9784ac2D04D1f1aAd0B435b61e456d0744cA4",
    "0x0f13e85B575964B8b4b77E37d43A6aE9E354e94C"
  ],
  "numDeployments": 8,
  "solcInputHash": "a52dbeb0ee01258ae7b7fb18a33028bb",
  "bytecode": "0x60c0346200013357601f620063ae38819003918201601f19168301916001600160401b038311848410176200013857808492604094855283398101031262000133576200005a602062000052836200014e565b92016200014e565b9060016000556001600c556000600d556000600e5560018060a01b039182811615620000ee576080521660a052620000923362000163565b506200009e33620001e4565b50620000aa3362000287565b50620000b63362000325565b50604051615fca9081620003c48239608051818181612ae601526134f3015260a051818181612fa30152818161388401526141e20152f35b60405162461bcd60e51b815260206004820152601460248201527f7472656173757279203d207a65726f20616464720000000000000000000000006044820152606490fd5b600080fd5b634e487b7160e01b600052604160045260246000fd5b51906001600160a01b03821682036200013357565b6001600160a01b031660008181527fa6eef7e35abe7026729641147f7915573c7e97b47efa546f5f6e3230263bcb49602052604081205490919060ff16620001e05781805260016020526040822081835260205260408220600160ff1982541617905533916000805160206200638e8339815191528180a4600190565b5090565b6001600160a01b031660008181527f50efbde2d46c37e9785f1791697f77e94bb7b701e19f1930a668820722d3769460205260408120549091907fa49807205ce4d355092ef5a8a18f56e8913cf4a201fbe287825b095693c217759060ff16620002825780835260016020526040832082845260205260408320600160ff198254161790556000805160206200638e833981519152339380a4600190565b505090565b6001600160a01b031660008181527fb4fd2442cb0653849f414a2f81c1eb01ec27a0fc1bb28000d4ca51d98b75fd0360205260408120549091907f0ce23c3e399818cfee81a7ab0880f714e53d7672b08df0fa62f2843416e1ea099060ff16620002825780835260016020526040832082845260205260408320600160ff198254161790556000805160206200638e833981519152339380a4600190565b6001600160a01b031660008181527fb9cbbae02fe941283ec0eefd7b121e3bc7f89fae077b27bdd75a7fd4cf1543a860205260408120549091907f65d7a28e3265b37a6474929f336521b332c1681b933f6cb9f3376673440d862a9060ff16620002825780835260016020526040832082845260205260408320600160ff198254161790556000805160206200638e833981519152339380a460019056fe608080604052600436101561001357600080fd5b60003560e01c90816301ffc9a7146145bc5750806306fdde031461456c578063140b79c81461454057806318160ddd146107ca5780631aeb542f146144c85780631f2e589e1461441f578063248a9ca3146143f05780632980471d146142115780632b7ac3f3146141cc5780632f2ff15d1461418d5780633326ed821461403a578063359bf14314613f4a57806336568abe14613f035780633db43fb314613d895780633f4ba83a14613d1f5780634814f03514613ce55780634eb22e9e14613c415780634f6ed44c14612e84578063513856c814612dc05780635436972c14612d765780635561991114612c7357806358c812aa14612c005780635c975abb14612bdd5780635e1d7c2e14612b5f5780635f292a3214612b3357806360c6d8ae14612b1557806361d027b314612ad05780636352211e14612a9c5780636a7468e9146128995780636d9dfd89146111f557806370a082311461116c57806375794a3c1461114e57806375b238fc146111255780637dcb2abf146110b757806382ca08ae14610ad25780638456cb5914610a78578063877789b91461094957806391d14854146108fc57806395d89b41146108b6578063a217fddf1461089a578063ab30be871461087d578063b7125e9b146107e8578063c5053712146107ca578063cc637afe14610769578063d547741f1461072a578063d642b4b114610707578063da97ca09146105e5578063df02defc1461057f578063dfdad7de14610410578063e32b178d14610369578063e63ab1e91461032e578063e7705db6146102f35763fa83d14e1461026657600080fd5b346102ee5760403660031901126102ee576102b46004356102856146a1565b9080600052600360205260018060a01b0360406000205416331480156102b6575b6102af90615264565b6152bb565b005b503360009081527f50efbde2d46c37e9785f1791697f77e94bb7b701e19f1930a668820722d37694602052604090205460ff166102a6565b600080fd5b346102ee5760003660031901126102ee5760206040517f0ce23c3e399818cfee81a7ab0880f714e53d7672b08df0fa62f2843416e1ea098152f35b346102ee5760003660031901126102ee5760206040517f65d7a28e3265b37a6474929f336521b332c1681b933f6cb9f3376673440d862a8152f35b346102ee576020806003193601126102ee57600435606061010060405161038f8161480b565b600081526000858201526000604082015260008382015260006080820152600060a08201528260c0820152600060e0820152015280600052600382526103e360018060a01b036040600020541615156151d1565b600052600681526103f76040600020614fbb565b9061040c6040519282849384528301906149e9565b0390f35b346102ee5760603660031901126102ee576104296146b7565b6024356044356001600160401b0381116102ee5761044b903690600401614899565b50508060005260206003815260018060a01b038093816040600020541633148015610551575b61047a90615264565b169261048784151561537d565b836000526005825260406000205461051457907f0ea8df787dde63a7bdc34d17097adf25749a3521f660e92dabdff8d6ee91d18a9183600052600382526040600020541692836000526005825260006040812055846000528060406000205580600052600382526040600020856001600160601b0360a01b825416178155600342910155604051908152a3005b60405162461bcd60e51b81526004810183905260156024820152741d1bc8185b1c9958591e481bdddb9cc81859d95b9d605a1b6044820152606490fd5b50600080516020615f758339815191526000908152600184526040808220338352855290205460ff16610471565b346102ee5760203660031901126102ee576004356000818152600360205260409020546105b6906001600160a01b031615156151d1565b600052600660205261040c6105d16003604060002001614f1c565b60405191829160208352602083019061495f565b346102ee576020806003193601126102ee5761010090600435600060e060405161060e816147b8565b82815282858201528260408201528260608201528260808201528260a08201528260c08201520152806000526003825261065660018060a01b036040600020541615156151d1565b6000526007815260406000209060405191610670836147b8565b60ff81549384815260018301549284820193845260028101546040830190815260038201546060840190815260048301549160808501928352600660058501549460a0870195865201549760e060c0870196888b168852019761ffff809a60081c1689526040519a8b5251908a01525160408901525160608801525160808701525160a0860152511660c0840152511660e0820152f35b346102ee5760003660031901126102ee57602060405167016345785d8a00008152f35b346102ee5760403660031901126102ee576102b46004356107496146a1565b90806000526001602052610764600160406000200154614b2f565b614bd5565b346102ee5760203660031901126102ee576004356001600160401b0381116102ee5760ff6107b460206107a1819436906004016148e4565b8160405193828580945193849201614659565b8101600481520301902054166040519015158152f35b346102ee5760003660031901126102ee576020600d54604051908152f35b346102ee5760203660031901126102ee5760043560008181526003602052604090205461081f906001600160a01b031615156151d1565b600052600660205260e06108366040600020614fbb565b01518015801561084e575b6020906040519015158152f35b5062015180810180911161086757602090421015610841565b634e487b7160e01b600052601160045260246000fd5b346102ee5760003660031901126102ee5760206040516103e88152f35b346102ee5760003660031901126102ee57602060405160008152f35b346102ee5760003660031901126102ee5761040c6040516108d681614842565b6005815264445245414d60d81b602082015260405191829160208352602083019061467c565b346102ee5760403660031901126102ee576109156146a1565b600435600052600160205260406000209060018060a01b0316600052602052602060ff604060002054166040519015158152f35b346102ee576020806003193601126102ee576004356000818152600383526040902054610980906001600160a01b031615156151d1565b6000908152600982526040902054600c8110610a5057506005905b6007815260406000206040516109b0816147b8565b8154815260018201548382015260028201546040820152600382015460608201526004820154608082015260e061ffff60066005850154948560a0860152015460ff811660c085015260081c169101526203f4808101809111610867574211610a48576001915b80600201928360021161086757610a3081608095614e84565b91604051936002855284015260408301526060820152f35b600091610a17565b60068110610a61575060039061099b565b600311610a705760019061099b565b60009061099b565b346102ee5760003660031901126102ee57610a91614ad3565b610a99614ec1565b600160ff1960025416176002557f62e78cea01bee320cd4e420270b5ea74000d11b0c9f74754ebdbfc544b05a2586020604051338152a1005b346102ee5760a03660031901126102ee5760043560643560ff81168091036102ee576084359061ffff908183168093036102ee57610b0e614ec1565b8360005260039160209280845260018060a01b036040600020541633148015611087575b8015611072575b610b4290614edf565b600183101580611067575b15611032576107e885101580611026575b15610ff2578560005260078452604060002091856006840154918560ff84161492831593610fe2575b50505015610fa757602490813581840155604435600484015560059283429101558660005260098552604060002080549060018201809211610f6f575560008781526009865260409020546002908290600c8110610f84575050838101809111610f5a575b876000526007865283604060002001546203f4808101809111610f6f57421115610f4d575b610c1a88615748565b91886000528087528460406000200193845495610c378488614e84565b80965560405192610c47846147d4565b604051610c5381614842565b60078152664a616e7561727960c81b8b8201528452604051610c7481614842565b6008815267466562727561727960c01b8b8201528a850152604051610c9881614842565b8281526409ac2e4c6d60db1b8b8201526040850152604051610cb981614842565b82815264105c1c9a5b60da1b8b820152606085015260405190610cdb82614842565b8152624d617960e81b8a8201526080840152604051610cf981614842565b60048152634a756e6560e01b8a82015260a0840152604051610d1a81614842565b60048152634a756c7960e01b8a82015260c0840152604051610d3b81614842565b6006815265105d59dd5cdd60d21b8a82015260e0840152604051610d5e81614842565b600981526829b2b83a32b6b132b960b91b8a820152610100840152604051610d8581614842565b600781526627b1ba37b132b960c91b8a820152610120840152604051610daa81614842565b60088152672737bb32b6b132b960c11b8a820152610140840152604051610dd081614842565b60088152672232b1b2b6b132b960c11b8a82015261016084015260001988019160ff8311610f3957600c60ff84161015610f2557507f06f9bc160d6aa05f662af6ffef695374f8b5bfc09362dcd998b9deb9c1436519610ebb8b610ecb8c8f9a9699604099610ea8600c9f9e9a610e648f9a91600080516020615f558339815191529f611fe0906021941b16015197615e52565b968d519781610e7c8a935180928a8087019101614659565b8201600160fd1b88820152610e99825180938a8785019101614659565b01036001810188520186614878565b8a5195869560608752606087019061467c565b928501528382038a85015261467c565b0390a2825191825287820152a214610edf57005b7fae7fce676281a763ee71049f846d28ee4796c9195fd81fc1c7e78fbae4a4d4759183600052600882526002604060002001600160ff19825416179055604051908152a2005b634e487b7160e01b60009081526032600452fd5b634e487b7160e01b60009081526011600452fd5b6001810180911115610c11575b82634e487b7160e01b60005260116004526000fd5b83634e487b7160e01b60005260116004526000fd5b60068110610f9b57508101809111610f5a57610bec565b10610bec575080610bec565b60405162461bcd60e51b81526004810185905260136024820152720e6e8d2d8d840c6eae4e4cadce840dadedce8d606b1b6044820152606490fd5b60081c1614159050858880610b87565b60405162461bcd60e51b815260048101859052600c60248201526b34b73b30b634b2103cb2b0b960a11b6044820152606490fd5b50610834851115610b5e565b60405162461bcd60e51b815260048101859052600d60248201526c0d2dcecc2d8d2c840dadedce8d609b1b6044820152606490fd5b50600c831115610b4d565b50610b4261108033886153b5565b9050610b39565b50600080516020615f7583398151915260005260018452604060002033600052845260ff60406000205416610b32565b346102ee5760203660031901126102ee5760043560005260086020526040600020805460ff6002604051936110fa856110f38160018501614707565b0386614878565b015416611119604051938493845260606020850152606084019061467c565b90151560408301520390f35b346102ee5760003660031901126102ee576020604051600080516020615f758339815191528152f35b346102ee5760003660031901126102ee576020600c54604051908152f35b346102ee5760203660031901126102ee576001600160a01b0361118d6146b7565b1680156111c3576000526005602052604060002054156000146111ba57602060005b60ff60405191168152f35b602060016111af565b60405162461bcd60e51b815260206004820152600a6024820152693d32b9379037bbb732b960b11b6044820152606490fd5b346102ee576003196060368201126102ee576001600160401b03604435116102ee5761012090604435360301126102ee5761122e614ec1565b600435600052600360205260018060a01b036040600020541633148015612861575b801561284a575b61126090614edf565b60ff61127060e460443501615109565b1615158061282f575b156127f45761129260c46044350160443560040161503f565b9050156127c25760046044350135600081900b90036102ee576112ba60443560040135615415565b8061279b575b8061277c575b8061275c575b8061273c575b8061271c575b156126e55760026112f461010460443501604435600401615071565b9050116126a05760005b61131361010460443501604435600401615071565b9050811015611474576113506113476113418361133b61010460443501604435600401615071565b906150a6565b8061503f565b905015156150c8565b61137661136c8261133b61010460443501604435600401615071565b602081019061503f565b90501561142f5760ff6113a3604061139d8461133b61010460443501604435600401615071565b01615109565b16151580611404575b156113bf576113ba90614cb5565b6112fe565b60405162461bcd60e51b815260206004820152601e60248201527f6665617475726520696e74656e73697479206f7574206f662072616e676500006044820152606490fd5b50606460ff611427604061139d8561133b61010460443501604435600401615071565b1611156113ac565b60405162461bcd60e51b815260206004820152601960248201527f66656174757265206465736372697074696f6e20656d707479000000000000006044820152606490fd5b60043560005260036020526040600020600660205260406000209060028201548015908115612688575b50156126535760068101546001810181116108675760010160068201554260038201554260028301556004356000526007602052600160406000200180549060243590556040519060608252600b60608301526a647265616d5f6461696c7960a81b6080830152602435602083015260408201527f10c6861248a0d0f4376512cb8e7482a88a8865601494eb1fd99ec02dfc29583360a060043592a26115456004356155e6565b6006810154600381061561260c575b600590061561159a575b6005015460405190602435825260208201527f871f9739b79e9efd6285318758001f00502185ff0d254a080922cd80580c3e02604060043592a2005b6115a382614fbb565b825460ff6115b960443560040135828416615431565b1660ff1982168117855560246044350135600081900b90036102ee5761160b916115f591604435602401359160ff19161760081c60ff16615431565b845461ff00191660089190911b61ff0016178455565b8254604480350135600081900b90036102ee5761163761164f9160ff6044803501359160101c16615431565b845462ff0000191660109190911b62ff000016178455565b825460443560640135600081900b90036102ee5761167d6116979160ff606460443501359160181c16615431565b845463ff000000191660189190911b63ff00000016178455565b825460201c60ff1660443560840135600081900b90036102ee576116c56116e1916084604435013590615431565b845464ff00000000191660209190911b64ff0000000016178455565b825460443560a40135600081900b90036102ee5761170f61172d9160ff60a460443501359160281c16615431565b845465ff0000000000191660289190911b65ff000000000016178455565b61174160c46044350160443560040161503f565b906001600160401b03821161212057819061176c8261176360018901546146cd565b60018901614cef565b600090601f831160011461259b57600092612590575b50508160011b916000199060031b1c19161760018401555b6117af61010460443501604435600401615071565b9050612305575b600982015460018101811161086757600101600983015542600a83015560606117de84614fbb565b91605560ff60408301511610806122f3575b6122b4575b60ff605a928284838195511610806122a7575b61226b575b8383602083015116108061225b575b612221575b01511610908161220f575b506121cf575b603c60ff8251161190816121bc575b816121a9575b81612196575b81612183575b81612170575b5080612136575b611fc2575b600435600052600660205261187d6040600020614fbb565b6046908160ff60408301511611808091611fb4575b15611e63575050506040516118a681614842565b6013815272656d70617468657469635f637265617469766560681b60208201525b600435600052600b6020526118e96118f0604060002060405192838092614707565b0382614878565b602081519101208151602083012003611b38575b50604051916040835260ff81548181166040860152818160081c166060860152818160101c166080860152818160181c1660a0860152818160201c1660c086015260281c1660e0840152610120610100840152611968610160840160018301614707565b6002820154610120850152603f198482030161014085015260038201548082526020820191600360208360051b83010194016000526020600020926000915b838310611ad957505050505082810360208401526044356004013560000b81526024604435013560000b602082015260448035013560000b60408201526064604435013560000b60608201526084604435013560000b608082015260a4604435013560000b60a0820152611a3b611a2860c460443501604435600401614c84565b61012060c0850152610120840191614c63565b9260ff611a4c60e460443501614951565b1660e0830152604435610104810135903603602219018112156102ee576044350191602460048401359301916001600160401b0384116102ee578360051b360383136102ee5780611ad187846101007fc8bec314a35b40dea82669a3be2a9d776d7ba0edda16488c7d3421e696f3a07b9660059b039101526024359660043596615117565b0390a361155e565b909192939460206004600192601f1985820301865260808152611b11611b02608083018b614707565b82810385840152858b01614707565b9060ff60028b0154166040820152606060038b0154910152970193019301919392906119a7565b600435600052600b6020526118e9611b5a604060002060405192838092614707565b600435600052600b602052611b73826040600020614d36565b7f90f9e809e3805f30ac3fc3562ac1fb69527e27e23e063a99f43a92343f35c9d2611ba96040519260408452604084019061467c565b91808303602082015280611bc0600435948661467c565b0390a26004356000526006602052611bdb6040600020614fbb565b9060ff60a060405193611bed85614827565b82815116855282602082015116602086015282604082015116604086015282606082015116606086015282608082015116608086015201511660a0830152604051611c3781614827565b604051611c4381614842565b600a8152696372656174697669747960b01b60208201528152611c6461548d565b6020820152604051611c7581614842565b6007815266656d706174687960c81b60208201526040820152604051611c9a81614842565b600981526834b73a3ab4ba34b7b760b91b60208201526060820152604051611cc181614842565b600a815269726573696c69656e636560b01b60208201526080820152604051611ce981614842565b6009815268637572696f7369747960b81b602082015260a082015260405192611d11846147f0565b6003845260005b60608110611e52575060005b60038110611dd057505050611d446040519160408352604083019061467c565b8181036020830152825180825260208201916020808360051b8301019501926000915b838310611da3575050505050807fff8866d78ff3fc4f37232c9d6da12c9b2168edd42074faa52ea90054f0abcf6d91600435930390a282611904565b9091929395602080611dc1600193601f198682030187528a5161467c565b98019301930191939290611d67565b600060015b60068110611e1a5750906000611e0f83611df2611e1595886154b3565b51611dfd858b614cc4565b52611e08848a614cc4565b50856154b3565b52614cb5565b611d24565b60ff611e2682866154b3565b511660ff611e3484876154b3565b511610611e4a575b611e4590614cb5565b611dd5565b905080611e3c565b806060602080938801015201611d18565b15611e92575050604051611e7681614842565b600a815269656d706174686574696360b01b60208201526118c7565b8160ff82511611600014611ec8575050604051611eae81614842565b6008815267637265617469766560c01b60208201526118c7565b8160ff60208301511611600014611ee8575050611ee361548d565b6118c7565b8160ff60608301511611600014611f22575050604051611f0781614842565b6009815268696e7475697469766560b81b60208201526118c7565b8160ff60808301511611600014611f5c575050604051611f4181614842565b60098152681c995cda5b1a595b9d60ba1b60208201526118c7565b60a0015160ff161115611f8e57604051611f7581614842565b6007815266637572696f757360c81b60208201526118c7565b604051611f9a81614842565b600881526718985b185b98d95960c21b60208201526118c7565b50603c60ff83511611611892565b604051611fce81614842565b600d81526c18985b185b98d95917dcdbdd5b609a1b6020820152604051611ff48161479d565b6001815260ff600260208301924284526040810193603c8552600435600052600a60205261203f61202960406000208861492b565b92511515839060ff801983541691151516179055565b5160018201550191511660ff198254161790556004356000526003602052600b6040600020018054600160401b81101561212057612082916001820181556152a3565b61210a578161209091614d36565b60405160608152600080516020615f358339815191526120b3606083018461467c565b91603c6020820152600081840393846040840152526020600435930190a2600080516020615f158339815191526120f56040519260408452604084019061467c565b91603c602082015280600435930390a2611865565b634e487b7160e01b600052600060045260246000fd5b634e487b7160e01b600052604160045260246000fd5b50600435600052600a60205260ff602d6040600020604051906c18985b185b98d95917dcdbdd5b609a1b8252600d82015220541615611860565b603c915060a060ff910151161183611859565b9050603c60ff6080830151161190611853565b9050603c60ff606083015116119061184d565b9050603c60ff6040830151161190611847565b9050603c60ff6020830151161190611841565b61220a60ff6060830151166040516121e681614842565b600f81526e73706972697475616c5f677569646560881b60208201526004356154c4565b611832565b905060ff60608301511610158461182c565b6122568360208801511660405161223781614842565b600a8152691b1bd9da58d7db1bdc9960b21b60208201526004356154c4565b611821565b508383602088015116101561181c565b6122a28387511660405161227e81614842565b600f81526e63726561746976655f67656e69757360881b60208201526004356154c4565b61180d565b5083838751161015611808565b6122ee60ff6040850151166040516122cb81614842565b600e81526d32b6b830ba343cafb6b0b9ba32b960911b60208201526004356154c4565b6117f5565b50605560ff60408501511610156117f0565b90600261231d61010460443501604435600401615071565b90501161254b5760005b61233c61010460443501604435600401615071565b90508110156124e2576123646113476113418361133b61010460443501604435600401615071565b60ff612384604061139d8461133b61010460443501604435600401615071565b161515806124b7575b1561247e576123ab8161133b61010460443501604435600401615071565b906080823603126102ee57604051916123c3836147f0565b80356001600160401b0381116102ee576123e090369083016148e4565b835260208101356001600160401b0381116102ee5761241391612408604092369083016148e4565b602086015201614951565b60408301524260608301526003850154600160401b8110156121205760018101806003880155811015612468576124639261245e916003880160005260206000209060021b01614e46565b614cb5565b612327565b634e487b7160e01b600052603260045260246000fd5b60405162461bcd60e51b8152602060048201526011602482015270696e76616c696420696e74656e7369747960781b6044820152606490fd5b50606460ff6124da604061139d8561133b61010460443501604435600401615071565b16111561238d565b50907f56c85a45a366fc3081186d763cd16834a63c469f3480f94a9d5f5b937c2e6fb661251a61010460443501604435600401615071565b61253860038794939401549360405192604084526040840191615117565b92602082015280600435930390a26117b6565b60405162461bcd60e51b815260206004820152601860248201527f6d617820322066656174757265732070657220647265616d00000000000000006044820152606490fd5b013590508580611782565b909250600186016000526020600020906000935b601f19841685106125f4576001945083601f198116106125da575b505050811b01600184015561179a565b0135600019600384901b60f8161c191690558580806125ca565b818101358355602094850194600190930192016125af565b600582015490600182018211610867578160016005930183850155600160405191808352016020820152600080516020615f55833981519152604060043592a29050611554565b60405162461bcd60e51b815260206004820152600d60248201526c0c6deded8c8deeedc40786468d609b1b6044820152606490fd5b9050620151808101809111610867574210158361149e565b60405162461bcd60e51b815260206004820152601960248201527f6d617820322066656174757265732070657220696d70616374000000000000006044820152606490fd5b60405162461bcd60e51b815260206004820152600f60248201526ece94206f7574206f662072616e676560881b6044820152606490fd5b5060a460443501358060000b81036102ee5761273790615415565b6112d8565b50608460443501358060000b81036102ee5761275790615415565b6112d2565b50606460443501358060000b81036102ee5761277790615415565b6112cc565b506044803501358060000b81036102ee5761279690615415565b6112c6565b5060443560240135600081900b90036102ee576127bd60246044350135615415565b6112c0565b60405162461bcd60e51b815260206004820152600a602482015269195b5c1d1e481b5bdbd960b21b6044820152606490fd5b60405162461bcd60e51b8152602060048201526013602482015272776569676874206f7574206f662072616e676560681b6044820152606490fd5b50606460ff61284260e460443501615109565b161115611279565b5061126061285a336004356153b5565b9050611257565b503360009081527f50efbde2d46c37e9785f1791697f77e94bb7b701e19f1930a668820722d37694602052604090205460ff16611250565b346102ee576020806003193601126102ee5760043560008181526003835260409020546128d0906001600160a01b031615156151d1565b6000908152600382526040902060050154603c811061293b5750603c61040c6040516128fb81614842565b601881527f3520796561727320636f6d706c65746520617263686976650000000000000000848201525b604080519485948552840152604083019061467c565b6030811061296d5750603061040c60405161295581614842565b60078152663420796561727360c81b84820152612925565b6024811061299f5750602461040c60405161298781614842565b60078152663320796561727360c81b84820152612925565b601881106129d15750601861040c6040516129b981614842565b60078152663220796561727360c81b84820152612925565b600c8110612a025750600c61040c6040516129eb81614842565b6006815265185b9b9d585b60d21b84820152612925565b60068110612a365750600661040c604051612a1c81614842565b60098152683430b63316bcb2b0b960b91b84820152612925565b600311612a6857600361040c604051612a4e81614842565b6009815268717561727465726c7960b81b84820152612925565b600161040c604051612a7981614842565b601281527163757272656e74206d6f6e7468206f6e6c7960701b84820152612925565b346102ee5760203660031901126102ee576004356000526003602052602060018060a01b0360406000205416604051908152f35b346102ee5760003660031901126102ee576040517f00000000000000000000000000000000000000000000000000000000000000006001600160a01b03168152602090f35b346102ee5760003660031901126102ee576020600e54604051908152f35b346102ee5760203660031901126102ee5760043560005260096020526020604060002054604051908152f35b346102ee5760203660031901126102ee576004356000526007602052610100604060002061ffff815491600181015490600281015460038201546004830154916006600585015494015494604051978852602088015260408701526060860152608085015260a084015260ff811660c084015260081c1660e0820152f35b346102ee5760003660031901126102ee57602060ff600254166040519015158152f35b346102ee5760403660031901126102ee576024356001600160401b0381116102ee57612c4b612c3560609236906004016148e4565b600435600052600a60205260406000209061492b565b60ff8154169060ff600260018301549201541690604051921515835260208301526040820152f35b346102ee5760403660031901126102ee57600435612c8f6146a1565b90612c98614a6b565b6001600160a01b0391821691612caf83151561537d565b8260005260209060058252604060002054612d3f57907f0ea8df787dde63a7bdc34d17097adf25749a3521f660e92dabdff8d6ee91d18a9183600052600382526040600020541692836000526005825260006040812055846000528060406000205580600052600382526040600020856001600160601b0360a01b825416178155600342910155604051908152a3005b60405162461bcd60e51b815260048101839052600f60248201526e746f20616c7265616479206f776e7360881b6044820152606490fd5b346102ee5760203660031901126102ee57600435600052600b60205261040c6118e9612dac604060002060405192838092614707565b60405191829160208352602083019061467c565b346102ee5760203660031901126102ee576004356000526003602052604060002060018060a01b0381541660405191612e0783612e008160018501614707565b0384614878565b6002810154906003810154906005810154600682015460078301549060ff60088501541692600a600986015495015495612e536040519a8b9a8b526101408060208d01528b019061467c565b9760408a01526060890152608088015260a087015260c0860152151560e08501526101008401526101208301520390f35b60803660031901126102ee576004356001600160401b0381116102ee57612eaf903690600401614899565b906024356001600160401b0381116102ee57612ecf903690600401614899565b91906044356001600160401b0381116102ee57612ef09036906004016148e4565b606435949093906001600160a01b03861686036102ee57600260005414613c2f576002600055612f1e614ec1565b6001600160a01b03861615613bf8576001600160a01b038616600090815260056020526040902054613bb3576103e8600d541015613b795784518015159081613b6d575b5015613b3a5760ff6040516020818851612f7f8183858d01614659565b810160048152030190205416613b075767016345785d8a00003410613ad3576060937f00000000000000000000000000000000000000000000000000000000000000006001600160a01b031661382a575b50506040516020818651612fe78183858b01614659565b81016004815203019020600160ff19825416179055600c549361300985614cb5565b600c5560018060a01b0386166000526005602052846040600020556040516130308161485d565b60008152604051906130418261485d565b6000825260405192613052846147d4565b60018060a01b038916845260208401524260408401524260608401526080830152600160a0830152600060c0830152600060e0830152600161010083015260006101208301524261014083015261016082015284600052600360205260406000209060018060a01b038151166001600160601b0360a01b8354161782556130e0602082015160018401614d36565b604081015160028301556060810151600383015560808101518051906001600160401b03821161212057600160401b821161212057602090600485015483600487015580841061380a575b500160048401600052602060002060005b8381106137ed57505050508060a0610160920151600584015560c0810151600684015560e081015160078401556131896101008201511515600885019060ff801983541691151516179055565b6101208101516009840155610140810151600a840155015190815191600160401b831161212057600b82015483600b8401558084106137ba575b506020600b9101910160005260206000206000915b83831061379d57505050506040516131ef8161485d565b60008152604051906132008261480b565b6032825260326020830152603260408301526032606083015260326080830152603260a083015260405161323381614842565b60078152661b995d5d1c985b60ca1b602082015260c0830152600060e0830152610100820152846000526006602052604060002060ff82511660ff1982541617815561329760ff602084015116829061ff0082549160081b169061ff001916179055565b6040820151815462ff0000191660109190911b62ff0000161781556060820151815463ff000000191660189190911b63ff000000161781556080820151815464ff00000000191660209190911b64ff000000001617815560a0820151815465ff0000000000191660289190911b65ff00000000001617815561332060c083015160018301614d36565b60e0820151600282015561010082015190815191600160401b8311612120576003820154836003840155808410613732575b5090600360208995949301910160005260206000206000915b83831061370a57505050506133e17f84b741ef7c940b4463796b0578f5f6b9d29c8193517e2da1a67f0b07fb8115b99183600052600b60205260406000206133b381546146cd565b601f81116136e8575b50600e661b995d5d1c985b60ca1b0190556040519182916040835260408301906149e9565b600060208301520390a26134ba6133f6615e1e565b61ffff613401615e38565b60ff60405193613410856147b8565b60008552600060208601526000604086015260006060860152600060808601524260a08601521660c08401521660e082015285600052600760205261ffff60e060066040600020845181556020850151600182015560408501516002820155606085015160038201556080850151600482015560a08501516005820155019260ff60c08201511660ff1985541617845501511662ffff0082549160081b169062ffff001916179055565b600d546001810180911161086757600d55600e5467016345785d8a0000810180911161086757600e55600080808067016345785d8a00007f00000000000000000000000000000000000000000000000000000000000000005af161351c614e91565b50156136a35767016345785d8a00003411613645575b9190604051926040840160408552835180915260206060860194019060005b81811061362f575050508383036020850152808352602083019260208260051b82010193836000925b8484106135f7576020896001600160a01b038c1633827f531bd8ca2b17505aaa50d843fabe2dfd9a3bb9e20c511d2288b24bd484861b028d8d038ea460405167016345785d8a00008152817f6fe296e805108cd514fea415210be4016149b01eeb08effbe130951b6a5f6c0b843393a36001600055604051908152f35b90919293949560208061361f600193601f198682030188526136198b88614c84565b90614c63565b980194019401929493919061357a565b8251865260209586019590920191600101613551565b67016345785d89ffff19340134811161086757600080808093335af1613669614e91565b506135325760405162461bcd60e51b815260206004820152600d60248201526c1c99599d5b990819985a5b1959609a1b6044820152606490fd5b60405162461bcd60e51b815260206004820152601860248201527f7472656173757279207472616e73666572206661696c656400000000000000006044820152606490fd5b6137049082600052601f6020600020910160051c810190614cd8565b8a6133bc565b60019192939495506020816137226004935186614e46565b019201920190918894939261336b565b6001600160fe1b0381811682036108675784168403610867576003830160005260206000208460021b81015b8260021b82018110613771575050613352565b8061377d600492614dfd565b61378960018201614dfd565b60006002820155600060038201550161375e565b60016020826137ae83945186614d36565b019201920191906131d8565b600b83016000526020600020908482015b81830181106137db5750506131c3565b806137e7600192614dfd565b016137cb565b82516001600160a01b03168183015560209092019160010161313c565b613824906004870160005284846000209182019101614cd8565b8a61312b565b90809693945082959203613a9f57604051809663c2a93e3760e01b825280602483016020600485015252604482019060448160051b8401019380926000915b838310613a6c57505050505080600092038160018060a01b037f0000000000000000000000000000000000000000000000000000000000000000165afa948515613a605760009561396a575b508451926138c284614c4c565b936138d06040519586614878565b8085526138df601f1991614c4c565b01366020860137839060005b875181101561395c576020613900828a614cc4565b510151156139275780613916613922928a614cc4565b5151611e0f8289614cc4565b6138eb565b60405162461bcd60e51b815260206004820152600d60248201526c34b73b30b634b210383937b7b360991b6044820152606490fd5b509295509250928580612fd0565b9094503d806000833e61397d8183614878565b60208282810103126102ee578151906001600160401b0382116102ee57808301601f8385010112156102ee5781830151906139b782614c4c565b936139c56040519586614878565b828552602085019382820160208560061b8385010101116102ee5793602085830101945b60208560061b82850101018610613a075750505050505093856138b5565b60408685850103126102ee576040518060408101106001600160401b03604083011117612120576040810160405286518152602087015180151581036102ee5760209382859283604095015281520196019591506139e9565b6040513d6000823e3d90fd5b9193956020613a8e819260019496986043199082030187526136198a87614c84565b97019301930190928a949293613869565b60405162461bcd60e51b815260206004820152600c60248201526b0d8cadc40dad2e6dac2e8c6d60a31b6044820152606490fd5b60405162461bcd60e51b815260206004820152600c60248201526b666565203c20302e31204f4760a01b6044820152606490fd5b60405162461bcd60e51b815260206004820152600b60248201526a6e616d652065786973747360a81b6044820152606490fd5b60405162461bcd60e51b815260206004820152600b60248201526a0dcc2daca40d8cadccee8d60ab1b6044820152606490fd5b60209150111587612f62565b60405162461bcd60e51b81526020600482015260126024820152711b585e081cdd5c1c1b1e481c995858da195960721b6044820152606490fd5b60405162461bcd60e51b815260206004820152601860248201527f77616c6c657420616c726561647920686173206167656e7400000000000000006044820152606490fd5b60405162461bcd60e51b815260206004820152600f60248201526e34b73b30b634b2103a379030b2323960891b6044820152606490fd5b604051633ee5aeb560e01b8152600490fd5b346102ee5760203660031901126102ee57600435600052600660205260406000208054600260405192613c8284613c7b8160018501614707565b0385614878565b0154613cdb60405193849360ff908181168652818160081c166020870152818160101c166040870152818160181c166060870152818160201c16608087015260281c1660a08501526101008060c086015284019061467c565b9060e08301520390f35b346102ee5760203660031901126102ee576001600160a01b03613d066146b7565b1660005260056020526020604060002054604051908152f35b346102ee5760003660031901126102ee57613d38614ad3565b60025460ff811615613d775760ff19166002557f5db9ee0a495bf2e6ff9c91a7834c1ba4fdd244a5e8aa4e537bd38aeae4b073aa6020604051338152a1005b604051638dfc202b60e01b8152600490fd5b346102ee576020806003193601126102ee57600435600052600381526040600020604051613db6816147d4565b81546001600160a01b0316815260405160019190613dda816118e981878701614707565b848201526002830154916040820192835260038401546060830152613e016004850161520c565b6080830152600584015460a0830152600684015460c0830152600784015460e083015260ff60088501541615156101008301526009840154916101208101928352600b600a86015495610140830196875201918254613e5f81614c4c565b93613e6d6040519586614878565b8185526000908152888120898087015b848410613ede57505050505050610160015251915190514203428111610867576201518090049283613ec157606093506000905b6040519384528301526040820152f35b606483029383850460641484151715610867576060940490613eb1565b85918291604051613ef3816118e98189614707565b8152019201920191908a90613e7d565b346102ee5760403660031901126102ee57613f1c6146a1565b336001600160a01b03821603613f38576102b490600435614bd5565b60405163334bd91960e11b8152600490fd5b346102ee5760203660031901126102ee57600435600081815260036020526040902054613f81906001600160a01b031615156151d1565b600052600760205260606040600020600660405191613f9f836147b8565b80548352600181015460208401526002810154604084015260038101548484015260048101546080840152600581015460a0840152015460e060c083019260ff83168452019161ffff809260081c168352613ff8615e1e565b60ff80614003615e38565b93511691168091149384159461402a575b5060405193151584526020840152166040820152f35b5183168383161415935085614014565b346102ee5760403660031901126102ee57600435602435614059614ec1565b81600052817f10c6861248a0d0f4376512cb8e7482a88a8865601494eb1fd99ec02dfc29583360a060209360038552600180831b03604060002054163314801561415d575b8015614148575b6140ae90614edf565b8360005260078552604060002081815491556040519160608352600b60608401526a6d656d6f72795f636f726560a81b6080840152868301526040820152a281600052600881526002604060002001805460ff811661410957005b60ff1916905560038152600560406000200180546005810180821161086757600080516020615f558339815191529381604094558351928352820152a2005b506140ae61415633866153b5565b90506140a5565b50600080516020615f7583398151915260005260018552604060002033600052855260ff6040600020541661409e565b346102ee5760403660031901126102ee576102b46004356141ac6146a1565b908060005260016020526141c7600160406000200154614b2f565b614b55565b346102ee5760003660031901126102ee576040517f00000000000000000000000000000000000000000000000000000000000000006001600160a01b03168152602090f35b346102ee5760603660031901126102ee5760243560043560443560058110156102ee5761423c614ec1565b8160005260206003815260018060a01b0360406000205416331480156143c0575b80156143ab575b61426d90614edf565b8260005260038152604060002090600782018054600181018091116108675781554260038401558460005260078252847f10c6861248a0d0f4376512cb8e7482a88a8865601494eb1fd99ec02dfc29583360a06002604060002001898154915560405190606082526012606083015271636f6e766572736174696f6e5f6461696c7960701b60808301528a878301526040820152a261430b856155e6565b5491600a830615614349575b50916040917fae9f8ea4031d27c12e1fca7c2bfaaef9034ff66849251188e28970cd44d1c590938351928352820152a3005b60050180546001810194919391929085811161086757600080516020615f5583398151915260408892887fae9f8ea4031d27c12e1fca7c2bfaaef9034ff66849251188e28970cd44d1c59099839955825191825285820152a291935091614317565b5061426d6143b933856153b5565b9050614264565b50600080516020615f7583398151915260005260018152604060002033600052815260ff6040600020541661425d565b346102ee5760203660031901126102ee5760043560005260016020526020600160406000200154604051908152f35b346102ee5760403660031901126102ee576001600160401b036024358181116102ee57366023820112156102ee5780600401359182116102ee5736602483830101116102ee576020602491604093600435600052600a8352846000209080865195869401843782019081520301902081519061449a8261479d565b60ff8154161515918281528360ff600260018501549485602086015201541691015282519182526020820152f35b346102ee576020806003193601126102ee57600435600052600381526144f4600460406000200161520c565b906040519181839283018184528251809152816040850193019160005b82811061452057505050500390f35b83516001600160a01b031685528695509381019392810192600101614511565b346102ee5760403660031901126102ee576102b461455c6146a1565b614564614a6b565b6004356152bb565b346102ee5760003660031901126102ee5761040c60405161458c81614842565b600f81526e111c99585b5cd8d85c195059d95b9d608a1b602082015260405191829160208352602083019061467c565b346102ee5760203660031901126102ee576004359063ffffffff60e01b82168092036102ee576020916380ac58cd60e01b8114908115614648575b8115614637575b811561460c575b5015158152f35b637965db0b60e01b811491508115614626575b5083614605565b6301ffc9a760e01b1490508361461f565b633bcd582960e11b811491506145fe565b635b5e139f60e01b811491506145f7565b60005b83811061466c5750506000910152565b818101518382015260200161465c565b9060209161469581518092818552858086019101614659565b601f01601f1916010190565b602435906001600160a01b03821682036102ee57565b600435906001600160a01b03821682036102ee57565b90600182811c921680156146fd575b60208310146146e757565b634e487b7160e01b600052602260045260246000fd5b91607f16916146dc565b9060009291805491614718836146cd565b91828252600193848116908160001461477a575060011461473a575b50505050565b90919394506000526020928360002092846000945b838610614766575050505001019038808080614734565b80548587018301529401938590820161474f565b9294505050602093945060ff191683830152151560051b01019038808080614734565b606081019081106001600160401b0382111761212057604052565b61010081019081106001600160401b0382111761212057604052565b61018081019081106001600160401b0382111761212057604052565b608081019081106001600160401b0382111761212057604052565b61012081019081106001600160401b0382111761212057604052565b60c081019081106001600160401b0382111761212057604052565b604081019081106001600160401b0382111761212057604052565b602081019081106001600160401b0382111761212057604052565b90601f801991011681019081106001600160401b0382111761212057604052565b9181601f840112156102ee578235916001600160401b0383116102ee576020808501948460051b0101116102ee57565b6001600160401b03811161212057601f01601f191660200190565b81601f820112156102ee578035906148fb826148c9565b926149096040519485614878565b828452602083830101116102ee57816000926020809301838601378301015290565b602090614945928260405194838680955193849201614659565b82019081520301902090565b359060ff821682036102ee57565b90815180825260208092019182818360051b85019501936000915b84831061498a5750505050505090565b909192939495848082846001940386528951906149c26149b28351608080855284019061467c565b848401518382038685015261467c565b91604060ff818301511690830152606080910151910152980193019301919493929061497a565b90614a689160ff80825116835280602083015116602084015280604083015116604084015280606083015116606084015280608083015116608084015260a08201511660a0830152614a4a60c08201516101208060c086015284019061467c565b9160e082015160e0820152610100809201519181840391015261495f565b90565b3360009081527f50efbde2d46c37e9785f1791697f77e94bb7b701e19f1930a668820722d376946020526040902054600080516020615f758339815191529060ff1615614ab55750565b6044906040519063e2517d3f60e01b82523360048301526024820152fd5b3360009081527fb9cbbae02fe941283ec0eefd7b121e3bc7f89fae077b27bdd75a7fd4cf1543a860205260409020547f65d7a28e3265b37a6474929f336521b332c1681b933f6cb9f3376673440d862a9060ff1615614ab55750565b80600052600160205260406000203360005260205260ff6040600020541615614ab55750565b906000918083526001602052604083209160018060a01b03169182845260205260ff60408420541615600014614bd05780835260016020526040832082845260205260408320600160ff198254161790557f2f8788117e7eff1d82e926ec794901d17c78024a50270940304540a733656f0d339380a4600190565b505090565b906000918083526001602052604083209160018060a01b03169182845260205260ff604084205416600014614bd0578083526001602052604083208284526020526040832060ff1981541690557ff6391f5c32d9c69d2a47ea670b442974b53935d1edc7fd64eb21e047a839171b339380a4600190565b6001600160401b0381116121205760051b60200190565b908060209392818452848401376000828201840152601f01601f1916010190565b9035601e19823603018112156102ee5701602081359101916001600160401b0382116102ee5781360383136102ee57565b60001981146108675760010190565b80518210156124685760209160051b010190565b818110614ce3575050565b60008155600101614cd8565b9190601f8111614cfe57505050565b614d2a926000526020600020906020601f840160051c83019310614d2c575b601f0160051c0190614cd8565b565b9091508190614d1d565b91909182516001600160401b03811161212057614d5d81614d5784546146cd565b84614cef565b602080601f8311600114614d99575081929394600092614d8e575b50508160011b916000199060031b1c1916179055565b015190503880614d78565b90601f198316958460005282600020926000905b888210614de557505083600195969710614dcc575b505050811b019055565b015160001960f88460031b161c19169055388080614dc2565b80600185968294968601518155019501930190614dad565b614e0781546146cd565b9081614e11575050565b81601f60009311600114614e23575055565b908083918252614e42601f60208420940160051c840160018501614cd8565b5555565b906060600391614e57815185614d36565b614e68602082015160018601614d36565b6002840160ff60408301511660ff198254161790550151910155565b9190820180921161086757565b3d15614ebc573d90614ea2826148c9565b91614eb06040519384614878565b82523d6000602084013e565b606090565b60ff60025416614ecd57565b60405163d93c066560e01b8152600490fd5b15614ee657565b60405162461bcd60e51b815260206004820152600e60248201526d1b9bdd08185d5d1a1bdc9a5cd95960921b6044820152606490fd5b908154614f2881614c4c565b92604093614f3885519182614878565b828152809460208092019260005281600020906000935b858510614f5e57505050505050565b6004846001928451614f6f816147f0565b8551614f7f816118e9818b614707565b81528551614f93816118e981898c01614707565b8382015260ff6002880154168682015260038701546060820152815201930194019391614f4f565b90604051614fc88161480b565b61010061503a60038395805460ff908181168752818160081c166020880152818160101c166040880152818160181c166060880152818160201c16608088015260281c1660a0860152604051615025816118e98160018601614707565b60c0860152600281015460e086015201614f1c565b910152565b903590601e19813603018212156102ee57018035906001600160401b0382116102ee576020019181360383136102ee57565b903590601e19813603018212156102ee57018035906001600160401b0382116102ee57602001918160051b360383136102ee57565b91908110156124685760051b81013590607e19813603018212156102ee570190565b156150cf57565b60405162461bcd60e51b815260206004820152601260248201527166656174757265206e616d6520656d70747960701b6044820152606490fd5b3560ff811681036102ee5790565b909182815260208091019283918160051b85019484600080925b85841061514357505050505050505090565b909192939495969781810388528835607e19853603018112156151cd5786600192868293019061519f6151866151798480614c84565b6080808652850191614c63565b61519285850185614c84565b9084830387860152614c63565b91604060ff6151af828401614951565b16908301526060908101359101529a01980196959401929190615131565b8380fd5b156151d857565b60405162461bcd60e51b815260206004820152600c60248201526b1859d95b9d0808595e1a5cdd60a21b6044820152606490fd5b9060405191828154918282526020928383019160005283600020936000905b82821061524157505050614d2a92500383614878565b85546001600160a01b03168452600195860195889550938101939091019061522b565b1561526b57565b60405162461bcd60e51b815260206004820152601060248201526f6f776e65722f61646d696e206f6e6c7960801b6044820152606490fd5b80548210156124685760005260206000200190600090565b6001600160a01b0391821691821561534c57600090828252600360205260046040832001805490600160401b82101561533857816153219160017f32a4407627195670dd4c989ee38441e11ab643ccd4759c25d9c0bd6a635039db9695940181556152a3565b819291549060031b9187831b921b191617905580a3565b634e487b7160e01b84526041600452602484fd5b60405162461bcd60e51b81526020600482015260096024820152683d32b937903ab9b2b960b91b6044820152606490fd5b1561538457565b60405162461bcd60e51b8152602060048201526009602482015268746f203d207a65726f60b81b6044820152606490fd5b60005260036020526153cd600460406000200161520c565b9060005b825181101561540d576001600160a01b03806153ed8386614cc4565b5116908316146154055761540090614cb5565b6153d1565b505050600190565b505050600090565b60000b6009198112159081615428575090565b600a9150131590565b60ff1690600090810b9181838201938412911290801582169115161761547957808212615471575b5060648113615469575b60ff1690565b506064615463565b905038615459565b634e487b7160e01b81526011600452602490fd5b6040519061549a82614842565b600a825269185b985b1e5d1a58d85b60b21b6020830152565b9060068110156124685760051b0190565b909291926040809481516154d78161479d565b6001815260209160ff6002848401934285528287820194169485855261550b61202960009d8e8d8152600a8b52208b61492b565b5160018201550191511660ff1982541617905584875260038252600b83882001805490600160401b8210156155d2579061554a916001820181556152a3565b6155be5794600080516020615f3583398151915281979861557a87600080516020615f1583398151915299614d36565b848651916060835261558f606084018a61467c565b90868385015283820391828a860152520190a26155b5835194848695865285019061467c565b918301520390a2565b634e487b7160e01b88526004889052602488fd5b634e487b7160e01b89526041600452602489fd5b6000908082526007602052604082206155fd615e1e565b90615606615e38565b916006820192835460ff811615615720575083549360ff808616931680841480159061570c575b61563c575b5050505050505050565b600595877f730360d9766138aaf0bfbcb8ba19e14d040c069cb9b8daab2e5c3576d2b545e660a06156b89760405190815261ffff8560081c1660208201526060604082015260076060820152666d6f6e74686c7960c81b6080820152a260ff19161781559062ffff0082549160081b169062ffff001916179055565b83600182015583600282015501546230c78081018091116156f85742116156e5575b808080808080615632565b81526009602052604081205538806156da565b634e487b7160e01b83526011600452602483fd5b5061ffff808416908760081c16141561562d565b62ffffff191660ff929092169190911760089190911b62ffff00161790915550614d2a915050565b60009080825260206009815260409182842054600390818114615cec5760068114615bab57600c8114615a6e576018146159085781855282526157978385206007600682015491015490614e84565b906064821461589a5761016d80831461583157506103e88092146157c85750505051906157c38261485d565b815290565b90929193507f85b48c5b9cdd55cc3a41e735f9aa599cffba8d8c300f240111645d63939d2c2a608083518481526011858201527013595b5bdc9e48135a5b1b195b9b9a585b607a1b9586606083015287820152a2519161582783614842565b6011835282015290565b9392945090507f85b48c5b9cdd55cc3a41e735f9aa599cffba8d8c300f240111645d63939d2c2a608083518481526010858201526f59656172206f66204d656d6f7269657360801b9586606083015287820152a2519161589083614842565b6010835282015290565b92919350508051918183526013828401527f85b48c5b9cdd55cc3a41e735f9aa599cffba8d8c300f240111645d63939d2c2a60807243656e74757279206f66204d656d6f7269657360681b94856060820152606487820152a251916158fe83614842565b6013835282015290565b839293959495519061591982614842565b600e82526d657465726e616c5f6d656d6f727960901b858301528460ff600286516159438161479d565b600181528a61596b6120298a87850193428552600a8287019960188b528d835252208961492b565b5160018201550191511660ff198254161790558287528452600b83872001805490600160401b821015615a5a57906159a8916001820181556152a3565b615a46578183600080516020615f358339815191526d457465726e616c204d656d6f727960901b9798996159ee600080516020615f1583398151915296615a2896614d36565b8988519160608352615a03606084018761467c565b9060188385015283820391828c860152520190a284519182918683528683019061467c565b6018888301520390a25191615a3c83614842565b600e835282015290565b634e487b7160e01b87526004879052602487fd5b634e487b7160e01b88526041600452602488fd5b508392939594955190615a8082614842565b600d82526c36b2b6b7b93cafb6b0b9ba32b960991b858301528460ff60028651615aa98161479d565b600181528a615ad16120298a87850193428552600a82870199600c8b528d835252208961492b565b5160018201550191511660ff198254161790558287528452600b83872001805490600160401b821015615a5a5790615b0e916001820181556152a3565b615a46578183600080516020615f358339815191526c26b2b6b7b93c9026b0b9ba32b960991b979899615b53600080516020615f1583398151915296615b8d96614d36565b8988519160608352615b68606084018761467c565b90600c8385015283820391828c860152520190a284519182918683528683019061467c565b600c888301520390a25191615ba183614842565b600d835282015290565b508392939594955190615bbd82614842565b600f82526e36b2b6b7b93cafb3bab0b93234b0b760891b858301528460ff60028651615be88161479d565b600181528a615c106120298a87850193428552600a8287019960068b528d835252208961492b565b5160018201550191511660ff198254161790558287528452600b83872001805490600160401b821015615a5a5790615c4d916001820181556152a3565b615a46578183600080516020615f358339815191526e26b2b6b7b93c9023bab0b93234b0b760891b979899615c94600080516020615f1583398151915296615cce96614d36565b8988519160608352615ca9606084018761467c565b9060068385015283820391828c860152520190a284519182918683528683019061467c565b6006888301520390a25191615ce283614842565b600f835282015290565b508392939594955190615cfe82614842565b600d82526c36b2b6b7b93cafb5b2b2b832b960991b858301528460ff60028651615d278161479d565b600181528a615d4e6120298a87850193428552600a828701998b8b528d835252208961492b565b5160018201550191511660ff19825416179055828752808552600b84882001805490600160401b8210156155d25790615d8c916001820181556152a3565b6155be5791615e0b9184600080516020615f358339815191526c26b2b6b7b93c9025b2b2b832b960991b98999a615dd285600080516020615f1583398151915298614d36565b8a89519160608352615de7606084018861467c565b90868385015283820391828d860152520190a285519283928784528784019061467c565b90888301520390a25191615ba183614842565b600160ff600c62278d00420406160160ff81116108675790565b6107e86301e13380420481018091116108675761ffff1690565b8015615ef657600081805b615ee25750615e6b816148c9565b91615e796040519384614878565b818352601f19615e88836148c9565b01908060209236848701375b615e9e5750505090565b600a9060309382820685018095116108675780156108675760001901809486518210156124685760f81b6001600160f81b03191660001a9086018401530480615e94565b90615eee600a91614cb5565b910480615e5d565b50604051615f0381614842565b60018152600360fc1b60208201529056fe4d4ca4452701c64d62e210aa5b23f7d376cf2d485ebc4fee8528e048afb0e2cfd0ba61587fc16fc1a3274fc4cd4ecf1243baadf9d8dde73ab61d5a7af1474ff406bbb7cb56b5f3845ce5ad015d25cbf87ed1c37c635e2082acb2610598f15cc7a49807205ce4d355092ef5a8a18f56e8913cf4a201fbe287825b095693c21775a26469706673582212201fc34efbe98fec2c5c4213fcc4a3184ad2f04d4ee095c3f57fa260a342584f0d64736f6c634300081400332f8788117e7eff1d82e926ec794901d17c78024a50270940304540a733656f0d",
  "devdoc": {
    "details": "Designed for direct deployment  no upgrade proxy included.  For         upgradability, wrap this logic in a UUPS/Beacon proxy.",
    "errors": {
      "AccessControlBadConfirmation()": [
        {
          "details": "The caller of a function is not the expected one. NOTE: Don't confuse with {AccessControlUnauthorizedAccount}."
        }
      ],
      "AccessControlUnauthorizedAccount(address,bytes32)": [
        {
          "details": "The `account` is missing a role."
        }
      ],
      "EnforcedPause()": [
        {
          "details": "The operation failed because the contract is paused."
        }
      ],
      "ExpectedPause()": [
        {
          "details": "The operation failed because the contract is not paused."
        }
      ],
      "ReentrancyGuardReentrantCall()": [
        {
          "details": "Unauthorized reentrant call."
        }
      ]
    },
    "events": {
      "AgentConversation(uint256,bytes32,uint8,uint256)": {
        "details": "Emitted when agent has a conversation (without personality evolution)"
      },
      "AuthorizedUsage(uint256,address)": {
        "details": "This emits when a user is authorized to use the data"
      },
      "Cloned(uint256,uint256,address,address)": {
        "details": "This emits when data is cloned"
      },
      "Minted(uint256,address,address,bytes32[],string[])": {
        "details": "This emits when a new functional NFT is minted"
      },
      "Paused(address)": {
        "details": "Emitted when the pause is triggered by `account`."
      },
      "PersonalityEvolved(uint256,bytes32,(uint8,uint8,uint8,uint8,uint8,uint8,string,uint256,(string,string,uint8,uint256)[]),(int8,int8,int8,int8,int8,int8,string,uint8,(string,string,uint8,uint256)[]))": {
        "details": "Emitted when agent personality evolves from dream processing"
      },
      "PersonalityMilestone(uint256,string,uint8,string)": {
        "details": "Emitted when agent reaches personality milestones"
      },
      "PublishedSealedKey(address,uint256,bytes16[])": {
        "details": "This emits when a sealed key is published"
      },
      "ResponseStyleEvolved(uint256,string,string[])": {
        "details": "Emitted when agent's response style evolves"
      },
      "RoleAdminChanged(bytes32,bytes32,bytes32)": {
        "details": "Emitted when `newAdminRole` is set as ``role``'s admin role, replacing `previousAdminRole` `DEFAULT_ADMIN_ROLE` is the starting admin for all roles, despite {RoleAdminChanged} not being emitted to signal this."
      },
      "RoleGranted(bytes32,address,address)": {
        "details": "Emitted when `account` is granted `role`. `sender` is the account that originated the contract call. This account bears the admin role (for the granted role). Expected in cases where the role was granted using the internal {AccessControl-_grantRole}."
      },
      "RoleRevoked(bytes32,address,address)": {
        "details": "Emitted when `account` is revoked `role`. `sender` is the account that originated the contract call:   - if using `revokeRole`, it is the admin role bearer   - if using `renounceRole`, it is the role bearer (i.e. `account`)"
      },
      "Transferred(uint256,address,address)": {
        "details": "This emits when data is transferred with ownership"
      },
      "UniqueFeaturesAdded(uint256,(string,string,uint8,uint256)[],uint256)": {
        "details": "Emitted when AI adds unique features to agent"
      },
      "Unpaused(address)": {
        "details": "Emitted when the pause is lifted by `account`."
      }
    },
    "kind": "dev",
    "methods": {
      "canProcessDreamToday(uint256)": {
        "params": {
          "tokenId": "Agent to check"
        },
        "returns": {
          "canProcess": "True if agent can process a dream today"
        }
      },
      "getAgentMemory(uint256)": {
        "params": {
          "tokenId": "Agent to query"
        },
        "returns": {
          "_0": "memory Current memory structure"
        }
      },
      "getConsolidationReward(uint256)": {
        "params": {
          "tokenId": "Agent to check"
        },
        "returns": {
          "baseReward": "Base intelligence reward",
          "earlyBirdBonus": "Bonus for early consolidation",
          "streakBonus": "Bonus from consolidation streak",
          "totalReward": "Total intelligence reward"
        }
      },
      "getEvolutionStats(uint256)": {
        "params": {
          "tokenId": "Agent to analyze"
        },
        "returns": {
          "evolutionRate": "Rate of personality change",
          "lastEvolution": "Timestamp of last evolution",
          "totalEvolutions": "Number of personality changes"
        }
      },
      "getMemoryAccess(uint256)": {
        "params": {
          "tokenId": "Agent to check"
        },
        "returns": {
          "memoryDepth": "Human-readable description",
          "monthsAccessible": "Number of months accessible "
        }
      },
      "getPersonalityTraits(uint256)": {
        "params": {
          "tokenId": "Agent to query"
        },
        "returns": {
          "_0": "Current personality traits"
        }
      },
      "getRoleAdmin(bytes32)": {
        "details": "Returns the admin role that controls `role`. See {grantRole} and {revokeRole}. To change a role's admin, use {_setRoleAdmin}."
      },
      "getUniqueFeatures(uint256)": {
        "params": {
          "tokenId": "Agent to query"
        },
        "returns": {
          "features": "Array of unique features"
        }
      },
      "grantRole(bytes32,address)": {
        "details": "Grants `role` to `account`. If `account` had not been already granted `role`, emits a {RoleGranted} event. Requirements: - the caller must have ``role``'s admin role. May emit a {RoleGranted} event."
      },
      "hasMilestone(uint256,string)": {
        "params": {
          "milestoneName": "Milestone to check (\"empathy_master\", \"creative_genius\", etc.)",
          "tokenId": "Agent to check"
        },
        "returns": {
          "achieved": "True if milestone has been achieved",
          "at": "Timestamp when milestone was achieved (0 if not achieved)"
        }
      },
      "hasRole(bytes32,address)": {
        "details": "Returns `true` if `account` has been granted `role`."
      },
      "mintAgent(bytes[],string[],string,address)": {
        "params": {
          "agentName": "Unique display name (32 bytes)",
          "descriptions": "Data descriptions parallel to `proofs`",
          "proofs": "Optional ZKproof blobs (pass `[]` to skip)",
          "to": "Recipient address (must NOT already own an agent)"
        }
      },
      "name()": {
        "returns": {
          "_0": "The contract name \"DreamscapeAgent\""
        }
      },
      "needsConsolidation(uint256)": {
        "params": {
          "tokenId": "Agent to check"
        },
        "returns": {
          "currentMonth": "Current month",
          "currentYear": "Current year",
          "isNeeded": "True if month has changed since last consolidation"
        }
      },
      "paused()": {
        "details": "Returns true if the contract is paused, and false otherwise."
      },
      "processDailyDream(uint256,bytes32,(int8,int8,int8,int8,int8,int8,string,uint8,(string,string,uint8,uint256)[]))": {
        "details": "ZKverified dream *content* lives offchain; contract stores only         hash + counters to keep gas low."
      },
      "renounceRole(bytes32,address)": {
        "details": "Revokes `role` from the calling account. Roles are often managed via {grantRole} and {revokeRole}: this function's purpose is to provide a mechanism for accounts to lose their privileges if they are compromised (such as when a trusted device is misplaced). If the calling account had been revoked `role`, emits a {RoleRevoked} event. Requirements: - the caller must be `callerConfirmation`. May emit a {RoleRevoked} event."
      },
      "revokeRole(bytes32,address)": {
        "details": "Revokes `role` from `account`. If `account` had been granted `role`, emits a {RoleRevoked} event. Requirements: - the caller must have ``role``'s admin role. May emit a {RoleRevoked} event."
      },
      "symbol()": {
        "returns": {
          "_0": "The contract symbol \"DREAM\""
        }
      }
    },
    "stateVariables": {
      "verifier": {
        "return": "The address of the verifier contract",
        "returns": {
          "_0": "The address of the verifier contract"
        }
      }
    },
    "title": "DreamscapeAgent  iNFT with Hierarchical Memory & Personality Evolution",
    "version": 1
  },
  "userdoc": {
    "kind": "user",
    "methods": {
      "canProcessDreamToday(uint256)": {
        "notice": "Check if agent can process dream today (24h cooldown)"
      },
      "consolidateMonth(uint256,bytes32,bytes32,uint8,uint16)": {
        "notice": "Userdriven monthly consolidation.  Merges daily files offchain and         stores the finalised month hash onchain, rewarding the agent."
      },
      "getAgentMemory(uint256)": {
        "notice": "Get agent's hierarchical memory structure"
      },
      "getConsolidationReward(uint256)": {
        "notice": "Get consolidation reward preview"
      },
      "getEvolutionStats(uint256)": {
        "notice": "Get personality evolution statistics"
      },
      "getMemoryAccess(uint256)": {
        "notice": "Get memory access level based on intelligence"
      },
      "getPersonalityTraits(uint256)": {
        "notice": "Get agent's current personality traits"
      },
      "getUniqueFeatures(uint256)": {
        "notice": "Get agent's unique AI-generated features"
      },
      "hasMilestone(uint256,string)": {
        "notice": "Check if agent has reached specific personality milestone"
      },
      "mintAgent(bytes[],string[],string,address)": {
        "notice": "Mint a *blankslate* agent.  One per wallet."
      },
      "name()": {
        "notice": "Returns the name of the contract collection"
      },
      "needsConsolidation(uint256)": {
        "notice": "Check if consolidation is needed"
      },
      "processDailyDream(uint256,bytes32,(int8,int8,int8,int8,int8,int8,string,uint8,(string,string,uint8,uint256)[]))": {
        "notice": "Called once per dream; every 5th dream triggers evolution.         Also updates hierarchical memory with dream hash."
      },
      "recordConversation(uint256,bytes32,uint8)": {
        "notice": "Lightweight conversation recording; boosts intelligence every 10th convo.         Also updates hierarchical memory with conversation hash."
      },
      "symbol()": {
        "notice": "Returns the symbol of the contract collection  "
      },
      "updateMemoryCore(uint256,bytes32)": {
        "notice": "Stores the yearly memory core hash and grants bonus INT."
      },
      "verifier()": {
        "notice": "The verifier interface that this NFT uses"
      }
    },
    "notice": "Singleperwallet autonomous agent that stores memories in a threelayer         hierarchy (daily  monthly  yearly) and evolves its personality from         analysed dreams & conversations.         This contract is a *lean* revision: we removed unbounded onchain arrays         of raw hashes to save gas and instead rely on offchain storage + a         rotating current hash per period.  All public getters needed by dApp         remain, but they now return an empty array and are marked *deprecated*.         The contract **still** complies with ERC7857 by preserving the original         ABI of `mintAgent(...)`; callers MAY pass empty arrays when proofs are         not needed.  Optional ZKP verification can be disabled by setting the         `verifier` address to zero at deployment.",
    "version": 1
  },
  "storageLayout": {
    "storage": [
      {
        "astId": 672,
        "contract": "contracts/DreamscapeAgent.sol:DreamscapeAgent",
        "label": "_status",
        "offset": 0,
        "slot": "0",
        "type": "t_uint256"
      },
      {
        "astId": 26,
        "contract": "contracts/DreamscapeAgent.sol:DreamscapeAgent",
        "label": "_roles",
        "offset": 0,
        "slot": "1",
        "type": "t_mapping(t_bytes32,t_struct(RoleData)21_storage)"
      },
      {
        "astId": 562,
        "contract": "contracts/DreamscapeAgent.sol:DreamscapeAgent",
        "label": "_paused",
        "offset": 0,
        "slot": "2",
        "type": "t_bool"
      },
      {
        "astId": 862,
        "contract": "contracts/DreamscapeAgent.sol:DreamscapeAgent",
        "label": "agents",
        "offset": 0,
        "slot": "3",
        "type": "t_mapping(t_uint256,t_struct(DreamAgent)841_storage)"
      },
      {
        "astId": 866,
        "contract": "contracts/DreamscapeAgent.sol:DreamscapeAgent",
        "label": "nameExists",
        "offset": 0,
        "slot": "4",
        "type": "t_mapping(t_string_memory_ptr,t_bool)"
      },
      {
        "astId": 870,
        "contract": "contracts/DreamscapeAgent.sol:DreamscapeAgent",
        "label": "ownerToTokenId",
        "offset": 0,
        "slot": "5",
        "type": "t_mapping(t_address,t_uint256)"
      },
      {
        "astId": 875,
        "contract": "contracts/DreamscapeAgent.sol:DreamscapeAgent",
        "label": "agentPersonalities",
        "offset": 0,
        "slot": "6",
        "type": "t_mapping(t_uint256,t_struct(PersonalityTraits)4243_storage)"
      },
      {
        "astId": 880,
        "contract": "contracts/DreamscapeAgent.sol:DreamscapeAgent",
        "label": "agentMemories",
        "offset": 0,
        "slot": "7",
        "type": "t_mapping(t_uint256,t_struct(AgentMemory)4290_storage)"
      },
      {
        "astId": 885,
        "contract": "contracts/DreamscapeAgent.sol:DreamscapeAgent",
        "label": "pendingRewards",
        "offset": 0,
        "slot": "8",
        "type": "t_mapping(t_uint256,t_struct(ConsolidationReward)857_storage)"
      },
      {
        "astId": 889,
        "contract": "contracts/DreamscapeAgent.sol:DreamscapeAgent",
        "label": "consolidationStreak",
        "offset": 0,
        "slot": "9",
        "type": "t_mapping(t_uint256,t_uint256)"
      },
      {
        "astId": 896,
        "contract": "contracts/DreamscapeAgent.sol:DreamscapeAgent",
        "label": "milestones",
        "offset": 0,
        "slot": "10",
        "type": "t_mapping(t_uint256,t_mapping(t_string_memory_ptr,t_struct(MilestoneData)849_storage))"
      },
      {
        "astId": 900,
        "contract": "contracts/DreamscapeAgent.sol:DreamscapeAgent",
        "label": "responseStyles",
        "offset": 0,
        "slot": "11",
        "type": "t_mapping(t_uint256,t_string_storage)"
      },
      {
        "astId": 903,
        "contract": "contracts/DreamscapeAgent.sol:DreamscapeAgent",
        "label": "nextTokenId",
        "offset": 0,
        "slot": "12",
        "type": "t_uint256"
      },
      {
        "astId": 906,
        "contract": "contracts/DreamscapeAgent.sol:DreamscapeAgent",
        "label": "totalAgents",
        "offset": 0,
        "slot": "13",
        "type": "t_uint256"
      },
      {
        "astId": 909,
        "contract": "contracts/DreamscapeAgent.sol:DreamscapeAgent",
        "label": "totalFeesCollected",
        "offset": 0,
        "slot": "14",
        "type": "t_uint256"
      }
    ],
    "types": {
      "t_address": {
        "encoding": "inplace",
        "label": "address",
        "numberOfBytes": "20"
      },
      "t_array(t_address)dyn_storage": {
        "base": "t_address",
        "encoding": "dynamic_array",
        "label": "address[]",
        "numberOfBytes": "32"
      },
      "t_array(t_string_storage)dyn_storage": {
        "base": "t_string_storage",
        "encoding": "dynamic_array",
        "label": "string[]",
        "numberOfBytes": "32"
      },
      "t_array(t_struct(UniqueFeature)4221_storage)dyn_storage": {
        "base": "t_struct(UniqueFeature)4221_storage",
        "encoding": "dynamic_array",
        "label": "struct IPersonalityEvolution.UniqueFeature[]",
        "numberOfBytes": "32"
      },
      "t_bool": {
        "encoding": "inplace",
        "label": "bool",
        "numberOfBytes": "1"
      },
      "t_bytes32": {
        "encoding": "inplace",
        "label": "bytes32",
        "numberOfBytes": "32"
      },
      "t_mapping(t_address,t_bool)": {
        "encoding": "mapping",
        "key": "t_address",
        "label": "mapping(address => bool)",
        "numberOfBytes": "32",
        "value": "t_bool"
      },
      "t_mapping(t_address,t_uint256)": {
        "encoding": "mapping",
        "key": "t_address",
        "label": "mapping(address => uint256)",
        "numberOfBytes": "32",
        "value": "t_uint256"
      },
      "t_mapping(t_bytes32,t_struct(RoleData)21_storage)": {
        "encoding": "mapping",
        "key": "t_bytes32",
        "label": "mapping(bytes32 => struct AccessControl.RoleData)",
        "numberOfBytes": "32",
        "value": "t_struct(RoleData)21_storage"
      },
      "t_mapping(t_string_memory_ptr,t_bool)": {
        "encoding": "mapping",
        "key": "t_string_memory_ptr",
        "label": "mapping(string => bool)",
        "numberOfBytes": "32",
        "value": "t_bool"
      },
      "t_mapping(t_string_memory_ptr,t_struct(MilestoneData)849_storage)": {
        "encoding": "mapping",
        "key": "t_string_memory_ptr",
        "label": "mapping(string => struct DreamscapeAgent.MilestoneData)",
        "numberOfBytes": "32",
        "value": "t_struct(MilestoneData)849_storage"
      },
      "t_mapping(t_uint256,t_mapping(t_string_memory_ptr,t_struct(MilestoneData)849_storage))": {
        "encoding": "mapping",
        "key": "t_uint256",
        "label": "mapping(uint256 => mapping(string => struct DreamscapeAgent.MilestoneData))",
        "numberOfBytes": "32",
        "value": "t_mapping(t_string_memory_ptr,t_struct(MilestoneData)849_storage)"
      },
      "t_mapping(t_uint256,t_string_storage)": {
        "encoding": "mapping",
        "key": "t_uint256",
        "label": "mapping(uint256 => string)",
        "numberOfBytes": "32",
        "value": "t_string_storage"
      },
      "t_mapping(t_uint256,t_struct(AgentMemory)4290_storage)": {
        "encoding": "mapping",
        "key": "t_uint256",
        "label": "mapping(uint256 => struct IPersonalityEvolution.AgentMemory)",
        "numberOfBytes": "32",
        "value": "t_struct(AgentMemory)4290_storage"
      },
      "t_mapping(t_uint256,t_struct(ConsolidationReward)857_storage)": {
        "encoding": "mapping",
        "key": "t_uint256",
        "label": "mapping(uint256 => struct DreamscapeAgent.ConsolidationReward)",
        "numberOfBytes": "32",
        "value": "t_struct(ConsolidationReward)857_storage"
      },
      "t_mapping(t_uint256,t_struct(DreamAgent)841_storage)": {
        "encoding": "mapping",
        "key": "t_uint256",
        "label": "mapping(uint256 => struct DreamscapeAgent.DreamAgent)",
        "numberOfBytes": "32",
        "value": "t_struct(DreamAgent)841_storage"
      },
      "t_mapping(t_uint256,t_struct(PersonalityTraits)4243_storage)": {
        "encoding": "mapping",
        "key": "t_uint256",
        "label": "mapping(uint256 => struct IPersonalityEvolution.PersonalityTraits)",
        "numberOfBytes": "32",
        "value": "t_struct(PersonalityTraits)4243_storage"
      },
      "t_mapping(t_uint256,t_uint256)": {
        "encoding": "mapping",
        "key": "t_uint256",
        "label": "mapping(uint256 => uint256)",
        "numberOfBytes": "32",
        "value": "t_uint256"
      },
      "t_string_memory_ptr": {
        "encoding": "bytes",
        "label": "string",
        "numberOfBytes": "32"
      },
      "t_string_storage": {
        "encoding": "bytes",
        "label": "string",
        "numberOfBytes": "32"
      },
      "t_struct(AgentMemory)4290_storage": {
        "encoding": "inplace",
        "label": "struct IPersonalityEvolution.AgentMemory",
        "members": [
          {
            "astId": 4275,
            "contract": "contracts/DreamscapeAgent.sol:DreamscapeAgent",
            "label": "memoryCoreHash",
            "offset": 0,
            "slot": "0",
            "type": "t_bytes32"
          },
          {
            "astId": 4277,
            "contract": "contracts/DreamscapeAgent.sol:DreamscapeAgent",
            "label": "currentDreamDailyHash",
            "offset": 0,
            "slot": "1",
            "type": "t_bytes32"
          },
          {
            "astId": 4279,
            "contract": "contracts/DreamscapeAgent.sol:DreamscapeAgent",
            "label": "currentConvDailyHash",
            "offset": 0,
            "slot": "2",
            "type": "t_bytes32"
          },
          {
            "astId": 4281,
            "contract": "contracts/DreamscapeAgent.sol:DreamscapeAgent",
            "label": "lastDreamMonthlyHash",
            "offset": 0,
            "slot": "3",
            "type": "t_bytes32"
          },
          {
            "astId": 4283,
            "contract": "contracts/DreamscapeAgent.sol:DreamscapeAgent",
            "label": "lastConvMonthlyHash",
            "offset": 0,
            "slot": "4",
            "type": "t_bytes32"
          },
          {
            "astId": 4285,
            "contract": "contracts/DreamscapeAgent.sol:DreamscapeAgent",
            "label": "lastConsolidation",
            "offset": 0,
            "slot": "5",
            "type": "t_uint256"
          },
          {
            "astId": 4287,
            "contract": "contracts/DreamscapeAgent.sol:DreamscapeAgent",
            "label": "currentMonth",
            "offset": 0,
            "slot": "6",
            "type": "t_uint8"
          },
          {
            "astId": 4289,
            "contract": "contracts/DreamscapeAgent.sol:DreamscapeAgent",
            "label": "currentYear",
            "offset": 1,
            "slot": "6",
            "type": "t_uint16"
          }
        ],
        "numberOfBytes": "224"
      },
      "t_struct(ConsolidationReward)857_storage": {
        "encoding": "inplace",
        "label": "struct DreamscapeAgent.ConsolidationReward",
        "members": [
          {
            "astId": 852,
            "contract": "contracts/DreamscapeAgent.sol:DreamscapeAgent",
            "label": "intelligenceBonus",
            "offset": 0,
            "slot": "0",
            "type": "t_uint256"
          },
          {
            "astId": 854,
            "contract": "contracts/DreamscapeAgent.sol:DreamscapeAgent",
            "label": "specialMilestone",
            "offset": 0,
            "slot": "1",
            "type": "t_string_storage"
          },
          {
            "astId": 856,
            "contract": "contracts/DreamscapeAgent.sol:DreamscapeAgent",
            "label": "yearlyReflection",
            "offset": 0,
            "slot": "2",
            "type": "t_bool"
          }
        ],
        "numberOfBytes": "96"
      },
      "t_struct(DreamAgent)841_storage": {
        "encoding": "inplace",
        "label": "struct DreamscapeAgent.DreamAgent",
        "members": [
          {
            "astId": 816,
            "contract": "contracts/DreamscapeAgent.sol:DreamscapeAgent",
            "label": "owner",
            "offset": 0,
            "slot": "0",
            "type": "t_address"
          },
          {
            "astId": 818,
            "contract": "contracts/DreamscapeAgent.sol:DreamscapeAgent",
            "label": "agentName",
            "offset": 0,
            "slot": "1",
            "type": "t_string_storage"
          },
          {
            "astId": 820,
            "contract": "contracts/DreamscapeAgent.sol:DreamscapeAgent",
            "label": "createdAt",
            "offset": 0,
            "slot": "2",
            "type": "t_uint256"
          },
          {
            "astId": 822,
            "contract": "contracts/DreamscapeAgent.sol:DreamscapeAgent",
            "label": "lastUpdated",
            "offset": 0,
            "slot": "3",
            "type": "t_uint256"
          },
          {
            "astId": 825,
            "contract": "contracts/DreamscapeAgent.sol:DreamscapeAgent",
            "label": "authorizedUsers",
            "offset": 0,
            "slot": "4",
            "type": "t_array(t_address)dyn_storage"
          },
          {
            "astId": 827,
            "contract": "contracts/DreamscapeAgent.sol:DreamscapeAgent",
            "label": "intelligenceLevel",
            "offset": 0,
            "slot": "5",
            "type": "t_uint256"
          },
          {
            "astId": 829,
            "contract": "contracts/DreamscapeAgent.sol:DreamscapeAgent",
            "label": "dreamCount",
            "offset": 0,
            "slot": "6",
            "type": "t_uint256"
          },
          {
            "astId": 831,
            "contract": "contracts/DreamscapeAgent.sol:DreamscapeAgent",
            "label": "conversationCount",
            "offset": 0,
            "slot": "7",
            "type": "t_uint256"
          },
          {
            "astId": 833,
            "contract": "contracts/DreamscapeAgent.sol:DreamscapeAgent",
            "label": "personalityInitialized",
            "offset": 0,
            "slot": "8",
            "type": "t_bool"
          },
          {
            "astId": 835,
            "contract": "contracts/DreamscapeAgent.sol:DreamscapeAgent",
            "label": "totalEvolutions",
            "offset": 0,
            "slot": "9",
            "type": "t_uint256"
          },
          {
            "astId": 837,
            "contract": "contracts/DreamscapeAgent.sol:DreamscapeAgent",
            "label": "lastEvolutionDate",
            "offset": 0,
            "slot": "10",
            "type": "t_uint256"
          },
          {
            "astId": 840,
            "contract": "contracts/DreamscapeAgent.sol:DreamscapeAgent",
            "label": "achievedMilestones",
            "offset": 0,
            "slot": "11",
            "type": "t_array(t_string_storage)dyn_storage"
          }
        ],
        "numberOfBytes": "384"
      },
      "t_struct(MilestoneData)849_storage": {
        "encoding": "inplace",
        "label": "struct DreamscapeAgent.MilestoneData",
        "members": [
          {
            "astId": 844,
            "contract": "contracts/DreamscapeAgent.sol:DreamscapeAgent",
            "label": "achieved",
            "offset": 0,
            "slot": "0",
            "type": "t_bool"
          },
          {
            "astId": 846,
            "contract": "contracts/DreamscapeAgent.sol:DreamscapeAgent",
            "label": "achievedAt",
            "offset": 0,
            "slot": "1",
            "type": "t_uint256"
          },
          {
            "astId": 848,
            "contract": "contracts/DreamscapeAgent.sol:DreamscapeAgent",
            "label": "traitValue",
            "offset": 0,
            "slot": "2",
            "type": "t_uint8"
          }
        ],
        "numberOfBytes": "96"
      },
      "t_struct(PersonalityTraits)4243_storage": {
        "encoding": "inplace",
        "label": "struct IPersonalityEvolution.PersonalityTraits",
        "members": [
          {
            "astId": 4224,
            "contract": "contracts/DreamscapeAgent.sol:DreamscapeAgent",
            "label": "creativity",
            "offset": 0,
            "slot": "0",
            "type": "t_uint8"
          },
          {
            "astId": 4226,
            "contract": "contracts/DreamscapeAgent.sol:DreamscapeAgent",
            "label": "analytical",
            "offset": 1,
            "slot": "0",
            "type": "t_uint8"
          },
          {
            "astId": 4228,
            "contract": "contracts/DreamscapeAgent.sol:DreamscapeAgent",
            "label": "empathy",
            "offset": 2,
            "slot": "0",
            "type": "t_uint8"
          },
          {
            "astId": 4230,
            "contract": "contracts/DreamscapeAgent.sol:DreamscapeAgent",
            "label": "intuition",
            "offset": 3,
            "slot": "0",
            "type": "t_uint8"
          },
          {
            "astId": 4232,
            "contract": "contracts/DreamscapeAgent.sol:DreamscapeAgent",
            "label": "resilience",
            "offset": 4,
            "slot": "0",
            "type": "t_uint8"
          },
          {
            "astId": 4234,
            "contract": "contracts/DreamscapeAgent.sol:DreamscapeAgent",
            "label": "curiosity",
            "offset": 5,
            "slot": "0",
            "type": "t_uint8"
          },
          {
            "astId": 4236,
            "contract": "contracts/DreamscapeAgent.sol:DreamscapeAgent",
            "label": "dominantMood",
            "offset": 0,
            "slot": "1",
            "type": "t_string_storage"
          },
          {
            "astId": 4238,
            "contract": "contracts/DreamscapeAgent.sol:DreamscapeAgent",
            "label": "lastDreamDate",
            "offset": 0,
            "slot": "2",
            "type": "t_uint256"
          },
          {
            "astId": 4242,
            "contract": "contracts/DreamscapeAgent.sol:DreamscapeAgent",
            "label": "uniqueFeatures",
            "offset": 0,
            "slot": "3",
            "type": "t_array(t_struct(UniqueFeature)4221_storage)dyn_storage"
          }
        ],
        "numberOfBytes": "128"
      },
      "t_struct(RoleData)21_storage": {
        "encoding": "inplace",
        "label": "struct AccessControl.RoleData",
        "members": [
          {
            "astId": 18,
            "contract": "contracts/DreamscapeAgent.sol:DreamscapeAgent",
            "label": "hasRole",
            "offset": 0,
            "slot": "0",
            "type": "t_mapping(t_address,t_bool)"
          },
          {
            "astId": 20,
            "contract": "contracts/DreamscapeAgent.sol:DreamscapeAgent",
            "label": "adminRole",
            "offset": 0,
            "slot": "1",
            "type": "t_bytes32"
          }
        ],
        "numberOfBytes": "64"
      },
      "t_struct(UniqueFeature)4221_storage": {
        "encoding": "inplace",
        "label": "struct IPersonalityEvolution.UniqueFeature",
        "members": [
          {
            "astId": 4214,
            "contract": "contracts/DreamscapeAgent.sol:DreamscapeAgent",
            "label": "name",
            "offset": 0,
            "slot": "0",
            "type": "t_string_storage"
          },
          {
            "astId": 4216,
            "contract": "contracts/DreamscapeAgent.sol:DreamscapeAgent",
            "label": "description",
            "offset": 0,
            "slot": "1",
            "type": "t_string_storage"
          },
          {
            "astId": 4218,
            "contract": "contracts/DreamscapeAgent.sol:DreamscapeAgent",
            "label": "intensity",
            "offset": 0,
            "slot": "2",
            "type": "t_uint8"
          },
          {
            "astId": 4220,
            "contract": "contracts/DreamscapeAgent.sol:DreamscapeAgent",
            "label": "addedAt",
            "offset": 0,
            "slot": "3",
            "type": "t_uint256"
          }
        ],
        "numberOfBytes": "128"
      },
      "t_uint16": {
        "encoding": "inplace",
        "label": "uint16",
        "numberOfBytes": "2"
      },
      "t_uint256": {
        "encoding": "inplace",
        "label": "uint256",
        "numberOfBytes": "32"
      },
      "t_uint8": {
        "encoding": "inplace",
        "label": "uint8",
        "numberOfBytes": "1"
      }
    }
  }
}