{
  "address": "0x03688A310f947d395649387e7FFaAd4Ca256267f",
  "abi": [
    {
      "inputs": [
        {
          "internalType": "address",
          "name": "_verifier",
          "type": "address"
        },
        {
          "internalType": "address",
          "name": "_treasury",
          "type": "address"
        }
      ],
      "stateMutability": "nonpayable",
      "type": "constructor"
    },
    {
      "anonymous": false,
      "inputs": [
        {
          "indexed": true,
          "internalType": "uint256",
          "name": "tokenId",
          "type": "uint256"
        },
        {
          "indexed": true,
          "internalType": "bytes32",
          "name": "conversationHash",
          "type": "bytes32"
        },
        {
          "indexed": false,
          "internalType": "enum IPersonalityEvolution.ContextType",
          "name": "contextType",
          "type": "uint8"
        },
        {
          "indexed": false,
          "internalType": "uint256",
          "name": "conversationCount",
          "type": "uint256"
        }
      ],
      "name": "AgentConversation",
      "type": "event"
    },
    {
      "anonymous": false,
      "inputs": [
        {
          "indexed": true,
          "internalType": "uint256",
          "name": "tokenId",
          "type": "uint256"
        },
        {
          "indexed": false,
          "internalType": "uint256",
          "name": "oldLevel",
          "type": "uint256"
        },
        {
          "indexed": false,
          "internalType": "uint256",
          "name": "newLevel",
          "type": "uint256"
        }
      ],
      "name": "AgentEvolved",
      "type": "event"
    },
    {
      "anonymous": false,
      "inputs": [
        {
          "indexed": true,
          "internalType": "uint256",
          "name": "tokenId",
          "type": "uint256"
        },
        {
          "components": [
            {
              "internalType": "uint8",
              "name": "creativity",
              "type": "uint8"
            },
            {
              "internalType": "uint8",
              "name": "analytical",
              "type": "uint8"
            },
            {
              "internalType": "uint8",
              "name": "empathy",
              "type": "uint8"
            },
            {
              "internalType": "uint8",
              "name": "intuition",
              "type": "uint8"
            },
            {
              "internalType": "uint8",
              "name": "resilience",
              "type": "uint8"
            },
            {
              "internalType": "uint8",
              "name": "curiosity",
              "type": "uint8"
            },
            {
              "internalType": "string",
              "name": "dominantMood",
              "type": "string"
            },
            {
              "internalType": "uint256",
              "name": "lastDreamDate",
              "type": "uint256"
            }
          ],
          "indexed": false,
          "internalType": "struct IPersonalityEvolution.PersonalityTraits",
          "name": "initialTraits",
          "type": "tuple"
        }
      ],
      "name": "AgentPersonalityInitialized",
      "type": "event"
    },
    {
      "anonymous": false,
      "inputs": [
        {
          "indexed": true,
          "internalType": "uint256",
          "name": "_tokenId",
          "type": "uint256"
        },
        {
          "indexed": true,
          "internalType": "address",
          "name": "_user",
          "type": "address"
        }
      ],
      "name": "AuthorizedUsage",
      "type": "event"
    },
    {
      "anonymous": false,
      "inputs": [
        {
          "indexed": true,
          "internalType": "uint256",
          "name": "_tokenId",
          "type": "uint256"
        },
        {
          "indexed": true,
          "internalType": "uint256",
          "name": "_newTokenId",
          "type": "uint256"
        },
        {
          "indexed": false,
          "internalType": "address",
          "name": "_from",
          "type": "address"
        },
        {
          "indexed": false,
          "internalType": "address",
          "name": "_to",
          "type": "address"
        }
      ],
      "name": "Cloned",
      "type": "event"
    },
    {
      "anonymous": false,
      "inputs": [
        {
          "indexed": true,
          "internalType": "uint256",
          "name": "tokenId",
          "type": "uint256"
        },
        {
          "indexed": false,
          "internalType": "bytes32",
          "name": "dreamHash",
          "type": "bytes32"
        },
        {
          "indexed": false,
          "internalType": "uint256",
          "name": "intelligenceLevel",
          "type": "uint256"
        }
      ],
      "name": "DreamProcessed",
      "type": "event"
    },
    {
      "anonymous": false,
      "inputs": [
        {
          "indexed": true,
          "internalType": "uint256",
          "name": "tokenId",
          "type": "uint256"
        },
        {
          "indexed": true,
          "internalType": "address",
          "name": "payer",
          "type": "address"
        },
        {
          "indexed": false,
          "internalType": "uint256",
          "name": "amount",
          "type": "uint256"
        }
      ],
      "name": "FeePaid",
      "type": "event"
    },
    {
      "anonymous": false,
      "inputs": [
        {
          "indexed": true,
          "internalType": "uint256",
          "name": "tokenId",
          "type": "uint256"
        },
        {
          "indexed": false,
          "internalType": "string",
          "name": "milestone",
          "type": "string"
        },
        {
          "indexed": false,
          "internalType": "uint8",
          "name": "traitValue",
          "type": "uint8"
        }
      ],
      "name": "MilestoneUnlocked",
      "type": "event"
    },
    {
      "anonymous": false,
      "inputs": [
        {
          "indexed": true,
          "internalType": "uint256",
          "name": "_tokenId",
          "type": "uint256"
        },
        {
          "indexed": true,
          "internalType": "address",
          "name": "_creator",
          "type": "address"
        },
        {
          "indexed": true,
          "internalType": "address",
          "name": "_owner",
          "type": "address"
        },
        {
          "indexed": false,
          "internalType": "bytes32[]",
          "name": "_dataHashes",
          "type": "bytes32[]"
        },
        {
          "indexed": false,
          "internalType": "string[]",
          "name": "_dataDescriptions",
          "type": "string[]"
        }
      ],
      "name": "Minted",
      "type": "event"
    },
    {
      "anonymous": false,
      "inputs": [
        {
          "indexed": true,
          "internalType": "uint256",
          "name": "tokenId",
          "type": "uint256"
        },
        {
          "indexed": true,
          "internalType": "bytes32",
          "name": "dreamHash",
          "type": "bytes32"
        },
        {
          "components": [
            {
              "internalType": "uint8",
              "name": "creativity",
              "type": "uint8"
            },
            {
              "internalType": "uint8",
              "name": "analytical",
              "type": "uint8"
            },
            {
              "internalType": "uint8",
              "name": "empathy",
              "type": "uint8"
            },
            {
              "internalType": "uint8",
              "name": "intuition",
              "type": "uint8"
            },
            {
              "internalType": "uint8",
              "name": "resilience",
              "type": "uint8"
            },
            {
              "internalType": "uint8",
              "name": "curiosity",
              "type": "uint8"
            },
            {
              "internalType": "string",
              "name": "dominantMood",
              "type": "string"
            },
            {
              "internalType": "uint256",
              "name": "lastDreamDate",
              "type": "uint256"
            }
          ],
          "indexed": false,
          "internalType": "struct IPersonalityEvolution.PersonalityTraits",
          "name": "newPersonality",
          "type": "tuple"
        },
        {
          "components": [
            {
              "internalType": "int8",
              "name": "creativityChange",
              "type": "int8"
            },
            {
              "internalType": "int8",
              "name": "analyticalChange",
              "type": "int8"
            },
            {
              "internalType": "int8",
              "name": "empathyChange",
              "type": "int8"
            },
            {
              "internalType": "int8",
              "name": "intuitionChange",
              "type": "int8"
            },
            {
              "internalType": "int8",
              "name": "resilienceChange",
              "type": "int8"
            },
            {
              "internalType": "int8",
              "name": "curiosityChange",
              "type": "int8"
            },
            {
              "internalType": "string",
              "name": "moodShift",
              "type": "string"
            },
            {
              "internalType": "uint8",
              "name": "evolutionWeight",
              "type": "uint8"
            }
          ],
          "indexed": false,
          "internalType": "struct IPersonalityEvolution.PersonalityImpact",
          "name": "impact",
          "type": "tuple"
        }
      ],
      "name": "PersonalityEvolved",
      "type": "event"
    },
    {
      "anonymous": false,
      "inputs": [
        {
          "indexed": true,
          "internalType": "uint256",
          "name": "tokenId",
          "type": "uint256"
        },
        {
          "indexed": false,
          "internalType": "string",
          "name": "milestone",
          "type": "string"
        },
        {
          "indexed": false,
          "internalType": "uint8",
          "name": "traitValue",
          "type": "uint8"
        },
        {
          "indexed": false,
          "internalType": "string",
          "name": "traitName",
          "type": "string"
        }
      ],
      "name": "PersonalityMilestone",
      "type": "event"
    },
    {
      "anonymous": false,
      "inputs": [
        {
          "indexed": true,
          "internalType": "address",
          "name": "_to",
          "type": "address"
        },
        {
          "indexed": true,
          "internalType": "uint256",
          "name": "_tokenId",
          "type": "uint256"
        },
        {
          "indexed": false,
          "internalType": "bytes16[]",
          "name": "_sealedKeys",
          "type": "bytes16[]"
        }
      ],
      "name": "PublishedSealedKey",
      "type": "event"
    },
    {
      "anonymous": false,
      "inputs": [
        {
          "indexed": true,
          "internalType": "uint256",
          "name": "tokenId",
          "type": "uint256"
        },
        {
          "indexed": false,
          "internalType": "string",
          "name": "newStyle",
          "type": "string"
        },
        {
          "indexed": false,
          "internalType": "string[]",
          "name": "dominantTraits",
          "type": "string[]"
        }
      ],
      "name": "ResponseStyleEvolved",
      "type": "event"
    },
    {
      "anonymous": false,
      "inputs": [
        {
          "indexed": true,
          "internalType": "uint256",
          "name": "tokenId",
          "type": "uint256"
        },
        {
          "indexed": false,
          "internalType": "string",
          "name": "oldStyle",
          "type": "string"
        },
        {
          "indexed": false,
          "internalType": "string",
          "name": "newStyle",
          "type": "string"
        }
      ],
      "name": "ResponseStyleUpdated",
      "type": "event"
    },
    {
      "anonymous": false,
      "inputs": [
        {
          "indexed": false,
          "internalType": "uint256",
          "name": "_tokenId",
          "type": "uint256"
        },
        {
          "indexed": true,
          "internalType": "address",
          "name": "_from",
          "type": "address"
        },
        {
          "indexed": true,
          "internalType": "address",
          "name": "_to",
          "type": "address"
        }
      ],
      "name": "Transferred",
      "type": "event"
    },
    {
      "inputs": [],
      "name": "MAX_AGENTS",
      "outputs": [
        {
          "internalType": "uint256",
          "name": "",
          "type": "uint256"
        }
      ],
      "stateMutability": "view",
      "type": "function"
    },
    {
      "inputs": [],
      "name": "MINTING_FEE",
      "outputs": [
        {
          "internalType": "uint256",
          "name": "",
          "type": "uint256"
        }
      ],
      "stateMutability": "view",
      "type": "function"
    },
    {
      "inputs": [
        {
          "internalType": "uint256",
          "name": "",
          "type": "uint256"
        }
      ],
      "name": "agentPersonalities",
      "outputs": [
        {
          "internalType": "uint8",
          "name": "creativity",
          "type": "uint8"
        },
        {
          "internalType": "uint8",
          "name": "analytical",
          "type": "uint8"
        },
        {
          "internalType": "uint8",
          "name": "empathy",
          "type": "uint8"
        },
        {
          "internalType": "uint8",
          "name": "intuition",
          "type": "uint8"
        },
        {
          "internalType": "uint8",
          "name": "resilience",
          "type": "uint8"
        },
        {
          "internalType": "uint8",
          "name": "curiosity",
          "type": "uint8"
        },
        {
          "internalType": "string",
          "name": "dominantMood",
          "type": "string"
        },
        {
          "internalType": "uint256",
          "name": "lastDreamDate",
          "type": "uint256"
        }
      ],
      "stateMutability": "view",
      "type": "function"
    },
    {
      "inputs": [
        {
          "internalType": "uint256",
          "name": "",
          "type": "uint256"
        }
      ],
      "name": "agents",
      "outputs": [
        {
          "internalType": "address",
          "name": "owner",
          "type": "address"
        },
        {
          "internalType": "string",
          "name": "agentName",
          "type": "string"
        },
        {
          "internalType": "uint256",
          "name": "createdAt",
          "type": "uint256"
        },
        {
          "internalType": "uint256",
          "name": "lastUpdated",
          "type": "uint256"
        },
        {
          "internalType": "uint256",
          "name": "intelligenceLevel",
          "type": "uint256"
        },
        {
          "internalType": "uint256",
          "name": "dreamCount",
          "type": "uint256"
        },
        {
          "internalType": "uint256",
          "name": "conversationCount",
          "type": "uint256"
        },
        {
          "internalType": "bool",
          "name": "personalityInitialized",
          "type": "bool"
        },
        {
          "internalType": "uint256",
          "name": "totalEvolutions",
          "type": "uint256"
        },
        {
          "internalType": "uint256",
          "name": "lastEvolutionDate",
          "type": "uint256"
        }
      ],
      "stateMutability": "view",
      "type": "function"
    },
    {
      "inputs": [
        {
          "internalType": "uint256",
          "name": "tokenId",
          "type": "uint256"
        },
        {
          "internalType": "address",
          "name": "user",
          "type": "address"
        }
      ],
      "name": "authorizeUsage",
      "outputs": [],
      "stateMutability": "nonpayable",
      "type": "function"
    },
    {
      "inputs": [
        {
          "internalType": "uint256",
          "name": "tokenId",
          "type": "uint256"
        }
      ],
      "name": "authorizedUsersOf",
      "outputs": [
        {
          "internalType": "address[]",
          "name": "",
          "type": "address[]"
        }
      ],
      "stateMutability": "view",
      "type": "function"
    },
    {
      "inputs": [
        {
          "internalType": "address",
          "name": "owner",
          "type": "address"
        }
      ],
      "name": "balanceOf",
      "outputs": [
        {
          "internalType": "uint256",
          "name": "",
          "type": "uint256"
        }
      ],
      "stateMutability": "view",
      "type": "function"
    },
    {
      "inputs": [
        {
          "internalType": "uint256",
          "name": "agentA",
          "type": "uint256"
        },
        {
          "internalType": "uint256",
          "name": "agentB",
          "type": "uint256"
        }
      ],
      "name": "calculateCompatibility",
      "outputs": [
        {
          "internalType": "uint256",
          "name": "compatibilityScore",
          "type": "uint256"
        }
      ],
      "stateMutability": "view",
      "type": "function"
    },
    {
      "inputs": [
        {
          "internalType": "uint256",
          "name": "tokenId",
          "type": "uint256"
        }
      ],
      "name": "calculatePersonalityRarity",
      "outputs": [
        {
          "internalType": "uint256",
          "name": "rarityScore",
          "type": "uint256"
        }
      ],
      "stateMutability": "view",
      "type": "function"
    },
    {
      "inputs": [
        {
          "internalType": "uint256",
          "name": "tokenId",
          "type": "uint256"
        }
      ],
      "name": "canProcessDreamToday",
      "outputs": [
        {
          "internalType": "bool",
          "name": "canProcess",
          "type": "bool"
        }
      ],
      "stateMutability": "view",
      "type": "function"
    },
    {
      "inputs": [
        {
          "internalType": "address",
          "name": "to",
          "type": "address"
        },
        {
          "internalType": "uint256",
          "name": "tokenId",
          "type": "uint256"
        },
        {
          "internalType": "bytes[]",
          "name": "",
          "type": "bytes[]"
        }
      ],
      "name": "clone",
      "outputs": [
        {
          "internalType": "uint256",
          "name": "newTokenId",
          "type": "uint256"
        }
      ],
      "stateMutability": "payable",
      "type": "function"
    },
    {
      "inputs": [
        {
          "internalType": "address",
          "name": "",
          "type": "address"
        },
        {
          "internalType": "uint256",
          "name": "",
          "type": "uint256"
        }
      ],
      "name": "clonePublic",
      "outputs": [
        {
          "internalType": "uint256",
          "name": "",
          "type": "uint256"
        }
      ],
      "stateMutability": "payable",
      "type": "function"
    },
    {
      "inputs": [
        {
          "internalType": "uint256",
          "name": "",
          "type": "uint256"
        },
        {
          "internalType": "uint256",
          "name": "",
          "type": "uint256"
        }
      ],
      "name": "conversationHashes",
      "outputs": [
        {
          "internalType": "bytes32",
          "name": "",
          "type": "bytes32"
        }
      ],
      "stateMutability": "view",
      "type": "function"
    },
    {
      "inputs": [
        {
          "internalType": "uint256",
          "name": "",
          "type": "uint256"
        },
        {
          "internalType": "uint256",
          "name": "",
          "type": "uint256"
        }
      ],
      "name": "dreamAnalysisHashes",
      "outputs": [
        {
          "internalType": "bytes32",
          "name": "",
          "type": "bytes32"
        }
      ],
      "stateMutability": "view",
      "type": "function"
    },
    {
      "inputs": [
        {
          "internalType": "uint256",
          "name": "",
          "type": "uint256"
        },
        {
          "internalType": "uint256",
          "name": "",
          "type": "uint256"
        }
      ],
      "name": "dreamHashes",
      "outputs": [
        {
          "internalType": "bytes32",
          "name": "",
          "type": "bytes32"
        }
      ],
      "stateMutability": "view",
      "type": "function"
    },
    {
      "inputs": [
        {
          "internalType": "string",
          "name": "traitName",
          "type": "string"
        },
        {
          "internalType": "uint8",
          "name": "minValue",
          "type": "uint8"
        },
        {
          "internalType": "uint8",
          "name": "maxValue",
          "type": "uint8"
        },
        {
          "internalType": "uint256",
          "name": "offset",
          "type": "uint256"
        },
        {
          "internalType": "uint256",
          "name": "limit",
          "type": "uint256"
        }
      ],
      "name": "findAgentsByTrait",
      "outputs": [
        {
          "internalType": "uint256[]",
          "name": "tokenIds",
          "type": "uint256[]"
        }
      ],
      "stateMutability": "view",
      "type": "function"
    },
    {
      "inputs": [
        {
          "internalType": "uint256",
          "name": "tokenId",
          "type": "uint256"
        }
      ],
      "name": "getAgentName",
      "outputs": [
        {
          "internalType": "string",
          "name": "",
          "type": "string"
        }
      ],
      "stateMutability": "view",
      "type": "function"
    },
    {
      "inputs": [
        {
          "internalType": "uint256",
          "name": "tokenId",
          "type": "uint256"
        },
        {
          "internalType": "uint256",
          "name": "limit",
          "type": "uint256"
        }
      ],
      "name": "getConversationHistory",
      "outputs": [
        {
          "internalType": "bytes32[]",
          "name": "conversationHashesArray",
          "type": "bytes32[]"
        }
      ],
      "stateMutability": "view",
      "type": "function"
    },
    {
      "inputs": [
        {
          "internalType": "uint256",
          "name": "tokenId",
          "type": "uint256"
        }
      ],
      "name": "getCreationTime",
      "outputs": [
        {
          "internalType": "uint256",
          "name": "",
          "type": "uint256"
        }
      ],
      "stateMutability": "view",
      "type": "function"
    },
    {
      "inputs": [
        {
          "internalType": "uint256",
          "name": "tokenId",
          "type": "uint256"
        }
      ],
      "name": "getDominantTraits",
      "outputs": [
        {
          "internalType": "string[]",
          "name": "traits",
          "type": "string[]"
        },
        {
          "internalType": "uint8[]",
          "name": "values",
          "type": "uint8[]"
        }
      ],
      "stateMutability": "view",
      "type": "function"
    },
    {
      "inputs": [
        {
          "internalType": "uint256",
          "name": "tokenId",
          "type": "uint256"
        },
        {
          "internalType": "uint256",
          "name": "limit",
          "type": "uint256"
        }
      ],
      "name": "getDreamHistory",
      "outputs": [
        {
          "internalType": "bytes32[]",
          "name": "dreamHashesArray",
          "type": "bytes32[]"
        }
      ],
      "stateMutability": "view",
      "type": "function"
    },
    {
      "inputs": [
        {
          "internalType": "uint256",
          "name": "tokenId",
          "type": "uint256"
        }
      ],
      "name": "getEvolutionStats",
      "outputs": [
        {
          "internalType": "uint256",
          "name": "totalEvolutions",
          "type": "uint256"
        },
        {
          "internalType": "uint256",
          "name": "evolutionRate",
          "type": "uint256"
        },
        {
          "internalType": "uint256",
          "name": "lastEvolution",
          "type": "uint256"
        }
      ],
      "stateMutability": "view",
      "type": "function"
    },
    {
      "inputs": [
        {
          "internalType": "uint256[]",
          "name": "tokenIds",
          "type": "uint256[]"
        }
      ],
      "name": "getPersonalitySummaries",
      "outputs": [
        {
          "components": [
            {
              "internalType": "uint8",
              "name": "creativity",
              "type": "uint8"
            },
            {
              "internalType": "uint8",
              "name": "analytical",
              "type": "uint8"
            },
            {
              "internalType": "uint8",
              "name": "empathy",
              "type": "uint8"
            },
            {
              "internalType": "uint8",
              "name": "intuition",
              "type": "uint8"
            },
            {
              "internalType": "uint8",
              "name": "resilience",
              "type": "uint8"
            },
            {
              "internalType": "uint8",
              "name": "curiosity",
              "type": "uint8"
            },
            {
              "internalType": "string",
              "name": "dominantMood",
              "type": "string"
            },
            {
              "internalType": "uint256",
              "name": "lastDreamDate",
              "type": "uint256"
            }
          ],
          "internalType": "struct IPersonalityEvolution.PersonalityTraits[]",
          "name": "summaries",
          "type": "tuple[]"
        }
      ],
      "stateMutability": "view",
      "type": "function"
    },
    {
      "inputs": [
        {
          "internalType": "uint256",
          "name": "tokenId",
          "type": "uint256"
        }
      ],
      "name": "getPersonalityTraits",
      "outputs": [
        {
          "components": [
            {
              "internalType": "uint8",
              "name": "creativity",
              "type": "uint8"
            },
            {
              "internalType": "uint8",
              "name": "analytical",
              "type": "uint8"
            },
            {
              "internalType": "uint8",
              "name": "empathy",
              "type": "uint8"
            },
            {
              "internalType": "uint8",
              "name": "intuition",
              "type": "uint8"
            },
            {
              "internalType": "uint8",
              "name": "resilience",
              "type": "uint8"
            },
            {
              "internalType": "uint8",
              "name": "curiosity",
              "type": "uint8"
            },
            {
              "internalType": "string",
              "name": "dominantMood",
              "type": "string"
            },
            {
              "internalType": "uint256",
              "name": "lastDreamDate",
              "type": "uint256"
            }
          ],
          "internalType": "struct IPersonalityEvolution.PersonalityTraits",
          "name": "traits",
          "type": "tuple"
        }
      ],
      "stateMutability": "view",
      "type": "function"
    },
    {
      "inputs": [
        {
          "internalType": "uint256",
          "name": "tokenId",
          "type": "uint256"
        }
      ],
      "name": "getResponseStyle",
      "outputs": [
        {
          "internalType": "string",
          "name": "style",
          "type": "string"
        },
        {
          "internalType": "string",
          "name": "primaryTrait",
          "type": "string"
        }
      ],
      "stateMutability": "view",
      "type": "function"
    },
    {
      "inputs": [
        {
          "internalType": "uint256",
          "name": "tokenId",
          "type": "uint256"
        },
        {
          "internalType": "string",
          "name": "traitName",
          "type": "string"
        },
        {
          "internalType": "uint256",
          "name": "limit",
          "type": "uint256"
        }
      ],
      "name": "getTraitEvolution",
      "outputs": [
        {
          "internalType": "uint256[]",
          "name": "timestamps",
          "type": "uint256[]"
        },
        {
          "internalType": "uint8[]",
          "name": "values",
          "type": "uint8[]"
        }
      ],
      "stateMutability": "view",
      "type": "function"
    },
    {
      "inputs": [
        {
          "internalType": "uint256",
          "name": "tokenId",
          "type": "uint256"
        },
        {
          "internalType": "string",
          "name": "milestone",
          "type": "string"
        }
      ],
      "name": "hasMilestone",
      "outputs": [
        {
          "internalType": "bool",
          "name": "achieved",
          "type": "bool"
        },
        {
          "internalType": "uint256",
          "name": "achievedAt",
          "type": "uint256"
        }
      ],
      "stateMutability": "view",
      "type": "function"
    },
    {
      "inputs": [
        {
          "internalType": "uint256",
          "name": "",
          "type": "uint256"
        },
        {
          "internalType": "string",
          "name": "",
          "type": "string"
        }
      ],
      "name": "milestones",
      "outputs": [
        {
          "internalType": "bool",
          "name": "achieved",
          "type": "bool"
        },
        {
          "internalType": "uint256",
          "name": "achievedAt",
          "type": "uint256"
        },
        {
          "internalType": "uint8",
          "name": "traitValue",
          "type": "uint8"
        }
      ],
      "stateMutability": "view",
      "type": "function"
    },
    {
      "inputs": [
        {
          "internalType": "bytes[]",
          "name": "",
          "type": "bytes[]"
        },
        {
          "internalType": "string[]",
          "name": "",
          "type": "string[]"
        },
        {
          "internalType": "address",
          "name": "",
          "type": "address"
        }
      ],
      "name": "mint",
      "outputs": [
        {
          "internalType": "uint256",
          "name": "",
          "type": "uint256"
        }
      ],
      "stateMutability": "payable",
      "type": "function"
    },
    {
      "inputs": [
        {
          "internalType": "bytes[]",
          "name": "proofs",
          "type": "bytes[]"
        },
        {
          "internalType": "string[]",
          "name": "descriptions",
          "type": "string[]"
        },
        {
          "internalType": "string",
          "name": "agentName",
          "type": "string"
        },
        {
          "internalType": "address",
          "name": "to",
          "type": "address"
        },
        {
          "components": [
            {
              "internalType": "uint8",
              "name": "creativity",
              "type": "uint8"
            },
            {
              "internalType": "uint8",
              "name": "analytical",
              "type": "uint8"
            },
            {
              "internalType": "uint8",
              "name": "empathy",
              "type": "uint8"
            },
            {
              "internalType": "uint8",
              "name": "intuition",
              "type": "uint8"
            },
            {
              "internalType": "uint8",
              "name": "resilience",
              "type": "uint8"
            },
            {
              "internalType": "uint8",
              "name": "curiosity",
              "type": "uint8"
            },
            {
              "internalType": "string",
              "name": "dominantMood",
              "type": "string"
            },
            {
              "internalType": "uint256",
              "name": "lastDreamDate",
              "type": "uint256"
            }
          ],
          "internalType": "struct IPersonalityEvolution.PersonalityTraits",
          "name": "initialPersonality",
          "type": "tuple"
        }
      ],
      "name": "mintWithPersonality",
      "outputs": [
        {
          "internalType": "uint256",
          "name": "tokenId",
          "type": "uint256"
        }
      ],
      "stateMutability": "payable",
      "type": "function"
    },
    {
      "inputs": [],
      "name": "name",
      "outputs": [
        {
          "internalType": "string",
          "name": "",
          "type": "string"
        }
      ],
      "stateMutability": "view",
      "type": "function"
    },
    {
      "inputs": [
        {
          "internalType": "string",
          "name": "",
          "type": "string"
        }
      ],
      "name": "nameExists",
      "outputs": [
        {
          "internalType": "bool",
          "name": "",
          "type": "bool"
        }
      ],
      "stateMutability": "view",
      "type": "function"
    },
    {
      "inputs": [],
      "name": "nextTokenId",
      "outputs": [
        {
          "internalType": "uint256",
          "name": "",
          "type": "uint256"
        }
      ],
      "stateMutability": "view",
      "type": "function"
    },
    {
      "inputs": [
        {
          "internalType": "uint256",
          "name": "tokenId",
          "type": "uint256"
        }
      ],
      "name": "ownerOf",
      "outputs": [
        {
          "internalType": "address",
          "name": "",
          "type": "address"
        }
      ],
      "stateMutability": "view",
      "type": "function"
    },
    {
      "inputs": [
        {
          "internalType": "uint256",
          "name": "tokenId",
          "type": "uint256"
        },
        {
          "internalType": "bytes32",
          "name": "dreamHash",
          "type": "bytes32"
        },
        {
          "internalType": "bytes32",
          "name": "dreamAnalysisHash",
          "type": "bytes32"
        },
        {
          "components": [
            {
              "internalType": "int8",
              "name": "creativityChange",
              "type": "int8"
            },
            {
              "internalType": "int8",
              "name": "analyticalChange",
              "type": "int8"
            },
            {
              "internalType": "int8",
              "name": "empathyChange",
              "type": "int8"
            },
            {
              "internalType": "int8",
              "name": "intuitionChange",
              "type": "int8"
            },
            {
              "internalType": "int8",
              "name": "resilienceChange",
              "type": "int8"
            },
            {
              "internalType": "int8",
              "name": "curiosityChange",
              "type": "int8"
            },
            {
              "internalType": "string",
              "name": "moodShift",
              "type": "string"
            },
            {
              "internalType": "uint8",
              "name": "evolutionWeight",
              "type": "uint8"
            }
          ],
          "internalType": "struct IPersonalityEvolution.PersonalityImpact",
          "name": "impact",
          "type": "tuple"
        }
      ],
      "name": "processDailyDream",
      "outputs": [],
      "stateMutability": "nonpayable",
      "type": "function"
    },
    {
      "inputs": [
        {
          "internalType": "uint256",
          "name": "tokenId",
          "type": "uint256"
        },
        {
          "internalType": "bytes32",
          "name": "conversationHash",
          "type": "bytes32"
        },
        {
          "internalType": "enum IPersonalityEvolution.ContextType",
          "name": "contextType",
          "type": "uint8"
        }
      ],
      "name": "recordConversation",
      "outputs": [],
      "stateMutability": "nonpayable",
      "type": "function"
    },
    {
      "inputs": [
        {
          "internalType": "uint256",
          "name": "",
          "type": "uint256"
        }
      ],
      "name": "responseStyles",
      "outputs": [
        {
          "internalType": "string",
          "name": "",
          "type": "string"
        }
      ],
      "stateMutability": "view",
      "type": "function"
    },
    {
      "inputs": [
        {
          "internalType": "bytes4",
          "name": "interfaceId",
          "type": "bytes4"
        }
      ],
      "name": "supportsInterface",
      "outputs": [
        {
          "internalType": "bool",
          "name": "",
          "type": "bool"
        }
      ],
      "stateMutability": "pure",
      "type": "function"
    },
    {
      "inputs": [],
      "name": "symbol",
      "outputs": [
        {
          "internalType": "string",
          "name": "",
          "type": "string"
        }
      ],
      "stateMutability": "view",
      "type": "function"
    },
    {
      "inputs": [
        {
          "internalType": "uint256",
          "name": "tokenId",
          "type": "uint256"
        }
      ],
      "name": "tokenURI",
      "outputs": [
        {
          "internalType": "string",
          "name": "",
          "type": "string"
        }
      ],
      "stateMutability": "view",
      "type": "function"
    },
    {
      "inputs": [],
      "name": "totalAgents",
      "outputs": [
        {
          "internalType": "uint256",
          "name": "",
          "type": "uint256"
        }
      ],
      "stateMutability": "view",
      "type": "function"
    },
    {
      "inputs": [],
      "name": "totalFeesCollected",
      "outputs": [
        {
          "internalType": "uint256",
          "name": "",
          "type": "uint256"
        }
      ],
      "stateMutability": "view",
      "type": "function"
    },
    {
      "inputs": [],
      "name": "totalSupply",
      "outputs": [
        {
          "internalType": "uint256",
          "name": "",
          "type": "uint256"
        }
      ],
      "stateMutability": "view",
      "type": "function"
    },
    {
      "inputs": [
        {
          "internalType": "uint256",
          "name": "",
          "type": "uint256"
        },
        {
          "internalType": "string",
          "name": "",
          "type": "string"
        },
        {
          "internalType": "uint256",
          "name": "",
          "type": "uint256"
        }
      ],
      "name": "traitHistory",
      "outputs": [
        {
          "internalType": "uint256",
          "name": "timestamp",
          "type": "uint256"
        },
        {
          "internalType": "uint8",
          "name": "oldValue",
          "type": "uint8"
        },
        {
          "internalType": "uint8",
          "name": "newValue",
          "type": "uint8"
        },
        {
          "internalType": "bytes32",
          "name": "dreamHash",
          "type": "bytes32"
        }
      ],
      "stateMutability": "view",
      "type": "function"
    },
    {
      "inputs": [
        {
          "internalType": "address",
          "name": "to",
          "type": "address"
        },
        {
          "internalType": "uint256",
          "name": "tokenId",
          "type": "uint256"
        },
        {
          "internalType": "bytes[]",
          "name": "",
          "type": "bytes[]"
        }
      ],
      "name": "transfer",
      "outputs": [],
      "stateMutability": "nonpayable",
      "type": "function"
    },
    {
      "inputs": [
        {
          "internalType": "address",
          "name": "",
          "type": "address"
        },
        {
          "internalType": "uint256",
          "name": "",
          "type": "uint256"
        }
      ],
      "name": "transferPublic",
      "outputs": [],
      "stateMutability": "pure",
      "type": "function"
    },
    {
      "inputs": [],
      "name": "treasury",
      "outputs": [
        {
          "internalType": "address",
          "name": "",
          "type": "address"
        }
      ],
      "stateMutability": "view",
      "type": "function"
    },
    {
      "inputs": [],
      "name": "verifier",
      "outputs": [
        {
          "internalType": "contract IERC7857DataVerifier",
          "name": "",
          "type": "address"
        }
      ],
      "stateMutability": "view",
      "type": "function"
    }
  ],
  "transactionHash": "0x885ac1fc35f00aa93498057da9711ff8e717f096cbad98bbfa35593f2b33d04d",
  "args": [
    "0x3a28de282Bb6e1D00939d83D4BBd715A72c1D863",
    "0x0f13e85B575964B8b4b77E37d43A6aE9E354e94C"
  ],
  "numDeployments": 1,
  "solcInputHash": "6e1cdc082e10b1e9788c0658b5731bc8",
  "bytecode": "0x60c0346200022f57601f9062005ded38819003838101601f1916830191906001600160401b03831184841017620002345780849260409485528339810103126200022f576200005c602062000054836200024a565b92016200024a565b91600180600255600080600355806004556200007a600c546200025f565b838111620001e2575b507f447265616d7363617065204149204167656e747320763200000000000000002e600c55600d54620000b6906200025f565b90838211620001b6575b5050600e66222922a0a6bb1960c91b01600d55506001600160a01b0391821691821562000171578316156200012d575060a052608052604051615b5090816200029d8239608051818181611cf4015281816123430152613170015260a051818181612c020152613c850152f35b6064906040519062461bcd60e51b82526020600483015260248201527f54726561737572792063616e6e6f74206265207a65726f2061646472657373006044820152fd5b60405162461bcd60e51b815260206004820152602481018390527f56657269666965722063616e6e6f74206265207a65726f2061646472657373006044820152606490fd5b600d81528360208220920160051c8201915b828110620001d75750620000c0565b8181558301620001c8565b600c8252830160051c7fdf6966c971051c3d54ec59162606531493a51404a002842f56009d7e5cf4a8c79081019083905b8281106200022357505062000083565b83815501839062000213565b600080fd5b634e487b7160e01b600052604160045260246000fd5b51906001600160a01b03821682036200022f57565b90600182811c9216801562000291575b60208310146200027b57565b634e487b7160e01b600052602260045260246000fd5b91607f16916200026f56fe608080604052600436101561001357600080fd5b60003560e01c90816301ffc9a7146141535750806304f74d741461412257806304fe06b314613ff157806306fdde0314613f4c5780631578e53b14613f1357806318160ddd146108ca5780631aeb542f14613e9b5780631f2e589e14613e0c5780632980471d14613cb45780632b7ac3f314613c6f5780632ba97a30146138fe5780633481e7bf1461389f5780633b414902146129f75780633b91f36a146128235780633d88cae9146127c25780633db43fb3146126f85780634c120766146125a15780634eb22e9e146124fd578063513856c8146124395780635436972c1461240357806358c812aa1461239057806360c6d8ae1461237257806361d027b31461232d5780636352211e146122f9578063687663db146121a35780636a28ef3b146121725780636bb6ceb4146120e157806370a082311461205b5780637289fdd614611be457806375794a3c14611bc657806380bb401214611b8757806386e7b94d14611b6d57806395d89b4114611a8b57806397ec23cb14611a5c57806398a9ce2e14611a035780639ccff74914610c09578063a501445214610b6a578063ab30be8714610b4d578063aec1037e14610910578063b7125e9b146108e8578063c5053712146108ca578063c87b56dd14610533578063cc637afe146104d2578063d642b4b1146104af578063dfdad7de146103db578063e32b178d14610375578063ed2c77f2146103435763fa83d14e1461022f57600080fd5b3461033e57604036600319011261033e576001600160a01b03602435818116916004359183900361033e5781600052600060205261027581604060002054163314614bc9565b82156102f95781600052600060205260066040600020018054600160401b8110156102e3576102a9916001820181556141d4565b819291549060031b9185831b921b19161790557f32a4407627195670dd4c989ee38441e11ab643ccd4759c25d9c0bd6a635039db600080a3005b634e487b7160e01b600052604160045260246000fd5b60405162461bcd60e51b815260206004820152601d60248201527f43616e6e6f7420617574686f72697a65207a65726f20616464726573730000006044820152606490fd5b600080fd5b3461033e5761037161035d610357366141be565b90614e53565b60405191829160208352602083019061422f565b0390f35b3461033e57602036600319011261033e57600435610391614dd7565b508060005260006020526103af60ff600a6040600020015416614c07565b60005260056020526103716103c76040600020614c86565b6040519182916020835260208301906145ff565b3461033e576103e936614684565b50506001600160a01b0391821691821561046a5760207f0ea8df787dde63a7bdc34d17097adf25749a3521f660e92dabdff8d6ee91d18a91836000526000825261043b81604060002054163314614bc9565b836000526000825260406000208054908660018060a01b031983161781556003429101556040519485521692a3005b60405162461bcd60e51b815260206004820152601f60248201527f43616e6e6f74207472616e7366657220746f207a65726f2061646472657373006044820152606490fd5b3461033e57600036600319011261033e57602060405167016345785d8a00008152f35b3461033e57602036600319011261033e576004356001600160401b03811161033e5760ff61051d602061050a8194369060040161452c565b816040519382858094519384920161444c565b8101600181520301902054166040519015158152f35b3461033e5760208060031936011261033e57600435600081815280835260409020546001600160a01b0392919083161561088e576101038161087a9260005260008452604060002060405195610588876143a0565b8154168652607d60f81b6040516105ad816105a681600187016142d4565b0382614429565b86880190815260028301546040890152600383015460608901526105d36004840161592f565b60808901526040516105ec816105a68160058801614e16565b60a08901526105fd600684016158d7565b60c089015260078301549360e089019485526008840154986101a061065e600d610100978885019d8e52600981015461012086015260ff600a820154161515610140860152600b810154610160860152600c8101546101808601520161592f565b9101526000526005875261068b61068461067b6040600020614c86565b92519551615994565b9851615994565b6106a760ff604061069e82865116615994565b94015116615994565b91604051998a967f646174613a6170706c69636174696f6e2f6a736f6e2c7b226e616d65223a22008b8901526106e6815180928d603f8c01910161444c565b61088b60f21b603f918901918201527f226465736372697074696f6e223a22447265616d7363617065204149204167656041820152631b9d088b60e21b60618201526d2261747472696275746573223a5b60901b60658201527f7b2274726169745f74797065223a22496e74656c6c6967656e6365222c227661607382015264363ab2911d60d91b609382015281519161078890839060988401908e0161444c565b0191611f4b60f21b928360988201527f7b2274726169745f74797065223a22447265616d73222c2276616c7565223a00609a8201526107d0825180938d60b98501910161444c565b018260b98201527f7b2274726169745f74797065223a2243726561746976697479222c2276616c7560bb8201526232911d60e91b60db82015261081c825180938c60de8501910161444c565b019060de8201527f7b2274726169745f74797065223a22456d7061746879222c2276616c7565223a60e082015261085b825180938a878501910161444c565b0191820152615d7d60f01b6101018201520360e3810185520183614429565b61037160405192828493845283019061446f565b60405162461bcd60e51b8152600481018390526014602482015273151bdad95b88191bd95cc81b9bdd08195e1a5cdd60621b6044820152606490fd5b3461033e57600036600319011261033e576020600354604051908152f35b3461033e57602036600319011261033e576020610906600435614f47565b6040519015158152f35b3461033e5761091e366141be565b816000526020916000835260ff9081600a604060002001541680610b38575b15610af357600052600583526109566040600020614c86565b916000526005835261096b6040600020614c86565b9161097d8282511683855116906153f1565b9060649382850393858511610add576109a1818885015116828985015116906153f1565b9485870393878511610add576109c48360408301511684604087015116906153f1565b808903898111610add576109e58560608501511686606089015116906153f1565b93848b03938b8511610add57610a08876080830151168860808b015116906153f1565b97888d03978d8911610add5760a08181610a299501511692015116906153f1565b97888c03998c8b11610add5760148302928304601414908d141715610add57600f9a8b82029182048c14908d141715610add57610a6591614afd565b9160198202918204601914908b141715610add57610a8291614afd565b9187820291820488149089141715610add57610a9d91614afd565b91600a8202918204600a149087141715610add57610aba91614afd565b92808302928304149084141715610add57610ad491614afd565b04604051908152f35b634e487b7160e01b600052601160045260246000fd5b60405162461bcd60e51b815260048101859052601d60248201527f506572736f6e616c6974696573206e6f7420696e697469616c697a65640000006044820152606490fd5b508260005281600a604060002001541661093d565b3461033e57600036600319011261033e5760206040516103e88152f35b606036600319011261033e576001600160401b0360043581811161033e57610b969036906004016144aa565b505060243590811161033e57610bb09036906004016144aa565b50506044356001600160a01b0381160361033e5760405162461bcd60e51b815260206004820152601f60248201527f557365206d696e7457697468506572736f6e616c69747920696e7374656164006044820152606490fd5b3461033e5760031960803682011261033e576001600160401b036064351161033e57610100906064353603011261033e576004356000526000602052610c5d60018060a01b03604060002054163314614bc9565b6004356000526000602052610c7c60ff600a6040600020015416614c07565b610c87600435614f47565b156119be5760046064350135600081900b14158061033e576009196004606435013560000b1215806119a7575b610cbd90614fa6565b60643560240135600081900b1415908161033e576009196064356024013560000b121580611990575b610cef90614fa6565b60643560440135600081900b14158061033e576009196064356044013560000b121580611979575b610d2090614fa6565b606480350135600081900b14158061033e5760091960648035013560000b121580611963575b610d4f90614fa6565b60643560840135600081900b1415908161033e576009196064356084013560000b12158061194c575b610d8190614fa6565b60643560a40135600081900b1415928361033e5760091960643560a4013560000b121580611935575b610db390614fa6565b60ff610dc360e460643501614a3b565b1615158061191b575b156118e557610de560c460643501606435600401614acb565b9050156118b3576004356000526006602052610e076024356040600020614c51565b6004356000526008602052610e226044356040600020614c51565b6004356000526005602052604060002095610e3c87614c86565b9560ff8854169061033e57610e6960ff91602435906064356004013590610e61614cf8565b600435614fe3565b1660ff19885416179081885561033e57610e9a610ea0916024359060ff602460643501359160081c16610e61614d1e565b87614a49565b85549061033e57610ec8610ece916024359060ff604460643501359160101c16610e61614d44565b86614a5f565b84549061033e57610ef5610efb916024359060ff6064803501359160181c16610e61614d67565b85614a77565b60ff845460201c169061033e57610f23610f2991602435906084606435013590610e61614d8c565b84614a91565b82549061033e57610f51610f57916024359060ff60a460643501359160281c16610e61614db2565b83614aae565b610f6b60c460643501606435600401614acb565b906001600160401b0382116102e3578190610f9682610f8d600188015461429a565b60018801614826565b600090601f831160011461184257600092611837575b50508160011b916000199060031b1c19161760018301555b42600283015560043560005260006020526008604060002001610fe781546147a4565b90556004356000526000602052600b60406000200161100681546147a4565b90556004356000526000602052604060002042600c8201554260038201556003600882015406156117ca575b50605a60ff606061104285614c86565b9360558360408301511610806117b9575b61177b575b8383825116108061176e575b611732575b83836020830151161080611722575b6116e8575b01511610806116d6575b611696575b603c60ff825116119081611683575b81611670575b8161165d575b8161164a575b81611637575b50806115fd575b6114ab575b6110d06110cb82614c86565b61512e565b600435600052600b6020526105a66110f26040600020604051928380926142d4565b60208151910120815160208301200361128b575b50604051906040825260ff81548181166040850152818160081c166060850152818160101c166080850152818160181c1660a0850152818160201c1660c085015260281c1660e083015261010080830152600261116a6101408401600184016142d4565b91015461012083015281810360208301526064356004013560000b81526024606435013560000b60208201526044606435013560000b604082015260648035013560000b60608201526084606435013560000b608082015260a4606435013560000b60a08201526111fb6111e860c460643501606435600401614740565b61010060c085015261010084019161471f565b9060e060ff61120e60e4606435016145a6565b169101527f4188327df0df4e6ad8674fc37ff48b2b049fdaae33e3c8e38275816040949af26024359280600435930390a3600435600052600060205260076040600020015460405190602435825260208201527f871f9739b79e9efd6285318758001f00502185ff0d254a080922cd80580c3e02604060043592a2005b600435600052600b6020526105a66112ad6040600020604051928380926142d4565b600435600052600b6020526112c682604060002061486d565b7f90f9e809e3805f30ac3fc3562ac1fb69527e27e23e063a99f43a92343f35c9d2604051806112f98560043595836145b4565b0390a260043560005260056020526113146040600020614c86565b9061131d6147d8565b9160ff60a06040519261132f84614385565b82815116845282602082015116602085015282604082015116604085015282606082015116606085015282608082015116608085015201511660a08201526040519061137a82614385565b611382614cf8565b825261138c614d1e565b6020830152611399614d44565b60408301526113a6614d67565b60608301526113b3614d8c565b60808301526113c0614db2565b60a083015260005b600381106114295750505061140f7fff8866d78ff3fc4f37232c9d6da12c9b2168edd42074faa52ea90054f0abcf6d9161142060405192839260408452604084019061446f565b82810360208401526004359561454a565b0390a281611106565b600060015b6006811061147357509060006114688361144b61146e9588614f95565b51611456858b6147b3565b52611461848a6147b3565b5085614f95565b526147a4565b6113c8565b60ff61147f8286614f95565b511660ff61148d8487614f95565b5116106114a3575b61149e906147a4565b61142e565b905080611495565b6040516114b78161440e565b600d81526c18985b185b98d95917dcdbdd5b609a1b60208201526040516114dd8161436a565b6001815260ff600260208301924284526040810193603c8552600435600052600960205261151c6115126040600020886145d9565b92511515836147c7565b5160018201550191511660ff198254161790556004356000526000602052600d6040600020018054600160401b8110156102e35761155f916001820181556141d4565b6115e7578161156d9161486d565b60405160608152600080516020615abb833981519152611590606083018461446f565b91603c6020820152600081840393846040840152526020600435930190a2600080516020615a5b8339815191526115d26040519260408452604084019061446f565b91603c602082015280600435930390a26110bf565b634e487b7160e01b600052600060045260246000fd5b50600435600052600960205260ff602d6040600020604051906c18985b185b98d95917dcdbdd5b609a1b8252600d820152205416156110ba565b603c915060a060ff9101511611826110b3565b9050603c60ff60808301511611906110ad565b9050603c60ff60608301511611906110a7565b9050603c60ff60408301511611906110a1565b9050603c60ff602083015116119061109b565b6116d160ff6060830151166040516116ad8161440e565b600f81526e73706972697475616c5f677569646560881b60208201526004356152bc565b61108c565b50605a60ff6060830151161015611087565b61171d836020870151166040516116fe8161440e565b600a8152691b1bd9da58d7db1bdc9960b21b60208201526004356152bc565b61107d565b5083836020870151161015611078565b611769838651166040516117458161440e565b600f81526e63726561746976655f67656e69757360881b60208201526004356152bc565b611069565b5083838651161015611064565b6117b4836040870151166040516117918161440e565b600e81526d32b6b830ba343cafb6b0b9ba32b960911b60208201526004356152bc565b611058565b506055836040870151161015611053565b6007016117d781546147a4565b9055600435600052600060205260076040600020015480600019810111610add576004356000526000602052600760406000200154604051916000190182526020820152600080516020615adb833981519152604060043592a282611032565b013590508480610fac565b909250600185016000526020600020906000935b601f198416851061189b576001945083601f19811610611881575b505050811b016001830155610fc4565b0135600019600384901b60f8161c19169055848080611871565b81810135835560209485019460019093019201611856565b60405162461bcd60e51b815260206004820152600a602482015269115b5c1d1e481b5bdbd960b21b6044820152606490fd5b60405162461bcd60e51b815260206004820152600e60248201526d125b9d985b1a59081dd95a59da1d60921b6044820152606490fd5b50606460ff61192d60e4833501614a3b565b161115610dcc565b5060009350600a60643560a40135850b1315610daa565b5060009150600a60643560840135830b1315610d78565b5060009050600a606480350135820b1315610d46565b5060009050600a60643560440135820b1315610d17565b5060009150600a60643560240135830b1315610ce6565b5060009050600a60046064350135820b1315610cb4565b60405162461bcd60e51b815260206004820152601d60248201527f4461696c7920647265616d20616c72656164792070726f6365737365640000006044820152606490fd5b604036600319011261033e57611a17614494565b5060405162461bcd60e51b815260206004820152601c60248201527b141d589b1a58c818db1bdb99481b9bdd081a5b5c1b195b595b9d195960221b6044820152606490fd5b3461033e57602036600319011261033e5760043560005260006020526020600260406000200154604051908152f35b3461033e57600036600319011261033e57604051600090600d54611aae8161429a565b808352600191808316908115611b455750600114611aeb575b61037183611ad781870382614429565b60405191829160208352602083019061446f565b600d600090815260209450917fd7b6990105719101dabeb77144f2a3385c8033acd3af97e9423a695e81ad1eb55b828410611b3257505050810190910190611ad781611ac7565b8054858501870152928501928101611b19565b6103719550611ad793506020915091849260ff191682840152151560051b8201019350611ac7565b3461033e5761037161035d611b81366141be565b90614ee3565b3461033e57611b95366141be565b9060005260086020526040600020805482101561033e57602091611bb8916141d4565b90546040519160031b1c8152f35b3461033e57600036600319011261033e576020600254604051908152f35b611bed36614684565b50506001600160a01b0391821691908215612017578060005260209260008452611c1f83604060002054163314614bc9565b6003916103e883541015611fd35767016345785d8a000092833410611f905760006002805496611c4e886147a4565b8255848352828952604083208884526040842090808203611ed1575b50505086825281885281600b604082208760018060a01b03198254161781554284820155428682015582600882015582600982015501558382526005885260408220878352816040842091808303611e53575b50505086825260058852604082200155611cd781546147a4565b9055600454838101809111610add57600455611d236000808080877f00000000000000000000000000000000000000000000000000000000000000005af1611d1d614b0a565b50614b3a565b823411611e21575b83817f40b442ee2bb535802063305b95f127b5101e5fce261a5dec9379683eaaad8cdb60408051338152868a820152a3600052600084526040600020836004820191611d8560405191604083526005604084019101614e16565b81810388830152835480825288820191898260051b8201019560005289600020926000915b8b848410611df05750505050505080600080516020615afb8339815191529133940390a460405190815281600080516020615a7b833981519152843393a3604051908152f35b9092949760019294969750611e0f8391601f198682030187528a6142d4565b98019301930190928995949293611daa565b67016345785d89ffff193401348111610add576000808080611e4e94335af1611e48614b0a565b50614b8d565b611d2b565b8190611eb48c611ea860ff80928186541660ff198a5416178955611e7d82875460081c168a614a49565b611e8d82875460101c168a614a5f565b611e9d82875460181c168a614a77565b8554901c1687614a91565b825460281c1685614aae565b611ec460018201600186016156e2565b0154910155888181611cbd565b600d81611f88948293541660018060a01b0319855416178455611efa60018201600186016156e2565b85810154868501558781015488850155611f1a60048201600486016157be565b611f2a6005820160058601615810565b611f3a600682016006860161586e565b600781015460078501556008810154600885015560098101546009850155611f6c60ff600a83015416600a86016147c7565b600b810154600b850155600c810154600c8501550191016157be565b888080611c6a565b6064866040519062461bcd60e51b825280600483015260248201527f496e73756666696369656e74207061796d656e7420666f7220636c6f6e696e676044820152fd5b60405162461bcd60e51b815260048101869052601c60248201527b13585e1a5b5d5b481859d95b9d1cc81b1a5b5a5d081c995858da195960221b6044820152606490fd5b60405162461bcd60e51b815260206004820152601c60248201527b43616e6e6f7420636c6f6e6520746f207a65726f206164647265737360201b6044820152606490fd5b3461033e5760208060031936011261033e576001600160a01b038061207e614494565b169061208b8215156146ca565b600091600191600254925b8381106120a7578585604051908152f35b8060005260008652828260406000205416146120cc575b6120c7906147a4565b612096565b936120d96120c7916147a4565b9490506120be565b3461033e57606036600319011261033e576024356001600160401b03811161033e5761211190369060040161452c565b61212e60443591600435600052600a6020526040600020906145d9565b805482101561033e5760809161214391614668565b5080549060ff6002600183015492015491604051938452818116602085015260081c1660408301526060820152f35b3461033e57612180366141be565b9060005260066020526040600020805482101561033e57602091611bb8916141d4565b3461033e5760208060031936011261033e576004356001600160401b03811161033e576121d49036906004016144aa565b6121e081939293614708565b906121ee6040519283614429565b808252601f196121fd82614708565b018360005b8281106122e35750505060005b8181106122775750506040519082820192808352815180945260408301938160408260051b8601019301916000955b82871061224b5785850386f35b909192938280612267600193603f198a820301865288516145ff565b960192019601959291909261223e565b806122866122a3928488615418565b356000526000855260ff600a60406000200154166122a8576147a4565b61220f565b6122b3818488615418565b35600052600585526122c86040600020614c86565b6122d282866147b3565b526122dd81856147b3565b506147a4565b6122eb614dd7565b828287010152018490612202565b3461033e57602036600319011261033e576004356000526000602052602060018060a01b0360406000205416604051908152f35b3461033e57600036600319011261033e576040517f00000000000000000000000000000000000000000000000000000000000000006001600160a01b03168152602090f35b3461033e57600036600319011261033e576020600454604051908152f35b3461033e57604036600319011261033e576024356001600160401b03811161033e576123db6123c5606092369060040161452c565b60043560005260096020526040600020906145d9565b60ff8154169060ff600260018301549201541690604051921515835260208301526040820152f35b3461033e57602036600319011261033e57600435600052600b6020526103716105a6611ad76040600020604051928380926142d4565b3461033e57602036600319011261033e576004356000526000602052604060002060018060a01b03815416604051916124808361247981600185016142d4565b0384614429565b6002810154906003810154906007810154600882015460098301549060ff600a8501541692600c600b860154950154956124cc6040519a8b9a8b526101408060208d01528b019061446f565b9760408a01526060890152608088015260a087015260c0860152151560e08501526101008401526101208301520390f35b3461033e57602036600319011261033e5760043560005260056020526040600020805460026040519261253e8461253781600185016142d4565b0385614429565b015461259760405193849360ff908181168652818160081c166020870152818160101c166040870152818160181c166060870152818160201c16608087015260281c1660a08501526101008060c086015284019061446f565b9060e08301520390f35b3461033e57602036600319011261033e5760043561247960609180600052600060205260ff906125da82600a6040600020015416614c07565b80600052600b6020526125f76040600020604051948580926142d4565b600052600560205261260c6040600020614c86565b9060009181815116806126e4575b508160208201511682841681116126d0575b508160408201511682841681116126bc575b508160608201511682841681116126a8575b50816080820151168284168111612690575b5060a001518116911610612680575b610371604051928392836145b4565b905061268a614db2565b90612671565b90945091508060a06126a0614d8c565b959150612662565b90945091506126b5614d67565b9385612650565b90945091506126c9614d44565b938561263e565b90945091506126dd614d1e565b938561262c565b90945091506126f1614cf8565b938561261a565b3461033e57602036600319011261033e5760043580600052600060205261272960ff600a6040600020015416614c07565b60005260006020526040600020600b8101546002600c8301549201548042116000146127b75761275d620151809142614b80565b0480159290836127ab57606483029383850460641484151715610add5761279557606093045b60405192835260208301526040820152f35b634e487b7160e01b600052601260045260246000fd5b50606092506000612783565b506060916000612783565b3461033e5760a036600319011261033e576004356001600160401b03811161033e576127f2903690600401614202565b6024359060ff8216820361033e576044359260ff8416840361033e576103719361035d936084359360643593615428565b3461033e5760208060031936011261033e57600435806000526000825260ff9061285682600a6040600020015416614c07565b6000526005825261286a6040600020614c86565b916040519261287884614385565b612880614cf8565b845261288a614d1e565b82850152612896614d44565b60408501526128a3614d67565b60608501526128b0614d8c565b60808501526128bd614db2565b60a08501528260a0604051926128d284614385565b8281511684528285820151168585015282604082015116604085015282606082015116606085015282608082015116608085015201511660a08201526129166147d8565b9260405191612924836143f3565b6003918284526060368686013760005b8381106129655761295887610371888860405194859460408652604086019061454a565b9184830390850152614263565b600060015b600681106129c15750906000611468836129876129bc958d614f95565b51612992858d6147b3565b5261299d848c6147b3565b50856129a98289614f95565b51166129b5858b6147b3565b5286614f95565b612934565b836129cc8287614f95565b5116846129d98488614f95565b5116106129ef575b6129ea906147a4565b61296a565b9050806129e1565b60031960a03682011261033e576004356001600160401b03811161033e57612a239036906004016144aa565b91906024356001600160401b03811161033e57612a449036906004016144aa565b9290916044356001600160401b03811161033e57612a6690369060040161452c565b606435929091906001600160a01b038416840361033e576001600160401b036084351161033e57610100906084353603011261033e57612ab06001600160a01b03841615156146ca565b858503613868576103e8600354101561382f5781518015159081613823575b50156137ef5760ff6040516020818551612aec8183858a0161444c565b60018183015281010301902054166137bc5767016345785d8a0000341061378057606460ff612b1f608435600401614a3b565b161161374057606460ff612b37602460843501614a3b565b161161370057606460ff612b4f604460843501614a3b565b16116136c357606460ff612b668260843501614a3b565b161161368457606460ff612b7d6084803501614a3b565b161161364457606460ff612b9560a460843501614a3b565b161161360557612baf60c460843501608435600401614acb565b9050156135cc57604051809663c2a93e3760e01b825280602483016020600485015252604482019060448160051b8401019380926000915b83831061359957505050505080600092038160018060a01b037f0000000000000000000000000000000000000000000000000000000000000000165afa94851561358d57600095613498575b50612c3e8551614772565b9260005b8651811015612cb3576020612c5782896147b3565b51015115612c7e5780612c6d612c7992896147b3565b515161146882886147b3565b612c42565b60405162461bcd60e51b815260206004820152600d60248201526c24b73b30b634b210383937b7b360991b6044820152606490fd5b508390856040516020818651612ccc8183858b0161444c565b81016001815203019020600160ff1982541617905560025493612cee856147a4565b600255604051612cfd816143d8565b6000815260405190612d0e826143d8565b6000825260405192612d1f846143a0565b6001600160a01b0389168452602084015242604084018190526060840152612d4684614708565b612d536040519182614429565b84815260208101368660051b88011161033e5786905b8660051b8801821061346d57505060808401528560a084015260c0830152600160e08301526000610100830152600061012083015260016101408301526000610160830152426101808301526101a0820152846000526000602052604060002060018060a01b0382511660018060a01b0319825416178155612df260208301516001830161486d565b6040820151600282015560608201516003820155600481016080830151906020825192612e1f8484614934565b019060005260206000206000915b838310613450575050505060a08201518051906001600160401b0382116102e35760206005840191612e5f84846149c4565b0190600052602060002060005b83811061343c575050505060c08201518051906001600160401b0382116102e35760206006840191612e9e8484614a07565b0190600052602060002060005b83811061341f5750505050600d6101a09160e0840151600782015561010084015160088201556101208401516009820155612ef06101408501511515600a83016147c7565b610160840151600b820155610180840151600c82015501910151906020825192612f1a8484614934565b019060005260206000206000915b8383106134025750505050836000526005602052604060002060ff612f51608435600401614a3b565b1660ff19825416178155612f72612f6c602460843501614a3b565b82614a49565b612f89612f83604460843501614a3b565b82614a5f565b612fa0612f9a606460843501614a3b565b82614a77565b612fb6612fb06084803501614a3b565b82614a91565b612fcd612fc760a460843501614a3b565b82614aae565b612fe160c460843501608435600401614acb565b906001600160401b0382116102e357819061300c82613003600187015461429a565b60018701614826565b600090601f831160011461339157600092613386575b50508160011b916000199060031b1c19161760018201555b600260e4608435013591015583600052600560205260006002604082200155604051613065816143bc565b6130736084356004016145a6565b81526130836024608435016145a6565b60208201526130966044608435016145a6565b60408201526130a96064608435016145a6565b60608201526130bb60848035016145a6565b60808201526130ce60a4608435016145a6565b60a08201526001600160401b0360843560c401351161033e5761311b61312e9161310536600460c46084350135608435010161452c565b60c082015260e4608435013560e082015261512e565b85600052600b602052604060002061486d565b6131396003546147a4565b60035560045467016345785d8a000081018111610add5767016345785d8a000001600455613199600080808067016345785d8a00007f00000000000000000000000000000000000000000000000000000000000000005af1611d1d614b0a565b67016345785d8a00003411613350575b906131bf6040519360408552604085019061422f565b918383036020850152808352602083019260208260051b82010193836000925b848410613318576020896001600160a01b038c163382600080516020615afb8339815191528d8d038ea4807ff3c8b32b6e8c8f09f8f4603336bab4086ecda53dfbffb550291958f2db46d7e560405184815260ff6132416084356004016145a6565b168582015260ff6132566024608435016145a6565b16604082015260ff61326c6044608435016145a6565b16606082015260ff6132826064608435016145a6565b16608082015260ff61329760848035016145a6565b1660a082015260ff6132ad60a4608435016145a6565b1660c0820152806132de6132cb60c460843501608435600401614740565b61010060e085015261012084019161471f565b60e460843501356101008301520390a260405167016345785d8a0000815281600080516020615a7b833981519152843393a3604051908152f35b909192939495602080613340600193601f1986820301885261333a8b88614740565b9061471f565b98019401940192949391906131df565b3467016345785d89ffff19810111610add5761338160008080803467016345785d89ffff1901335af1611e48614b0a565b6131a9565b013590508880613022565b909250600184016000526020600020906000935b601f19841685106133ea576001945083601f198116106133d0575b505050811b01600182015561303a565b0135600019600384901b60f8161c191690558880806133c0565b818101358355602094850194600190930192016133a5565b60016020826134138394518661486d565b01920192019190612f28565b82516001600160a01b031681830155602090920191600101612eab565b600190602084519401938184015501612e6c565b60016020826134618394518661486d565b01920192019190612e2d565b6001600160401b0382351161033e576020809161348d3685358c0161452c565b815201910190612d69565b9094503d806000833e6134ab8183614429565b602082828101031261033e578151906001600160401b03821161033e57808301601f83850101121561033e5781830151906134e582614708565b936134f36040519586614429565b828552602085019382820160208560061b83850101011161033e5793602085830101945b60208560061b82850101018610613535575050505050509385612c33565b604086858501031261033e57604080519081018082116001600160401b03909111176102e35760408101604052865181526020870151801515810361033e576020938285928360409501528152019601959150613517565b6040513d6000823e3d90fd5b91939560206135bb8192600194969860431990820301875261333a8a87614740565b97019301930190928a949293612be7565b60405162461bcd60e51b8152602060048201526011602482015270456d707479206d6f6f6420737472696e6760781b6044820152606490fd5b60405162461bcd60e51b8152602060048201526017602482015276496e76616c696420637572696f736974792076616c756560481b6044820152606490fd5b60405162461bcd60e51b8152602060048201526018602482015277496e76616c696420726573696c69656e63652076616c756560401b6044820152606490fd5b60405162461bcd60e51b8152602060048201526017602482015276496e76616c696420696e74756974696f6e2076616c756560481b6044820152606490fd5b60405162461bcd60e51b8152602060048201526015602482015274496e76616c696420656d70617468792076616c756560581b6044820152606490fd5b60405162461bcd60e51b8152602060048201526018602482015277496e76616c696420616e616c79746963616c2076616c756560401b6044820152606490fd5b60405162461bcd60e51b8152602060048201526018602482015277496e76616c696420637265617469766974792076616c756560401b6044820152606490fd5b60405162461bcd60e51b8152602060048201526014602482015273125b9cdd59999a58da595b9d081c185e5b595b9d60621b6044820152606490fd5b60405162461bcd60e51b815260206004820152600b60248201526a4e616d652065786973747360a81b6044820152606490fd5b60405162461bcd60e51b815260206004820152600c60248201526b496e76616c6964206e616d6560a01b6044820152606490fd5b60209150111587612acf565b60405162461bcd60e51b815260206004820152601160248201527013585e081b1a5b5a5d081c995858da1959607a1b6044820152606490fd5b60405162461bcd60e51b815260206004820152600f60248201526e098cadccee8d040dad2e6dac2e8c6d608b1b6044820152606490fd5b3461033e57604036600319011261033e576138b8614494565b5060405162461bcd60e51b815260206004820152601f60248201527f5075626c6963207472616e73666572206e6f7420696d706c656d656e746564006044820152606490fd5b3461033e5760208060031936011261033e57600435806000526000825260ff61393081600a6040600020015416614c07565b81600052600583526139456040600020614c86565b9060405161395281614385565b818351168152848301938285511686830152604084018381511660408401526060850195848751166060850152608086019085825116608086015260a08701918683511660a087015260009860005b60068110613c4b57506006809a046000976000915b8c8310613bdb575050506000986050808a83511611613bd2575b808a86511611613bc2575b808a88511611613bb2575b808a84511611613ba2575b808a85511611613b92575b8986511611613b75575b90888095949392511695602893848810159788613b69575b5087613b5a575b87613b4a575b5086613b3b575b86613b2b575b5085613b1c575b85613b0c575b5084613afd575b84613aed575b5083613adf575b5082613ad0575b505015613ac85760c8905b60005260008652600b6040600020015493600a850294808604600a1490151715610add57606481029080820460641490151715610add57613ac095613abb94613ab693169304614afd565b614b80565b614afd565b604051908152f35b600090613a6b565b603c9250511611158388613a60565b815183161015925089613a59565b51603c908416111593508a613a52565b93508083855116101593613a4c565b51603c908516111594508b613a45565b94508184865116101594613a3f565b51603c908616111595508c613a38565b95508285875116101595613a32565b51603c908716111596508d613a2b565b96508386885116101596613a25565b603c101597508e613a1e565b989088613b8581969594936147a4565b9a91929394955050613a06565b99613b9c906147a4565b996139fc565b99613bac906147a4565b996139f1565b99613bbc906147a4565b996139e6565b99613bcc906147a4565b996139db565b60019a506139d0565b90919881613be98b85614f95565b511115613c3157613c0482613bfe8c86614f95565b51614b80565b905b81800291808304811490151715610add57613c2a91613c2491614afd565b996147a4565b91906139b6565b613c45613c3e8b85614f95565b5183614b80565b90613c06565b99613c64613c6a91613c5d8d8b614f95565b5190614afd565b9a6147a4565b6139a1565b3461033e57600036600319011261033e576040517f00000000000000000000000000000000000000000000000000000000000000006001600160a01b03168152602090f35b3461033e57606036600319011261033e57602435600435604435600581101561033e578160005260209060008252613cfa60018060a01b03604060002054163314614bc9565b8260005260008252613d1660ff600a6040600020015416614c07565b8260005260078252613d2c846040600020614c51565b82600052600082526009604060002001613d4681546147a4565b905582600052600082526040600020426003820155600a60098201540615613d99575b50604090600080516020615a9b8339815191529284600052600081526009836000200154908351928352820152a3005b600701613da681546147a4565b90558260005260008252600760406000200154906000198201918211610add57600080516020615a9b8339815191529284600080516020615adb8339815191526040809583600052600085526007826000200154825191825285820152a2925090613d69565b3461033e57604036600319011261033e576024356001600160401b03811161033e576020613e406040923690600401614202565b919060043560005260098252836000208385519485938437820190815203019020815190613e6d8261436a565b60ff8154161515918281528360ff600260018501549485602086015201541691015282519182526020820152f35b3461033e5760208060031936011261033e5760043560005260008152613ec760066040600020016158d7565b906040519181839283018184528251809152816040850193019160005b828110613ef357505050500390f35b83516001600160a01b031685528695509381019392810192600101613ee4565b3461033e57602036600319011261033e5760043560005260006020526103716105a6611ad76001604060002001604051928380926142d4565b3461033e57600036600319011261033e57604051600090600c54613f6f8161429a565b808352600191808316908115611b455750600114613f975761037183611ad781870382614429565b600c600090815260209450917fdf6966c971051c3d54ec59162606531493a51404a002842f56009d7e5cf4a8c75b828410613fde57505050810190910190611ad781611ac7565b8054858501870152928501928101613fc5565b3461033e57606036600319011261033e576024356001600160401b03811161033e57614021903690600401614202565b602060443592600435600052600a825260406000208360405194859384378201908152030190209080158015614118575b15614113575080545b61406481614772565b9061406e81614772565b9280548280821160001461410a5761408591614b80565b60005b8381106140b9576140ab856103718860405193849360408552604085019061422f565b908382036020850152614263565b806140d06140ca6141059385614afd565b85614668565b50546140dc82886147b3565b5260ff60016140f46140ee8487614afd565b87614668565b50015460081c1661146882896147b3565b614088565b50506000614085565b61405b565b5081548111614052565b3461033e57614130366141be565b9060005260076020526040600020805482101561033e57602091611bb8916141d4565b3461033e57602036600319011261033e576004359063ffffffff60e01b821680920361033e576020916301ffc9a760e01b81149081156141ad575b811561419c575b5015158152f35b635b5e139f60e01b14905083614195565b6380ac58cd60e01b8114915061418e565b604090600319011261033e576004359060243590565b80548210156141ec5760005260206000200190600090565b634e487b7160e01b600052603260045260246000fd5b9181601f8401121561033e578235916001600160401b03831161033e576020838186019501011161033e57565b90815180825260208080930193019160005b82811061424f575050505090565b835185529381019392810192600101614241565b90815180825260208080930193019160005b828110614283575050505090565b835160ff1685529381019392810192600101614275565b90600182811c921680156142ca575b60208310146142b457565b634e487b7160e01b600052602260045260246000fd5b91607f16916142a9565b90600092918054916142e58361429a565b9182825260019384811690816000146143475750600114614307575b50505050565b90919394506000526020928360002092846000945b838610614333575050505001019038808080614301565b80548587018301529401938590820161431c565b9294505050602093945060ff191683830152151560051b01019038808080614301565b606081019081106001600160401b038211176102e357604052565b60c081019081106001600160401b038211176102e357604052565b6101c081019081106001600160401b038211176102e357604052565b61010081019081106001600160401b038211176102e357604052565b602081019081106001600160401b038211176102e357604052565b608081019081106001600160401b038211176102e357604052565b604081019081106001600160401b038211176102e357604052565b601f909101601f19168101906001600160401b038211908210176102e357604052565b60005b83811061445f5750506000910152565b818101518382015260200161444f565b906020916144888151809281855285808601910161444c565b601f01601f1916010190565b600435906001600160a01b038216820361033e57565b9181601f8401121561033e578235916001600160401b03831161033e576020808501948460051b01011161033e57565b6001600160401b0381116102e357601f01601f191660200190565b929192614501826144da565b9161450f6040519384614429565b82948184528183011161033e578281602093846000960137010152565b9080601f8301121561033e57816020614547933591016144f5565b90565b908082519081815260208091019281808460051b8301019501936000915b8483106145785750505050505090565b9091929394958480614596600193601f198682030187528a5161446f565b9801930193019194939290614568565b359060ff8216820361033e57565b90916145cb6145479360408452604084019061446f565b91602081840391015261446f565b6020906145f392826040519483868095519384920161444c565b82019081520301902090565b9060ff80835116825280602084015116602083015280604084015116604083015280606084015116606083015280608084015116608083015260a08301511660a082015260e08061465f60c08501516101008060c087015285019061446f565b93015191015290565b80548210156141ec576000526003602060002091020190600090565b606060031982011261033e576004356001600160a01b038116810361033e579160243591604435906001600160401b03821161033e576146c6916004016144aa565b9091565b156146d157565b60405162461bcd60e51b815260206004820152600f60248201526e496e76616c6964206164647265737360881b6044820152606490fd5b6001600160401b0381116102e35760051b60200190565b908060209392818452848401376000828201840152601f01601f1916010190565b9035601e198236030181121561033e570160208101919035906001600160401b03821161033e57813603831361033e57565b9061477c82614708565b6147896040519182614429565b828152809261479a601f1991614708565b0190602036910137565b6000198114610add5760010190565b80518210156141ec5760209160051b010190565b9060ff801983541691151516179055565b604051906147e5826143f3565b60038252819060005b6060808210156148085790602091828287010152016147ee565b5050909150565b81811061481a575050565b6000815560010161480f565b9190601f811161483557505050565b614861926000526020600020906020601f840160051c83019310614863575b601f0160051c019061480f565b565b9091508190614854565b81519192916001600160401b0381116102e3576148948161488e845461429a565b84614826565b602080601f83116001146148d05750819293946000926148c5575b50508160011b916000199060031b1c1916179055565b0151905038806148af565b90601f198316958460005282600020926000905b88821061491c57505083600195969710614903575b505050811b019055565b015160001960f88460031b161c191690553880806148f9565b806001859682949686015181550195019301906148e4565b600160401b82116102e35780549180825582811061495157505050565b600091825260209081832093840193015b83811061496f5750505050565b808361497d6001935461429a565b8061498b575b505001614962565b601f80821185146149a257505081555b8338614983565b6149bb90848452868420920160051c820185830161480f565b8183555561499b565b600160401b82116102e3578054918082558281106149e157505050565b60009182526020822092830192015b8281106149fc57505050565b8181556001016149f0565b90600160401b81116102e357815490808355818110614a2557505050565b614861926000526020600020918201910161480f565b3560ff8116810361033e5790565b9061ff0082549160081b169061ff001916179055565b9062ff000082549160101b169062ff00001916179055565b9063ff00000082549160181b169063ff0000001916179055565b805460ff60201b191660209290921b60ff60201b16919091179055565b805460ff60281b191660289290921b60ff60281b16919091179055565b903590601e198136030182121561033e57018035906001600160401b03821161033e5760200191813603831361033e57565b91908201809211610add57565b3d15614b35573d90614b1b826144da565b91614b296040519384614429565b82523d6000602084013e565b606090565b15614b4157565b60405162461bcd60e51b8152602060048201526017602482015276151c99585cdd5c9e481c185e5b595b9d0819985a5b1959604a1b6044820152606490fd5b91908203918211610add57565b15614b9457565b60405162461bcd60e51b815260206004820152600d60248201526c1499599d5b990819985a5b1959609a1b6044820152606490fd5b15614bd057565b60405162461bcd60e51b815260206004820152600f60248201526e2737ba1030b3b2b73a1037bbb732b960891b6044820152606490fd5b15614c0e57565b60405162461bcd60e51b815260206004820152601b60248201527a14195c9cdbdb985b1a5d1e481b9bdd081a5b9a5d1a585b1a5e9959602a1b6044820152606490fd5b8054600160401b8110156102e357614c6e916001820181556141d4565b819291549060031b91821b91600019901b1916179055565b90604051614c93816143bc565b60e060028294805460ff908181168652818160081c166020870152818160101c166040870152818160181c166060870152818160201c16608087015260281c1660a0850152604051614cec816105a681600186016142d4565b60c08501520154910152565b60405190614d058261440e565b600a8252696372656174697669747960b01b6020830152565b60405190614d2b8261440e565b600a825269185b985b1e5d1a58d85b60b21b6020830152565b60405190614d518261440e565b6007825266656d706174687960c81b6020830152565b60405190614d748261440e565b600982526834b73a3ab4ba34b7b760b91b6020830152565b60405190614d998261440e565b600a825269726573696c69656e636560b01b6020830152565b60405190614dbf8261440e565b6009825268637572696f7369747960b81b6020830152565b60405190614de4826143bc565b8160e06000918281528260208201528260408201528260608201528260808201528260a0820152606060c08201520152565b90815480825260208092019260005281600020916000905b828210614e3c575050505090565b835485529384019360019384019390910190614e2e565b919091600052600660205260406000209180158015614ed8575b614ec357614e7a81614772565b92614e86828254614b80565b60005b838110614e965750505050565b80614ead614ea7614ebe9385614afd565b856141d4565b90549060031b1c61146882896147b3565b614e89565b50906145476105a69160405192838092614e16565b508254811015614e6d565b919091600052600760205260406000209180158015614f3c575b614ec357614f0a81614772565b92614f16828254614b80565b60005b838110614f265750505050565b80614ead614ea7614f379385614afd565b614f19565b508254811015614efd565b60009081528060205260ff600a6040832001541615614547576005602052600260408220015490620151808201809211614f815750421190565b634e487b7160e01b81526011600452602490fd5b9060068110156141ec5760051b0190565b15614fad57565b60405162461bcd60e51b815260206004820152600e60248201526d496e76616c6964206368616e676560901b6044820152606490fd5b9094939160ff1690600093840b80830190811285841290801582169115161761511a57848112615113575b6064811361510b575b60ff169582870361502a575b5050505050565b61503f918552600a60205260408520906145d9565b604051608081016001600160401b038111828210176150f75760409081524282526020820193845281018781526060820194855282549092600160401b8210156150e3579061509391600182018155614668565b9590956150cf57509160ff6150c1926002959451875581600188019351168219845416178355511690614a49565b519101553880808080615023565b634e487b7160e01b81526004819052602490fd5b634e487b7160e01b87526041600452602487fd5b634e487b7160e01b86526041600452602486fd5b506064615017565b508361500e565b634e487b7160e01b85526011600452602485fd5b604660ff60409282828583015116118080916152af575b1561517b5750505050516151588161440e565b6013815272656d70617468657469635f637265617469766560681b602082015290565b156151a7575050505161518d8161440e565b600a815269656d706174686574696360b01b602082015290565b8282825116116000146151d957505050516151c18161440e565b6008815267637265617469766560c01b602082015290565b8282602083015116116000146151f55750505050614547614d1e565b82826060830151161160001461522b57505050516152128161440e565b6009815268696e7475697469766560b81b602082015290565b82826080830151161160001461526157505050516152488161440e565b60098152681c995cda5b1a595b9d60ba1b602082015290565b60a0015116111561528d57516152768161440e565b6007815266637572696f757360c81b602082015290565b516152978161440e565b600881526718985b185b98d95960c21b602082015290565b50603c8383511611615145565b909291926040809481516152cf8161436a565b6001815260209160ff6002848401934285528287820194169485855261530361151260009d8e8d815260098b52208b6145d9565b5160018201550191511660ff19825416179055848752868252600d83882001805490600160401b8210156153c95790615341916001820181556141d4565b6153b55794600080516020615abb83398151915281979861537187600080516020615a5b8339815191529961486d565b8486519160608352615386606084018a61446f565b90868385015283820391828a860152520190a26153ac835194848695865285019061446f565b918301520390a2565b634e487b7160e01b88526004889052602488fd5b634e487b7160e01b89526041600452602489fd5b9060ff8091169116039060ff8211610add57565b60ff9190828216838216111561540f579061540b916153dd565b1690565b61540b916153dd565b91908110156141ec5760051b0190565b93919295949060ff8080981694168481116155bc576154506003989796959493929854614772565b93600097600196879a600254896000198201918211905b615518575b505050505050508161548392939495969750614afd565b94808611615510575b8110156154f3576154a56154a08287614b80565b614772565b946000845b6154b5575050505050565b6154bf8383614b80565b8110156154ee57806154dd6154d76154e89386614afd565b866147b3565b51611468828a6147b3565b846154aa565b615023565b5050509050604051615504816143d8565b60008152600036813790565b94508461548c565b80610add57818e116155b7578d600052600060205284600a60406000200154161561556757846155538f61554d3687896144f5565b906155f1565b16868882101591826155ac575b5050615584575b6155788b9c9d9e9b98999a9b6147a4565b9d9c9b9a999897615467565b61557861559e8f9e8d9e9f6114688e9f9c9d9e83906147b3565b9d9c50509998979699615567565b111590508638615560565b61546c565b60405162461bcd60e51b815260206004820152600d60248201526c496e76616c69642072616e676560981b6044820152606490fd5b6000526020600581526156076040600020614c86565b91805190828101918220615619614cf8565b848151910120146156d75780518220615630614d1e565b848151910120146156cd5780518220615647614d44565b848151910120146156c0578051822061565e614d67565b848151910120146156b35780518220615675614d8c565b848151910120146156a6575190209061568c614db2565b80519101201461569c5750600090565b60a0015160ff1690565b5050506080015160ff1690565b5050506060015160ff1690565b5050506040015160ff1690565b5050015160ff1690565b50505060ff90511690565b908082146157ba576156f4815461429a565b906001600160401b0382116102e357819061571982615713865461429a565b86614826565b600090601f831160011461574f576000926157445750508160011b916000199060031b1c1916179055565b0154905038806148af565b81526020808220858352818320935090601f1985169083905b8282106157a157505090846001959493921061578857505050811b019055565b015460001960f88460031b161c191690553880806148f9565b8495819295850154815560018091019601940190615768565b5050565b8181146157ba578154916157d28383614934565b6000526020600020906000526020600020906000905b8382106157f55750505050565b80615802600192856156e2565b9281019291810191016157e8565b8181146157ba578154916001600160401b0383116102e35761583283836149c4565b60005260206000209060005260206000208154916000925b848410615858575050505050565b600180919201938454928185015501929061584a565b8181146157ba578154916001600160401b0383116102e3576158908383614a07565b60005260206000209060005260206000208154916000925b8484106158b6575050505050565b600191820180546001600160a01b03909216848601559390910192906158a8565b9060405191828154918282526020928383019160005283600020936000905b82821061590c5750505061486192500383614429565b85546001600160a01b0316845260019586019588955093810193909101906158f6565b90815461593b81614708565b9260409361594b85519182614429565b828152809460208092019260005281600020906000935b85851061597157505050505050565b60018481928451615986816105a6818a6142d4565b815201930194019391615962565b8015615a3c5780816000925b615a2657506159ae826144da565b916159bc6040519384614429565b80835281601f196159cc836144da565b013660208601375b6159dd57505090565b90600019820190828211610add578192600a926030908484068201809211610add57865111156141ec5760f81b6001600160f81b03191660001a908501601f01530490816159d4565b9091615a33600a916147a4565b929104806159a0565b50604051615a498161440e565b60018152600360fc1b60208201529056fe4d4ca4452701c64d62e210aa5b23f7d376cf2d485ebc4fee8528e048afb0e2cf6fe296e805108cd514fea415210be4016149b01eeb08effbe130951b6a5f6c0bae9f8ea4031d27c12e1fca7c2bfaaef9034ff66849251188e28970cd44d1c590d0ba61587fc16fc1a3274fc4cd4ecf1243baadf9d8dde73ab61d5a7af1474ff406bbb7cb56b5f3845ce5ad015d25cbf87ed1c37c635e2082acb2610598f15cc7531bd8ca2b17505aaa50d843fabe2dfd9a3bb9e20c511d2288b24bd484861b02a26469706673582212206d58f69c5dc45b3956d24dc9c02016adf26326b1d70a08c380e8684dfdc9365664736f6c63430008140033",
  "devdoc": {
    "details": "Implements ERC-7857 with comprehensive personality evolution system",
    "events": {
      "AgentConversation(uint256,bytes32,uint8,uint256)": {
        "details": "Emitted when agent has a conversation (without personality evolution)"
      },
      "AuthorizedUsage(uint256,address)": {
        "details": "This emits when a user is authorized to use the data"
      },
      "Cloned(uint256,uint256,address,address)": {
        "details": "This emits when data is cloned"
      },
      "Minted(uint256,address,address,bytes32[],string[])": {
        "details": "This emits when a new functional NFT is minted"
      },
      "PersonalityEvolved(uint256,bytes32,(uint8,uint8,uint8,uint8,uint8,uint8,string,uint256),(int8,int8,int8,int8,int8,int8,string,uint8))": {
        "details": "Emitted when agent personality evolves from dream processing"
      },
      "PersonalityMilestone(uint256,string,uint8,string)": {
        "details": "Emitted when agent reaches personality milestones"
      },
      "PublishedSealedKey(address,uint256,bytes16[])": {
        "details": "This emits when a sealed key is published"
      },
      "ResponseStyleEvolved(uint256,string,string[])": {
        "details": "Emitted when agent's response style evolves"
      },
      "Transferred(uint256,address,address)": {
        "details": "This emits when data is transferred with ownership"
      }
    },
    "kind": "dev",
    "methods": {
      "balanceOf(address)": {
        "params": {
          "owner": "Address to check"
        },
        "returns": {
          "_0": "Number of agents owned"
        }
      },
      "calculateCompatibility(uint256,uint256)": {
        "params": {
          "agentA": "First agent",
          "agentB": "Second agent"
        },
        "returns": {
          "compatibilityScore": "Compatibility score (0-100)"
        }
      },
      "calculatePersonalityRarity(uint256)": {
        "params": {
          "tokenId": "Agent to analyze"
        },
        "returns": {
          "rarityScore": "Rarity score based on trait distribution"
        }
      },
      "canProcessDreamToday(uint256)": {
        "params": {
          "tokenId": "Agent to check"
        },
        "returns": {
          "canProcess": "True if agent can process a dream today"
        }
      },
      "clone(address,uint256,bytes[])": {
        "params": {
          "to": "Address to clone agent for",
          "tokenId": "Agent to clone"
        },
        "returns": {
          "newTokenId": "The cloned agent token ID"
        }
      },
      "findAgentsByTrait(string,uint8,uint8,uint256,uint256)": {
        "params": {
          "limit": "Maximum results to return",
          "maxValue": "Maximum trait value (inclusive)",
          "minValue": "Minimum trait value (inclusive)",
          "offset": "Pagination offset",
          "traitName": "Trait to filter by"
        },
        "returns": {
          "tokenIds": "Array of matching agent IDs"
        }
      },
      "getAgentName(uint256)": {
        "params": {
          "tokenId": "Agent to query"
        },
        "returns": {
          "_0": "Agent name"
        }
      },
      "getConversationHistory(uint256,uint256)": {
        "params": {
          "limit": "Maximum number of conversations to return (0 = all)",
          "tokenId": "Agent to query"
        },
        "returns": {
          "conversationHashesArray": "Array of conversation storage hashes"
        }
      },
      "getCreationTime(uint256)": {
        "params": {
          "tokenId": "Agent to query"
        },
        "returns": {
          "_0": "Creation timestamp"
        }
      },
      "getDominantTraits(uint256)": {
        "params": {
          "tokenId": "Agent to analyze"
        },
        "returns": {
          "traits": "Array of dominant trait names",
          "values": "Array of corresponding trait values"
        }
      },
      "getDreamHistory(uint256,uint256)": {
        "params": {
          "limit": "Maximum number of dreams to return (0 = all)",
          "tokenId": "Agent to query"
        },
        "returns": {
          "dreamHashesArray": "Array of dream storage hashes"
        }
      },
      "getEvolutionStats(uint256)": {
        "params": {
          "tokenId": "Agent to analyze"
        },
        "returns": {
          "evolutionRate": "Rate of personality change",
          "lastEvolution": "Timestamp of last evolution",
          "totalEvolutions": "Number of personality changes"
        }
      },
      "getPersonalitySummaries(uint256[])": {
        "params": {
          "tokenIds": "Array of agent IDs"
        },
        "returns": {
          "summaries": "Array of personality summaries"
        }
      },
      "getPersonalityTraits(uint256)": {
        "params": {
          "tokenId": "Agent to query"
        },
        "returns": {
          "traits": "Current personality traits"
        }
      },
      "getResponseStyle(uint256)": {
        "params": {
          "tokenId": "Agent to analyze"
        },
        "returns": {
          "primaryTrait": "Most dominant trait influencing style",
          "style": "Response style description"
        }
      },
      "getTraitEvolution(uint256,string,uint256)": {
        "params": {
          "limit": "Maximum history entries (0 = all)",
          "tokenId": "Agent to analyze",
          "traitName": "Trait to track"
        },
        "returns": {
          "timestamps": "Array of evolution timestamps",
          "values": "Array of trait values at each timestamp"
        }
      },
      "hasMilestone(uint256,string)": {
        "params": {
          "milestone": "Milestone to check",
          "tokenId": "Agent to check"
        },
        "returns": {
          "achieved": "True if milestone has been achieved",
          "achievedAt": "Timestamp when milestone was achieved"
        }
      },
      "mintWithPersonality(bytes[],string[],string,address,(uint8,uint8,uint8,uint8,uint8,uint8,string,uint256))": {
        "params": {
          "agentName": "User-given name for the agent",
          "descriptions": "Data type descriptions",
          "initialPersonality": "Starting personality traits",
          "proofs": "Ownership proofs for initial data",
          "to": "Address to mint agent for"
        },
        "returns": {
          "tokenId": "The newly minted agent token ID"
        }
      },
      "processDailyDream(uint256,bytes32,bytes32,(int8,int8,int8,int8,int8,int8,string,uint8))": {
        "params": {
          "dreamAnalysisHash": "0G Storage hash of AI analysis",
          "dreamHash": "0G Storage hash of encrypted dream data",
          "impact": "Personality changes from dream analysis",
          "tokenId": "Agent to evolve"
        }
      },
      "recordConversation(uint256,bytes32,uint8)": {
        "params": {
          "contextType": "Type of conversation for context building",
          "conversationHash": "0G Storage hash of conversation data",
          "tokenId": "Agent having conversation"
        }
      },
      "supportsInterface(bytes4)": {
        "params": {
          "interfaceId": "Interface identifier"
        },
        "returns": {
          "_0": "True if supported"
        }
      },
      "tokenURI(uint256)": {
        "params": {
          "tokenId": "Token to get URI for"
        },
        "returns": {
          "_0": "Simplified metadata string"
        }
      },
      "totalSupply()": {
        "returns": {
          "_0": "Total number of minted agents"
        }
      },
      "transfer(address,uint256,bytes[])": {
        "params": {
          "to": "New owner address",
          "tokenId": "Agent to transfer"
        }
      }
    },
    "stateVariables": {
      "verifier": {
        "return": "The address of the verifier contract",
        "returns": {
          "_0": "The address of the verifier contract"
        }
      }
    },
    "title": "DreamAgentNFTv2 - Enhanced Personality Evolution iNFTs",
    "version": 1
  },
  "userdoc": {
    "kind": "user",
    "methods": {
      "balanceOf(address)": {
        "notice": "Get balance of owner"
      },
      "calculateCompatibility(uint256,uint256)": {
        "notice": "Calculate compatibility between two agents"
      },
      "calculatePersonalityRarity(uint256)": {
        "notice": "Calculate personality rarity score"
      },
      "canProcessDreamToday(uint256)": {
        "notice": "Check if agent can process dream today (24h cooldown)"
      },
      "clone(address,uint256,bytes[])": {
        "notice": "Clone agent with personality preservation"
      },
      "findAgentsByTrait(string,uint8,uint8,uint256,uint256)": {
        "notice": "Find agents with specific trait ranges"
      },
      "getAgentName(uint256)": {
        "notice": "Get agent's name"
      },
      "getConversationHistory(uint256,uint256)": {
        "notice": "Get agent's conversation history hashes"
      },
      "getCreationTime(uint256)": {
        "notice": "Get agent's creation timestamp"
      },
      "getDominantTraits(uint256)": {
        "notice": "Get agent's dominant personality traits (top 3)"
      },
      "getDreamHistory(uint256,uint256)": {
        "notice": "Get agent's dream history hashes"
      },
      "getEvolutionStats(uint256)": {
        "notice": "Get personality evolution statistics"
      },
      "getPersonalitySummaries(uint256[])": {
        "notice": "Get multiple agents' personality summaries"
      },
      "getPersonalityTraits(uint256)": {
        "notice": "Get agent's current personality traits"
      },
      "getResponseStyle(uint256)": {
        "notice": "Get agent's response style based on personality"
      },
      "getTraitEvolution(uint256,string,uint256)": {
        "notice": "Get trait evolution history"
      },
      "hasMilestone(uint256,string)": {
        "notice": "Check if agent has reached specific personality milestone"
      },
      "mintWithPersonality(bytes[],string[],string,address,(uint8,uint8,uint8,uint8,uint8,uint8,string,uint256))": {
        "notice": "Mint new dream agent with initial personality"
      },
      "processDailyDream(uint256,bytes32,bytes32,(int8,int8,int8,int8,int8,int8,string,uint8))": {
        "notice": "Process daily dream and evolve agent personality"
      },
      "recordConversation(uint256,bytes32,uint8)": {
        "notice": "Record conversation without personality evolution"
      },
      "supportsInterface(bytes4)": {
        "notice": "Check if contract supports interface"
      },
      "tokenURI(uint256)": {
        "notice": "Get simplified token URI for metadata"
      },
      "totalSupply()": {
        "notice": "Get total supply of agents"
      },
      "transfer(address,uint256,bytes[])": {
        "notice": "Transfer agent with personality preservation"
      },
      "verifier()": {
        "notice": "The verifier interface that this NFT uses"
      }
    },
    "notice": "Advanced dream agents that develop unique personalities based on user dreams",
    "version": 1
  },
  "storageLayout": {
    "storage": [
      {
        "astId": 86,
        "contract": "contracts/DreamAgentNFTv2.sol:DreamAgentNFTv2",
        "label": "agents",
        "offset": 0,
        "slot": "0",
        "type": "t_mapping(t_uint256,t_struct(DreamAgent)63_storage)"
      },
      {
        "astId": 90,
        "contract": "contracts/DreamAgentNFTv2.sol:DreamAgentNFTv2",
        "label": "nameExists",
        "offset": 0,
        "slot": "1",
        "type": "t_mapping(t_string_memory_ptr,t_bool)"
      },
      {
        "astId": 93,
        "contract": "contracts/DreamAgentNFTv2.sol:DreamAgentNFTv2",
        "label": "nextTokenId",
        "offset": 0,
        "slot": "2",
        "type": "t_uint256"
      },
      {
        "astId": 96,
        "contract": "contracts/DreamAgentNFTv2.sol:DreamAgentNFTv2",
        "label": "totalAgents",
        "offset": 0,
        "slot": "3",
        "type": "t_uint256"
      },
      {
        "astId": 99,
        "contract": "contracts/DreamAgentNFTv2.sol:DreamAgentNFTv2",
        "label": "totalFeesCollected",
        "offset": 0,
        "slot": "4",
        "type": "t_uint256"
      },
      {
        "astId": 104,
        "contract": "contracts/DreamAgentNFTv2.sol:DreamAgentNFTv2",
        "label": "agentPersonalities",
        "offset": 0,
        "slot": "5",
        "type": "t_mapping(t_uint256,t_struct(PersonalityTraits)3846_storage)"
      },
      {
        "astId": 109,
        "contract": "contracts/DreamAgentNFTv2.sol:DreamAgentNFTv2",
        "label": "dreamHashes",
        "offset": 0,
        "slot": "6",
        "type": "t_mapping(t_uint256,t_array(t_bytes32)dyn_storage)"
      },
      {
        "astId": 114,
        "contract": "contracts/DreamAgentNFTv2.sol:DreamAgentNFTv2",
        "label": "conversationHashes",
        "offset": 0,
        "slot": "7",
        "type": "t_mapping(t_uint256,t_array(t_bytes32)dyn_storage)"
      },
      {
        "astId": 119,
        "contract": "contracts/DreamAgentNFTv2.sol:DreamAgentNFTv2",
        "label": "dreamAnalysisHashes",
        "offset": 0,
        "slot": "8",
        "type": "t_mapping(t_uint256,t_array(t_bytes32)dyn_storage)"
      },
      {
        "astId": 126,
        "contract": "contracts/DreamAgentNFTv2.sol:DreamAgentNFTv2",
        "label": "milestones",
        "offset": 0,
        "slot": "9",
        "type": "t_mapping(t_uint256,t_mapping(t_string_memory_ptr,t_struct(MilestoneData)71_storage))"
      },
      {
        "astId": 134,
        "contract": "contracts/DreamAgentNFTv2.sol:DreamAgentNFTv2",
        "label": "traitHistory",
        "offset": 0,
        "slot": "10",
        "type": "t_mapping(t_uint256,t_mapping(t_string_memory_ptr,t_array(t_struct(TraitEvolution)81_storage)dyn_storage))"
      },
      {
        "astId": 138,
        "contract": "contracts/DreamAgentNFTv2.sol:DreamAgentNFTv2",
        "label": "responseStyles",
        "offset": 0,
        "slot": "11",
        "type": "t_mapping(t_uint256,t_string_storage)"
      },
      {
        "astId": 141,
        "contract": "contracts/DreamAgentNFTv2.sol:DreamAgentNFTv2",
        "label": "name",
        "offset": 0,
        "slot": "12",
        "type": "t_string_storage"
      },
      {
        "astId": 144,
        "contract": "contracts/DreamAgentNFTv2.sol:DreamAgentNFTv2",
        "label": "symbol",
        "offset": 0,
        "slot": "13",
        "type": "t_string_storage"
      }
    ],
    "types": {
      "t_address": {
        "encoding": "inplace",
        "label": "address",
        "numberOfBytes": "20"
      },
      "t_array(t_address)dyn_storage": {
        "base": "t_address",
        "encoding": "dynamic_array",
        "label": "address[]",
        "numberOfBytes": "32"
      },
      "t_array(t_bytes32)dyn_storage": {
        "base": "t_bytes32",
        "encoding": "dynamic_array",
        "label": "bytes32[]",
        "numberOfBytes": "32"
      },
      "t_array(t_string_storage)dyn_storage": {
        "base": "t_string_storage",
        "encoding": "dynamic_array",
        "label": "string[]",
        "numberOfBytes": "32"
      },
      "t_array(t_struct(TraitEvolution)81_storage)dyn_storage": {
        "base": "t_struct(TraitEvolution)81_storage",
        "encoding": "dynamic_array",
        "label": "struct DreamAgentNFTv2.TraitEvolution[]",
        "numberOfBytes": "32"
      },
      "t_bool": {
        "encoding": "inplace",
        "label": "bool",
        "numberOfBytes": "1"
      },
      "t_bytes32": {
        "encoding": "inplace",
        "label": "bytes32",
        "numberOfBytes": "32"
      },
      "t_mapping(t_string_memory_ptr,t_array(t_struct(TraitEvolution)81_storage)dyn_storage)": {
        "encoding": "mapping",
        "key": "t_string_memory_ptr",
        "label": "mapping(string => struct DreamAgentNFTv2.TraitEvolution[])",
        "numberOfBytes": "32",
        "value": "t_array(t_struct(TraitEvolution)81_storage)dyn_storage"
      },
      "t_mapping(t_string_memory_ptr,t_bool)": {
        "encoding": "mapping",
        "key": "t_string_memory_ptr",
        "label": "mapping(string => bool)",
        "numberOfBytes": "32",
        "value": "t_bool"
      },
      "t_mapping(t_string_memory_ptr,t_struct(MilestoneData)71_storage)": {
        "encoding": "mapping",
        "key": "t_string_memory_ptr",
        "label": "mapping(string => struct DreamAgentNFTv2.MilestoneData)",
        "numberOfBytes": "32",
        "value": "t_struct(MilestoneData)71_storage"
      },
      "t_mapping(t_uint256,t_array(t_bytes32)dyn_storage)": {
        "encoding": "mapping",
        "key": "t_uint256",
        "label": "mapping(uint256 => bytes32[])",
        "numberOfBytes": "32",
        "value": "t_array(t_bytes32)dyn_storage"
      },
      "t_mapping(t_uint256,t_mapping(t_string_memory_ptr,t_array(t_struct(TraitEvolution)81_storage)dyn_storage))": {
        "encoding": "mapping",
        "key": "t_uint256",
        "label": "mapping(uint256 => mapping(string => struct DreamAgentNFTv2.TraitEvolution[]))",
        "numberOfBytes": "32",
        "value": "t_mapping(t_string_memory_ptr,t_array(t_struct(TraitEvolution)81_storage)dyn_storage)"
      },
      "t_mapping(t_uint256,t_mapping(t_string_memory_ptr,t_struct(MilestoneData)71_storage))": {
        "encoding": "mapping",
        "key": "t_uint256",
        "label": "mapping(uint256 => mapping(string => struct DreamAgentNFTv2.MilestoneData))",
        "numberOfBytes": "32",
        "value": "t_mapping(t_string_memory_ptr,t_struct(MilestoneData)71_storage)"
      },
      "t_mapping(t_uint256,t_string_storage)": {
        "encoding": "mapping",
        "key": "t_uint256",
        "label": "mapping(uint256 => string)",
        "numberOfBytes": "32",
        "value": "t_string_storage"
      },
      "t_mapping(t_uint256,t_struct(DreamAgent)63_storage)": {
        "encoding": "mapping",
        "key": "t_uint256",
        "label": "mapping(uint256 => struct DreamAgentNFTv2.DreamAgent)",
        "numberOfBytes": "32",
        "value": "t_struct(DreamAgent)63_storage"
      },
      "t_mapping(t_uint256,t_struct(PersonalityTraits)3846_storage)": {
        "encoding": "mapping",
        "key": "t_uint256",
        "label": "mapping(uint256 => struct IPersonalityEvolution.PersonalityTraits)",
        "numberOfBytes": "32",
        "value": "t_struct(PersonalityTraits)3846_storage"
      },
      "t_string_memory_ptr": {
        "encoding": "bytes",
        "label": "string",
        "numberOfBytes": "32"
      },
      "t_string_storage": {
        "encoding": "bytes",
        "label": "string",
        "numberOfBytes": "32"
      },
      "t_struct(DreamAgent)63_storage": {
        "encoding": "inplace",
        "label": "struct DreamAgentNFTv2.DreamAgent",
        "members": [
          {
            "astId": 32,
            "contract": "contracts/DreamAgentNFTv2.sol:DreamAgentNFTv2",
            "label": "owner",
            "offset": 0,
            "slot": "0",
            "type": "t_address"
          },
          {
            "astId": 34,
            "contract": "contracts/DreamAgentNFTv2.sol:DreamAgentNFTv2",
            "label": "agentName",
            "offset": 0,
            "slot": "1",
            "type": "t_string_storage"
          },
          {
            "astId": 36,
            "contract": "contracts/DreamAgentNFTv2.sol:DreamAgentNFTv2",
            "label": "createdAt",
            "offset": 0,
            "slot": "2",
            "type": "t_uint256"
          },
          {
            "astId": 38,
            "contract": "contracts/DreamAgentNFTv2.sol:DreamAgentNFTv2",
            "label": "lastUpdated",
            "offset": 0,
            "slot": "3",
            "type": "t_uint256"
          },
          {
            "astId": 41,
            "contract": "contracts/DreamAgentNFTv2.sol:DreamAgentNFTv2",
            "label": "dataDescriptions",
            "offset": 0,
            "slot": "4",
            "type": "t_array(t_string_storage)dyn_storage"
          },
          {
            "astId": 44,
            "contract": "contracts/DreamAgentNFTv2.sol:DreamAgentNFTv2",
            "label": "dataHashes",
            "offset": 0,
            "slot": "5",
            "type": "t_array(t_bytes32)dyn_storage"
          },
          {
            "astId": 47,
            "contract": "contracts/DreamAgentNFTv2.sol:DreamAgentNFTv2",
            "label": "authorizedUsers",
            "offset": 0,
            "slot": "6",
            "type": "t_array(t_address)dyn_storage"
          },
          {
            "astId": 49,
            "contract": "contracts/DreamAgentNFTv2.sol:DreamAgentNFTv2",
            "label": "intelligenceLevel",
            "offset": 0,
            "slot": "7",
            "type": "t_uint256"
          },
          {
            "astId": 51,
            "contract": "contracts/DreamAgentNFTv2.sol:DreamAgentNFTv2",
            "label": "dreamCount",
            "offset": 0,
            "slot": "8",
            "type": "t_uint256"
          },
          {
            "astId": 53,
            "contract": "contracts/DreamAgentNFTv2.sol:DreamAgentNFTv2",
            "label": "conversationCount",
            "offset": 0,
            "slot": "9",
            "type": "t_uint256"
          },
          {
            "astId": 55,
            "contract": "contracts/DreamAgentNFTv2.sol:DreamAgentNFTv2",
            "label": "personalityInitialized",
            "offset": 0,
            "slot": "10",
            "type": "t_bool"
          },
          {
            "astId": 57,
            "contract": "contracts/DreamAgentNFTv2.sol:DreamAgentNFTv2",
            "label": "totalEvolutions",
            "offset": 0,
            "slot": "11",
            "type": "t_uint256"
          },
          {
            "astId": 59,
            "contract": "contracts/DreamAgentNFTv2.sol:DreamAgentNFTv2",
            "label": "lastEvolutionDate",
            "offset": 0,
            "slot": "12",
            "type": "t_uint256"
          },
          {
            "astId": 62,
            "contract": "contracts/DreamAgentNFTv2.sol:DreamAgentNFTv2",
            "label": "achievedMilestones",
            "offset": 0,
            "slot": "13",
            "type": "t_array(t_string_storage)dyn_storage"
          }
        ],
        "numberOfBytes": "448"
      },
      "t_struct(MilestoneData)71_storage": {
        "encoding": "inplace",
        "label": "struct DreamAgentNFTv2.MilestoneData",
        "members": [
          {
            "astId": 66,
            "contract": "contracts/DreamAgentNFTv2.sol:DreamAgentNFTv2",
            "label": "achieved",
            "offset": 0,
            "slot": "0",
            "type": "t_bool"
          },
          {
            "astId": 68,
            "contract": "contracts/DreamAgentNFTv2.sol:DreamAgentNFTv2",
            "label": "achievedAt",
            "offset": 0,
            "slot": "1",
            "type": "t_uint256"
          },
          {
            "astId": 70,
            "contract": "contracts/DreamAgentNFTv2.sol:DreamAgentNFTv2",
            "label": "traitValue",
            "offset": 0,
            "slot": "2",
            "type": "t_uint8"
          }
        ],
        "numberOfBytes": "96"
      },
      "t_struct(PersonalityTraits)3846_storage": {
        "encoding": "inplace",
        "label": "struct IPersonalityEvolution.PersonalityTraits",
        "members": [
          {
            "astId": 3831,
            "contract": "contracts/DreamAgentNFTv2.sol:DreamAgentNFTv2",
            "label": "creativity",
            "offset": 0,
            "slot": "0",
            "type": "t_uint8"
          },
          {
            "astId": 3833,
            "contract": "contracts/DreamAgentNFTv2.sol:DreamAgentNFTv2",
            "label": "analytical",
            "offset": 1,
            "slot": "0",
            "type": "t_uint8"
          },
          {
            "astId": 3835,
            "contract": "contracts/DreamAgentNFTv2.sol:DreamAgentNFTv2",
            "label": "empathy",
            "offset": 2,
            "slot": "0",
            "type": "t_uint8"
          },
          {
            "astId": 3837,
            "contract": "contracts/DreamAgentNFTv2.sol:DreamAgentNFTv2",
            "label": "intuition",
            "offset": 3,
            "slot": "0",
            "type": "t_uint8"
          },
          {
            "astId": 3839,
            "contract": "contracts/DreamAgentNFTv2.sol:DreamAgentNFTv2",
            "label": "resilience",
            "offset": 4,
            "slot": "0",
            "type": "t_uint8"
          },
          {
            "astId": 3841,
            "contract": "contracts/DreamAgentNFTv2.sol:DreamAgentNFTv2",
            "label": "curiosity",
            "offset": 5,
            "slot": "0",
            "type": "t_uint8"
          },
          {
            "astId": 3843,
            "contract": "contracts/DreamAgentNFTv2.sol:DreamAgentNFTv2",
            "label": "dominantMood",
            "offset": 0,
            "slot": "1",
            "type": "t_string_storage"
          },
          {
            "astId": 3845,
            "contract": "contracts/DreamAgentNFTv2.sol:DreamAgentNFTv2",
            "label": "lastDreamDate",
            "offset": 0,
            "slot": "2",
            "type": "t_uint256"
          }
        ],
        "numberOfBytes": "96"
      },
      "t_struct(TraitEvolution)81_storage": {
        "encoding": "inplace",
        "label": "struct DreamAgentNFTv2.TraitEvolution",
        "members": [
          {
            "astId": 74,
            "contract": "contracts/DreamAgentNFTv2.sol:DreamAgentNFTv2",
            "label": "timestamp",
            "offset": 0,
            "slot": "0",
            "type": "t_uint256"
          },
          {
            "astId": 76,
            "contract": "contracts/DreamAgentNFTv2.sol:DreamAgentNFTv2",
            "label": "oldValue",
            "offset": 0,
            "slot": "1",
            "type": "t_uint8"
          },
          {
            "astId": 78,
            "contract": "contracts/DreamAgentNFTv2.sol:DreamAgentNFTv2",
            "label": "newValue",
            "offset": 1,
            "slot": "1",
            "type": "t_uint8"
          },
          {
            "astId": 80,
            "contract": "contracts/DreamAgentNFTv2.sol:DreamAgentNFTv2",
            "label": "dreamHash",
            "offset": 0,
            "slot": "2",
            "type": "t_bytes32"
          }
        ],
        "numberOfBytes": "96"
      },
      "t_uint256": {
        "encoding": "inplace",
        "label": "uint256",
        "numberOfBytes": "32"
      },
      "t_uint8": {
        "encoding": "inplace",
        "label": "uint8",
        "numberOfBytes": "1"
      }
    }
  }
}