{
  "address": "0x3a28de282Bb6e1D00939d83D4BBd715A72c1D863",
  "abi": [
    {
      "inputs": [
        {
          "internalType": "bytes[]",
          "name": "proofs",
          "type": "bytes[]"
        }
      ],
      "name": "verifyPreimage",
      "outputs": [
        {
          "components": [
            {
              "internalType": "bytes32",
              "name": "dataHash",
              "type": "bytes32"
            },
            {
              "internalType": "bool",
              "name": "isValid",
              "type": "bool"
            }
          ],
          "internalType": "struct PreimageProofOutput[]",
          "name": "outputs",
          "type": "tuple[]"
        }
      ],
      "stateMutability": "pure",
      "type": "function"
    },
    {
      "inputs": [
        {
          "internalType": "bytes[]",
          "name": "proofs",
          "type": "bytes[]"
        }
      ],
      "name": "verifyTransferValidity",
      "outputs": [
        {
          "components": [
            {
              "internalType": "bytes32",
              "name": "oldDataHash",
              "type": "bytes32"
            },
            {
              "internalType": "bytes32",
              "name": "newDataHash",
              "type": "bytes32"
            },
            {
              "internalType": "bytes",
              "name": "pubKey",
              "type": "bytes"
            },
            {
              "internalType": "bytes16",
              "name": "sealedKey",
              "type": "bytes16"
            },
            {
              "internalType": "bool",
              "name": "isValid",
              "type": "bool"
            }
          ],
          "internalType": "struct TransferValidityProofOutput[]",
          "name": "outputs",
          "type": "tuple[]"
        }
      ],
      "stateMutability": "pure",
      "type": "function"
    }
  ],
  "transactionHash": "0x796a37a86ae75212aa8c349ea8ba4c5c2af0773e1ae8a41c26ad2eaec27401af",
  "args": [],
  "numDeployments": 3,
  "solcInputHash": "98c2cf47630e87d0f218e66f7666f4a6",
  "bytecode": "0x6080806040523461001657610608908161001c8239f35b600080fdfe60406080815260048036101561001457600080fd5b600091823560e01c806393c2eda6146101a65763c2a93e371461003657600080fd5b346101a25761004436610460565b6100586100538295939561052b565b610506565b81815293601f196100688361052b565b01865b818110610183575050855b8281106100cc57845160208082528751818301819052829182890191818b01918c8b5b8382106100a65786860387f35b845180518752830151151586840152879650948501949382019360019190910190610099565b6100d7818484610567565b60209150601f1901610146579061012c916100f3828686610567565b91903591818110610131575b5060019061010b6104e7565b92835282015261011b82896105be565b5261012681886105be565b50610542565b610076565b60001990820360031b1b9091169060016100ff565b8460649187519162461bcd60e51b83528201526018602482015277092dcecc2d8d2c840c8c2e8c240d0c2e6d040d8cadccee8d60431b6044820152fd5b60209061018e6104e7565b898152828a81830152828a0101520161006b565b8280fd5b50913461045d5782906101b836610460565b9190936101c76100538461052b565b92808452601f1995866101d98361052b565b01845b818110610423575050835b8281106102c457505050508251926020908185019282865284518094528186019083838660051b89010196019781935b8685106102245788880389f35b90919293949596603f19898203018552868a5191825181528183015182820152848484015160a090818785015280518092850152885b8281106102ac57505060c081840181018990526060868101516001600160801b031916908501526080958601511515958401959095529c83019c601f0116019091019796956001019401929190610217565b81810186015185820160c001528c958994500161025a565b6102d48184849a9997989a610567565b60909150608f19016103e9576102eb828585610567565b60209291929081116103e557610302848787610567565b89939193116103e157610316858888610567565b93909260809485116103dd578a51606094909290858401906001600160401b038211858310176103ca57818e528d855236888201116103c657908d8f9281018587013752610365888b8b610567565b9094116103c25791816103b89897969492600196946103826104b2565b983589520135908701528b86015282848060801b031991013516908401528201526103ad828b6105be565b52610126818a6105be565b96949395966101e7565b8c80fd5b8e80fd5b634e487b7160e01b8f5260418d5260248ffd5b8b80fd5b8980fd5b8880fd5b855162461bcd60e51b81526020818701526014602482015273092dcecc2d8d2c840e0e4dedecc40d8cadccee8d60631b6044820152606490fd5b60209061043399989697996104b2565b888152828981830152896060808b850152830152896080830152828c0101520197959496976101dc565b80fd5b9060206003198301126104ad576001600160401b0391600435908382116104ad57806023830112156104ad5781600401359384116104ad5760248460051b830101116104ad576024019190565b600080fd5b6040519060a082016001600160401b038111838210176104d157604052565b634e487b7160e01b600052604160045260246000fd5b60408051919082016001600160401b038111838210176104d157604052565b6040519190601f01601f191682016001600160401b038111838210176104d157604052565b6001600160401b0381116104d15760051b60200190565b60001981146105515760010190565b634e487b7160e01b600052601160045260246000fd5b91908110156105a85760051b81013590601e19813603018212156104ad5701803591906001600160401b0383116104ad5760200182360381136104ad579190565b634e487b7160e01b600052603260045260246000fd5b80518210156105a85760209160051b01019056fea26469706673582212200054ee9447876a0fdd8e2e3a0f9b557f4f0cc2bbb3e9634fd5a11c7a2c7a548564736f6c63430008140033",
  "devdoc": {
    "details": "In production, this would be replaced with proper TEE or ZKP verification",
    "kind": "dev",
    "methods": {
      "verifyPreimage(bytes[])": {
        "params": {
          "proofs": "Array of data hashes to verify"
        },
        "returns": {
          "outputs": "Array of verification results"
        }
      },
      "verifyTransferValidity(bytes[])": {
        "params": {
          "proofs": "Array of transfer proofs"
        },
        "returns": {
          "outputs": "Array of transfer verification results"
        }
      }
    },
    "title": "SimpleDreamVerifier - Simplified verifier for Dreamscape testing",
    "version": 1
  },
  "userdoc": {
    "kind": "user",
    "methods": {
      "verifyPreimage(bytes[])": {
        "notice": "Verify preimage of data (simplified for testing)"
      },
      "verifyTransferValidity(bytes[])": {
        "notice": "Verify data transfer validity (simplified for testing)"
      }
    },
    "notice": "This is a simplified verifier that accepts all proofs for testing purposes",
    "version": 1
  },
  "storageLayout": {
    "storage": [],
    "types": null
  }
}