{"contracts/DreamAgentNFT.sol":{"DreamAgentNFT":{"abi":[{"inputs":[{"internalType":"address","name":"_verifier","type":"address"}],"stateMutability":"nonpayable","type":"constructor"},{"anonymous":false,"inputs":[{"indexed":true,"internalType":"uint256","name":"tokenId","type":"uint256"},{"indexed":false,"internalType":"uint256","name":"oldLevel","type":"uint256"},{"indexed":false,"internalType":"uint256","name":"newLevel","type":"uint256"}],"name":"AgentEvolved","type":"event"},{"anonymous":false,"inputs":[{"indexed":true,"internalType":"uint256","name":"_tokenId","type":"uint256"},{"indexed":true,"internalType":"address","name":"_user","type":"address"}],"name":"AuthorizedUsage","type":"event"},{"anonymous":false,"inputs":[{"indexed":true,"internalType":"uint256","name":"_tokenId","type":"uint256"},{"indexed":true,"internalType":"uint256","name":"_newTokenId","type":"uint256"},{"indexed":false,"internalType":"address","name":"_from","type":"address"},{"indexed":false,"internalType":"address","name":"_to","type":"address"}],"name":"Cloned","type":"event"},{"anonymous":false,"inputs":[{"indexed":true,"internalType":"uint256","name":"tokenId","type":"uint256"},{"indexed":false,"internalType":"bytes32","name":"dreamHash","type":"bytes32"},{"indexed":false,"internalType":"uint256","name":"newIntelligenceLevel","type":"uint256"}],"name":"DreamProcessed","type":"event"},{"anonymous":false,"inputs":[{"indexed":true,"internalType":"uint256","name":"_tokenId","type":"uint256"},{"indexed":true,"internalType":"address","name":"_creator","type":"address"},{"indexed":true,"internalType":"address","name":"_owner","type":"address"},{"indexed":false,"internalType":"bytes32[]","name":"_dataHashes","type":"bytes32[]"},{"indexed":false,"internalType":"string[]","name":"_dataDescriptions","type":"string[]"}],"name":"Minted","type":"event"},{"anonymous":false,"inputs":[{"indexed":true,"internalType":"address","name":"_to","type":"address"},{"indexed":true,"internalType":"uint256","name":"_tokenId","type":"uint256"},{"indexed":false,"internalType":"bytes16[]","name":"_sealedKeys","type":"bytes16[]"}],"name":"PublishedSealedKey","type":"event"},{"anonymous":false,"inputs":[{"indexed":false,"internalType":"uint256","name":"_tokenId","type":"uint256"},{"indexed":true,"internalType":"address","name":"_from","type":"address"},{"indexed":true,"internalType":"address","name":"_to","type":"address"}],"name":"Transferred","type":"event"},{"anonymous":false,"inputs":[{"indexed":true,"internalType":"uint256","name":"tokenId","type":"uint256"},{"indexed":false,"internalType":"bytes32[]","name":"oldDataHashes","type":"bytes32[]"},{"indexed":false,"internalType":"bytes32[]","name":"newDataHashes","type":"bytes32[]"}],"name":"Updated","type":"event"},{"inputs":[{"internalType":"uint256","name":"","type":"uint256"}],"name":"agents","outputs":[{"internalType":"address","name":"owner","type":"address"},{"internalType":"uint256","name":"createdAt","type":"uint256"},{"internalType":"uint256","name":"lastUpdated","type":"uint256"},{"internalType":"uint256","name":"intelligenceLevel","type":"uint256"},{"internalType":"uint256","name":"dreamCount","type":"uint256"}],"stateMutability":"view","type":"function"},{"inputs":[{"internalType":"uint256","name":"tokenId","type":"uint256"},{"internalType":"address","name":"user","type":"address"}],"name":"authorizeUsage","outputs":[],"stateMutability":"nonpayable","type":"function"},{"inputs":[{"internalType":"uint256","name":"tokenId","type":"uint256"}],"name":"authorizedUsersOf","outputs":[{"internalType":"address[]","name":"","type":"address[]"}],"stateMutability":"view","type":"function"},{"inputs":[{"internalType":"address","name":"to","type":"address"},{"internalType":"uint256","name":"tokenId","type":"uint256"},{"internalType":"bytes[]","name":"proofs","type":"bytes[]"}],"name":"clone","outputs":[{"internalType":"uint256","name":"newTokenId","type":"uint256"}],"stateMutability":"payable","type":"function"},{"inputs":[{"internalType":"address","name":"","type":"address"},{"internalType":"uint256","name":"","type":"uint256"}],"name":"clonePublic","outputs":[{"internalType":"uint256","name":"","type":"uint256"}],"stateMutability":"payable","type":"function"},{"inputs":[{"internalType":"uint256","name":"tokenId","type":"uint256"}],"name":"getAgentInfo","outputs":[{"internalType":"address","name":"owner","type":"address"},{"internalType":"uint256","name":"intelligenceLevel","type":"uint256"},{"internalType":"uint256","name":"dreamCount","type":"uint256"},{"internalType":"uint256","name":"lastUpdated","type":"uint256"},{"internalType":"string[]","name":"dataDescriptions","type":"string[]"}],"stateMutability":"view","type":"function"},{"inputs":[{"internalType":"bytes[]","name":"proofs","type":"bytes[]"},{"internalType":"string[]","name":"descriptions","type":"string[]"},{"internalType":"address","name":"to","type":"address"}],"name":"mint","outputs":[{"internalType":"uint256","name":"tokenId","type":"uint256"}],"stateMutability":"payable","type":"function"},{"inputs":[],"name":"name","outputs":[{"internalType":"string","name":"","type":"string"}],"stateMutability":"view","type":"function"},{"inputs":[],"name":"nextTokenId","outputs":[{"internalType":"uint256","name":"","type":"uint256"}],"stateMutability":"view","type":"function"},{"inputs":[{"internalType":"uint256","name":"tokenId","type":"uint256"}],"name":"ownerOf","outputs":[{"internalType":"address","name":"","type":"address"}],"stateMutability":"view","type":"function"},{"inputs":[],"name":"symbol","outputs":[{"internalType":"string","name":"","type":"string"}],"stateMutability":"view","type":"function"},{"inputs":[],"name":"totalAgents","outputs":[{"internalType":"uint256","name":"","type":"uint256"}],"stateMutability":"view","type":"function"},{"inputs":[{"internalType":"address","name":"to","type":"address"},{"internalType":"uint256","name":"tokenId","type":"uint256"},{"internalType":"bytes[]","name":"proofs","type":"bytes[]"}],"name":"transfer","outputs":[],"stateMutability":"nonpayable","type":"function"},{"inputs":[{"internalType":"address","name":"","type":"address"},{"internalType":"uint256","name":"","type":"uint256"}],"name":"transferPublic","outputs":[],"stateMutability":"pure","type":"function"},{"inputs":[{"internalType":"uint256","name":"tokenId","type":"uint256"},{"internalType":"bytes[]","name":"proofs","type":"bytes[]"}],"name":"update","outputs":[],"stateMutability":"nonpayable","type":"function"},{"inputs":[],"name":"verifier","outputs":[{"internalType":"contract IERC7857DataVerifier","name":"","type":"address"}],"stateMutability":"view","type":"function"}],"devdoc":{"details":"Simplified version for Dreamscape testing, based on ERC-7857 standard","events":{"AuthorizedUsage(uint256,address)":{"details":"This emits when a user is authorized to use the data"},"Cloned(uint256,uint256,address,address)":{"details":"This emits when data is cloned"},"Minted(uint256,address,address,bytes32[],string[])":{"details":"This emits when a new functional NFT is minted"},"PublishedSealedKey(address,uint256,bytes16[])":{"details":"This emits when a sealed key is published"},"Transferred(uint256,address,address)":{"details":"This emits when data is transferred with ownership"}},"kind":"dev","methods":{"authorizeUsage(uint256,address)":{"params":{"tokenId":"Agent to authorize","user":"User to authorize"}},"clone(address,uint256,bytes[])":{"params":{"proofs":"Clone proofs","to":"Address to clone agent for","tokenId":"Agent to clone"},"returns":{"newTokenId":"The cloned agent token ID"}},"mint(bytes[],string[],address)":{"params":{"descriptions":"Data type descriptions","proofs":"Ownership proofs for initial data","to":"Address to mint agent for"},"returns":{"tokenId":"The newly minted agent token ID"}},"transfer(address,uint256,bytes[])":{"params":{"proofs":"Transfer validity proofs","to":"New owner address","tokenId":"Agent to transfer"}},"update(uint256,bytes[])":{"params":{"proofs":"New data proofs","tokenId":"Agent to update"}}},"stateVariables":{"verifier":{"return":"The address of the verifier contract","returns":{"_0":"The address of the verifier contract"}}},"title":"DreamAgentNFT - Intelligent NFT for Dream Analysis Agents","version":1},"evm":{"bytecode":{"linkReferences":{},"object":"60018055600060025560e0604052600f60a09081526e111c99585b481059d95b9d08139195608a1b60c052600390620000399082620001a8565b50604080518082019091526005815264445245414d60d81b6020820152600490620000659082620001a8565b503480156200007357600080fd5b506040516200297a3803806200297a833981016040819052620000969162000274565b6001600160a01b038116620000f15760405162461bcd60e51b815260206004820152601f60248201527f56657269666965722063616e6e6f74206265207a65726f206164647265737300604482015260640160405180910390fd5b6001600160a01b0316608052620002a6565b634e487b7160e01b600052604160045260246000fd5b600181811c908216806200012e57607f821691505b6020821081036200014f57634e487b7160e01b600052602260045260246000fd5b50919050565b601f821115620001a357600081815260208120601f850160051c810160208610156200017e5750805b601f850160051c820191505b818110156200019f578281556001016200018a565b5050505b505050565b81516001600160401b03811115620001c457620001c462000103565b620001dc81620001d5845462000119565b8462000155565b602080601f831160018114620002145760008415620001fb5750858301515b600019600386901b1c1916600185901b1785556200019f565b600085815260208120601f198616915b82811015620002455788860151825594840194600190910190840162000224565b5085821015620002645787850151600019600388901b60f8161c191681555b5050505050600190811b01905550565b6000602082840312156200028757600080fd5b81516001600160a01b03811681146200029f57600080fd5b9392505050565b60805161269c620002de600039600081816101930152818161079501528181610bab0152818161111601526114bf015261269c6000f3fe6080604052600436106100f35760003560e01c80637289fdd61161008a578063a501445211610059578063a50144521461032a578063c50537121461033d578063dfdad7de14610353578063fa83d14e1461037357600080fd5b80637289fdd6146102cb57806375794a3c146102ec57806395d89b411461030257806398a9ce2e1461031757600080fd5b80633481e7bf116100c65780633481e7bf146101cd578063389f8754146101ef578063513856c81461020f5780636352211e1461029557600080fd5b806306fdde03146100f857806319a6a6e9146101235780631aeb542f146101545780632b7ac3f314610181575b600080fd5b34801561010457600080fd5b5061010d610393565b60405161011a9190611b0d565b60405180910390f35b34801561012f57600080fd5b5061014361013e366004611b27565b610421565b60405161011a959493929190611b40565b34801561016057600080fd5b5061017461016f366004611b27565b610634565b60405161011a9190611bc7565b34801561018d57600080fd5b506101b57f000000000000000000000000000000000000000000000000000000000000000081565b6040516001600160a01b03909116815260200161011a565b3480156101d957600080fd5b506101ed6101e8366004611c30565b6106a1565b005b3480156101fb57600080fd5b506101ed61020a366004611ca5565b6106ee565b34801561021b57600080fd5b5061026361022a366004611b27565b600060208190529081526040902080546001820154600283015460068401546007909401546001600160a01b0390931693919290919085565b604080516001600160a01b0390961686526020860194909452928401919091526060830152608082015260a00161011a565b3480156102a157600080fd5b506101b56102b0366004611b27565b6000908152602081905260409020546001600160a01b031690565b6102de6102d9366004611cf0565b610b03565b60405190815260200161011a565b3480156102f857600080fd5b506102de60015481565b34801561030e57600080fd5b5061010d610fed565b6102de610325366004611c30565b610ffa565b6102de610338366004611d49565b611045565b34801561034957600080fd5b506102de60025481565b34801561035f57600080fd5b506101ed61036e366004611cf0565b611419565b34801561037f57600080fd5b506101ed61038e366004611dc9565b611863565b600380546103a090611df5565b80601f01602080910402602001604051908101604052809291908181526020018280546103cc90611df5565b80156104195780601f106103ee57610100808354040283529160200191610419565b820191906000526020600020905b8154815290600101906020018083116103fc57829003601f168201915b505050505081565b60008181526020818152604080832081516101008101835281546001600160a01b03168152600182015481850152600282015481840152600382018054845181870281018701909552808552869586958695606095879590949193858801939290879084015b828210156105335783829060005260206000200180546104a690611df5565b80601f01602080910402602001604051908101604052809291908181526020018280546104d290611df5565b801561051f5780601f106104f45761010080835404028352916020019161051f565b820191906000526020600020905b81548152906001019060200180831161050257829003601f168201915b505050505081526020019060010190610487565b5050505081526020016004820180548060200260200160405190810160405280929190818152602001828054801561058a57602002820191906000526020600020905b815481526020019060010190808311610576575b50505050508152602001600582018054806020026020016040519081016040528092919081815260200182805480156105ec57602002820191906000526020600020905b81546001600160a01b031681526001909101906020018083116105ce575b505050918352505060068201546020820152600790910154604091820152815160c083015160e084015192840151606090940151919b909a5091985091965090945092505050565b6000818152602081815260409182902060050180548351818402810184019094528084526060939283018282801561069557602002820191906000526020600020905b81546001600160a01b03168152600190910190602001808311610677575b50505050509050919050565b60405162461bcd60e51b815260206004820152601f60248201527f5075626c6963207472616e73666572206e6f7420696d706c656d656e7465640060448201526064015b60405180910390fd5b6000838152602081905260409020546001600160a01b031633146107245760405162461bcd60e51b81526004016106e590611e2f565b600083815260208190526040902060040154811461077b5760405162461bcd60e51b81526020600482015260146024820152730a0e4dedecc40c6deeadce840dad2e6dac2e8c6d60631b60448201526064016106e5565b60405163c2a93e3760e01b81526000906001600160a01b037f0000000000000000000000000000000000000000000000000000000000000000169063c2a93e37906107cc9086908690600401611ec6565b600060405180830381865afa1580156107e9573d6000803e3d6000fd5b505050506040513d6000823e601f3d908101601f191682016040526108119190810190611fef565b6000858152602081815260408083206004018054825181850281018501909352808352949550929390929183018282801561086b57602002820191906000526020600020905b815481526020019060010190808311610857575b50505050509050600082516001600160401b0381111561088d5761088d611f2c565b6040519080825280602002602001820160405280156108b6578160200160208202803683370190505b50905060005b835181101561096c578381815181106108d7576108d76120b1565b60200260200101516020015161091f5760405162461bcd60e51b815260206004820152600d60248201526c24b73b30b634b210383937b7b360991b60448201526064016106e5565b838181518110610931576109316120b1565b60200260200101516000015182828151811061094f5761094f6120b1565b602090810291909101015280610964816120c7565b9150506108bc565b5060008681526020818152604090912082516109909260049092019184019061195c565b5060008681526020819052604081204260028201556007018054916109b4836120c7565b90915550506000868152602081905260409020600701546109d7906005906120ee565b600003610a4f5760008681526020819052604081206006018054918291906109fe836120c7565b9091555050600087815260208181526040918290206006015482518481529182015288917f06bbb7cb56b5f3845ce5ad015d25cbf87ed1c37c635e2082acb2610598f15cc7910160405180910390a2505b857f51fa73895ca2bd4c7f525775384b199b6047f069e662b82aa9e1b0998b9c29758383604051610a8192919061214b565b60405180910390a2857f871f9739b79e9efd6285318758001f00502185ff0d254a080922cd80580c3e0282600081518110610abe57610abe6120b1565b60200260200101516000808a815260200190815260200160002060060154604051610af3929190918252602082015260400190565b60405180910390a2505050505050565b60006001600160a01b038516610b5b5760405162461bcd60e51b815260206004820152601c60248201527f43616e6e6f7420636c6f6e6520746f207a65726f20616464726573730000000060448201526064016106e5565b6000848152602081905260409020546001600160a01b03163314610b915760405162461bcd60e51b81526004016106e590611e2f565b6040516349e176d360e11b81526000906001600160a01b037f000000000000000000000000000000000000000000000000000000000000000016906393c2eda690610be29087908790600401611ec6565b600060405180830381865afa158015610bff573d6000803e3d6000fd5b505050506040513d6000823e601f3d908101601f19168201604052610c2791908101906121b8565b9050600081516001600160401b03811115610c4457610c44611f2c565b604051908082528060200260200182016040528015610c6d578160200160208202803683370190505b50905060005b8251811015610d2957828181518110610c8e57610c8e6120b1565b602002602001015160800151610cdc5760405162461bcd60e51b815260206004820152601360248201527224b73b30b634b21031b637b73290383937b7b360691b60448201526064016106e5565b828181518110610cee57610cee6120b1565b602002602001015160200151828281518110610d0c57610d0c6120b1565b602090810291909101015280610d21816120c7565b915050610c73565b5060018054906000610d3a836120c7565b919050559250604051806101000160405280886001600160a01b03168152602001428152602001428152602001600080898152602001908152602001600020600301805480602002602001604051908101604052809291908181526020016000905b82821015610e48578382906000526020600020018054610dbb90611df5565b80601f0160208091040260200160405190810160405280929190818152602001828054610de790611df5565b8015610e345780601f10610e0957610100808354040283529160200191610e34565b820191906000526020600020905b815481529060010190602001808311610e1757829003601f168201915b505050505081526020019060010190610d9c565b505050908252506020808201849052604080516000808252928101825292019190508152600088815260208181526040808320600601548285015292830182905286825281815290829020835181546001600160a01b0319166001600160a01b0390911617815583820151600182015591830151600283015560608301518051610ed892600385019201906119a7565b5060808201518051610ef491600484019160209091019061195c565b5060a08201518051610f109160058401916020909101906119f9565b5060c0820151600682015560e09091015160079091015560028054906000610f37836120c7565b9091555050604080513381526001600160a01b0389166020820152849188917f40b442ee2bb535802063305b95f127b5101e5fce261a5dec9379683eaaad8cdb910160405180910390a3866001600160a01b0316336001600160a01b0316847f531bd8ca2b17505aaa50d843fabe2dfd9a3bb9e20c511d2288b24bd484861b02846000808c8152602001908152602001600020600301604051610fdb92919061230b565b60405180910390a45050949350505050565b600480546103a090611df5565b60405162461bcd60e51b815260206004820152601c60248201527f5075626c696320636c6f6e65206e6f7420696d706c656d656e7465640000000060448201526000906064016106e5565b60006001600160a01b03821661109d5760405162461bcd60e51b815260206004820152601b60248201527f43616e6e6f74206d696e7420746f207a65726f2061646472657373000000000060448201526064016106e5565b8285146110fc5760405162461bcd60e51b815260206004820152602760248201527f4465736372697074696f6e7320616e642070726f6f6673206c656e677468206d6044820152660d2e6dac2e8c6d60cb1b60648201526084016106e5565b60405163c2a93e3760e01b81526000906001600160a01b037f0000000000000000000000000000000000000000000000000000000000000000169063c2a93e379061114d908a908a90600401611ec6565b600060405180830381865afa15801561116a573d6000803e3d6000fd5b505050506040513d6000823e601f3d908101601f191682016040526111929190810190611fef565b9050600081516001600160401b038111156111af576111af611f2c565b6040519080825280602002602001820160405280156111d8578160200160208202803683370190505b50905060005b825181101561128e578281815181106111f9576111f96120b1565b6020026020010151602001516112415760405162461bcd60e51b815260206004820152600d60248201526c24b73b30b634b210383937b7b360991b60448201526064016106e5565b828181518110611253576112536120b1565b602002602001015160000151828281518110611271576112716120b1565b602090810291909101015280611286816120c7565b9150506111de565b506001805490600061129f836120c7565b919050559250604051806101000160405280856001600160a01b031681526020014281526020014281526020018787906112d991906123ed565b8152602080820184905260408051600080825281840183528285019190915260016060808601829052608090950182905288825281845290829020855181546001600160a01b0319166001600160a01b03909116178155858401519181019190915590840151600282015591830151805161135a92600385019201906119a7565b506080820151805161137691600484019160209091019061195c565b5060a082015180516113929160058401916020909101906119f9565b5060c0820151600682015560e090910151600790910155600280549060006113b9836120c7565b9190505550836001600160a01b0316336001600160a01b0316847f531bd8ca2b17505aaa50d843fabe2dfd9a3bb9e20c511d2288b24bd484861b02848a8a6040516114069392919061249c565b60405180910390a4505095945050505050565b6001600160a01b03841661146f5760405162461bcd60e51b815260206004820152601f60248201527f43616e6e6f74207472616e7366657220746f207a65726f20616464726573730060448201526064016106e5565b6000838152602081905260409020546001600160a01b031633146114a55760405162461bcd60e51b81526004016106e590611e2f565b6040516349e176d360e11b81526000906001600160a01b037f000000000000000000000000000000000000000000000000000000000000000016906393c2eda6906114f69086908690600401611ec6565b600060405180830381865afa158015611513573d6000803e3d6000fd5b505050506040513d6000823e601f3d908101601f1916820160405261153b91908101906121b8565b905060005b815181101561164c5781818151811061155b5761155b6120b1565b6020026020010151608001516115ac5760405162461bcd60e51b815260206004820152601660248201527524b73b30b634b2103a3930b739b332b910383937b7b360511b60448201526064016106e5565b60008581526020819052604090206004018054829081106115cf576115cf6120b1565b90600052602060002001548282815181106115ec576115ec6120b1565b6020026020010151600001511461163a5760405162461bcd60e51b8152602060048201526012602482015271088c2e8c240d0c2e6d040dad2e6dac2e8c6d60731b60448201526064016106e5565b80611644816120c7565b915050611540565b50600081516001600160401b0381111561166857611668611f2c565b604051908082528060200260200182016040528015611691578160200160208202803683370190505b509050600082516001600160401b038111156116af576116af611f2c565b6040519080825280602002602001820160405280156116d8578160200160208202803683370190505b50905060005b835181101561177e578381815181106116f9576116f96120b1565b602002602001015160200151838281518110611717576117176120b1565b602002602001018181525050838181518110611735576117356120b1565b602002602001015160600151828281518110611753576117536120b1565b6001600160801b03199092166020928302919091019091015280611776816120c7565b9150506116de565b5060008681526020818152604090912080546001600160a01b038a81166001600160a01b0319831617835585519116926117bf92600401919086019061195c565b50600087815260208181526040918290204260029091015590518881526001600160a01b03808b1692908416917f0ea8df787dde63a7bdc34d17097adf25749a3521f660e92dabdff8d6ee91d18a910160405180910390a386886001600160a01b03167f156aabbd131f533640c54a2c9d227cce945fa46b6e45df7a473d76203233b9b5846040516118519190612516565b60405180910390a35050505050505050565b6000828152602081905260409020546001600160a01b031633146118995760405162461bcd60e51b81526004016106e590611e2f565b6001600160a01b0381166118ef5760405162461bcd60e51b815260206004820152601d60248201527f43616e6e6f7420617574686f72697a65207a65726f206164647265737300000060448201526064016106e5565b600082815260208181526040808320600501805460018101825590845291832090910180546001600160a01b0319166001600160a01b0385169081179091559051909184917f32a4407627195670dd4c989ee38441e11ab643ccd4759c25d9c0bd6a635039db9190a35050565b828054828255906000526020600020908101928215611997579160200282015b8281111561199757825182559160200191906001019061197c565b506119a3929150611a4e565b5090565b8280548282559060005260206000209081019282156119ed579160200282015b828111156119ed57825182906119dd90826125a7565b50916020019190600101906119c7565b506119a3929150611a63565b828054828255906000526020600020908101928215611997579160200282015b8281111561199757825182546001600160a01b0319166001600160a01b03909116178255602090920191600190910190611a19565b5b808211156119a35760008155600101611a4f565b808211156119a3576000611a778282611a80565b50600101611a63565b508054611a8c90611df5565b6000825580601f10611a9c575050565b601f016020900490600052602060002090810190611aba9190611a4e565b50565b60005b83811015611ad8578181015183820152602001611ac0565b50506000910152565b60008151808452611af9816020860160208601611abd565b601f01601f19169290920160200192915050565b602081526000611b206020830184611ae1565b9392505050565b600060208284031215611b3957600080fd5b5035919050565b600060a0820160018060a01b03881683526020878185015286604085015285606085015260a0608085015281855180845260c08601915060c08160051b870101935082870160005b82811015611bb65760bf19888703018452611ba4868351611ae1565b95509284019290840190600101611b88565b50939b9a5050505050505050505050565b6020808252825182820181905260009190848201906040850190845b81811015611c085783516001600160a01b031683529284019291840191600101611be3565b50909695505050505050565b80356001600160a01b0381168114611c2b57600080fd5b919050565b60008060408385031215611c4357600080fd5b611c4c83611c14565b946020939093013593505050565b60008083601f840112611c6c57600080fd5b5081356001600160401b03811115611c8357600080fd5b6020830191508360208260051b8501011115611c9e57600080fd5b9250929050565b600080600060408486031215611cba57600080fd5b8335925060208401356001600160401b03811115611cd757600080fd5b611ce386828701611c5a565b9497909650939450505050565b60008060008060608587031215611d0657600080fd5b611d0f85611c14565b93506020850135925060408501356001600160401b03811115611d3157600080fd5b611d3d87828801611c5a565b95989497509550505050565b600080600080600060608688031215611d6157600080fd5b85356001600160401b0380821115611d7857600080fd5b611d8489838a01611c5a565b90975095506020880135915080821115611d9d57600080fd5b50611daa88828901611c5a565b9094509250611dbd905060408701611c14565b90509295509295909350565b60008060408385031215611ddc57600080fd5b82359150611dec60208401611c14565b90509250929050565b600181811c90821680611e0957607f821691505b602082108103611e2957634e487b7160e01b600052602260045260246000fd5b50919050565b6020808252600f908201526e2737ba1030b3b2b73a1037bbb732b960891b604082015260600190565b81835281816020850137506000828201602090810191909152601f909101601f19169091010190565b6000808335601e19843603018112611e9857600080fd5b83016020810192503590506001600160401b03811115611eb757600080fd5b803603821315611c9e57600080fd5b60208082528181018390526000906040600585901b8401810190840186845b87811015611f1f57868403603f19018352611f00828a611e81565b611f0b868284611e58565b955050509184019190840190600101611ee5565b5091979650505050505050565b634e487b7160e01b600052604160045260246000fd5b604080519081016001600160401b0381118282101715611f6457611f64611f2c565b60405290565b60405160a081016001600160401b0381118282101715611f6457611f64611f2c565b604051601f8201601f191681016001600160401b0381118282101715611fb457611fb4611f2c565b604052919050565b60006001600160401b03821115611fd557611fd5611f2c565b5060051b60200190565b80518015158114611c2b57600080fd5b6000602080838503121561200257600080fd5b82516001600160401b0381111561201857600080fd5b8301601f8101851361202957600080fd5b805161203c61203782611fbc565b611f8c565b81815260069190911b8201830190838101908783111561205b57600080fd5b928401925b828410156120a657604084890312156120795760008081fd5b612081611f42565b84518152612090868601611fdf565b8187015282526040939093019290840190612060565b979650505050505050565b634e487b7160e01b600052603260045260246000fd5b6000600182016120e757634e487b7160e01b600052601160045260246000fd5b5060010190565b60008261210b57634e487b7160e01b600052601260045260246000fd5b500690565b600081518084526020808501945080840160005b8381101561214057815187529582019590820190600101612124565b509495945050505050565b60408152600061215e6040830185612110565b82810360208401526121708185612110565b95945050505050565b60006001600160401b0382111561219257612192611f2c565b50601f01601f191660200190565b80516001600160801b031981168114611c2b57600080fd5b600060208083850312156121cb57600080fd5b82516001600160401b03808211156121e257600080fd5b818501915085601f8301126121f657600080fd5b815161220461203782611fbc565b81815260059190911b8301840190848101908883111561222357600080fd5b8585015b838110156122fe5780518581111561223e57600080fd5b860160a0818c03601f1901121561225457600080fd5b61225c611f6a565b8882015181526040808301518a83015260608301518881111561227f5760008081fd5b8301603f81018e136122915760008081fd5b8a8101516122a161203782612179565b8181528f848385010111156122b65760008081fd5b6122c5828e8301868601611abd565b80848601525050505060806122db8184016121a0565b60608301526122ec60a08401611fdf565b90820152845250918601918601612227565b5098975050505050505050565b60408152600061231e6040830185612110565b602083820381850152818554808452828401915060058382821b8601016000898152858120815b858110156123dc57601f1989850301875282825461236281611df5565b8087526001828116801561237d5760018114612396576123c5565b60ff198416898e01528215158a1b89018d0194506123c5565b8688528c8820885b848110156123bd5781548f828d01015283820191508e8101905061239e565b8a018e019550505b50998b019992965050509190910190600101612345565b50919b9a5050505050505050505050565b60006123fb61203784611fbc565b80848252602080830192508560051b85013681111561241957600080fd5b855b818110156124905780356001600160401b0381111561243a5760008081fd5b870136601f82011261244c5760008081fd5b803561245a61203782612179565b818152368683850101111561246f5760008081fd5b8186840187830137600091810186019190915286525093820193820161241b565b50919695505050505050565b6040815260006124af6040830186612110565b602083820381850152818583528183019050818660051b8401018760005b8881101561250757858303601f190184526124e8828b611e81565b6124f3858284611e58565b9587019594505050908401906001016124cd565b50909998505050505050505050565b6020808252825182820181905260009190848201906040850190845b81811015611c085783516001600160801b03191683529284019291840191600101612532565b601f8211156125a257600081815260208120601f850160051c8101602086101561257f5750805b601f850160051c820191505b8181101561259e5782815560010161258b565b5050505b505050565b81516001600160401b038111156125c0576125c0611f2c565b6125d4816125ce8454611df5565b84612558565b602080601f83116001811461260957600084156125f15750858301515b600019600386901b1c1916600185901b17855561259e565b600085815260208120601f198616915b8281101561263857888601518255948401946001909101908401612619565b50858210156126565787850151600019600388901b60f8161c191681555b5050505050600190811b0190555056fea264697066735822122028051380e57c84b138eb611f46fa7919ff1ec177c6e37d8f263cd4ec3eeea2a364736f6c63430008140033","opcodes":"PUSH1 0x1 DUP1 SSTORE PUSH1 0x0 PUSH1 0x2 SSTORE PUSH1 0xE0 PUSH1 0x40 MSTORE PUSH1 0xF PUSH1 0xA0 SWAP1 DUP2 MSTORE PUSH15 0x111C99585B481059D95B9D08139195 PUSH1 0x8A SHL PUSH1 0xC0 MSTORE PUSH1 0x3 SWAP1 PUSH3 0x39 SWAP1 DUP3 PUSH3 0x1A8 JUMP JUMPDEST POP PUSH1 0x40 DUP1 MLOAD DUP1 DUP3 ADD SWAP1 SWAP2 MSTORE PUSH1 0x5 DUP2 MSTORE PUSH5 0x445245414D PUSH1 0xD8 SHL PUSH1 0x20 DUP3 ADD MSTORE PUSH1 0x4 SWAP1 PUSH3 0x65 SWAP1 DUP3 PUSH3 0x1A8 JUMP JUMPDEST POP CALLVALUE DUP1 ISZERO PUSH3 0x73 JUMPI PUSH1 0x0 DUP1 REVERT JUMPDEST POP PUSH1 0x40 MLOAD PUSH3 0x297A CODESIZE SUB DUP1 PUSH3 0x297A DUP4 CODECOPY DUP2 ADD PUSH1 0x40 DUP2 SWAP1 MSTORE PUSH3 0x96 SWAP2 PUSH3 0x274 JUMP JUMPDEST PUSH1 0x1 PUSH1 0x1 PUSH1 0xA0 SHL SUB DUP2 AND PUSH3 0xF1 JUMPI PUSH1 0x40 MLOAD PUSH3 0x461BCD PUSH1 0xE5 SHL DUP2 MSTORE PUSH1 0x20 PUSH1 0x4 DUP3 ADD MSTORE PUSH1 0x1F PUSH1 0x24 DUP3 ADD MSTORE PUSH32 0x56657269666965722063616E6E6F74206265207A65726F206164647265737300 PUSH1 0x44 DUP3 ADD MSTORE PUSH1 0x64 ADD PUSH1 0x40 MLOAD DUP1 SWAP2 SUB SWAP1 REVERT JUMPDEST PUSH1 0x1 PUSH1 0x1 PUSH1 0xA0 SHL SUB AND PUSH1 0x80 MSTORE PUSH3 0x2A6 JUMP JUMPDEST PUSH4 0x4E487B71 PUSH1 0xE0 SHL PUSH1 0x0 MSTORE PUSH1 0x41 PUSH1 0x4 MSTORE PUSH1 0x24 PUSH1 0x0 REVERT JUMPDEST PUSH1 0x1 DUP2 DUP2 SHR SWAP1 DUP3 AND DUP1 PUSH3 0x12E JUMPI PUSH1 0x7F DUP3 AND SWAP2 POP JUMPDEST PUSH1 0x20 DUP3 LT DUP2 SUB PUSH3 0x14F JUMPI PUSH4 0x4E487B71 PUSH1 0xE0 SHL PUSH1 0x0 MSTORE PUSH1 0x22 PUSH1 0x4 MSTORE PUSH1 0x24 PUSH1 0x0 REVERT JUMPDEST POP SWAP2 SWAP1 POP JUMP JUMPDEST PUSH1 0x1F DUP3 GT ISZERO PUSH3 0x1A3 JUMPI PUSH1 0x0 DUP2 DUP2 MSTORE PUSH1 0x20 DUP2 KECCAK256 PUSH1 0x1F DUP6 ADD PUSH1 0x5 SHR DUP2 ADD PUSH1 0x20 DUP7 LT ISZERO PUSH3 0x17E JUMPI POP DUP1 JUMPDEST PUSH1 0x1F DUP6 ADD PUSH1 0x5 SHR DUP3 ADD SWAP2 POP JUMPDEST DUP2 DUP2 LT ISZERO PUSH3 0x19F JUMPI DUP3 DUP2 SSTORE PUSH1 0x1 ADD PUSH3 0x18A JUMP JUMPDEST POP POP POP JUMPDEST POP POP POP JUMP JUMPDEST DUP2 MLOAD PUSH1 0x1 PUSH1 0x1 PUSH1 0x40 SHL SUB DUP2 GT ISZERO PUSH3 0x1C4 JUMPI PUSH3 0x1C4 PUSH3 0x103 JUMP JUMPDEST PUSH3 0x1DC DUP2 PUSH3 0x1D5 DUP5 SLOAD PUSH3 0x119 JUMP JUMPDEST DUP5 PUSH3 0x155 JUMP JUMPDEST PUSH1 0x20 DUP1 PUSH1 0x1F DUP4 GT PUSH1 0x1 DUP2 EQ PUSH3 0x214 JUMPI PUSH1 0x0 DUP5 ISZERO PUSH3 0x1FB JUMPI POP DUP6 DUP4 ADD MLOAD JUMPDEST PUSH1 0x0 NOT PUSH1 0x3 DUP7 SWAP1 SHL SHR NOT AND PUSH1 0x1 DUP6 SWAP1 SHL OR DUP6 SSTORE PUSH3 0x19F JUMP JUMPDEST PUSH1 0x0 DUP6 DUP2 MSTORE PUSH1 0x20 DUP2 KECCAK256 PUSH1 0x1F NOT DUP7 AND SWAP2 JUMPDEST DUP3 DUP2 LT ISZERO PUSH3 0x245 JUMPI DUP9 DUP7 ADD MLOAD DUP3 SSTORE SWAP5 DUP5 ADD SWAP5 PUSH1 0x1 SWAP1 SWAP2 ADD SWAP1 DUP5 ADD PUSH3 0x224 JUMP JUMPDEST POP DUP6 DUP3 LT ISZERO PUSH3 0x264 JUMPI DUP8 DUP6 ADD MLOAD PUSH1 0x0 NOT PUSH1 0x3 DUP9 SWAP1 SHL PUSH1 0xF8 AND SHR NOT AND DUP2 SSTORE JUMPDEST POP POP POP POP POP PUSH1 0x1 SWAP1 DUP2 SHL ADD SWAP1 SSTORE POP JUMP JUMPDEST PUSH1 0x0 PUSH1 0x20 DUP3 DUP5 SUB SLT ISZERO PUSH3 0x287 JUMPI PUSH1 0x0 DUP1 REVERT JUMPDEST DUP2 MLOAD PUSH1 0x1 PUSH1 0x1 PUSH1 0xA0 SHL SUB DUP2 AND DUP2 EQ PUSH3 0x29F JUMPI PUSH1 0x0 DUP1 REVERT JUMPDEST SWAP4 SWAP3 POP POP POP JUMP JUMPDEST PUSH1 0x80 MLOAD PUSH2 0x269C PUSH3 0x2DE PUSH1 0x0 CODECOPY PUSH1 0x0 DUP2 DUP2 PUSH2 0x193 ADD MSTORE DUP2 DUP2 PUSH2 0x795 ADD MSTORE DUP2 DUP2 PUSH2 0xBAB ADD MSTORE DUP2 DUP2 PUSH2 0x1116 ADD MSTORE PUSH2 0x14BF ADD MSTORE PUSH2 0x269C PUSH1 0x0 RETURN INVALID PUSH1 0x80 PUSH1 0x40 MSTORE PUSH1 0x4 CALLDATASIZE LT PUSH2 0xF3 JUMPI PUSH1 0x0 CALLDATALOAD PUSH1 0xE0 SHR DUP1 PUSH4 0x7289FDD6 GT PUSH2 0x8A JUMPI DUP1 PUSH4 0xA5014452 GT PUSH2 0x59 JUMPI DUP1 PUSH4 0xA5014452 EQ PUSH2 0x32A JUMPI DUP1 PUSH4 0xC5053712 EQ PUSH2 0x33D JUMPI DUP1 PUSH4 0xDFDAD7DE EQ PUSH2 0x353 JUMPI DUP1 PUSH4 0xFA83D14E EQ PUSH2 0x373 JUMPI PUSH1 0x0 DUP1 REVERT JUMPDEST DUP1 PUSH4 0x7289FDD6 EQ PUSH2 0x2CB JUMPI DUP1 PUSH4 0x75794A3C EQ PUSH2 0x2EC JUMPI DUP1 PUSH4 0x95D89B41 EQ PUSH2 0x302 JUMPI DUP1 PUSH4 0x98A9CE2E EQ PUSH2 0x317 JUMPI PUSH1 0x0 DUP1 REVERT JUMPDEST DUP1 PUSH4 0x3481E7BF GT PUSH2 0xC6 JUMPI DUP1 PUSH4 0x3481E7BF EQ PUSH2 0x1CD JUMPI DUP1 PUSH4 0x389F8754 EQ PUSH2 0x1EF JUMPI DUP1 PUSH4 0x513856C8 EQ PUSH2 0x20F JUMPI DUP1 PUSH4 0x6352211E EQ PUSH2 0x295 JUMPI PUSH1 0x0 DUP1 REVERT JUMPDEST DUP1 PUSH4 0x6FDDE03 EQ PUSH2 0xF8 JUMPI DUP1 PUSH4 0x19A6A6E9 EQ PUSH2 0x123 JUMPI DUP1 PUSH4 0x1AEB542F EQ PUSH2 0x154 JUMPI DUP1 PUSH4 0x2B7AC3F3 EQ PUSH2 0x181 JUMPI JUMPDEST PUSH1 0x0 DUP1 REVERT JUMPDEST CALLVALUE DUP1 ISZERO PUSH2 0x104 JUMPI PUSH1 0x0 DUP1 REVERT JUMPDEST POP PUSH2 0x10D PUSH2 0x393 JUMP JUMPDEST PUSH1 0x40 MLOAD PUSH2 0x11A SWAP2 SWAP1 PUSH2 0x1B0D JUMP JUMPDEST PUSH1 0x40 MLOAD DUP1 SWAP2 SUB SWAP1 RETURN JUMPDEST CALLVALUE DUP1 ISZERO PUSH2 0x12F JUMPI PUSH1 0x0 DUP1 REVERT JUMPDEST POP PUSH2 0x143 PUSH2 0x13E CALLDATASIZE PUSH1 0x4 PUSH2 0x1B27 JUMP JUMPDEST PUSH2 0x421 JUMP JUMPDEST PUSH1 0x40 MLOAD PUSH2 0x11A SWAP6 SWAP5 SWAP4 SWAP3 SWAP2 SWAP1 PUSH2 0x1B40 JUMP JUMPDEST CALLVALUE DUP1 ISZERO PUSH2 0x160 JUMPI PUSH1 0x0 DUP1 REVERT JUMPDEST POP PUSH2 0x174 PUSH2 0x16F CALLDATASIZE PUSH1 0x4 PUSH2 0x1B27 JUMP JUMPDEST PUSH2 0x634 JUMP JUMPDEST PUSH1 0x40 MLOAD PUSH2 0x11A SWAP2 SWAP1 PUSH2 0x1BC7 JUMP JUMPDEST CALLVALUE DUP1 ISZERO PUSH2 0x18D JUMPI PUSH1 0x0 DUP1 REVERT JUMPDEST POP PUSH2 0x1B5 PUSH32 0x0 DUP2 JUMP JUMPDEST PUSH1 0x40 MLOAD PUSH1 0x1 PUSH1 0x1 PUSH1 0xA0 SHL SUB SWAP1 SWAP2 AND DUP2 MSTORE PUSH1 0x20 ADD PUSH2 0x11A JUMP JUMPDEST CALLVALUE DUP1 ISZERO PUSH2 0x1D9 JUMPI PUSH1 0x0 DUP1 REVERT JUMPDEST POP PUSH2 0x1ED PUSH2 0x1E8 CALLDATASIZE PUSH1 0x4 PUSH2 0x1C30 JUMP JUMPDEST PUSH2 0x6A1 JUMP JUMPDEST STOP JUMPDEST CALLVALUE DUP1 ISZERO PUSH2 0x1FB JUMPI PUSH1 0x0 DUP1 REVERT JUMPDEST POP PUSH2 0x1ED PUSH2 0x20A CALLDATASIZE PUSH1 0x4 PUSH2 0x1CA5 JUMP JUMPDEST PUSH2 0x6EE JUMP JUMPDEST CALLVALUE DUP1 ISZERO PUSH2 0x21B JUMPI PUSH1 0x0 DUP1 REVERT JUMPDEST POP PUSH2 0x263 PUSH2 0x22A CALLDATASIZE PUSH1 0x4 PUSH2 0x1B27 JUMP JUMPDEST PUSH1 0x0 PUSH1 0x20 DUP2 SWAP1 MSTORE SWAP1 DUP2 MSTORE PUSH1 0x40 SWAP1 KECCAK256 DUP1 SLOAD PUSH1 0x1 DUP3 ADD SLOAD PUSH1 0x2 DUP4 ADD SLOAD PUSH1 0x6 DUP5 ADD SLOAD PUSH1 0x7 SWAP1 SWAP5 ADD SLOAD PUSH1 0x1 PUSH1 0x1 PUSH1 0xA0 SHL SUB SWAP1 SWAP4 AND SWAP4 SWAP2 SWAP3 SWAP1 SWAP2 SWAP1 DUP6 JUMP JUMPDEST PUSH1 0x40 DUP1 MLOAD PUSH1 0x1 PUSH1 0x1 PUSH1 0xA0 SHL SUB SWAP1 SWAP7 AND DUP7 MSTORE PUSH1 0x20 DUP7 ADD SWAP5 SWAP1 SWAP5 MSTORE SWAP3 DUP5 ADD SWAP2 SWAP1 SWAP2 MSTORE PUSH1 0x60 DUP4 ADD MSTORE PUSH1 0x80 DUP3 ADD MSTORE PUSH1 0xA0 ADD PUSH2 0x11A JUMP JUMPDEST CALLVALUE DUP1 ISZERO PUSH2 0x2A1 JUMPI PUSH1 0x0 DUP1 REVERT JUMPDEST POP PUSH2 0x1B5 PUSH2 0x2B0 CALLDATASIZE PUSH1 0x4 PUSH2 0x1B27 JUMP JUMPDEST PUSH1 0x0 SWAP1 DUP2 MSTORE PUSH1 0x20 DUP2 SWAP1 MSTORE PUSH1 0x40 SWAP1 KECCAK256 SLOAD PUSH1 0x1 PUSH1 0x1 PUSH1 0xA0 SHL SUB AND SWAP1 JUMP JUMPDEST PUSH2 0x2DE PUSH2 0x2D9 CALLDATASIZE PUSH1 0x4 PUSH2 0x1CF0 JUMP JUMPDEST PUSH2 0xB03 JUMP JUMPDEST PUSH1 0x40 MLOAD SWAP1 DUP2 MSTORE PUSH1 0x20 ADD PUSH2 0x11A JUMP JUMPDEST CALLVALUE DUP1 ISZERO PUSH2 0x2F8 JUMPI PUSH1 0x0 DUP1 REVERT JUMPDEST POP PUSH2 0x2DE PUSH1 0x1 SLOAD DUP2 JUMP JUMPDEST CALLVALUE DUP1 ISZERO PUSH2 0x30E JUMPI PUSH1 0x0 DUP1 REVERT JUMPDEST POP PUSH2 0x10D PUSH2 0xFED JUMP JUMPDEST PUSH2 0x2DE PUSH2 0x325 CALLDATASIZE PUSH1 0x4 PUSH2 0x1C30 JUMP JUMPDEST PUSH2 0xFFA JUMP JUMPDEST PUSH2 0x2DE PUSH2 0x338 CALLDATASIZE PUSH1 0x4 PUSH2 0x1D49 JUMP JUMPDEST PUSH2 0x1045 JUMP JUMPDEST CALLVALUE DUP1 ISZERO PUSH2 0x349 JUMPI PUSH1 0x0 DUP1 REVERT JUMPDEST POP PUSH2 0x2DE PUSH1 0x2 SLOAD DUP2 JUMP JUMPDEST CALLVALUE DUP1 ISZERO PUSH2 0x35F JUMPI PUSH1 0x0 DUP1 REVERT JUMPDEST POP PUSH2 0x1ED PUSH2 0x36E CALLDATASIZE PUSH1 0x4 PUSH2 0x1CF0 JUMP JUMPDEST PUSH2 0x1419 JUMP JUMPDEST CALLVALUE DUP1 ISZERO PUSH2 0x37F JUMPI PUSH1 0x0 DUP1 REVERT JUMPDEST POP PUSH2 0x1ED PUSH2 0x38E CALLDATASIZE PUSH1 0x4 PUSH2 0x1DC9 JUMP JUMPDEST PUSH2 0x1863 JUMP JUMPDEST PUSH1 0x3 DUP1 SLOAD PUSH2 0x3A0 SWAP1 PUSH2 0x1DF5 JUMP JUMPDEST DUP1 PUSH1 0x1F ADD PUSH1 0x20 DUP1 SWAP2 DIV MUL PUSH1 0x20 ADD PUSH1 0x40 MLOAD SWAP1 DUP2 ADD PUSH1 0x40 MSTORE DUP1 SWAP3 SWAP2 SWAP1 DUP2 DUP2 MSTORE PUSH1 0x20 ADD DUP3 DUP1 SLOAD PUSH2 0x3CC SWAP1 PUSH2 0x1DF5 JUMP JUMPDEST DUP1 ISZERO PUSH2 0x419 JUMPI DUP1 PUSH1 0x1F LT PUSH2 0x3EE JUMPI PUSH2 0x100 DUP1 DUP4 SLOAD DIV MUL DUP4 MSTORE SWAP2 PUSH1 0x20 ADD SWAP2 PUSH2 0x419 JUMP JUMPDEST DUP3 ADD SWAP2 SWAP1 PUSH1 0x0 MSTORE PUSH1 0x20 PUSH1 0x0 KECCAK256 SWAP1 JUMPDEST DUP2 SLOAD DUP2 MSTORE SWAP1 PUSH1 0x1 ADD SWAP1 PUSH1 0x20 ADD DUP1 DUP4 GT PUSH2 0x3FC JUMPI DUP3 SWAP1 SUB PUSH1 0x1F AND DUP3 ADD SWAP2 JUMPDEST POP POP POP POP POP DUP2 JUMP JUMPDEST PUSH1 0x0 DUP2 DUP2 MSTORE PUSH1 0x20 DUP2 DUP2 MSTORE PUSH1 0x40 DUP1 DUP4 KECCAK256 DUP2 MLOAD PUSH2 0x100 DUP2 ADD DUP4 MSTORE DUP2 SLOAD PUSH1 0x1 PUSH1 0x1 PUSH1 0xA0 SHL SUB AND DUP2 MSTORE PUSH1 0x1 DUP3 ADD SLOAD DUP2 DUP6 ADD MSTORE PUSH1 0x2 DUP3 ADD SLOAD DUP2 DUP5 ADD MSTORE PUSH1 0x3 DUP3 ADD DUP1 SLOAD DUP5 MLOAD DUP2 DUP8 MUL DUP2 ADD DUP8 ADD SWAP1 SWAP6 MSTORE DUP1 DUP6 MSTORE DUP7 SWAP6 DUP7 SWAP6 DUP7 SWAP6 PUSH1 0x60 SWAP6 DUP8 SWAP6 SWAP1 SWAP5 SWAP2 SWAP4 DUP6 DUP9 ADD SWAP4 SWAP3 SWAP1 DUP8 SWAP1 DUP5 ADD JUMPDEST DUP3 DUP3 LT ISZERO PUSH2 0x533 JUMPI DUP4 DUP3 SWAP1 PUSH1 0x0 MSTORE PUSH1 0x20 PUSH1 0x0 KECCAK256 ADD DUP1 SLOAD PUSH2 0x4A6 SWAP1 PUSH2 0x1DF5 JUMP JUMPDEST DUP1 PUSH1 0x1F ADD PUSH1 0x20 DUP1 SWAP2 DIV MUL PUSH1 0x20 ADD PUSH1 0x40 MLOAD SWAP1 DUP2 ADD PUSH1 0x40 MSTORE DUP1 SWAP3 SWAP2 SWAP1 DUP2 DUP2 MSTORE PUSH1 0x20 ADD DUP3 DUP1 SLOAD PUSH2 0x4D2 SWAP1 PUSH2 0x1DF5 JUMP JUMPDEST DUP1 ISZERO PUSH2 0x51F JUMPI DUP1 PUSH1 0x1F LT PUSH2 0x4F4 JUMPI PUSH2 0x100 DUP1 DUP4 SLOAD DIV MUL DUP4 MSTORE SWAP2 PUSH1 0x20 ADD SWAP2 PUSH2 0x51F JUMP JUMPDEST DUP3 ADD SWAP2 SWAP1 PUSH1 0x0 MSTORE PUSH1 0x20 PUSH1 0x0 KECCAK256 SWAP1 JUMPDEST DUP2 SLOAD DUP2 MSTORE SWAP1 PUSH1 0x1 ADD SWAP1 PUSH1 0x20 ADD DUP1 DUP4 GT PUSH2 0x502 JUMPI DUP3 SWAP1 SUB PUSH1 0x1F AND DUP3 ADD SWAP2 JUMPDEST POP POP POP POP POP DUP2 MSTORE PUSH1 0x20 ADD SWAP1 PUSH1 0x1 ADD SWAP1 PUSH2 0x487 JUMP JUMPDEST POP POP POP POP DUP2 MSTORE PUSH1 0x20 ADD PUSH1 0x4 DUP3 ADD DUP1 SLOAD DUP1 PUSH1 0x20 MUL PUSH1 0x20 ADD PUSH1 0x40 MLOAD SWAP1 DUP2 ADD PUSH1 0x40 MSTORE DUP1 SWAP3 SWAP2 SWAP1 DUP2 DUP2 MSTORE PUSH1 0x20 ADD DUP3 DUP1 SLOAD DUP1 ISZERO PUSH2 0x58A JUMPI PUSH1 0x20 MUL DUP3 ADD SWAP2 SWAP1 PUSH1 0x0 MSTORE PUSH1 0x20 PUSH1 0x0 KECCAK256 SWAP1 JUMPDEST DUP2 SLOAD DUP2 MSTORE PUSH1 0x20 ADD SWAP1 PUSH1 0x1 ADD SWAP1 DUP1 DUP4 GT PUSH2 0x576 JUMPI JUMPDEST POP POP POP POP POP DUP2 MSTORE PUSH1 0x20 ADD PUSH1 0x5 DUP3 ADD DUP1 SLOAD DUP1 PUSH1 0x20 MUL PUSH1 0x20 ADD PUSH1 0x40 MLOAD SWAP1 DUP2 ADD PUSH1 0x40 MSTORE DUP1 SWAP3 SWAP2 SWAP1 DUP2 DUP2 MSTORE PUSH1 0x20 ADD DUP3 DUP1 SLOAD DUP1 ISZERO PUSH2 0x5EC JUMPI PUSH1 0x20 MUL DUP3 ADD SWAP2 SWAP1 PUSH1 0x0 MSTORE PUSH1 0x20 PUSH1 0x0 KECCAK256 SWAP1 JUMPDEST DUP2 SLOAD PUSH1 0x1 PUSH1 0x1 PUSH1 0xA0 SHL SUB AND DUP2 MSTORE PUSH1 0x1 SWAP1 SWAP2 ADD SWAP1 PUSH1 0x20 ADD DUP1 DUP4 GT PUSH2 0x5CE JUMPI JUMPDEST POP POP POP SWAP2 DUP4 MSTORE POP POP PUSH1 0x6 DUP3 ADD SLOAD PUSH1 0x20 DUP3 ADD MSTORE PUSH1 0x7 SWAP1 SWAP2 ADD SLOAD PUSH1 0x40 SWAP2 DUP3 ADD MSTORE DUP2 MLOAD PUSH1 0xC0 DUP4 ADD MLOAD PUSH1 0xE0 DUP5 ADD MLOAD SWAP3 DUP5 ADD MLOAD PUSH1 0x60 SWAP1 SWAP5 ADD MLOAD SWAP2 SWAP12 SWAP1 SWAP11 POP SWAP2 SWAP9 POP SWAP2 SWAP7 POP SWAP1 SWAP5 POP SWAP3 POP POP POP JUMP JUMPDEST PUSH1 0x0 DUP2 DUP2 MSTORE PUSH1 0x20 DUP2 DUP2 MSTORE PUSH1 0x40 SWAP2 DUP3 SWAP1 KECCAK256 PUSH1 0x5 ADD DUP1 SLOAD DUP4 MLOAD DUP2 DUP5 MUL DUP2 ADD DUP5 ADD SWAP1 SWAP5 MSTORE DUP1 DUP5 MSTORE PUSH1 0x60 SWAP4 SWAP3 DUP4 ADD DUP3 DUP3 DUP1 ISZERO PUSH2 0x695 JUMPI PUSH1 0x20 MUL DUP3 ADD SWAP2 SWAP1 PUSH1 0x0 MSTORE PUSH1 0x20 PUSH1 0x0 KECCAK256 SWAP1 JUMPDEST DUP2 SLOAD PUSH1 0x1 PUSH1 0x1 PUSH1 0xA0 SHL SUB AND DUP2 MSTORE PUSH1 0x1 SWAP1 SWAP2 ADD SWAP1 PUSH1 0x20 ADD DUP1 DUP4 GT PUSH2 0x677 JUMPI JUMPDEST POP POP POP POP POP SWAP1 POP SWAP2 SWAP1 POP JUMP JUMPDEST PUSH1 0x40 MLOAD PUSH3 0x461BCD PUSH1 0xE5 SHL DUP2 MSTORE PUSH1 0x20 PUSH1 0x4 DUP3 ADD MSTORE PUSH1 0x1F PUSH1 0x24 DUP3 ADD MSTORE PUSH32 0x5075626C6963207472616E73666572206E6F7420696D706C656D656E74656400 PUSH1 0x44 DUP3 ADD MSTORE PUSH1 0x64 ADD JUMPDEST PUSH1 0x40 MLOAD DUP1 SWAP2 SUB SWAP1 REVERT JUMPDEST PUSH1 0x0 DUP4 DUP2 MSTORE PUSH1 0x20 DUP2 SWAP1 MSTORE PUSH1 0x40 SWAP1 KECCAK256 SLOAD PUSH1 0x1 PUSH1 0x1 PUSH1 0xA0 SHL SUB AND CALLER EQ PUSH2 0x724 JUMPI PUSH1 0x40 MLOAD PUSH3 0x461BCD PUSH1 0xE5 SHL DUP2 MSTORE PUSH1 0x4 ADD PUSH2 0x6E5 SWAP1 PUSH2 0x1E2F JUMP JUMPDEST PUSH1 0x0 DUP4 DUP2 MSTORE PUSH1 0x20 DUP2 SWAP1 MSTORE PUSH1 0x40 SWAP1 KECCAK256 PUSH1 0x4 ADD SLOAD DUP2 EQ PUSH2 0x77B JUMPI PUSH1 0x40 MLOAD PUSH3 0x461BCD PUSH1 0xE5 SHL DUP2 MSTORE PUSH1 0x20 PUSH1 0x4 DUP3 ADD MSTORE PUSH1 0x14 PUSH1 0x24 DUP3 ADD MSTORE PUSH20 0xA0E4DEDECC40C6DEEADCE840DAD2E6DAC2E8C6D PUSH1 0x63 SHL PUSH1 0x44 DUP3 ADD MSTORE PUSH1 0x64 ADD PUSH2 0x6E5 JUMP JUMPDEST PUSH1 0x40 MLOAD PUSH4 0xC2A93E37 PUSH1 0xE0 SHL DUP2 MSTORE PUSH1 0x0 SWAP1 PUSH1 0x1 PUSH1 0x1 PUSH1 0xA0 SHL SUB PUSH32 0x0 AND SWAP1 PUSH4 0xC2A93E37 SWAP1 PUSH2 0x7CC SWAP1 DUP7 SWAP1 DUP7 SWAP1 PUSH1 0x4 ADD PUSH2 0x1EC6 JUMP JUMPDEST PUSH1 0x0 PUSH1 0x40 MLOAD DUP1 DUP4 SUB DUP2 DUP7 GAS STATICCALL ISZERO DUP1 ISZERO PUSH2 0x7E9 JUMPI RETURNDATASIZE PUSH1 0x0 DUP1 RETURNDATACOPY RETURNDATASIZE PUSH1 0x0 REVERT JUMPDEST POP POP POP POP PUSH1 0x40 MLOAD RETURNDATASIZE PUSH1 0x0 DUP3 RETURNDATACOPY PUSH1 0x1F RETURNDATASIZE SWAP1 DUP2 ADD PUSH1 0x1F NOT AND DUP3 ADD PUSH1 0x40 MSTORE PUSH2 0x811 SWAP2 SWAP1 DUP2 ADD SWAP1 PUSH2 0x1FEF JUMP JUMPDEST PUSH1 0x0 DUP6 DUP2 MSTORE PUSH1 0x20 DUP2 DUP2 MSTORE PUSH1 0x40 DUP1 DUP4 KECCAK256 PUSH1 0x4 ADD DUP1 SLOAD DUP3 MLOAD DUP2 DUP6 MUL DUP2 ADD DUP6 ADD SWAP1 SWAP4 MSTORE DUP1 DUP4 MSTORE SWAP5 SWAP6 POP SWAP3 SWAP4 SWAP1 SWAP3 SWAP2 DUP4 ADD DUP3 DUP3 DUP1 ISZERO PUSH2 0x86B JUMPI PUSH1 0x20 MUL DUP3 ADD SWAP2 SWAP1 PUSH1 0x0 MSTORE PUSH1 0x20 PUSH1 0x0 KECCAK256 SWAP1 JUMPDEST DUP2 SLOAD DUP2 MSTORE PUSH1 0x20 ADD SWAP1 PUSH1 0x1 ADD SWAP1 DUP1 DUP4 GT PUSH2 0x857 JUMPI JUMPDEST POP POP POP POP POP SWAP1 POP PUSH1 0x0 DUP3 MLOAD PUSH1 0x1 PUSH1 0x1 PUSH1 0x40 SHL SUB DUP2 GT ISZERO PUSH2 0x88D JUMPI PUSH2 0x88D PUSH2 0x1F2C JUMP JUMPDEST PUSH1 0x40 MLOAD SWAP1 DUP1 DUP3 MSTORE DUP1 PUSH1 0x20 MUL PUSH1 0x20 ADD DUP3 ADD PUSH1 0x40 MSTORE DUP1 ISZERO PUSH2 0x8B6 JUMPI DUP2 PUSH1 0x20 ADD PUSH1 0x20 DUP3 MUL DUP1 CALLDATASIZE DUP4 CALLDATACOPY ADD SWAP1 POP JUMPDEST POP SWAP1 POP PUSH1 0x0 JUMPDEST DUP4 MLOAD DUP2 LT ISZERO PUSH2 0x96C JUMPI DUP4 DUP2 DUP2 MLOAD DUP2 LT PUSH2 0x8D7 JUMPI PUSH2 0x8D7 PUSH2 0x20B1 JUMP JUMPDEST PUSH1 0x20 MUL PUSH1 0x20 ADD ADD MLOAD PUSH1 0x20 ADD MLOAD PUSH2 0x91F JUMPI PUSH1 0x40 MLOAD PUSH3 0x461BCD PUSH1 0xE5 SHL DUP2 MSTORE PUSH1 0x20 PUSH1 0x4 DUP3 ADD MSTORE PUSH1 0xD PUSH1 0x24 DUP3 ADD MSTORE PUSH13 0x24B73B30B634B210383937B7B3 PUSH1 0x99 SHL PUSH1 0x44 DUP3 ADD MSTORE PUSH1 0x64 ADD PUSH2 0x6E5 JUMP JUMPDEST DUP4 DUP2 DUP2 MLOAD DUP2 LT PUSH2 0x931 JUMPI PUSH2 0x931 PUSH2 0x20B1 JUMP JUMPDEST PUSH1 0x20 MUL PUSH1 0x20 ADD ADD MLOAD PUSH1 0x0 ADD MLOAD DUP3 DUP3 DUP2 MLOAD DUP2 LT PUSH2 0x94F JUMPI PUSH2 0x94F PUSH2 0x20B1 JUMP JUMPDEST PUSH1 0x20 SWAP1 DUP2 MUL SWAP2 SWAP1 SWAP2 ADD ADD MSTORE DUP1 PUSH2 0x964 DUP2 PUSH2 0x20C7 JUMP JUMPDEST SWAP2 POP POP PUSH2 0x8BC JUMP JUMPDEST POP PUSH1 0x0 DUP7 DUP2 MSTORE PUSH1 0x20 DUP2 DUP2 MSTORE PUSH1 0x40 SWAP1 SWAP2 KECCAK256 DUP3 MLOAD PUSH2 0x990 SWAP3 PUSH1 0x4 SWAP1 SWAP3 ADD SWAP2 DUP5 ADD SWAP1 PUSH2 0x195C JUMP JUMPDEST POP PUSH1 0x0 DUP7 DUP2 MSTORE PUSH1 0x20 DUP2 SWAP1 MSTORE PUSH1 0x40 DUP2 KECCAK256 TIMESTAMP PUSH1 0x2 DUP3 ADD SSTORE PUSH1 0x7 ADD DUP1 SLOAD SWAP2 PUSH2 0x9B4 DUP4 PUSH2 0x20C7 JUMP JUMPDEST SWAP1 SWAP2 SSTORE POP POP PUSH1 0x0 DUP7 DUP2 MSTORE PUSH1 0x20 DUP2 SWAP1 MSTORE PUSH1 0x40 SWAP1 KECCAK256 PUSH1 0x7 ADD SLOAD PUSH2 0x9D7 SWAP1 PUSH1 0x5 SWAP1 PUSH2 0x20EE JUMP JUMPDEST PUSH1 0x0 SUB PUSH2 0xA4F JUMPI PUSH1 0x0 DUP7 DUP2 MSTORE PUSH1 0x20 DUP2 SWAP1 MSTORE PUSH1 0x40 DUP2 KECCAK256 PUSH1 0x6 ADD DUP1 SLOAD SWAP2 DUP3 SWAP2 SWAP1 PUSH2 0x9FE DUP4 PUSH2 0x20C7 JUMP JUMPDEST SWAP1 SWAP2 SSTORE POP POP PUSH1 0x0 DUP8 DUP2 MSTORE PUSH1 0x20 DUP2 DUP2 MSTORE PUSH1 0x40 SWAP2 DUP3 SWAP1 KECCAK256 PUSH1 0x6 ADD SLOAD DUP3 MLOAD DUP5 DUP2 MSTORE SWAP2 DUP3 ADD MSTORE DUP9 SWAP2 PUSH32 0x6BBB7CB56B5F3845CE5AD015D25CBF87ED1C37C635E2082ACB2610598F15CC7 SWAP2 ADD PUSH1 0x40 MLOAD DUP1 SWAP2 SUB SWAP1 LOG2 POP JUMPDEST DUP6 PUSH32 0x51FA73895CA2BD4C7F525775384B199B6047F069E662B82AA9E1B0998B9C2975 DUP4 DUP4 PUSH1 0x40 MLOAD PUSH2 0xA81 SWAP3 SWAP2 SWAP1 PUSH2 0x214B JUMP JUMPDEST PUSH1 0x40 MLOAD DUP1 SWAP2 SUB SWAP1 LOG2 DUP6 PUSH32 0x871F9739B79E9EFD6285318758001F00502185FF0D254A080922CD80580C3E02 DUP3 PUSH1 0x0 DUP2 MLOAD DUP2 LT PUSH2 0xABE JUMPI PUSH2 0xABE PUSH2 0x20B1 JUMP JUMPDEST PUSH1 0x20 MUL PUSH1 0x20 ADD ADD MLOAD PUSH1 0x0 DUP1 DUP11 DUP2 MSTORE PUSH1 0x20 ADD SWAP1 DUP2 MSTORE PUSH1 0x20 ADD PUSH1 0x0 KECCAK256 PUSH1 0x6 ADD SLOAD PUSH1 0x40 MLOAD PUSH2 0xAF3 SWAP3 SWAP2 SWAP1 SWAP2 DUP3 MSTORE PUSH1 0x20 DUP3 ADD MSTORE PUSH1 0x40 ADD SWAP1 JUMP JUMPDEST PUSH1 0x40 MLOAD DUP1 SWAP2 SUB SWAP1 LOG2 POP POP POP POP POP POP JUMP JUMPDEST PUSH1 0x0 PUSH1 0x1 PUSH1 0x1 PUSH1 0xA0 SHL SUB DUP6 AND PUSH2 0xB5B JUMPI PUSH1 0x40 MLOAD PUSH3 0x461BCD PUSH1 0xE5 SHL DUP2 MSTORE PUSH1 0x20 PUSH1 0x4 DUP3 ADD MSTORE PUSH1 0x1C PUSH1 0x24 DUP3 ADD MSTORE PUSH32 0x43616E6E6F7420636C6F6E6520746F207A65726F206164647265737300000000 PUSH1 0x44 DUP3 ADD MSTORE PUSH1 0x64 ADD PUSH2 0x6E5 JUMP JUMPDEST PUSH1 0x0 DUP5 DUP2 MSTORE PUSH1 0x20 DUP2 SWAP1 MSTORE PUSH1 0x40 SWAP1 KECCAK256 SLOAD PUSH1 0x1 PUSH1 0x1 PUSH1 0xA0 SHL SUB AND CALLER EQ PUSH2 0xB91 JUMPI PUSH1 0x40 MLOAD PUSH3 0x461BCD PUSH1 0xE5 SHL DUP2 MSTORE PUSH1 0x4 ADD PUSH2 0x6E5 SWAP1 PUSH2 0x1E2F JUMP JUMPDEST PUSH1 0x40 MLOAD PUSH4 0x49E176D3 PUSH1 0xE1 SHL DUP2 MSTORE PUSH1 0x0 SWAP1 PUSH1 0x1 PUSH1 0x1 PUSH1 0xA0 SHL SUB PUSH32 0x0 AND SWAP1 PUSH4 0x93C2EDA6 SWAP1 PUSH2 0xBE2 SWAP1 DUP8 SWAP1 DUP8 SWAP1 PUSH1 0x4 ADD PUSH2 0x1EC6 JUMP JUMPDEST PUSH1 0x0 PUSH1 0x40 MLOAD DUP1 DUP4 SUB DUP2 DUP7 GAS STATICCALL ISZERO DUP1 ISZERO PUSH2 0xBFF JUMPI RETURNDATASIZE PUSH1 0x0 DUP1 RETURNDATACOPY RETURNDATASIZE PUSH1 0x0 REVERT JUMPDEST POP POP POP POP PUSH1 0x40 MLOAD RETURNDATASIZE PUSH1 0x0 DUP3 RETURNDATACOPY PUSH1 0x1F RETURNDATASIZE SWAP1 DUP2 ADD PUSH1 0x1F NOT AND DUP3 ADD PUSH1 0x40 MSTORE PUSH2 0xC27 SWAP2 SWAP1 DUP2 ADD SWAP1 PUSH2 0x21B8 JUMP JUMPDEST SWAP1 POP PUSH1 0x0 DUP2 MLOAD PUSH1 0x1 PUSH1 0x1 PUSH1 0x40 SHL SUB DUP2 GT ISZERO PUSH2 0xC44 JUMPI PUSH2 0xC44 PUSH2 0x1F2C JUMP JUMPDEST PUSH1 0x40 MLOAD SWAP1 DUP1 DUP3 MSTORE DUP1 PUSH1 0x20 MUL PUSH1 0x20 ADD DUP3 ADD PUSH1 0x40 MSTORE DUP1 ISZERO PUSH2 0xC6D JUMPI DUP2 PUSH1 0x20 ADD PUSH1 0x20 DUP3 MUL DUP1 CALLDATASIZE DUP4 CALLDATACOPY ADD SWAP1 POP JUMPDEST POP SWAP1 POP PUSH1 0x0 JUMPDEST DUP3 MLOAD DUP2 LT ISZERO PUSH2 0xD29 JUMPI DUP3 DUP2 DUP2 MLOAD DUP2 LT PUSH2 0xC8E JUMPI PUSH2 0xC8E PUSH2 0x20B1 JUMP JUMPDEST PUSH1 0x20 MUL PUSH1 0x20 ADD ADD MLOAD PUSH1 0x80 ADD MLOAD PUSH2 0xCDC JUMPI PUSH1 0x40 MLOAD PUSH3 0x461BCD PUSH1 0xE5 SHL DUP2 MSTORE PUSH1 0x20 PUSH1 0x4 DUP3 ADD MSTORE PUSH1 0x13 PUSH1 0x24 DUP3 ADD MSTORE PUSH19 0x24B73B30B634B21031B637B73290383937B7B3 PUSH1 0x69 SHL PUSH1 0x44 DUP3 ADD MSTORE PUSH1 0x64 ADD PUSH2 0x6E5 JUMP JUMPDEST DUP3 DUP2 DUP2 MLOAD DUP2 LT PUSH2 0xCEE JUMPI PUSH2 0xCEE PUSH2 0x20B1 JUMP JUMPDEST PUSH1 0x20 MUL PUSH1 0x20 ADD ADD MLOAD PUSH1 0x20 ADD MLOAD DUP3 DUP3 DUP2 MLOAD DUP2 LT PUSH2 0xD0C JUMPI PUSH2 0xD0C PUSH2 0x20B1 JUMP JUMPDEST PUSH1 0x20 SWAP1 DUP2 MUL SWAP2 SWAP1 SWAP2 ADD ADD MSTORE DUP1 PUSH2 0xD21 DUP2 PUSH2 0x20C7 JUMP JUMPDEST SWAP2 POP POP PUSH2 0xC73 JUMP JUMPDEST POP PUSH1 0x1 DUP1 SLOAD SWAP1 PUSH1 0x0 PUSH2 0xD3A DUP4 PUSH2 0x20C7 JUMP JUMPDEST SWAP2 SWAP1 POP SSTORE SWAP3 POP PUSH1 0x40 MLOAD DUP1 PUSH2 0x100 ADD PUSH1 0x40 MSTORE DUP1 DUP9 PUSH1 0x1 PUSH1 0x1 PUSH1 0xA0 SHL SUB AND DUP2 MSTORE PUSH1 0x20 ADD TIMESTAMP DUP2 MSTORE PUSH1 0x20 ADD TIMESTAMP DUP2 MSTORE PUSH1 0x20 ADD PUSH1 0x0 DUP1 DUP10 DUP2 MSTORE PUSH1 0x20 ADD SWAP1 DUP2 MSTORE PUSH1 0x20 ADD PUSH1 0x0 KECCAK256 PUSH1 0x3 ADD DUP1 SLOAD DUP1 PUSH1 0x20 MUL PUSH1 0x20 ADD PUSH1 0x40 MLOAD SWAP1 DUP2 ADD PUSH1 0x40 MSTORE DUP1 SWAP3 SWAP2 SWAP1 DUP2 DUP2 MSTORE PUSH1 0x20 ADD PUSH1 0x0 SWAP1 JUMPDEST DUP3 DUP3 LT ISZERO PUSH2 0xE48 JUMPI DUP4 DUP3 SWAP1 PUSH1 0x0 MSTORE PUSH1 0x20 PUSH1 0x0 KECCAK256 ADD DUP1 SLOAD PUSH2 0xDBB SWAP1 PUSH2 0x1DF5 JUMP JUMPDEST DUP1 PUSH1 0x1F ADD PUSH1 0x20 DUP1 SWAP2 DIV MUL PUSH1 0x20 ADD PUSH1 0x40 MLOAD SWAP1 DUP2 ADD PUSH1 0x40 MSTORE DUP1 SWAP3 SWAP2 SWAP1 DUP2 DUP2 MSTORE PUSH1 0x20 ADD DUP3 DUP1 SLOAD PUSH2 0xDE7 SWAP1 PUSH2 0x1DF5 JUMP JUMPDEST DUP1 ISZERO PUSH2 0xE34 JUMPI DUP1 PUSH1 0x1F LT PUSH2 0xE09 JUMPI PUSH2 0x100 DUP1 DUP4 SLOAD DIV MUL DUP4 MSTORE SWAP2 PUSH1 0x20 ADD SWAP2 PUSH2 0xE34 JUMP JUMPDEST DUP3 ADD SWAP2 SWAP1 PUSH1 0x0 MSTORE PUSH1 0x20 PUSH1 0x0 KECCAK256 SWAP1 JUMPDEST DUP2 SLOAD DUP2 MSTORE SWAP1 PUSH1 0x1 ADD SWAP1 PUSH1 0x20 ADD DUP1 DUP4 GT PUSH2 0xE17 JUMPI DUP3 SWAP1 SUB PUSH1 0x1F AND DUP3 ADD SWAP2 JUMPDEST POP POP POP POP POP DUP2 MSTORE PUSH1 0x20 ADD SWAP1 PUSH1 0x1 ADD SWAP1 PUSH2 0xD9C JUMP JUMPDEST POP POP POP SWAP1 DUP3 MSTORE POP PUSH1 0x20 DUP1 DUP3 ADD DUP5 SWAP1 MSTORE PUSH1 0x40 DUP1 MLOAD PUSH1 0x0 DUP1 DUP3 MSTORE SWAP3 DUP2 ADD DUP3 MSTORE SWAP3 ADD SWAP2 SWAP1 POP DUP2 MSTORE PUSH1 0x0 DUP9 DUP2 MSTORE PUSH1 0x20 DUP2 DUP2 MSTORE PUSH1 0x40 DUP1 DUP4 KECCAK256 PUSH1 0x6 ADD SLOAD DUP3 DUP6 ADD MSTORE SWAP3 DUP4 ADD DUP3 SWAP1 MSTORE DUP7 DUP3 MSTORE DUP2 DUP2 MSTORE SWAP1 DUP3 SWAP1 KECCAK256 DUP4 MLOAD DUP2 SLOAD PUSH1 0x1 PUSH1 0x1 PUSH1 0xA0 SHL SUB NOT AND PUSH1 0x1 PUSH1 0x1 PUSH1 0xA0 SHL SUB SWAP1 SWAP2 AND OR DUP2 SSTORE DUP4 DUP3 ADD MLOAD PUSH1 0x1 DUP3 ADD SSTORE SWAP2 DUP4 ADD MLOAD PUSH1 0x2 DUP4 ADD SSTORE PUSH1 0x60 DUP4 ADD MLOAD DUP1 MLOAD PUSH2 0xED8 SWAP3 PUSH1 0x3 DUP6 ADD SWAP3 ADD SWAP1 PUSH2 0x19A7 JUMP JUMPDEST POP PUSH1 0x80 DUP3 ADD MLOAD DUP1 MLOAD PUSH2 0xEF4 SWAP2 PUSH1 0x4 DUP5 ADD SWAP2 PUSH1 0x20 SWAP1 SWAP2 ADD SWAP1 PUSH2 0x195C JUMP JUMPDEST POP PUSH1 0xA0 DUP3 ADD MLOAD DUP1 MLOAD PUSH2 0xF10 SWAP2 PUSH1 0x5 DUP5 ADD SWAP2 PUSH1 0x20 SWAP1 SWAP2 ADD SWAP1 PUSH2 0x19F9 JUMP JUMPDEST POP PUSH1 0xC0 DUP3 ADD MLOAD PUSH1 0x6 DUP3 ADD SSTORE PUSH1 0xE0 SWAP1 SWAP2 ADD MLOAD PUSH1 0x7 SWAP1 SWAP2 ADD SSTORE PUSH1 0x2 DUP1 SLOAD SWAP1 PUSH1 0x0 PUSH2 0xF37 DUP4 PUSH2 0x20C7 JUMP JUMPDEST SWAP1 SWAP2 SSTORE POP POP PUSH1 0x40 DUP1 MLOAD CALLER DUP2 MSTORE PUSH1 0x1 PUSH1 0x1 PUSH1 0xA0 SHL SUB DUP10 AND PUSH1 0x20 DUP3 ADD MSTORE DUP5 SWAP2 DUP9 SWAP2 PUSH32 0x40B442EE2BB535802063305B95F127B5101E5FCE261A5DEC9379683EAAAD8CDB SWAP2 ADD PUSH1 0x40 MLOAD DUP1 SWAP2 SUB SWAP1 LOG3 DUP7 PUSH1 0x1 PUSH1 0x1 PUSH1 0xA0 SHL SUB AND CALLER PUSH1 0x1 PUSH1 0x1 PUSH1 0xA0 SHL SUB AND DUP5 PUSH32 0x531BD8CA2B17505AAA50D843FABE2DFD9A3BB9E20C511D2288B24BD484861B02 DUP5 PUSH1 0x0 DUP1 DUP13 DUP2 MSTORE PUSH1 0x20 ADD SWAP1 DUP2 MSTORE PUSH1 0x20 ADD PUSH1 0x0 KECCAK256 PUSH1 0x3 ADD PUSH1 0x40 MLOAD PUSH2 0xFDB SWAP3 SWAP2 SWAP1 PUSH2 0x230B JUMP JUMPDEST PUSH1 0x40 MLOAD DUP1 SWAP2 SUB SWAP1 LOG4 POP POP SWAP5 SWAP4 POP POP POP POP JUMP JUMPDEST PUSH1 0x4 DUP1 SLOAD PUSH2 0x3A0 SWAP1 PUSH2 0x1DF5 JUMP JUMPDEST PUSH1 0x40 MLOAD PUSH3 0x461BCD PUSH1 0xE5 SHL DUP2 MSTORE PUSH1 0x20 PUSH1 0x4 DUP3 ADD MSTORE PUSH1 0x1C PUSH1 0x24 DUP3 ADD MSTORE PUSH32 0x5075626C696320636C6F6E65206E6F7420696D706C656D656E74656400000000 PUSH1 0x44 DUP3 ADD MSTORE PUSH1 0x0 SWAP1 PUSH1 0x64 ADD PUSH2 0x6E5 JUMP JUMPDEST PUSH1 0x0 PUSH1 0x1 PUSH1 0x1 PUSH1 0xA0 SHL SUB DUP3 AND PUSH2 0x109D JUMPI PUSH1 0x40 MLOAD PUSH3 0x461BCD PUSH1 0xE5 SHL DUP2 MSTORE PUSH1 0x20 PUSH1 0x4 DUP3 ADD MSTORE PUSH1 0x1B PUSH1 0x24 DUP3 ADD MSTORE PUSH32 0x43616E6E6F74206D696E7420746F207A65726F20616464726573730000000000 PUSH1 0x44 DUP3 ADD MSTORE PUSH1 0x64 ADD PUSH2 0x6E5 JUMP JUMPDEST DUP3 DUP6 EQ PUSH2 0x10FC JUMPI PUSH1 0x40 MLOAD PUSH3 0x461BCD PUSH1 0xE5 SHL DUP2 MSTORE PUSH1 0x20 PUSH1 0x4 DUP3 ADD MSTORE PUSH1 0x27 PUSH1 0x24 DUP3 ADD MSTORE PUSH32 0x4465736372697074696F6E7320616E642070726F6F6673206C656E677468206D PUSH1 0x44 DUP3 ADD MSTORE PUSH7 0xD2E6DAC2E8C6D PUSH1 0xCB SHL PUSH1 0x64 DUP3 ADD MSTORE PUSH1 0x84 ADD PUSH2 0x6E5 JUMP JUMPDEST PUSH1 0x40 MLOAD PUSH4 0xC2A93E37 PUSH1 0xE0 SHL DUP2 MSTORE PUSH1 0x0 SWAP1 PUSH1 0x1 PUSH1 0x1 PUSH1 0xA0 SHL SUB PUSH32 0x0 AND SWAP1 PUSH4 0xC2A93E37 SWAP1 PUSH2 0x114D SWAP1 DUP11 SWAP1 DUP11 SWAP1 PUSH1 0x4 ADD PUSH2 0x1EC6 JUMP JUMPDEST PUSH1 0x0 PUSH1 0x40 MLOAD DUP1 DUP4 SUB DUP2 DUP7 GAS STATICCALL ISZERO DUP1 ISZERO PUSH2 0x116A JUMPI RETURNDATASIZE PUSH1 0x0 DUP1 RETURNDATACOPY RETURNDATASIZE PUSH1 0x0 REVERT JUMPDEST POP POP POP POP PUSH1 0x40 MLOAD RETURNDATASIZE PUSH1 0x0 DUP3 RETURNDATACOPY PUSH1 0x1F RETURNDATASIZE SWAP1 DUP2 ADD PUSH1 0x1F NOT AND DUP3 ADD PUSH1 0x40 MSTORE PUSH2 0x1192 SWAP2 SWAP1 DUP2 ADD SWAP1 PUSH2 0x1FEF JUMP JUMPDEST SWAP1 POP PUSH1 0x0 DUP2 MLOAD PUSH1 0x1 PUSH1 0x1 PUSH1 0x40 SHL SUB DUP2 GT ISZERO PUSH2 0x11AF JUMPI PUSH2 0x11AF PUSH2 0x1F2C JUMP JUMPDEST PUSH1 0x40 MLOAD SWAP1 DUP1 DUP3 MSTORE DUP1 PUSH1 0x20 MUL PUSH1 0x20 ADD DUP3 ADD PUSH1 0x40 MSTORE DUP1 ISZERO PUSH2 0x11D8 JUMPI DUP2 PUSH1 0x20 ADD PUSH1 0x20 DUP3 MUL DUP1 CALLDATASIZE DUP4 CALLDATACOPY ADD SWAP1 POP JUMPDEST POP SWAP1 POP PUSH1 0x0 JUMPDEST DUP3 MLOAD DUP2 LT ISZERO PUSH2 0x128E JUMPI DUP3 DUP2 DUP2 MLOAD DUP2 LT PUSH2 0x11F9 JUMPI PUSH2 0x11F9 PUSH2 0x20B1 JUMP JUMPDEST PUSH1 0x20 MUL PUSH1 0x20 ADD ADD MLOAD PUSH1 0x20 ADD MLOAD PUSH2 0x1241 JUMPI PUSH1 0x40 MLOAD PUSH3 0x461BCD PUSH1 0xE5 SHL DUP2 MSTORE PUSH1 0x20 PUSH1 0x4 DUP3 ADD MSTORE PUSH1 0xD PUSH1 0x24 DUP3 ADD MSTORE PUSH13 0x24B73B30B634B210383937B7B3 PUSH1 0x99 SHL PUSH1 0x44 DUP3 ADD MSTORE PUSH1 0x64 ADD PUSH2 0x6E5 JUMP JUMPDEST DUP3 DUP2 DUP2 MLOAD DUP2 LT PUSH2 0x1253 JUMPI PUSH2 0x1253 PUSH2 0x20B1 JUMP JUMPDEST PUSH1 0x20 MUL PUSH1 0x20 ADD ADD MLOAD PUSH1 0x0 ADD MLOAD DUP3 DUP3 DUP2 MLOAD DUP2 LT PUSH2 0x1271 JUMPI PUSH2 0x1271 PUSH2 0x20B1 JUMP JUMPDEST PUSH1 0x20 SWAP1 DUP2 MUL SWAP2 SWAP1 SWAP2 ADD ADD MSTORE DUP1 PUSH2 0x1286 DUP2 PUSH2 0x20C7 JUMP JUMPDEST SWAP2 POP POP PUSH2 0x11DE JUMP JUMPDEST POP PUSH1 0x1 DUP1 SLOAD SWAP1 PUSH1 0x0 PUSH2 0x129F DUP4 PUSH2 0x20C7 JUMP JUMPDEST SWAP2 SWAP1 POP SSTORE SWAP3 POP PUSH1 0x40 MLOAD DUP1 PUSH2 0x100 ADD PUSH1 0x40 MSTORE DUP1 DUP6 PUSH1 0x1 PUSH1 0x1 PUSH1 0xA0 SHL SUB AND DUP2 MSTORE PUSH1 0x20 ADD TIMESTAMP DUP2 MSTORE PUSH1 0x20 ADD TIMESTAMP DUP2 MSTORE PUSH1 0x20 ADD DUP8 DUP8 SWAP1 PUSH2 0x12D9 SWAP2 SWAP1 PUSH2 0x23ED JUMP JUMPDEST DUP2 MSTORE PUSH1 0x20 DUP1 DUP3 ADD DUP5 SWAP1 MSTORE PUSH1 0x40 DUP1 MLOAD PUSH1 0x0 DUP1 DUP3 MSTORE DUP2 DUP5 ADD DUP4 MSTORE DUP3 DUP6 ADD SWAP2 SWAP1 SWAP2 MSTORE PUSH1 0x1 PUSH1 0x60 DUP1 DUP7 ADD DUP3 SWAP1 MSTORE PUSH1 0x80 SWAP1 SWAP6 ADD DUP3 SWAP1 MSTORE DUP9 DUP3 MSTORE DUP2 DUP5 MSTORE SWAP1 DUP3 SWAP1 KECCAK256 DUP6 MLOAD DUP2 SLOAD PUSH1 0x1 PUSH1 0x1 PUSH1 0xA0 SHL SUB NOT AND PUSH1 0x1 PUSH1 0x1 PUSH1 0xA0 SHL SUB SWAP1 SWAP2 AND OR DUP2 SSTORE DUP6 DUP5 ADD MLOAD SWAP2 DUP2 ADD SWAP2 SWAP1 SWAP2 SSTORE SWAP1 DUP5 ADD MLOAD PUSH1 0x2 DUP3 ADD SSTORE SWAP2 DUP4 ADD MLOAD DUP1 MLOAD PUSH2 0x135A SWAP3 PUSH1 0x3 DUP6 ADD SWAP3 ADD SWAP1 PUSH2 0x19A7 JUMP JUMPDEST POP PUSH1 0x80 DUP3 ADD MLOAD DUP1 MLOAD PUSH2 0x1376 SWAP2 PUSH1 0x4 DUP5 ADD SWAP2 PUSH1 0x20 SWAP1 SWAP2 ADD SWAP1 PUSH2 0x195C JUMP JUMPDEST POP PUSH1 0xA0 DUP3 ADD MLOAD DUP1 MLOAD PUSH2 0x1392 SWAP2 PUSH1 0x5 DUP5 ADD SWAP2 PUSH1 0x20 SWAP1 SWAP2 ADD SWAP1 PUSH2 0x19F9 JUMP JUMPDEST POP PUSH1 0xC0 DUP3 ADD MLOAD PUSH1 0x6 DUP3 ADD SSTORE PUSH1 0xE0 SWAP1 SWAP2 ADD MLOAD PUSH1 0x7 SWAP1 SWAP2 ADD SSTORE PUSH1 0x2 DUP1 SLOAD SWAP1 PUSH1 0x0 PUSH2 0x13B9 DUP4 PUSH2 0x20C7 JUMP JUMPDEST SWAP2 SWAP1 POP SSTORE POP DUP4 PUSH1 0x1 PUSH1 0x1 PUSH1 0xA0 SHL SUB AND CALLER PUSH1 0x1 PUSH1 0x1 PUSH1 0xA0 SHL SUB AND DUP5 PUSH32 0x531BD8CA2B17505AAA50D843FABE2DFD9A3BB9E20C511D2288B24BD484861B02 DUP5 DUP11 DUP11 PUSH1 0x40 MLOAD PUSH2 0x1406 SWAP4 SWAP3 SWAP2 SWAP1 PUSH2 0x249C JUMP JUMPDEST PUSH1 0x40 MLOAD DUP1 SWAP2 SUB SWAP1 LOG4 POP POP SWAP6 SWAP5 POP POP POP POP POP JUMP JUMPDEST PUSH1 0x1 PUSH1 0x1 PUSH1 0xA0 SHL SUB DUP5 AND PUSH2 0x146F JUMPI PUSH1 0x40 MLOAD PUSH3 0x461BCD PUSH1 0xE5 SHL DUP2 MSTORE PUSH1 0x20 PUSH1 0x4 DUP3 ADD MSTORE PUSH1 0x1F PUSH1 0x24 DUP3 ADD MSTORE PUSH32 0x43616E6E6F74207472616E7366657220746F207A65726F206164647265737300 PUSH1 0x44 DUP3 ADD MSTORE PUSH1 0x64 ADD PUSH2 0x6E5 JUMP JUMPDEST PUSH1 0x0 DUP4 DUP2 MSTORE PUSH1 0x20 DUP2 SWAP1 MSTORE PUSH1 0x40 SWAP1 KECCAK256 SLOAD PUSH1 0x1 PUSH1 0x1 PUSH1 0xA0 SHL SUB AND CALLER EQ PUSH2 0x14A5 JUMPI PUSH1 0x40 MLOAD PUSH3 0x461BCD PUSH1 0xE5 SHL DUP2 MSTORE PUSH1 0x4 ADD PUSH2 0x6E5 SWAP1 PUSH2 0x1E2F JUMP JUMPDEST PUSH1 0x40 MLOAD PUSH4 0x49E176D3 PUSH1 0xE1 SHL DUP2 MSTORE PUSH1 0x0 SWAP1 PUSH1 0x1 PUSH1 0x1 PUSH1 0xA0 SHL SUB PUSH32 0x0 AND SWAP1 PUSH4 0x93C2EDA6 SWAP1 PUSH2 0x14F6 SWAP1 DUP7 SWAP1 DUP7 SWAP1 PUSH1 0x4 ADD PUSH2 0x1EC6 JUMP JUMPDEST PUSH1 0x0 PUSH1 0x40 MLOAD DUP1 DUP4 SUB DUP2 DUP7 GAS STATICCALL ISZERO DUP1 ISZERO PUSH2 0x1513 JUMPI RETURNDATASIZE PUSH1 0x0 DUP1 RETURNDATACOPY RETURNDATASIZE PUSH1 0x0 REVERT JUMPDEST POP POP POP POP PUSH1 0x40 MLOAD RETURNDATASIZE PUSH1 0x0 DUP3 RETURNDATACOPY PUSH1 0x1F RETURNDATASIZE SWAP1 DUP2 ADD PUSH1 0x1F NOT AND DUP3 ADD PUSH1 0x40 MSTORE PUSH2 0x153B SWAP2 SWAP1 DUP2 ADD SWAP1 PUSH2 0x21B8 JUMP JUMPDEST SWAP1 POP PUSH1 0x0 JUMPDEST DUP2 MLOAD DUP2 LT ISZERO PUSH2 0x164C JUMPI DUP2 DUP2 DUP2 MLOAD DUP2 LT PUSH2 0x155B JUMPI PUSH2 0x155B PUSH2 0x20B1 JUMP JUMPDEST PUSH1 0x20 MUL PUSH1 0x20 ADD ADD MLOAD PUSH1 0x80 ADD MLOAD PUSH2 0x15AC JUMPI PUSH1 0x40 MLOAD PUSH3 0x461BCD PUSH1 0xE5 SHL DUP2 MSTORE PUSH1 0x20 PUSH1 0x4 DUP3 ADD MSTORE PUSH1 0x16 PUSH1 0x24 DUP3 ADD MSTORE PUSH22 0x24B73B30B634B2103A3930B739B332B910383937B7B3 PUSH1 0x51 SHL PUSH1 0x44 DUP3 ADD MSTORE PUSH1 0x64 ADD PUSH2 0x6E5 JUMP JUMPDEST PUSH1 0x0 DUP6 DUP2 MSTORE PUSH1 0x20 DUP2 SWAP1 MSTORE PUSH1 0x40 SWAP1 KECCAK256 PUSH1 0x4 ADD DUP1 SLOAD DUP3 SWAP1 DUP2 LT PUSH2 0x15CF JUMPI PUSH2 0x15CF PUSH2 0x20B1 JUMP JUMPDEST SWAP1 PUSH1 0x0 MSTORE PUSH1 0x20 PUSH1 0x0 KECCAK256 ADD SLOAD DUP3 DUP3 DUP2 MLOAD DUP2 LT PUSH2 0x15EC JUMPI PUSH2 0x15EC PUSH2 0x20B1 JUMP JUMPDEST PUSH1 0x20 MUL PUSH1 0x20 ADD ADD MLOAD PUSH1 0x0 ADD MLOAD EQ PUSH2 0x163A JUMPI PUSH1 0x40 MLOAD PUSH3 0x461BCD PUSH1 0xE5 SHL DUP2 MSTORE PUSH1 0x20 PUSH1 0x4 DUP3 ADD MSTORE PUSH1 0x12 PUSH1 0x24 DUP3 ADD MSTORE PUSH18 0x88C2E8C240D0C2E6D040DAD2E6DAC2E8C6D PUSH1 0x73 SHL PUSH1 0x44 DUP3 ADD MSTORE PUSH1 0x64 ADD PUSH2 0x6E5 JUMP JUMPDEST DUP1 PUSH2 0x1644 DUP2 PUSH2 0x20C7 JUMP JUMPDEST SWAP2 POP POP PUSH2 0x1540 JUMP JUMPDEST POP PUSH1 0x0 DUP2 MLOAD PUSH1 0x1 PUSH1 0x1 PUSH1 0x40 SHL SUB DUP2 GT ISZERO PUSH2 0x1668 JUMPI PUSH2 0x1668 PUSH2 0x1F2C JUMP JUMPDEST PUSH1 0x40 MLOAD SWAP1 DUP1 DUP3 MSTORE DUP1 PUSH1 0x20 MUL PUSH1 0x20 ADD DUP3 ADD PUSH1 0x40 MSTORE DUP1 ISZERO PUSH2 0x1691 JUMPI DUP2 PUSH1 0x20 ADD PUSH1 0x20 DUP3 MUL DUP1 CALLDATASIZE DUP4 CALLDATACOPY ADD SWAP1 POP JUMPDEST POP SWAP1 POP PUSH1 0x0 DUP3 MLOAD PUSH1 0x1 PUSH1 0x1 PUSH1 0x40 SHL SUB DUP2 GT ISZERO PUSH2 0x16AF JUMPI PUSH2 0x16AF PUSH2 0x1F2C JUMP JUMPDEST PUSH1 0x40 MLOAD SWAP1 DUP1 DUP3 MSTORE DUP1 PUSH1 0x20 MUL PUSH1 0x20 ADD DUP3 ADD PUSH1 0x40 MSTORE DUP1 ISZERO PUSH2 0x16D8 JUMPI DUP2 PUSH1 0x20 ADD PUSH1 0x20 DUP3 MUL DUP1 CALLDATASIZE DUP4 CALLDATACOPY ADD SWAP1 POP JUMPDEST POP SWAP1 POP PUSH1 0x0 JUMPDEST DUP4 MLOAD DUP2 LT ISZERO PUSH2 0x177E JUMPI DUP4 DUP2 DUP2 MLOAD DUP2 LT PUSH2 0x16F9 JUMPI PUSH2 0x16F9 PUSH2 0x20B1 JUMP JUMPDEST PUSH1 0x20 MUL PUSH1 0x20 ADD ADD MLOAD PUSH1 0x20 ADD MLOAD DUP4 DUP3 DUP2 MLOAD DUP2 LT PUSH2 0x1717 JUMPI PUSH2 0x1717 PUSH2 0x20B1 JUMP JUMPDEST PUSH1 0x20 MUL PUSH1 0x20 ADD ADD DUP2 DUP2 MSTORE POP POP DUP4 DUP2 DUP2 MLOAD DUP2 LT PUSH2 0x1735 JUMPI PUSH2 0x1735 PUSH2 0x20B1 JUMP JUMPDEST PUSH1 0x20 MUL PUSH1 0x20 ADD ADD MLOAD PUSH1 0x60 ADD MLOAD DUP3 DUP3 DUP2 MLOAD DUP2 LT PUSH2 0x1753 JUMPI PUSH2 0x1753 PUSH2 0x20B1 JUMP JUMPDEST PUSH1 0x1 PUSH1 0x1 PUSH1 0x80 SHL SUB NOT SWAP1 SWAP3 AND PUSH1 0x20 SWAP3 DUP4 MUL SWAP2 SWAP1 SWAP2 ADD SWAP1 SWAP2 ADD MSTORE DUP1 PUSH2 0x1776 DUP2 PUSH2 0x20C7 JUMP JUMPDEST SWAP2 POP POP PUSH2 0x16DE JUMP JUMPDEST POP PUSH1 0x0 DUP7 DUP2 MSTORE PUSH1 0x20 DUP2 DUP2 MSTORE PUSH1 0x40 SWAP1 SWAP2 KECCAK256 DUP1 SLOAD PUSH1 0x1 PUSH1 0x1 PUSH1 0xA0 SHL SUB DUP11 DUP2 AND PUSH1 0x1 PUSH1 0x1 PUSH1 0xA0 SHL SUB NOT DUP4 AND OR DUP4 SSTORE DUP6 MLOAD SWAP2 AND SWAP3 PUSH2 0x17BF SWAP3 PUSH1 0x4 ADD SWAP2 SWAP1 DUP7 ADD SWAP1 PUSH2 0x195C JUMP JUMPDEST POP PUSH1 0x0 DUP8 DUP2 MSTORE PUSH1 0x20 DUP2 DUP2 MSTORE PUSH1 0x40 SWAP2 DUP3 SWAP1 KECCAK256 TIMESTAMP PUSH1 0x2 SWAP1 SWAP2 ADD SSTORE SWAP1 MLOAD DUP9 DUP2 MSTORE PUSH1 0x1 PUSH1 0x1 PUSH1 0xA0 SHL SUB DUP1 DUP12 AND SWAP3 SWAP1 DUP5 AND SWAP2 PUSH32 0xEA8DF787DDE63A7BDC34D17097ADF25749A3521F660E92DABDFF8D6EE91D18A SWAP2 ADD PUSH1 0x40 MLOAD DUP1 SWAP2 SUB SWAP1 LOG3 DUP7 DUP9 PUSH1 0x1 PUSH1 0x1 PUSH1 0xA0 SHL SUB AND PUSH32 0x156AABBD131F533640C54A2C9D227CCE945FA46B6E45DF7A473D76203233B9B5 DUP5 PUSH1 0x40 MLOAD PUSH2 0x1851 SWAP2 SWAP1 PUSH2 0x2516 JUMP JUMPDEST PUSH1 0x40 MLOAD DUP1 SWAP2 SUB SWAP1 LOG3 POP POP POP POP POP POP POP POP JUMP JUMPDEST PUSH1 0x0 DUP3 DUP2 MSTORE PUSH1 0x20 DUP2 SWAP1 MSTORE PUSH1 0x40 SWAP1 KECCAK256 SLOAD PUSH1 0x1 PUSH1 0x1 PUSH1 0xA0 SHL SUB AND CALLER EQ PUSH2 0x1899 JUMPI PUSH1 0x40 MLOAD PUSH3 0x461BCD PUSH1 0xE5 SHL DUP2 MSTORE PUSH1 0x4 ADD PUSH2 0x6E5 SWAP1 PUSH2 0x1E2F JUMP JUMPDEST PUSH1 0x1 PUSH1 0x1 PUSH1 0xA0 SHL SUB DUP2 AND PUSH2 0x18EF JUMPI PUSH1 0x40 MLOAD PUSH3 0x461BCD PUSH1 0xE5 SHL DUP2 MSTORE PUSH1 0x20 PUSH1 0x4 DUP3 ADD MSTORE PUSH1 0x1D PUSH1 0x24 DUP3 ADD MSTORE PUSH32 0x43616E6E6F7420617574686F72697A65207A65726F2061646472657373000000 PUSH1 0x44 DUP3 ADD MSTORE PUSH1 0x64 ADD PUSH2 0x6E5 JUMP JUMPDEST PUSH1 0x0 DUP3 DUP2 MSTORE PUSH1 0x20 DUP2 DUP2 MSTORE PUSH1 0x40 DUP1 DUP4 KECCAK256 PUSH1 0x5 ADD DUP1 SLOAD PUSH1 0x1 DUP2 ADD DUP3 SSTORE SWAP1 DUP5 MSTORE SWAP2 DUP4 KECCAK256 SWAP1 SWAP2 ADD DUP1 SLOAD PUSH1 0x1 PUSH1 0x1 PUSH1 0xA0 SHL SUB NOT AND PUSH1 0x1 PUSH1 0x1 PUSH1 0xA0 SHL SUB DUP6 AND SWAP1 DUP2 OR SWAP1 SWAP2 SSTORE SWAP1 MLOAD SWAP1 SWAP2 DUP5 SWAP2 PUSH32 0x32A4407627195670DD4C989EE38441E11AB643CCD4759C25D9C0BD6A635039DB SWAP2 SWAP1 LOG3 POP POP JUMP JUMPDEST DUP3 DUP1 SLOAD DUP3 DUP3 SSTORE SWAP1 PUSH1 0x0 MSTORE PUSH1 0x20 PUSH1 0x0 KECCAK256 SWAP1 DUP2 ADD SWAP3 DUP3 ISZERO PUSH2 0x1997 JUMPI SWAP2 PUSH1 0x20 MUL DUP3 ADD JUMPDEST DUP3 DUP2 GT ISZERO PUSH2 0x1997 JUMPI DUP3 MLOAD DUP3 SSTORE SWAP2 PUSH1 0x20 ADD SWAP2 SWAP1 PUSH1 0x1 ADD SWAP1 PUSH2 0x197C JUMP JUMPDEST POP PUSH2 0x19A3 SWAP3 SWAP2 POP PUSH2 0x1A4E JUMP JUMPDEST POP SWAP1 JUMP JUMPDEST DUP3 DUP1 SLOAD DUP3 DUP3 SSTORE SWAP1 PUSH1 0x0 MSTORE PUSH1 0x20 PUSH1 0x0 KECCAK256 SWAP1 DUP2 ADD SWAP3 DUP3 ISZERO PUSH2 0x19ED JUMPI SWAP2 PUSH1 0x20 MUL DUP3 ADD JUMPDEST DUP3 DUP2 GT ISZERO PUSH2 0x19ED JUMPI DUP3 MLOAD DUP3 SWAP1 PUSH2 0x19DD SWAP1 DUP3 PUSH2 0x25A7 JUMP JUMPDEST POP SWAP2 PUSH1 0x20 ADD SWAP2 SWAP1 PUSH1 0x1 ADD SWAP1 PUSH2 0x19C7 JUMP JUMPDEST POP PUSH2 0x19A3 SWAP3 SWAP2 POP PUSH2 0x1A63 JUMP JUMPDEST DUP3 DUP1 SLOAD DUP3 DUP3 SSTORE SWAP1 PUSH1 0x0 MSTORE PUSH1 0x20 PUSH1 0x0 KECCAK256 SWAP1 DUP2 ADD SWAP3 DUP3 ISZERO PUSH2 0x1997 JUMPI SWAP2 PUSH1 0x20 MUL DUP3 ADD JUMPDEST DUP3 DUP2 GT ISZERO PUSH2 0x1997 JUMPI DUP3 MLOAD DUP3 SLOAD PUSH1 0x1 PUSH1 0x1 PUSH1 0xA0 SHL SUB NOT AND PUSH1 0x1 PUSH1 0x1 PUSH1 0xA0 SHL SUB SWAP1 SWAP2 AND OR DUP3 SSTORE PUSH1 0x20 SWAP1 SWAP3 ADD SWAP2 PUSH1 0x1 SWAP1 SWAP2 ADD SWAP1 PUSH2 0x1A19 JUMP JUMPDEST JUMPDEST DUP1 DUP3 GT ISZERO PUSH2 0x19A3 JUMPI PUSH1 0x0 DUP2 SSTORE PUSH1 0x1 ADD PUSH2 0x1A4F JUMP JUMPDEST DUP1 DUP3 GT ISZERO PUSH2 0x19A3 JUMPI PUSH1 0x0 PUSH2 0x1A77 DUP3 DUP3 PUSH2 0x1A80 JUMP JUMPDEST POP PUSH1 0x1 ADD PUSH2 0x1A63 JUMP JUMPDEST POP DUP1 SLOAD PUSH2 0x1A8C SWAP1 PUSH2 0x1DF5 JUMP JUMPDEST PUSH1 0x0 DUP3 SSTORE DUP1 PUSH1 0x1F LT PUSH2 0x1A9C JUMPI POP POP JUMP JUMPDEST PUSH1 0x1F ADD PUSH1 0x20 SWAP1 DIV SWAP1 PUSH1 0x0 MSTORE PUSH1 0x20 PUSH1 0x0 KECCAK256 SWAP1 DUP2 ADD SWAP1 PUSH2 0x1ABA SWAP2 SWAP1 PUSH2 0x1A4E JUMP JUMPDEST POP JUMP JUMPDEST PUSH1 0x0 JUMPDEST DUP4 DUP2 LT ISZERO PUSH2 0x1AD8 JUMPI DUP2 DUP2 ADD MLOAD DUP4 DUP3 ADD MSTORE PUSH1 0x20 ADD PUSH2 0x1AC0 JUMP JUMPDEST POP POP PUSH1 0x0 SWAP2 ADD MSTORE JUMP JUMPDEST PUSH1 0x0 DUP2 MLOAD DUP1 DUP5 MSTORE PUSH2 0x1AF9 DUP2 PUSH1 0x20 DUP7 ADD PUSH1 0x20 DUP7 ADD PUSH2 0x1ABD JUMP JUMPDEST PUSH1 0x1F ADD PUSH1 0x1F NOT AND SWAP3 SWAP1 SWAP3 ADD PUSH1 0x20 ADD SWAP3 SWAP2 POP POP JUMP JUMPDEST PUSH1 0x20 DUP2 MSTORE PUSH1 0x0 PUSH2 0x1B20 PUSH1 0x20 DUP4 ADD DUP5 PUSH2 0x1AE1 JUMP JUMPDEST SWAP4 SWAP3 POP POP POP JUMP JUMPDEST PUSH1 0x0 PUSH1 0x20 DUP3 DUP5 SUB SLT ISZERO PUSH2 0x1B39 JUMPI PUSH1 0x0 DUP1 REVERT JUMPDEST POP CALLDATALOAD SWAP2 SWAP1 POP JUMP JUMPDEST PUSH1 0x0 PUSH1 0xA0 DUP3 ADD PUSH1 0x1 DUP1 PUSH1 0xA0 SHL SUB DUP9 AND DUP4 MSTORE PUSH1 0x20 DUP8 DUP2 DUP6 ADD MSTORE DUP7 PUSH1 0x40 DUP6 ADD MSTORE DUP6 PUSH1 0x60 DUP6 ADD MSTORE PUSH1 0xA0 PUSH1 0x80 DUP6 ADD MSTORE DUP2 DUP6 MLOAD DUP1 DUP5 MSTORE PUSH1 0xC0 DUP7 ADD SWAP2 POP PUSH1 0xC0 DUP2 PUSH1 0x5 SHL DUP8 ADD ADD SWAP4 POP DUP3 DUP8 ADD PUSH1 0x0 JUMPDEST DUP3 DUP2 LT ISZERO PUSH2 0x1BB6 JUMPI PUSH1 0xBF NOT DUP9 DUP8 SUB ADD DUP5 MSTORE PUSH2 0x1BA4 DUP7 DUP4 MLOAD PUSH2 0x1AE1 JUMP JUMPDEST SWAP6 POP SWAP3 DUP5 ADD SWAP3 SWAP1 DUP5 ADD SWAP1 PUSH1 0x1 ADD PUSH2 0x1B88 JUMP JUMPDEST POP SWAP4 SWAP12 SWAP11 POP POP POP POP POP POP POP POP POP POP POP JUMP JUMPDEST PUSH1 0x20 DUP1 DUP3 MSTORE DUP3 MLOAD DUP3 DUP3 ADD DUP2 SWAP1 MSTORE PUSH1 0x0 SWAP2 SWAP1 DUP5 DUP3 ADD SWAP1 PUSH1 0x40 DUP6 ADD SWAP1 DUP5 JUMPDEST DUP2 DUP2 LT ISZERO PUSH2 0x1C08 JUMPI DUP4 MLOAD PUSH1 0x1 PUSH1 0x1 PUSH1 0xA0 SHL SUB AND DUP4 MSTORE SWAP3 DUP5 ADD SWAP3 SWAP2 DUP5 ADD SWAP2 PUSH1 0x1 ADD PUSH2 0x1BE3 JUMP JUMPDEST POP SWAP1 SWAP7 SWAP6 POP POP POP POP POP POP JUMP JUMPDEST DUP1 CALLDATALOAD PUSH1 0x1 PUSH1 0x1 PUSH1 0xA0 SHL SUB DUP2 AND DUP2 EQ PUSH2 0x1C2B JUMPI PUSH1 0x0 DUP1 REVERT JUMPDEST SWAP2 SWAP1 POP JUMP JUMPDEST PUSH1 0x0 DUP1 PUSH1 0x40 DUP4 DUP6 SUB SLT ISZERO PUSH2 0x1C43 JUMPI PUSH1 0x0 DUP1 REVERT JUMPDEST PUSH2 0x1C4C DUP4 PUSH2 0x1C14 JUMP JUMPDEST SWAP5 PUSH1 0x20 SWAP4 SWAP1 SWAP4 ADD CALLDATALOAD SWAP4 POP POP POP JUMP JUMPDEST PUSH1 0x0 DUP1 DUP4 PUSH1 0x1F DUP5 ADD SLT PUSH2 0x1C6C JUMPI PUSH1 0x0 DUP1 REVERT JUMPDEST POP DUP2 CALLDATALOAD PUSH1 0x1 PUSH1 0x1 PUSH1 0x40 SHL SUB DUP2 GT ISZERO PUSH2 0x1C83 JUMPI PUSH1 0x0 DUP1 REVERT JUMPDEST PUSH1 0x20 DUP4 ADD SWAP2 POP DUP4 PUSH1 0x20 DUP3 PUSH1 0x5 SHL DUP6 ADD ADD GT ISZERO PUSH2 0x1C9E JUMPI PUSH1 0x0 DUP1 REVERT JUMPDEST SWAP3 POP SWAP3 SWAP1 POP JUMP JUMPDEST PUSH1 0x0 DUP1 PUSH1 0x0 PUSH1 0x40 DUP5 DUP7 SUB SLT ISZERO PUSH2 0x1CBA JUMPI PUSH1 0x0 DUP1 REVERT JUMPDEST DUP4 CALLDATALOAD SWAP3 POP PUSH1 0x20 DUP5 ADD CALLDATALOAD PUSH1 0x1 PUSH1 0x1 PUSH1 0x40 SHL SUB DUP2 GT ISZERO PUSH2 0x1CD7 JUMPI PUSH1 0x0 DUP1 REVERT JUMPDEST PUSH2 0x1CE3 DUP7 DUP3 DUP8 ADD PUSH2 0x1C5A JUMP JUMPDEST SWAP5 SWAP8 SWAP1 SWAP7 POP SWAP4 SWAP5 POP POP POP POP JUMP JUMPDEST PUSH1 0x0 DUP1 PUSH1 0x0 DUP1 PUSH1 0x60 DUP6 DUP8 SUB SLT ISZERO PUSH2 0x1D06 JUMPI PUSH1 0x0 DUP1 REVERT JUMPDEST PUSH2 0x1D0F DUP6 PUSH2 0x1C14 JUMP JUMPDEST SWAP4 POP PUSH1 0x20 DUP6 ADD CALLDATALOAD SWAP3 POP PUSH1 0x40 DUP6 ADD CALLDATALOAD PUSH1 0x1 PUSH1 0x1 PUSH1 0x40 SHL SUB DUP2 GT ISZERO PUSH2 0x1D31 JUMPI PUSH1 0x0 DUP1 REVERT JUMPDEST PUSH2 0x1D3D DUP8 DUP3 DUP9 ADD PUSH2 0x1C5A JUMP JUMPDEST SWAP6 SWAP9 SWAP5 SWAP8 POP SWAP6 POP POP POP POP JUMP JUMPDEST PUSH1 0x0 DUP1 PUSH1 0x0 DUP1 PUSH1 0x0 PUSH1 0x60 DUP7 DUP9 SUB SLT ISZERO PUSH2 0x1D61 JUMPI PUSH1 0x0 DUP1 REVERT JUMPDEST DUP6 CALLDATALOAD PUSH1 0x1 PUSH1 0x1 PUSH1 0x40 SHL SUB DUP1 DUP3 GT ISZERO PUSH2 0x1D78 JUMPI PUSH1 0x0 DUP1 REVERT JUMPDEST PUSH2 0x1D84 DUP10 DUP4 DUP11 ADD PUSH2 0x1C5A JUMP JUMPDEST SWAP1 SWAP8 POP SWAP6 POP PUSH1 0x20 DUP9 ADD CALLDATALOAD SWAP2 POP DUP1 DUP3 GT ISZERO PUSH2 0x1D9D JUMPI PUSH1 0x0 DUP1 REVERT JUMPDEST POP PUSH2 0x1DAA DUP9 DUP3 DUP10 ADD PUSH2 0x1C5A JUMP JUMPDEST SWAP1 SWAP5 POP SWAP3 POP PUSH2 0x1DBD SWAP1 POP PUSH1 0x40 DUP8 ADD PUSH2 0x1C14 JUMP JUMPDEST SWAP1 POP SWAP3 SWAP6 POP SWAP3 SWAP6 SWAP1 SWAP4 POP JUMP JUMPDEST PUSH1 0x0 DUP1 PUSH1 0x40 DUP4 DUP6 SUB SLT ISZERO PUSH2 0x1DDC JUMPI PUSH1 0x0 DUP1 REVERT JUMPDEST DUP3 CALLDATALOAD SWAP2 POP PUSH2 0x1DEC PUSH1 0x20 DUP5 ADD PUSH2 0x1C14 JUMP JUMPDEST SWAP1 POP SWAP3 POP SWAP3 SWAP1 POP JUMP JUMPDEST PUSH1 0x1 DUP2 DUP2 SHR SWAP1 DUP3 AND DUP1 PUSH2 0x1E09 JUMPI PUSH1 0x7F DUP3 AND SWAP2 POP JUMPDEST PUSH1 0x20 DUP3 LT DUP2 SUB PUSH2 0x1E29 JUMPI PUSH4 0x4E487B71 PUSH1 0xE0 SHL PUSH1 0x0 MSTORE PUSH1 0x22 PUSH1 0x4 MSTORE PUSH1 0x24 PUSH1 0x0 REVERT JUMPDEST POP SWAP2 SWAP1 POP JUMP JUMPDEST PUSH1 0x20 DUP1 DUP3 MSTORE PUSH1 0xF SWAP1 DUP3 ADD MSTORE PUSH15 0x2737BA1030B3B2B73A1037BBB732B9 PUSH1 0x89 SHL PUSH1 0x40 DUP3 ADD MSTORE PUSH1 0x60 ADD SWAP1 JUMP JUMPDEST DUP2 DUP4 MSTORE DUP2 DUP2 PUSH1 0x20 DUP6 ADD CALLDATACOPY POP PUSH1 0x0 DUP3 DUP3 ADD PUSH1 0x20 SWAP1 DUP2 ADD SWAP2 SWAP1 SWAP2 MSTORE PUSH1 0x1F SWAP1 SWAP2 ADD PUSH1 0x1F NOT AND SWAP1 SWAP2 ADD ADD SWAP1 JUMP JUMPDEST PUSH1 0x0 DUP1 DUP4 CALLDATALOAD PUSH1 0x1E NOT DUP5 CALLDATASIZE SUB ADD DUP2 SLT PUSH2 0x1E98 JUMPI PUSH1 0x0 DUP1 REVERT JUMPDEST DUP4 ADD PUSH1 0x20 DUP2 ADD SWAP3 POP CALLDATALOAD SWAP1 POP PUSH1 0x1 PUSH1 0x1 PUSH1 0x40 SHL SUB DUP2 GT ISZERO PUSH2 0x1EB7 JUMPI PUSH1 0x0 DUP1 REVERT JUMPDEST DUP1 CALLDATASIZE SUB DUP3 SGT ISZERO PUSH2 0x1C9E JUMPI PUSH1 0x0 DUP1 REVERT JUMPDEST PUSH1 0x20 DUP1 DUP3 MSTORE DUP2 DUP2 ADD DUP4 SWAP1 MSTORE PUSH1 0x0 SWAP1 PUSH1 0x40 PUSH1 0x5 DUP6 SWAP1 SHL DUP5 ADD DUP2 ADD SWAP1 DUP5 ADD DUP7 DUP5 JUMPDEST DUP8 DUP2 LT ISZERO PUSH2 0x1F1F JUMPI DUP7 DUP5 SUB PUSH1 0x3F NOT ADD DUP4 MSTORE PUSH2 0x1F00 DUP3 DUP11 PUSH2 0x1E81 JUMP JUMPDEST PUSH2 0x1F0B DUP7 DUP3 DUP5 PUSH2 0x1E58 JUMP JUMPDEST SWAP6 POP POP POP SWAP2 DUP5 ADD SWAP2 SWAP1 DUP5 ADD SWAP1 PUSH1 0x1 ADD PUSH2 0x1EE5 JUMP JUMPDEST POP SWAP2 SWAP8 SWAP7 POP POP POP POP POP POP POP JUMP JUMPDEST PUSH4 0x4E487B71 PUSH1 0xE0 SHL PUSH1 0x0 MSTORE PUSH1 0x41 PUSH1 0x4 MSTORE PUSH1 0x24 PUSH1 0x0 REVERT JUMPDEST PUSH1 0x40 DUP1 MLOAD SWAP1 DUP2 ADD PUSH1 0x1 PUSH1 0x1 PUSH1 0x40 SHL SUB DUP2 GT DUP3 DUP3 LT OR ISZERO PUSH2 0x1F64 JUMPI PUSH2 0x1F64 PUSH2 0x1F2C JUMP JUMPDEST PUSH1 0x40 MSTORE SWAP1 JUMP JUMPDEST PUSH1 0x40 MLOAD PUSH1 0xA0 DUP2 ADD PUSH1 0x1 PUSH1 0x1 PUSH1 0x40 SHL SUB DUP2 GT DUP3 DUP3 LT OR ISZERO PUSH2 0x1F64 JUMPI PUSH2 0x1F64 PUSH2 0x1F2C JUMP JUMPDEST PUSH1 0x40 MLOAD PUSH1 0x1F DUP3 ADD PUSH1 0x1F NOT AND DUP2 ADD PUSH1 0x1 PUSH1 0x1 PUSH1 0x40 SHL SUB DUP2 GT DUP3 DUP3 LT OR ISZERO PUSH2 0x1FB4 JUMPI PUSH2 0x1FB4 PUSH2 0x1F2C JUMP JUMPDEST PUSH1 0x40 MSTORE SWAP2 SWAP1 POP JUMP JUMPDEST PUSH1 0x0 PUSH1 0x1 PUSH1 0x1 PUSH1 0x40 SHL SUB DUP3 GT ISZERO PUSH2 0x1FD5 JUMPI PUSH2 0x1FD5 PUSH2 0x1F2C JUMP JUMPDEST POP PUSH1 0x5 SHL PUSH1 0x20 ADD SWAP1 JUMP JUMPDEST DUP1 MLOAD DUP1 ISZERO ISZERO DUP2 EQ PUSH2 0x1C2B JUMPI PUSH1 0x0 DUP1 REVERT JUMPDEST PUSH1 0x0 PUSH1 0x20 DUP1 DUP4 DUP6 SUB SLT ISZERO PUSH2 0x2002 JUMPI PUSH1 0x0 DUP1 REVERT JUMPDEST DUP3 MLOAD PUSH1 0x1 PUSH1 0x1 PUSH1 0x40 SHL SUB DUP2 GT ISZERO PUSH2 0x2018 JUMPI PUSH1 0x0 DUP1 REVERT JUMPDEST DUP4 ADD PUSH1 0x1F DUP2 ADD DUP6 SGT PUSH2 0x2029 JUMPI PUSH1 0x0 DUP1 REVERT JUMPDEST DUP1 MLOAD PUSH2 0x203C PUSH2 0x2037 DUP3 PUSH2 0x1FBC JUMP JUMPDEST PUSH2 0x1F8C JUMP JUMPDEST DUP2 DUP2 MSTORE PUSH1 0x6 SWAP2 SWAP1 SWAP2 SHL DUP3 ADD DUP4 ADD SWAP1 DUP4 DUP2 ADD SWAP1 DUP8 DUP4 GT ISZERO PUSH2 0x205B JUMPI PUSH1 0x0 DUP1 REVERT JUMPDEST SWAP3 DUP5 ADD SWAP3 JUMPDEST DUP3 DUP5 LT ISZERO PUSH2 0x20A6 JUMPI PUSH1 0x40 DUP5 DUP10 SUB SLT ISZERO PUSH2 0x2079 JUMPI PUSH1 0x0 DUP1 DUP2 REVERT JUMPDEST PUSH2 0x2081 PUSH2 0x1F42 JUMP JUMPDEST DUP5 MLOAD DUP2 MSTORE PUSH2 0x2090 DUP7 DUP7 ADD PUSH2 0x1FDF JUMP JUMPDEST DUP2 DUP8 ADD MSTORE DUP3 MSTORE PUSH1 0x40 SWAP4 SWAP1 SWAP4 ADD SWAP3 SWAP1 DUP5 ADD SWAP1 PUSH2 0x2060 JUMP JUMPDEST SWAP8 SWAP7 POP POP POP POP POP POP POP JUMP JUMPDEST PUSH4 0x4E487B71 PUSH1 0xE0 SHL PUSH1 0x0 MSTORE PUSH1 0x32 PUSH1 0x4 MSTORE PUSH1 0x24 PUSH1 0x0 REVERT JUMPDEST PUSH1 0x0 PUSH1 0x1 DUP3 ADD PUSH2 0x20E7 JUMPI PUSH4 0x4E487B71 PUSH1 0xE0 SHL PUSH1 0x0 MSTORE PUSH1 0x11 PUSH1 0x4 MSTORE PUSH1 0x24 PUSH1 0x0 REVERT JUMPDEST POP PUSH1 0x1 ADD SWAP1 JUMP JUMPDEST PUSH1 0x0 DUP3 PUSH2 0x210B JUMPI PUSH4 0x4E487B71 PUSH1 0xE0 SHL PUSH1 0x0 MSTORE PUSH1 0x12 PUSH1 0x4 MSTORE PUSH1 0x24 PUSH1 0x0 REVERT JUMPDEST POP MOD SWAP1 JUMP JUMPDEST PUSH1 0x0 DUP2 MLOAD DUP1 DUP5 MSTORE PUSH1 0x20 DUP1 DUP6 ADD SWAP5 POP DUP1 DUP5 ADD PUSH1 0x0 JUMPDEST DUP4 DUP2 LT ISZERO PUSH2 0x2140 JUMPI DUP2 MLOAD DUP8 MSTORE SWAP6 DUP3 ADD SWAP6 SWAP1 DUP3 ADD SWAP1 PUSH1 0x1 ADD PUSH2 0x2124 JUMP JUMPDEST POP SWAP5 SWAP6 SWAP5 POP POP POP POP POP JUMP JUMPDEST PUSH1 0x40 DUP2 MSTORE PUSH1 0x0 PUSH2 0x215E PUSH1 0x40 DUP4 ADD DUP6 PUSH2 0x2110 JUMP JUMPDEST DUP3 DUP2 SUB PUSH1 0x20 DUP5 ADD MSTORE PUSH2 0x2170 DUP2 DUP6 PUSH2 0x2110 JUMP JUMPDEST SWAP6 SWAP5 POP POP POP POP POP JUMP JUMPDEST PUSH1 0x0 PUSH1 0x1 PUSH1 0x1 PUSH1 0x40 SHL SUB DUP3 GT ISZERO PUSH2 0x2192 JUMPI PUSH2 0x2192 PUSH2 0x1F2C JUMP JUMPDEST POP PUSH1 0x1F ADD PUSH1 0x1F NOT AND PUSH1 0x20 ADD SWAP1 JUMP JUMPDEST DUP1 MLOAD PUSH1 0x1 PUSH1 0x1 PUSH1 0x80 SHL SUB NOT DUP2 AND DUP2 EQ PUSH2 0x1C2B JUMPI PUSH1 0x0 DUP1 REVERT JUMPDEST PUSH1 0x0 PUSH1 0x20 DUP1 DUP4 DUP6 SUB SLT ISZERO PUSH2 0x21CB JUMPI PUSH1 0x0 DUP1 REVERT JUMPDEST DUP3 MLOAD PUSH1 0x1 PUSH1 0x1 PUSH1 0x40 SHL SUB DUP1 DUP3 GT ISZERO PUSH2 0x21E2 JUMPI PUSH1 0x0 DUP1 REVERT JUMPDEST DUP2 DUP6 ADD SWAP2 POP DUP6 PUSH1 0x1F DUP4 ADD SLT PUSH2 0x21F6 JUMPI PUSH1 0x0 DUP1 REVERT JUMPDEST DUP2 MLOAD PUSH2 0x2204 PUSH2 0x2037 DUP3 PUSH2 0x1FBC JUMP JUMPDEST DUP2 DUP2 MSTORE PUSH1 0x5 SWAP2 SWAP1 SWAP2 SHL DUP4 ADD DUP5 ADD SWAP1 DUP5 DUP2 ADD SWAP1 DUP9 DUP4 GT ISZERO PUSH2 0x2223 JUMPI PUSH1 0x0 DUP1 REVERT JUMPDEST DUP6 DUP6 ADD JUMPDEST DUP4 DUP2 LT ISZERO PUSH2 0x22FE JUMPI DUP1 MLOAD DUP6 DUP2 GT ISZERO PUSH2 0x223E JUMPI PUSH1 0x0 DUP1 REVERT JUMPDEST DUP7 ADD PUSH1 0xA0 DUP2 DUP13 SUB PUSH1 0x1F NOT ADD SLT ISZERO PUSH2 0x2254 JUMPI PUSH1 0x0 DUP1 REVERT JUMPDEST PUSH2 0x225C PUSH2 0x1F6A JUMP JUMPDEST DUP9 DUP3 ADD MLOAD DUP2 MSTORE PUSH1 0x40 DUP1 DUP4 ADD MLOAD DUP11 DUP4 ADD MSTORE PUSH1 0x60 DUP4 ADD MLOAD DUP9 DUP2 GT ISZERO PUSH2 0x227F JUMPI PUSH1 0x0 DUP1 DUP2 REVERT JUMPDEST DUP4 ADD PUSH1 0x3F DUP2 ADD DUP15 SGT PUSH2 0x2291 JUMPI PUSH1 0x0 DUP1 DUP2 REVERT JUMPDEST DUP11 DUP2 ADD MLOAD PUSH2 0x22A1 PUSH2 0x2037 DUP3 PUSH2 0x2179 JUMP JUMPDEST DUP2 DUP2 MSTORE DUP16 DUP5 DUP4 DUP6 ADD ADD GT ISZERO PUSH2 0x22B6 JUMPI PUSH1 0x0 DUP1 DUP2 REVERT JUMPDEST PUSH2 0x22C5 DUP3 DUP15 DUP4 ADD DUP7 DUP7 ADD PUSH2 0x1ABD JUMP JUMPDEST DUP1 DUP5 DUP7 ADD MSTORE POP POP POP POP PUSH1 0x80 PUSH2 0x22DB DUP2 DUP5 ADD PUSH2 0x21A0 JUMP JUMPDEST PUSH1 0x60 DUP4 ADD MSTORE PUSH2 0x22EC PUSH1 0xA0 DUP5 ADD PUSH2 0x1FDF JUMP JUMPDEST SWAP1 DUP3 ADD MSTORE DUP5 MSTORE POP SWAP2 DUP7 ADD SWAP2 DUP7 ADD PUSH2 0x2227 JUMP JUMPDEST POP SWAP9 SWAP8 POP POP POP POP POP POP POP POP JUMP JUMPDEST PUSH1 0x40 DUP2 MSTORE PUSH1 0x0 PUSH2 0x231E PUSH1 0x40 DUP4 ADD DUP6 PUSH2 0x2110 JUMP JUMPDEST PUSH1 0x20 DUP4 DUP3 SUB DUP2 DUP6 ADD MSTORE DUP2 DUP6 SLOAD DUP1 DUP5 MSTORE DUP3 DUP5 ADD SWAP2 POP PUSH1 0x5 DUP4 DUP3 DUP3 SHL DUP7 ADD ADD PUSH1 0x0 DUP10 DUP2 MSTORE DUP6 DUP2 KECCAK256 DUP2 JUMPDEST DUP6 DUP2 LT ISZERO PUSH2 0x23DC JUMPI PUSH1 0x1F NOT DUP10 DUP6 SUB ADD DUP8 MSTORE DUP3 DUP3 SLOAD PUSH2 0x2362 DUP2 PUSH2 0x1DF5 JUMP JUMPDEST DUP1 DUP8 MSTORE PUSH1 0x1 DUP3 DUP2 AND DUP1 ISZERO PUSH2 0x237D JUMPI PUSH1 0x1 DUP2 EQ PUSH2 0x2396 JUMPI PUSH2 0x23C5 JUMP JUMPDEST PUSH1 0xFF NOT DUP5 AND DUP10 DUP15 ADD MSTORE DUP3 ISZERO ISZERO DUP11 SHL DUP10 ADD DUP14 ADD SWAP5 POP PUSH2 0x23C5 JUMP JUMPDEST DUP7 DUP9 MSTORE DUP13 DUP9 KECCAK256 DUP9 JUMPDEST DUP5 DUP2 LT ISZERO PUSH2 0x23BD JUMPI DUP2 SLOAD DUP16 DUP3 DUP14 ADD ADD MSTORE DUP4 DUP3 ADD SWAP2 POP DUP15 DUP2 ADD SWAP1 POP PUSH2 0x239E JUMP JUMPDEST DUP11 ADD DUP15 ADD SWAP6 POP POP JUMPDEST POP SWAP10 DUP12 ADD SWAP10 SWAP3 SWAP7 POP POP POP SWAP2 SWAP1 SWAP2 ADD SWAP1 PUSH1 0x1 ADD PUSH2 0x2345 JUMP JUMPDEST POP SWAP2 SWAP12 SWAP11 POP POP POP POP POP POP POP POP POP POP POP JUMP JUMPDEST PUSH1 0x0 PUSH2 0x23FB PUSH2 0x2037 DUP5 PUSH2 0x1FBC JUMP JUMPDEST DUP1 DUP5 DUP3 MSTORE PUSH1 0x20 DUP1 DUP4 ADD SWAP3 POP DUP6 PUSH1 0x5 SHL DUP6 ADD CALLDATASIZE DUP2 GT ISZERO PUSH2 0x2419 JUMPI PUSH1 0x0 DUP1 REVERT JUMPDEST DUP6 JUMPDEST DUP2 DUP2 LT ISZERO PUSH2 0x2490 JUMPI DUP1 CALLDATALOAD PUSH1 0x1 PUSH1 0x1 PUSH1 0x40 SHL SUB DUP2 GT ISZERO PUSH2 0x243A JUMPI PUSH1 0x0 DUP1 DUP2 REVERT JUMPDEST DUP8 ADD CALLDATASIZE PUSH1 0x1F DUP3 ADD SLT PUSH2 0x244C JUMPI PUSH1 0x0 DUP1 DUP2 REVERT JUMPDEST DUP1 CALLDATALOAD PUSH2 0x245A PUSH2 0x2037 DUP3 PUSH2 0x2179 JUMP JUMPDEST DUP2 DUP2 MSTORE CALLDATASIZE DUP7 DUP4 DUP6 ADD ADD GT ISZERO PUSH2 0x246F JUMPI PUSH1 0x0 DUP1 DUP2 REVERT JUMPDEST DUP2 DUP7 DUP5 ADD DUP8 DUP4 ADD CALLDATACOPY PUSH1 0x0 SWAP2 DUP2 ADD DUP7 ADD SWAP2 SWAP1 SWAP2 MSTORE DUP7 MSTORE POP SWAP4 DUP3 ADD SWAP4 DUP3 ADD PUSH2 0x241B JUMP JUMPDEST POP SWAP2 SWAP7 SWAP6 POP POP POP POP POP POP JUMP JUMPDEST PUSH1 0x40 DUP2 MSTORE PUSH1 0x0 PUSH2 0x24AF PUSH1 0x40 DUP4 ADD DUP7 PUSH2 0x2110 JUMP JUMPDEST PUSH1 0x20 DUP4 DUP3 SUB DUP2 DUP6 ADD MSTORE DUP2 DUP6 DUP4 MSTORE DUP2 DUP4 ADD SWAP1 POP DUP2 DUP7 PUSH1 0x5 SHL DUP5 ADD ADD DUP8 PUSH1 0x0 JUMPDEST DUP9 DUP2 LT ISZERO PUSH2 0x2507 JUMPI DUP6 DUP4 SUB PUSH1 0x1F NOT ADD DUP5 MSTORE PUSH2 0x24E8 DUP3 DUP12 PUSH2 0x1E81 JUMP JUMPDEST PUSH2 0x24F3 DUP6 DUP3 DUP5 PUSH2 0x1E58 JUMP JUMPDEST SWAP6 DUP8 ADD SWAP6 SWAP5 POP POP POP SWAP1 DUP5 ADD SWAP1 PUSH1 0x1 ADD PUSH2 0x24CD JUMP JUMPDEST POP SWAP1 SWAP10 SWAP9 POP POP POP POP POP POP POP POP POP JUMP JUMPDEST PUSH1 0x20 DUP1 DUP3 MSTORE DUP3 MLOAD DUP3 DUP3 ADD DUP2 SWAP1 MSTORE PUSH1 0x0 SWAP2 SWAP1 DUP5 DUP3 ADD SWAP1 PUSH1 0x40 DUP6 ADD SWAP1 DUP5 JUMPDEST DUP2 DUP2 LT ISZERO PUSH2 0x1C08 JUMPI DUP4 MLOAD PUSH1 0x1 PUSH1 0x1 PUSH1 0x80 SHL SUB NOT AND DUP4 MSTORE SWAP3 DUP5 ADD SWAP3 SWAP2 DUP5 ADD SWAP2 PUSH1 0x1 ADD PUSH2 0x2532 JUMP JUMPDEST PUSH1 0x1F DUP3 GT ISZERO PUSH2 0x25A2 JUMPI PUSH1 0x0 DUP2 DUP2 MSTORE PUSH1 0x20 DUP2 KECCAK256 PUSH1 0x1F DUP6 ADD PUSH1 0x5 SHR DUP2 ADD PUSH1 0x20 DUP7 LT ISZERO PUSH2 0x257F JUMPI POP DUP1 JUMPDEST PUSH1 0x1F DUP6 ADD PUSH1 0x5 SHR DUP3 ADD SWAP2 POP JUMPDEST DUP2 DUP2 LT ISZERO PUSH2 0x259E JUMPI DUP3 DUP2 SSTORE PUSH1 0x1 ADD PUSH2 0x258B JUMP JUMPDEST POP POP POP JUMPDEST POP POP POP JUMP JUMPDEST DUP2 MLOAD PUSH1 0x1 PUSH1 0x1 PUSH1 0x40 SHL SUB DUP2 GT ISZERO PUSH2 0x25C0 JUMPI PUSH2 0x25C0 PUSH2 0x1F2C JUMP JUMPDEST PUSH2 0x25D4 DUP2 PUSH2 0x25CE DUP5 SLOAD PUSH2 0x1DF5 JUMP JUMPDEST DUP5 PUSH2 0x2558 JUMP JUMPDEST PUSH1 0x20 DUP1 PUSH1 0x1F DUP4 GT PUSH1 0x1 DUP2 EQ PUSH2 0x2609 JUMPI PUSH1 0x0 DUP5 ISZERO PUSH2 0x25F1 JUMPI POP DUP6 DUP4 ADD MLOAD JUMPDEST PUSH1 0x0 NOT PUSH1 0x3 DUP7 SWAP1 SHL SHR NOT AND PUSH1 0x1 DUP6 SWAP1 SHL OR DUP6 SSTORE PUSH2 0x259E JUMP JUMPDEST PUSH1 0x0 DUP6 DUP2 MSTORE PUSH1 0x20 DUP2 KECCAK256 PUSH1 0x1F NOT DUP7 AND SWAP2 JUMPDEST DUP3 DUP2 LT ISZERO PUSH2 0x2638 JUMPI DUP9 DUP7 ADD MLOAD DUP3 SSTORE SWAP5 DUP5 ADD SWAP5 PUSH1 0x1 SWAP1 SWAP2 ADD SWAP1 DUP5 ADD PUSH2 0x2619 JUMP JUMPDEST POP DUP6 DUP3 LT ISZERO PUSH2 0x2656 JUMPI DUP8 DUP6 ADD MLOAD PUSH1 0x0 NOT PUSH1 0x3 DUP9 SWAP1 SHL PUSH1 0xF8 AND SHR NOT AND DUP2 SSTORE JUMPDEST POP POP POP POP POP PUSH1 0x1 SWAP1 DUP2 SHL ADD SWAP1 SSTORE POP JUMP INVALID LOG2 PUSH5 0x6970667358 0x22 SLT KECCAK256 0x28 SDIV SGT DUP1 0xE5 PUSH29 0x84B138EB611F46FA7919FF1EC177C6E37D8F263CD4EC3EEEA2A364736F PUSH13 0x63430008140033000000000000 "},"gasEstimates":{"creation":{"codeDepositCost":"1976800","executionCost":"infinite","totalCost":"infinite"},"external":{"agents(uint256)":"11094","authorizeUsage(uint256,address)":"52807","authorizedUsersOf(uint256)":"infinite","clone(address,uint256,bytes[])":"infinite","clonePublic(address,uint256)":"502","getAgentInfo(uint256)":"infinite","mint(bytes[],string[],address)":"infinite","name()":"infinite","nextTokenId()":"2340","ownerOf(uint256)":"2569","symbol()":"infinite","totalAgents()":"2339","transfer(address,uint256,bytes[])":"infinite","transferPublic(address,uint256)":"443","update(uint256,bytes[])":"infinite","verifier()":"infinite"}},"methodIdentifiers":{"agents(uint256)":"513856c8","authorizeUsage(uint256,address)":"fa83d14e","authorizedUsersOf(uint256)":"1aeb542f","clone(address,uint256,bytes[])":"7289fdd6","clonePublic(address,uint256)":"98a9ce2e","getAgentInfo(uint256)":"19a6a6e9","mint(bytes[],string[],address)":"a5014452","name()":"06fdde03","nextTokenId()":"75794a3c","ownerOf(uint256)":"6352211e","symbol()":"95d89b41","totalAgents()":"c5053712","transfer(address,uint256,bytes[])":"dfdad7de","transferPublic(address,uint256)":"3481e7bf","update(uint256,bytes[])":"389f8754","verifier()":"2b7ac3f3"}},"storageLayout":{"storage":[{"astId":40,"contract":"contracts/DreamAgentNFT.sol:DreamAgentNFT","label":"agents","offset":0,"slot":"0","type":"t_mapping(t_uint256,t_struct(DreamAgent)35_storage)"},{"astId":43,"contract":"contracts/DreamAgentNFT.sol:DreamAgentNFT","label":"nextTokenId","offset":0,"slot":"1","type":"t_uint256"},{"astId":46,"contract":"contracts/DreamAgentNFT.sol:DreamAgentNFT","label":"totalAgents","offset":0,"slot":"2","type":"t_uint256"},{"astId":49,"contract":"contracts/DreamAgentNFT.sol:DreamAgentNFT","label":"name","offset":0,"slot":"3","type":"t_string_storage"},{"astId":52,"contract":"contracts/DreamAgentNFT.sol:DreamAgentNFT","label":"symbol","offset":0,"slot":"4","type":"t_string_storage"}],"types":{"t_address":{"encoding":"inplace","label":"address","numberOfBytes":"20"},"t_array(t_address)dyn_storage":{"base":"t_address","encoding":"dynamic_array","label":"address[]","numberOfBytes":"32"},"t_array(t_bytes32)dyn_storage":{"base":"t_bytes32","encoding":"dynamic_array","label":"bytes32[]","numberOfBytes":"32"},"t_array(t_string_storage)dyn_storage":{"base":"t_string_storage","encoding":"dynamic_array","label":"string[]","numberOfBytes":"32"},"t_bytes32":{"encoding":"inplace","label":"bytes32","numberOfBytes":"32"},"t_mapping(t_uint256,t_struct(DreamAgent)35_storage)":{"encoding":"mapping","key":"t_uint256","label":"mapping(uint256 => struct DreamAgentNFT.DreamAgent)","numberOfBytes":"32","value":"t_struct(DreamAgent)35_storage"},"t_string_storage":{"encoding":"bytes","label":"string","numberOfBytes":"32"},"t_struct(DreamAgent)35_storage":{"encoding":"inplace","label":"struct DreamAgentNFT.DreamAgent","members":[{"astId":17,"contract":"contracts/DreamAgentNFT.sol:DreamAgentNFT","label":"owner","offset":0,"slot":"0","type":"t_address"},{"astId":19,"contract":"contracts/DreamAgentNFT.sol:DreamAgentNFT","label":"createdAt","offset":0,"slot":"1","type":"t_uint256"},{"astId":21,"contract":"contracts/DreamAgentNFT.sol:DreamAgentNFT","label":"lastUpdated","offset":0,"slot":"2","type":"t_uint256"},{"astId":24,"contract":"contracts/DreamAgentNFT.sol:DreamAgentNFT","label":"dataDescriptions","offset":0,"slot":"3","type":"t_array(t_string_storage)dyn_storage"},{"astId":27,"contract":"contracts/DreamAgentNFT.sol:DreamAgentNFT","label":"dataHashes","offset":0,"slot":"4","type":"t_array(t_bytes32)dyn_storage"},{"astId":30,"contract":"contracts/DreamAgentNFT.sol:DreamAgentNFT","label":"authorizedUsers","offset":0,"slot":"5","type":"t_array(t_address)dyn_storage"},{"astId":32,"contract":"contracts/DreamAgentNFT.sol:DreamAgentNFT","label":"intelligenceLevel","offset":0,"slot":"6","type":"t_uint256"},{"astId":34,"contract":"contracts/DreamAgentNFT.sol:DreamAgentNFT","label":"dreamCount","offset":0,"slot":"7","type":"t_uint256"}],"numberOfBytes":"256"},"t_uint256":{"encoding":"inplace","label":"uint256","numberOfBytes":"32"}}},"userdoc":{"kind":"user","methods":{"authorizeUsage(uint256,address)":{"notice":"Authorize user to use agent (but not own)"},"clone(address,uint256,bytes[])":{"notice":"Clone agent (create copy with same intelligence)"},"mint(bytes[],string[],address)":{"notice":"Mint a new dream agent for a user"},"transfer(address,uint256,bytes[])":{"notice":"Transfer agent with intelligence to new owner"},"update(uint256,bytes[])":{"notice":"Update agent data with new dream information"},"verifier()":{"notice":"The verifier interface that this NFT uses"}},"notice":"Manages dream agents with encrypted intelligence stored in 0G Storage","version":1}}}}